:100000000C9462000C948A000C948A000C948A0070
:100010000C948A000C948A000C948A000C94780248
:100020000C948A000C948A000C948A000C948A0028
:100030000C948A000C948A000C948A000C948A0018
:100040000C942E020C948A000C94D7010C94B101EC
:100050000C948A000C948A000C948A000C948A00F8
:100060000C948A000C948A000000000025002800EF
:100070002B0000000000240027002A0004040404D0
:100080000404040402020202020203030303030342
:10009000010204081020408001020408102001021F
:1000A00004081020000000002300260029000000A2
:1000B0000008000201000003040700000000000027
:1000C0000000530C11241FBECFEFD8E0DEBFCDBF20
:1000D00011E0A0E0B1E0E8E3F3E202C005900D9288
:1000E000AE31B107D9F722E0AEE1B1E001C01D9217
:1000F000AB3AB207E1F710E0C2E6D0E004C02197C6
:10010000FE010E94CC0CC136D107C9F70E945204EF
:100110000C949A110C940000FC01918D828D98171B
:1001200061F0828DDF01A80FB11D5D968C91928DDB
:100130009F5F9F73928F90E008958FEF9FEF0895D8
:10014000FC01918D828D981731F0828DE80FF11DA1
:10015000858D90E008958FEF9FEF0895FC01918DBC
:10016000228D892F90E0805C9F4F821B91098F73B5
:100170009927089587E391E00E94AE0021E0892B42
:1001800009F420E0822F0895FC01848DDF01A80F7F
:10019000B11DA35ABF4F2C91848D90E001968F73AF
:1001A0009927848FA689B7892C93A089B1898C91CE
:1001B00080648C93938D848D981306C00288F38994
:1001C000E02D80818F7D80830895EF92FF920F93C1
:1001D0001F93CF93DF93EC0181E0888F9B8D8C8DF3
:1001E000981305C0E889F989808185FD24C0F62E21
:1001F0000B8D10E00F5F1F4F0F731127E02E8C8DBA
:10020000E8120CC00FB607FCFACFE889F9898081A3
:1002100085FFF5CFCE010E94C400F1CF8B8DFE018A
:10022000E80FF11DE35AFF4FF0820B8FEA89FB893B
:100230008081806207C0EE89FF896083E889F9893F
:1002400080818064808381E090E0DF91CF911F9175
:100250000F91FF90EF900895CF93DF93EC01888D7D
:100260008823C9F0EA89FB89808185FD05C0A889BA
:10027000B9898C9186FD0FC00FB607FCF5CF808140
:1002800085FFF2CFA889B9898C9185FFEDCFCE018A
:100290000E94C400E7CFDF91CF91089580E090E005
:1002A000892B29F00E94BA0081110C940000089556
:1002B000833081F028F4813099F08230A1F00895E4
:1002C0008730A9F08830B9F08430D1F48091800073
:1002D0008F7D03C0809180008F7780938000089588
:1002E00084B58F7702C084B58F7D84BD08958091D9
:1002F000B0008F7703C08091B0008F7D8093B000F5
:1003000008951F93CF93DF93282F30E0F901E25532
:10031000FF4F8491F901E057FF4FD491F901E45860
:10032000FF4FC491CC23C9F0162F81110E945801B0
:10033000EC2FF0E0EE0FFF1FE859FF4FA591B491AD
:100340008FB7F894111105C09C91ED2FE095E9232A
:1003500002C0EC91ED2BEC938FBFDF91CF911F91F9
:1003600008951F920F920FB60F9211242F933F936F
:100370004F935F936F937F938F939F93AF93BF93AD
:10038000EF93FF9387E391E00E94C400FF91EF9108
:10039000BF91AF919F918F917F916F915F914F919D
:1003A0003F912F910F900FBE0F901F9018951F92A5
:1003B0000F920FB60F9211242F938F939F93EF9369
:1003C000FF93E0914701F09148018081E0914D0158
:1003D000F0914E0182FD12C09081809150018F5F9B
:1003E0008F7320915101821751F0E0915001F0E09C
:1003F000E95CFE4F958F8093500101C08081FF9191
:10040000EF919F918F912F910F900FBE0F901F90A2
:1004100018953FB7F8948091230190912401A09101
:100420002501B091260126B5A89B05C02F3F19F0E4
:100430000196A11DB11D3FBFBA2FA92F982F882764
:10044000820F911DA11DB11DBC01CD0142E0660FBF
:10045000771F881F991F4A95D1F708951F920F9211
:100460000FB60F9211242F933F938F939F93AF93C7
:10047000BF9380911F0190912001A0912101B09123
:10048000220130911E0123E0230F2D3720F4019625
:10049000A11DB11D05C026E8230F0296A11DB11DA7
:1004A00020931E0180931F0190932001A0932101AE
:1004B000B09322018091230190912401A091250104
:1004C000B09126010196A11DB11D80932301909347
:1004D0002401A0932501B0932601BF91AF919F9174
:1004E0008F913F912F910F900FBE0F901F901895F5
:1004F0001F920F920FB60F9211242F933F934F9399
:100500005F936F937F938F939F93AF93BF93CF939B
:10051000DF93EF93FF932091D50130E0F901E2558D
:10052000FF4F8491F901E057FF4FD491F901E4584E
:10053000FF4FC491CC23A1F081110E945801EC2FF0
:10054000F0E0EE0FFF1FEC55FF4FA591B491EC9139
:10055000ED2331E020E009F430E0832F922F02C038
:1005600080E090E02091D9013091DA012F5F3F4F78
:100570003093DA012093D9012091D801253618F063
:1005800026E02093D4012091D4012430D9F128F41D
:10059000223069F02330D9F060C0253009F453C00F
:1005A000263009F05AC021E02093A50253C00097DD
:1005B00009F053C02091D9013091DA012436310578
:1005C00008F443C01092A5021092D8011DC08130DA
:1005D000910509F042C0E091D80121E02E0F20934F
:1005E000D801F0E02091D9013091DA01EE0FFF1F20
:1005F000EC52FE4F308727831092DA011092D90116
:1006000024E029C00097B9F4E091D80121E02E0F31
:100610002093D801F0E02091D9013091DA01EE0F5A
:10062000FF1FEC52FE4F308727831092DA011092A1
:10063000D90123E010C02091D9013091DA0125368B
:10064000310558F007C0009741F41092DA0110927A
:10065000D90103C025E02093D4012091D7012223A2
:10066000B9F0892B51F48091D601882321F0809133
:10067000D60161E009C02D9A0BC08091D601882374
:1006800031F08091D60160E00E94810101C02D9877
:10069000FF91EF91DF91CF91BF91AF919F918F919A
:1006A0007F916F915F914F913F912F910F900FBE6E
:1006B0000F901F901895CF92DF92EF92FF92CF93F9
:1006C000DF93EC01072E000C880B990B0E942C1075
:1006D0006B017C0120E030E040E45FE30E948B107E
:1006E00020E030E048E452E40E943F0D0E94B10D4A
:1006F000C617D707D4F020E030E040EA5FE3C70137
:10070000B6010E948B1020E030E048E452E40E94E1
:100710003F0D20E030E040E85FE30E94D30C0E94F0
:10072000B10D21E06C177D070CF420E0822F90E0E2
:10073000DF91CF91FF90EF90DF90CF900895CF920F
:10074000DF92EF92FF920F931F93CF93DF936C0191
:100750007A018B01C0E0D0E0CE15DF0589F0D80129
:100760006D918D01D601ED91FC910190F081E02D0C
:10077000C6010995892B11F47E0102C02196ECCFA8
:10078000C701DF91CF911F910F91FF90EF90DF9004
:10079000CF9008950E94DE0F009769F0FC01019050
:1007A0000020E9F73197AF01481B590BBC0187E3E3
:1007B00091E00C949F0380E090E008958F929F92C7
:1007C000AF92BF92CF92DF92EF92FF920F931F935F
:1007D000CF93DF93FC01C081D1812091330130910F
:1007E0003401C217D3070CF04BC09E01220F331FF8
:1007F000E0913101F0913201E20FF31F808091808E
:10080000C170DD27F1E0CF27209719F404E610E04E
:1008100002C00CE91FEF7A015B016C01040F151F88
:10082000B801C4010E945B03892B99F40E0D1F1DB2
:10083000B801C4010E945B03892B71F4B8016E0DED
:100840007F1DC4010E945B03892BE9F023E030E0A7
:1008500005C021E030E002C022E030E0F5018081F7
:1008600091810196821793073CF0F5011182108265
:10087000F60180819181019691838083CE0105C02C
:1008800081E090E002C08FEF9FEFDF91CF911F9149
:100890000F91FF90EF90DF90CF90BF90AF909F901F
:1008A0008F900895CF93DF93CDB7DEB7A9970FB69A
:1008B000F894DEBF0FBECDBF789484B5826084BD4E
:1008C00084B5816084BD85B5826085BD85B5816054
:1008D00085BD80916E00816080936E0010928100D2
:1008E000809181008260809381008091810081608D
:1008F000809381008091800081608093800080914E
:10090000B10084608093B1008091B00081608093D9
:10091000B00080917A00846080937A0080917A00A0
:10092000826080937A0080917A00816080937A005F
:1009300080917A00806880937A001092C100E091E3
:100940004701F091480182E08083E0914301F091FA
:1009500044011082E0914501F09146019FEC9083A3
:1009600010924F01E0914B01F0914C0196E0908381
:10097000E0914901F0914A01908190619083E0916A
:100980004901F0914A01908198609083E09149017A
:10099000F0914A01908190689083E0914901F09133
:1009A0004A0190819F7D9083F8948093B00080935A
:1009B000B10094E69093B3001092B200809370005F
:1009C00078948093D4011092D8018091D50190E061
:1009D000FC01E057FF4F2491FC01E458FF4F849144
:1009E0008823C9F090E0880F991FFC01EE58FF4F53
:1009F00045915491FC01E859FF4FA591B4919FB7DF
:100A0000F894FA0180812095822380838C91E22FD3
:100A1000E823EC939FBFE3E9F0E02491EFE7F0E0F7
:100A20008491882399F090E0880F991FFC01EE587B
:100A3000FF4FA591B491FC01E859FF4F8591949126
:100A40008FB7F894EC91E22BEC938FBF10E2212E3C
:100A5000312CCE0101966C01ABEDB1E0B0933201C7
:100A6000A09331018091D80190E09093340180935C
:100A700033018091A50290E0909336018093350177
:100A80008091D401853009F061C28091DD0190919F
:100A9000DE01885891098D35910588F48091D8013F
:100AA000843041F48091DF019091E0018097479775
:100AB00008F4B2C28091D801843408F0D6C1809184
:100AC000D8018A3108F452C08091DB019091DC0199
:100AD000843F914080F41092300110922F018FEFEB
:100AE0009FEFDC0180932B0190932C01A0932D01AB
:100AF000B0932E0159C08091DD019091DE01859760
:100B00004B97A0F5E1EEF1E082E090E0812C912C92
:100B10005401AC014F5F5F4F2091D80130E0421784
:100B200053075CF4DF0112972D913C912750310956
:100B30002730310508F49BC2CA0101979595879526
:100B40009093300180932F010C972CF41092300178
:100B500010922F010BC080922B0190922C01A09239
:100B60002D01B0922E0184E090E09EC38091D801C7
:100B70008A3108F44CC08091DB019091DC01803215
:100B8000934008F4A8CF8091DD019091DE01C697D3
:100B9000869708F489C23BC080922B0190922C0169
:100BA000A0922D01B0922E018BE090E07DC32081B8
:100BB0003181255231092B31310508F085C2880C6D
:100BC000991CAA1CBB1C689480F802963496AC0150
:100BD0004F5F5F4F2091D80130E04217530754F424
:100BE000DF0112972D913C912C5031092B303105AA
:100BF000F0F2CA0101979595879590933001809303
:100C00002F010C974CF61092300110922F01809119
:100C1000D801823208F44CC08091DD019091DE0150
:100C20000697079708F044C0E1EEF1E082E090E01B
:100C300040E050E0BA018C010F5F1F4F2091D801B6
:100C400030E002171307DCF4DF0112972D913C917D
:100C500011972E5131092731310508F042C2440F56
:100C6000551F661F771F41602081318134962350C4
:100C700031092530310510F40296DDCFC801019706
:100C8000959587959093300180932F0140972CF490
:100C90001092300110922F010BC040932B01509302
:100CA0002C0160932D0170932E018CE090E0FCC22A
:100CB0001BA21AA2E1E0F0E0FA83E9838091D80157
:100CC0008D3008F466C049E753E0BE016E5D7F4F8A
:100CD000C6010E94DE03892B09F05BC049E753E09F
:100CE000BE016E5D7F4FC6010E94DE03019709F0D1
:100CF00050C049E753E0BE016E5D7F4FC6010E94C0
:100D0000DE03892B09F045C0812C912C540100E0B1
:100D100010E08091D80190E029813A8128173907A5
:100D20004CF549E753E0BE016E5D7F4FC6010E945E
:100D3000DE037C0149E753E0BE016E5D7F4FC601D3
:100D40000E94DE03F1E0EF16F10449F4892B09F566
:100D5000880C991CAA1CBB1C689480F808C0EF285A
:100D6000C1F40197B1F4880C991CAA1CBB1C0F5F3D
:100D70001F4FCFCF1093300100932F0180922B0192
:100D800090922C01A0922D01B0922E0181E090E072
:100D90008BC21BA21AA2A1E0B0E0BA83A983809102
:100DA000330190913401181619060CF053C0E091EC
:100DB0003101F091320182E090E09A83898382814F
:100DC000938189974E9708F045C083E090E09A831D
:100DD0008983848195810B970A97E0F54CEB51E06C
:100DE000BE016E5D7F4FC6010E94DE03892B91F527
:100DF0004CEB51E0BE016E5D7F4FC6010E94DE03E9
:100E0000019741F5412C512C320100E010E029817D
:100E10003A818091330190913401281739070CF001
:100E2000A1C14CEB51E0BE016E5D7F4FC6010E9437
:100E3000DE035C010330110509F060C14CEB51E0A9
:100E4000BE016E5D7F4FC6010E94DE03A816B90683
:100E500009F454C1E0913101F09132018281938112
:100E6000C697869708F48DC1E2C18091DF01909109
:100E7000E001825491098E9708F021CE80E090E045
:100E800040E050E0BA01FC01EF51FE4F208131817A
:100E9000295031092930310508F011CEFC01ED51FE
:100EA000FE4F20813181275131092231310508F06F
:100EB000D1C0440F551F661F771F416004968038CC
:100EC000910509F73092300120922F0140932B01B8
:100ED00050932C0160932D0170932E01E3E0F0E01C
:100EE000F0932801E093270100912B0110912C0130
:100EF00020912D0130912E0119A2CE018196B901C8
:100F0000A8014F70552766277727B4E036952795B7
:100F100017950795BA95D1F701974A3051056105A4
:100F2000710508F0C6C1405DDC014C930115110547
:100F30002105310521F70E94CC0386E191E00E9452
:100F4000CC0382E08093D4011092D80160912B01F0
:100F500070912C0180912D0190912E0120E1A6012C
:100F60000E94F30FF60101900020E9F731978F01FD
:100F70000C191D09B8016F5F7F4F80E090E00E945F
:100F8000140F7C01009731F0FC011082B6010E9421
:100F9000EC0F02C000E010E0012B39F011E0D701A6
:100FA0008C91882319F010E001C011E0C7010E9464
:100FB0007C0E112341F089E191E00E94CC0386E18F
:100FC00091E00E94CC030E9409022B013C01A4E69F
:100FD0008A2E912CA12CB12C0E940902DC01CB019C
:100FE00084199509A609B709883E9340A105B10562
:100FF00058F0B1E08B1A9108A108B108E8EE4E0E46
:10100000E3E05E1E611C711C81149104A104B10413
:1010100019F70E944E0120CD8091E1019091E201EB
:101020000997099708F046CD1092300110922F01D0
:101030008FEF9FEFDC0180932B0190932C01A09305
:101040002D01B0932E01A3E0B0E0B0932801A0934E
:1010500027014ACF208131812650310927303105BF
:1010600008F02DCD440F551F661F771F27CF208115
:101070003181235131092F30310548F4880C991CF6
:10108000AA1CBB1C689480F80296349642CD20813D
:1010900031812A5031092930310508F067CD880C9B
:1010A000991CAA1CBB1CF0CF8091DF019091E0013C
:1010B000C697869708F0ABCDE3EEF1E083E090E0D1
:1010C000812C912C540183CD208131812C50310908
:1010D0002A30310508F09BCD880C991CAA1CBB1C3A
:1010E00074CD2D913C912C5031092B30310508F0F5
:1010F000DFCD440F551F661F771FB6CD4CEB51E077
:10110000BE016E5D7F4FC6010E94DE037C0103308D
:10111000110561F44CEB51E0BE016E5D7F4FC601DD
:101120000E94DE03E816F90609F094CEA114B1047A
:1011300059F4EA94EF2809F08DCE440C551C661C36
:10114000771C689440F80BC0AA94AB2809F082CEB3
:10115000EF2809F07FCE440C551C661C771C0F5FEE
:101160001F4F55CE1093300100932F0140922B0159
:1011700050922C0160922D0170922E0182E090E03D
:1011800093C0848195814B97459708F050C0DF014B
:1011900016967F0196ECE90EF11C20E030E040E06D
:1011A00050E060E070E080E090E00D911C911197BC
:1011B0000950110908301105D0F512960D911C91B6
:1011C0001397015111090D30110520F501E00E941E
:1011D000950C21601496AE15BF0539F720932B01AD
:1011E00030932C0140932D0150932E0100E20E9478
:1011F000B00C2093290130932A0185E090E0909370
:1012000028018093270180E390E090933001809340
:101210002F016ACE12960D911C911397045011095B
:101220000530110520F401E00E94950CD3CF809188
:10123000D801893340F082819381895791098335A0
:10124000910508F449C18091D8018232A1F18281CF
:101250009381895791098335910508F4BBC1828137
:1012600093818C549109C59790F58091D801843071
:1012700049F5848195818097479720F586819781EC
:1012800009970997F8F41092300110922F018FEF0F
:101290009FEFDC0180932B0190932C01A0932D01F3
:1012A000B0932E0187E090E090932801809327016E
:1012B0001BCE495C39CE828193810A97099708F445
:1012C0006AC1C5CF8091D801843408F0E8C180910B
:1012D000D801863460F1828193810C970B9708F4D2
:1012E0002DC225C0D90112966D917C9113976E5134
:1012F00071096731710508F057C2D501C401880F23
:10130000991FAA1FBB1F4C015D01689480F84E5FB6
:101310005F4F2C5F3F4F4534510509F42AC2D90174
:101320006D917C916C5071096B307105D8F2809190
:10133000D801883578F182819381855891098B3560
:10134000910508F441C226C0BC016F5F7F4FD801F0
:101350004D915C91475051094730510508F043C207
:10136000220F331F216002960C5F1F4F4091D8015E
:1013700050E044505109841795070CF03DC2A80174
:1013800042505109DA014D915C9149505109483060
:101390005105D0F28091D8018032E1F482819381AD
:1013A00006970697B8F4848195810997099790F478
:1013B0009F012A5F3F4FBF01625C7F4F812C912CC0
:1013C0005401D9014D915C91465051094630510567
:1013D00008F42EC280913301909134019DA38CA317
:1013E00006970CF4AECD8F010A5F1F4F95EC892E46
:1013F0009DE9992E9CE1A92E91E8B92E23E0E22ED9
:10140000F12CD8016D917C91F80134976080718046
:1014100080E090E00E942A106EA37FA388A799A77E
:10142000B30180E090E00E942A102B013C012DECDA
:101430003CEC4CE45FE30E948B109B01AC016EA17D
:101440007FA188A599A50E94251087FD19C02DECC4
:101450003CEC4CE45FE36EA17FA188A599A50E94B6
:101460008B109B01AC01C301B2010E942510E82F33
:10147000880FFF0BEE27FF0FEE1FFF27319602C0EC
:10148000E0E0F0E0A501940163E971E080E091E023
:101490000E94850C4F01FF0FAA08BB0886269726DD
:1014A000A826B926BFEFEB1AFB0A0E5F1F4FECA16F
:1014B000FDA1EE16FF0609F0A4CF80922B019092B9
:1014C0002C01A0922D01B0922E0130923001209279
:1014D0002F018FEF9FEFE8CE84819581CA9789977E
:1014E00008F0B1CE9F012A5F3F4F812C912C54010F
:1014F00043E050E0D9016D917C916A5071096930E7
:10150000710508F0A0CED90112966D917C911397C8
:10151000665171096131710570F5D501C401880FFB
:10152000991FAA1FBB1F4C015D01689480F84E5F94
:101530005F4F2C5F3F4F4B335105E1F69F012A5817
:101540003F4FD9012D913C912A5031092930310565
:1015500008F079CE2CE130E03093300120932F0158
:1015600080922B0190922C01A0922D01B0922E011D
:101570008AE090E099CED90112966D917C911397F3
:10158000665071096730710508F05DCE880C991CB2
:10159000AA1CBB1CCCCF2091D801CF01820F911D7A
:1015A000820F911DDC0112978D919C910A970997EA
:1015B00008F04DCE1092300110922F018FEF9FEF67
:1015C000DC0180932B0190932C01A0932D01B0930B
:1015D0002E0162C08091D801813208F440CE84810E
:1015E0009581CA97899708F03ACE9F012A5F3F4FAD
:1015F000812C912C540143E050E0D9016D917C91F4
:101600006A5071096930710508F029CED901129626
:101610006D917C911397665171096131710560F587
:10162000D501C401880F991FAA1FBB1F4C015D0182
:10163000689480F84E5F5F4F2C5F3F4F43325105F7
:10164000E1F69F012A5B3F4FD9012D913C912A5031
:1016500031092930310508F002CE20E130E0309325
:10166000300120932F0180922B0190922C01A092A7
:101670002D01B0922E0110C0D90112966D917C916E
:101680001397665071096730710508F0E8CD880C32
:10169000991CAA1CBB1CCECF86E090E005CE8481AD
:1016A000958189549109C39708F011CE9F012A5F53
:1016B0003F4FBF016A577F4F812C912C5401D901B4
:1016C0004D915C91495051094930510508F0FFCDC9
:1016D000D90112964D915C911397465151094131B0
:1016E0005105E0F4D501C401880F991FAA1FBB1F43
:1016F0004C015D01689480F82C5F3F4F2617370737
:10170000F1F63092300120922F0180922B019092BD
:101710002C01A0922D01B0922E01C4CDD9011296B8
:101720004D915C911397465051094730510508F08F
:10173000CECD880C991CAA1CBB1CDECF8481958160
:101740000997099708F0F3CD868197818C974F9779
:1017500008F0EDCD8085918589974D9708F0E7CD0C
:101760009F01265F3F4F812C912C540145E050E0B2
:10177000D6CD9F0126573F4FD9012D913C912C503A
:1017800031092B30310508F0D2CD30923001209252
:101790002F0180922B0190922C01A0922D01B092EA
:1017A0002E0188E090E080CDD90112966D917C9158
:1017B0001397695071096930710508F0B8CD880C2C
:1017C000991CAA1CBB1CA3CD8481958182549109CC
:1017D0008E9708F0DFCD8F01045C1F4F8DE190E004
:1017E00020E030E0C3CDD8014D915C9148515109C2
:1017F00042315105D0F0CB01019795958795909393
:10180000300180932F018A970CF4C4CDC901330FA6
:10181000AA0BBB0B80932B0190932C01A0932D015D
:10182000B0932E0189E090E03FCD220F331F9BCD76
:10183000D90112964D915C91139749515109433149
:10184000510508F5D501C401880F991FAA1FBB1FB8
:101850004C015D01689480F82C5F3F4F26173707D5
:1018600009F0AFCD2EE030E03093300120932F010E
:1018700080922B0190922C01A0922D01B0922E010A
:101880008FE090E011CDD90112964D915C911397A4
:10189000495051094930510508F09CCD880C991CDC
:1018A000AA1CBB1CD9CFE7E3F1E01382128288EEB9
:1018B00093E0A0E0B0E084839583A683B7838AE0B9
:1018C00091E09183808385EC90E09587848784EC18
:1018D00090E09787868780EC90E0918B808B81ECFD
:1018E00090E0938B828B82EC90E0958B848B86ECDE
:1018F00090E0978B868B118E128E138E148EE4EDF2
:10190000F1E08BE0818313820895DB018F939F9335
:101910000E944911BF91AF91A29F800D911DA39F7D
:10192000900DB29F900D112408950F93083090F000
:10193000982F872F762F652F542F432F322F222752
:101940000850F4CF220F331F441F551F661F771F07
:10195000881F991F0A95B2F70F91089597FB10F809
:10196000169400080F93083098F00850232F342F56
:10197000452F562F672F782F892F902DF4CF059460
:1019800097958795779567955795479537952795B7
:101990000A95AAF70F910895EE0FFF1F0590F49195
:1019A000E02D09945058BB27AA270E94EA0C0C94FA
:1019B0000F110E94011138F00E94081120F039F433
:1019C0009F3F19F426F40C94FE100EF4E095E7FB0B
:1019D0000C94F810E92F0E94201158F3BA176207EF
:1019E00073078407950720F079F4A6F50C9442114B
:1019F0000EF4E0950B2EBA2FA02D0B01B90190012A
:101A00000C01CA01A0011124FF27591B99F0593F6D
:101A100050F4503E68F11A16F040A22F232F342FB5
:101A20004427585FF3CF469537952795A795F04003
:101A30005395C9F77EF41F16BA0B620B730B840B18
:101A4000BAF09150A1F0FF0FBB1F661F771F881FD0
:101A5000C2F70EC0BA0F621F731F841F48F4879528
:101A600077956795B795F7959E3F08F0B0CF93951A
:101A7000880F08F09927EE0F9795879508950E9493
:101A8000530D0C940F110E94081158F00E9401117F
:101A900040F029F45F3F29F00C94F81051110C9498
:101AA00043110C94FE100E94201168F39923B1F3A6
:101AB000552391F3951B550BBB27AA276217730774
:101AC000840738F09F5F5F4F220F331F441FAA1F08
:101AD000A9F335D00E2E3AF0E0E832D091505040C4
:101AE000E695001CCAF72BD0FE2F29D0660F771F72
:101AF000881FBB1F261737074807AB07B0E809F058
:101B0000BB0B802DBF01FF2793585F4F3AF09E3FDC
:101B1000510578F00C94F8100C9443115F3FE4F3F6
:101B2000983ED4F3869577956795B795F7959F5F1F
:101B3000C9F7880F911D9695879597F90895E1E06B
:101B4000660F771F881FBB1F621773078407BA07CA
:101B500020F0621B730B840BBA0BEE1F88F7E09525
:101B600008950E94B80D6894B1110C944311089522
:101B70000E94281188F09F5798F0B92F9927B751E4
:101B8000B0F0E1F0660F771F881F991F1AF0BA9521
:101B9000C9F714C0B13091F00E944211B1E008952C
:101BA0000C944211672F782F8827B85F39F0B93F1E
:101BB000CCF3869577956795B395D9F73EF49095D4
:101BC0008095709561957F4F8F4F9F4F0895CF936C
:101BD000DF938230910510F482E090E0E091A90259
:101BE000F091AA0220E030E0C0E0D0E0309711F19F
:101BF0004081518148175907C0F04817590761F4CF
:101C000082819381209719F09B838A832BC09093C4
:101C1000AA028093A90226C02115310519F04217A6
:101C2000530718F49A01BE01DF01EF010280F3812E
:101C3000E02DDCCF2115310509F1281B390B2430AB
:101C4000310590F412968D919C9113976115710551
:101C500021F0FB019383828304C09093AA028093B6
:101C6000A902FD01329644C0FD01E20FF31F8193EA
:101C70009193225031092D933C933AC02091A702B1
:101C80003091A802232B41F42091020130910301ED
:101C90003093A8022093A702209100013091010106
:101CA0002115310541F42DB73EB740910401509103
:101CB0000501241B350BE091A702F091A802E21761
:101CC000F307A0F42E1B3F0B2817390778F0AC015F
:101CD0004E5F5F4F2417350748F04E0F5F1F50933C
:101CE000A8024093A7028193919302C0E0E0F0E044
:101CF000CF01DF91CF9108950F931F93CF93DF937F
:101D0000009709F48CC0FC01329713821282009173
:101D1000A9021091AA020115110581F420813181D7
:101D2000820F931F2091A7023091A802281739072C
:101D300079F5F093A802E093A70271C0D80140E0C2
:101D400050E0AE17BF0750F412962D913C911397B7
:101D5000AD012115310509F1D901F3CF9D01DA015A
:101D60003383228360817181860F971F82179307C7
:101D700069F4EC0128813981260F371F2E5F3F4F10
:101D8000318320838A819B8193838283452B29F42D
:101D9000F093AA02E093A90242C01396FC93EE933B
:101DA0001297ED01499159919E01240F351FE217B9
:101DB000F30771F480819181840F951F029611962B
:101DC0009C938E938281938113969C938E9312970A
:101DD000E0E0F0E0D80112968D919C911397009766
:101DE00019F0F8018C01F6CF8D919C9198012E5F2E
:101DF0003F4F820F931F2091A7023091A80228170E
:101E0000390769F4309729F41092AA021092A902B6
:101E100002C0138212821093A8020093A702DF91DE
:101E2000CF911F910F910895A0E0B0E0EAE1FFE0AB
:101E30000C945811EC01009721F4CB010E94E70D9E
:101E4000B8C0FC01E60FF71F9C0122503109E217D0
:101E5000F30708F4ACC0D9010D911C911197061736
:101E60001707B0F00530110508F49FC0C8010497AA
:101E70008617970708F499C002501109061B170B23
:101E8000019311936D937C93CF010E947C0E8DC0C2
:101E90005B01A01AB10A4C01800E911EA091A9020B
:101EA000B091AA0240E050E0E12CF12C109709F427
:101EB0004AC0A815B905D1F56D907C9011976301C2
:101EC00082E0C80ED11CCA14DB0480F1A3014A19B8
:101ED0005B096A0182E0C80ED11C1296BC90129771
:101EE0001396AC91B5E0CB16D10440F0B282A38337
:101EF00051834083D9016D937C930AC00E5F1F4FBD
:101F0000C301800F911FF90191838083EB2DFA2F7C
:101F1000E114F10431F0D7011396FC93EE9312977C
:101F200044C0F093AA02E093A9023FC08D919C9116
:101F300011974817590708F4AC017D0112960D90CE
:101F4000BC91A02DB3CF8091A7029091A8028815D3
:101F50009905E1F446175707C8F480910001909164
:101F60000101009741F48DB79EB740910401509153
:101F70000501841B950BE817F907C8F4F093A80234
:101F8000E093A702F901718360830FC0CB010E9427
:101F9000E70D7C01009759F0A801BE010E94E30FF4
:101FA000CE010E947C0EC70104C0CE0102C080E0B9
:101FB00090E0CDB7DEB7EEE00C94741181E090E0D4
:101FC000F8940C949A11FB01DC0102C001900D926F
:101FD00041505040D8F70895FB01DC0101900D926B
:101FE0000020E1F70895BB27FA01A62F62177105BB
:101FF00081059105330B30FB66F0AA27660F771F2A
:10200000881F991FAA1FA21710F0A21B63953850B2
:10201000A9F7A05DAA3308F0A95DA19336F7B11125
:10202000B1931082CA010C941510DC01FC01672FDA
:1020300071917723E1F7329704C07C916D9370839F
:102040006291AE17BF07C8F308950E94671008F4A5
:1020500081E00895E89409C097FB3EF4909580953F
:10206000709561957F4F8F4F9F4F9923A9F0F92F5E
:1020700096E9BB279395F695879577956795B795DC
:10208000F111F8CFFAF4BB0F11F460FF1BC06F5FC2
:102090007F4F8F4F9F4F16C0882311F096E911C0D4
:1020A000772321F09EE8872F762F05C0662371F0F5
:1020B00096E8862F70E060E02AF09A95660F771F09
:1020C000881FDAF7880F9695879597F90895990FE5
:1020D0000008550FAA0BE0E8FEEF16161706E807F2
:1020E000F907C0F012161306E407F50798F0621B13
:1020F000730B840B950B39F40A2661F0232B242BE8
:10210000252B21F408950A2609F4A140A6958FEF06
:10211000811D811D08950E949E100C940F110E9434
:10212000011138F00E94081120F0952311F00C9451
:10213000F8100C94FE1011240C9443110E942011ED
:1021400070F3959FC1F3950F50E0551F629FF0010A
:10215000729FBB27F00DB11D639FAA27F00DB11D23
:10216000AA1F649F6627B00DA11D661F829F2227AC
:10217000B00DA11D621F739FB00DA11D621F839F33
:10218000A00D611D221F749F3327A00D611D231F09
:10219000849F600D211D822F762F6A2F11249F5757
:1021A00050409AF0F1F088234AF0EE0FFF1FBB1F5A
:1021B000661F771F881F91505040A9F79E3F510519
:1021C00080F00C94F8100C9443115F3FE4F3983EB8
:1021D000D4F3869577956795B795F795E7959F5FC3
:1021E000C1F7FE2B880F911D9695879597F9089555
:1021F00097F99F6780E870E060E008959FEF80ECBA
:10220000089500240A94161617061806090608955C
:1022100000240A9412161306140605060895092EC2
:102220000394000C11F4882352F0BB0F40F4BF2B31
:1022300011F460FF04C06F5F7F4F8F4F9F4F089571
:1022400057FD9058440F551F59F05F3F71F0479567
:10225000880F97FB991F61F09F3F79F0879508954C
:10226000121613061406551FF2CF4695F1DF08C06B
:10227000161617061806991FF1CF86957105610588
:1022800008940895E894BB2766277727CB0197F930
:1022900008950E948B11A59F900DB49F900DA49F4F
:1022A000800D911D112408952F923F924F925F92BD
:1022B0006F927F928F929F92AF92BF92CF92DF9256
:1022C000EF92FF920F931F93CF93DF93CDB7DEB7BB
:1022D000CA1BDB0B0FB6F894DEBF0FBECDBF09944F
:1022E0002A88398848885F846E847D848C849B84A6
:1022F000AA84B984C884DF80EE80FD800C811B81B4
:10230000AA81B981CE0FD11D0FB6F894DEBF0FBEE2
:10231000CDBFED010895A29FB001B39FC001A39F5F
:10232000700D811D1124911DB29F700D811D11240E
:08233000911D0895F894FFCF00
:102338000000AB02800000000000E5009F03AE0033
:0E2348008C00A0002C010D0A00736565650075
:00000001FF
