:100000000C9400050C9428050C9428050C942805E4
:100010000C9428050C9428050C9428050C942805AC
:100020000C9428050C9428050C9428050C9428059C
:100030000C9428050C9428050C9428050C9428058C
:100040000C94CE090C9428050C94E5070C94BF077A
:100050000C9428050C9428050C9428050C9428056C
:100060000C9428050C942805000000000000008076
:10007000C0C0E0E00000FCFC0000E0E0C0C0800088
:1000800000000000000000000080F8FE1F070301D0
:10009000000000003F3F000000000103073FFEF8A2
:1000A00080000000000000001F7FF8E080000000DA
:1000B00000000000000000000080E0F87F1F00004A
:1000C00000000000000000000001030307060E0608
:1000D0000E0E060E060703030000000000000000DD
:1000E000000000000000000000F000000000000020
:1000F0000000000000000000000000000000000000
:100100000000000182241008040002020202020022
:100110000408182482010000000000000000000014
:10012000000002020202000F2040800000000000D8
:100130000000000080C0200F000202020200000048
:1001400000000000000000000004020100000100A7
:1001500002027A0202000100000102040000000015
:1001600000000000282030784030282030783030DF
:100170002800000000000000000000000000000057
:100180000000E0000000000000000000000000008F
:100190000000000000000000000000089090607E59
:1001A0004081810206FF06028181407E6090908836
:1001B0000000000000000000000000000000804877
:1001C0004830F01008080507FF0705080810F03050
:1001D0004848880000000000000000000000000007
:1001E00000000000000300000402033F03020400BB
:1001F00000030000000000000000000000000000FC
:1002000000000000000000000000005EBCE2613F52
:10021000DD83C29C7E20A3FD1F419DC3217FFCA2E4
:10022000401E5F01E3BD3E6082DC237D9FC1421C16
:10023000FEA0E1BF5D0380DE3C62BEE0025CDF81C8
:10024000633D7C22C09E1D43A1FF4618FAA4277976
:100250009BC584DA3866E5BB5907DB856739BAE4A4
:1002600006581947A5FB7826C49A653BD987045AD6
:10027000B8E6A7F91B45C6987A24F8A6441A99C788
:10028000257B3A6486D85B05E7B98CD2306EEDB336
:10029000510F4E10F2AC2F7193CD114FADF3702E64
:1002A000CC92D38D6F31B2EC0E50AFF1134DCE9096
:1002B000722C6D33D18F0C52B0EE326C8ED0530D48
:1002C000EFB1F0AE4C1291CF2D73CA947628ABF5F6
:1002D00017490856B4EA6937D58B5709EBB5366824
:1002E0008AD495CB2977F4AA4816E9B7550B88D656
:1002F000346A2B7597C94A14F6A8742AC896154B08
:10030000A9F7B6E80A54D7896B350000000024002D
:1003100027002A0000000008000201000003040773
:1003200000000000000000000E182D0D000000006D
:100330000000000000000000000000001038383805
:100340003838383838100000000000000000000085
:10035000000000000000000000000000000000009D
:10036000000000000000000000000000000000008D
:100370000000000000000040E0E04000000000003D
:10038000000002060E0E0E0E0E0E06020000000009
:10039000103838383838383838100000000080C03D
:1003A000E0E0E0E0E0E0C080000000FCFAF60E0EC5
:1003B0000E0E0E0EF6FAFC0000EFC78300000000E0
:1003C000000083C7EF00007FBFDFE0E0E0E0E0E097
:1003D000DFBF7F0000000000000000000000F0F818
:1003E000FC000000000000000000000083C7EF00D8
:1003F000000000000000000000001F3F7F00000020
:1004000002060E0E0E0E0E0EF6FAFC0000E0D0B83C
:100410003838383838383B170F00007FBFDFE0E04E
:10042000E0E0E0E0C0800000000002060E0E0E0ECC
:100430000E0EF6FAFC00000010383838383838381C
:10044000BBD7EF00000080C0E0E0E0E0E0E0DFBF0D
:100450007F0000FCF8F0000000000000F0F8FC0055
:10046000000F173B383838383838BBD7EF0000005A
:1004700000000000000000001F3F7F0000FCFAF6B3
:100480000E0E0E0E0E0E06020000000F173B38383F
:1004900038383838B8D0E000000080C0E0E0E0E054
:1004A000E0E0DFBF7F0000FCFAF60E0E0E0E0E0E2F
:1004B0000602000000EFD7BB383838383838B8D0DB
:1004C000E000007FBFDFE0E0E0E0E0E0DFBF7F00D2
:1004D000000002060E0E0E0E0E0EF6FAFC000000D4
:1004E000000000000000000083C7EF0000000000D3
:1004F0000000000000001F3F7F0000FCFAF60E0E17
:100500000E0E0E0EF6FAFC0000EFD7BB3838383866
:100510003838BBD7EF00007FBFDFE0E0E0E0E0E08D
:10052000DFBF7F0000FCFAF60E0E0E0E0E0EF6FA7E
:10053000FC00000F173B383838383838BBD7EF008D
:10054000000080C0E0E0E0E0E0E0DFBF7F000C10F2
:100550002D0D000000808080808080000000000061
:100560000103030303030301000000000000000077
:100570000000000000000000000000C0C0000000FB
:100580000000000002868686868686020000000043
:1005900081C3C3C3C3C3C381000000FC7A0606063F
:1005A0000606067AFC00007EBCC0C0C0C0C0C0BC4D
:1005B0007E0000000000000000000078FC00000049
:1005C000000000000000003C7E00000002868686DD
:1005D0008686867AFC00007EBDC3C3C3C3C3C381C5
:1005E00000000000028686868686867AFC0000006F
:1005F00081C3C3C3C3C3C3BD7E0000FC78808080B9
:1006000080808078FC000000010303030303033DA6
:100610007E0000FC7A8686868686860200000000C0
:1006200081C3C3C3C3C3C3BD7E0000FC7A86868674
:10063000868686020000007EBDC3C3C3C3C3C3BD9C
:100640007E000000020606060606067AFC00000090
:10065000000000000000003C7E0000FC7A868686D8
:100660008686867AFC00007EBDC3C3C3C3C3C3BDF8
:100670007E0000FC7A8686868686867AFC000000EC
:1006800081C3C3C3C3C3C3BD7E000608205F00008F
:10069000000000000000002F00000000070007001D
:1006A00000147F147F1400242A7F2A1200231308C9
:1006B0006462003649552250000005030000000026
:1006C0001C224100000041221C000014083E0814B6
:1006D0000008083E0808000000A0600000080808A4
:1006E0000808000060600000002010080402003EBE
:1006F0005149453E0000427F400000426151494659
:10070000002141454B31001814127F100027454548
:100710004539003C4A49493000017109050300365A
:100720004949493600064949291E0000363600006D
:100730000000563600000008142241000014141472
:10074000141400004122140800020151090600326D
:100750004959513E007C1211127C007F49494936AB
:10076000003E41414122007F4141221C007F494916
:100770004941007F09090901003E4149497A007F4A
:100780000808087F0000417F4100002040413F01F0
:10079000007F08142241007F40404040007F020C4F
:1007A000027F007F0408107F003E4141413E007FF0
:1007B00009090906003E4151215E007F09192946B9
:1007C0000046494949310001017F0101003F404095
:1007D000403F001F2040201F003F4038403F006343
:1007E0001408146300070870080700615149454365
:1007F00000007F414100AA55AA55AA550000414179
:100800007F0000040201020400404040404000001C
:1008100003050000002054545478007F48444438B5
:1008200000384444442000384444487F003854543D
:10083000541800087E0901020018A4A4A47C007FBB
:10084000080404780000447D4000004080847D005E
:10085000007F102844000000417F4000007C041805
:100860000478007C0804047800384444443800FCD0
:10087000242424180018242418FC007C08040408EC
:1008800000485454542000043F444020003C404061
:10089000207C001C2040201C003C4030403C004498
:1008A00028102844001CA0A0A07C004464544C44A0
:1008B0000000107C8200000000FF00000000827C2D
:1008C00010000000060909060000000023002600B1
:1008D00029000102040810204080010204081020B1
:1008E00001020408102000000000250028002B0051
:1008F00004040404040404040202020202020303C6
:100900000303030300407A10F35A00A0724E180943
:100910000010A5D4E80000E87648170000E40B5466
:10092000020000CA9A3B000000E1F5050000809635
:100930009800000040420F000000A0860100000067
:10094000102700000000E803000000006400000021
:1009500000000A00000000000100000000002C76EA
:10096000D888DC674F0823DFC1DFAE59E1B1B79605
:10097000E5E3E453C63AE651997696E8E6C2842662
:10098000EB898C9B62ED407C6FFCEFBC9C9F40F23E
:10099000BAA56FA5F490055A2AF75C936B6CF967BA
:1009A0006DC11BFCE0E40D47FEF520E6B500D0ED7F
:1009B000902E0300943577050080841E08000020E7
:1009C0004E0A000000C80C333333330F986E128385
:1009D0001141EF8D2114893BE65516CFFEE6DB1859
:1009E000D1844B381BF77C1D901DA4BBE42420321E
:1009F00084725E228100C9F124ECA1E53D273916FD
:100A000011241FBECFEFD8E0DEBFCDBF11E0A0E0C4
:100A1000B1E0E8E4FDE302C005900D92A03DB1070E
:100A2000D9F724E0A0EDB1E001C01D92A03CB207CF
:100A3000E1F714E0C0E0D5E004C02197FE010E9478
:100A40007B17CF3FD107C9F70E942E120C94A21E2C
:100A50000C940000CF92DF92EF92FF920F931F93BE
:100A6000CF93DF936C017A018B01C0E0D0E0CE150B
:100A7000DF0589F0D8016D918D01D601ED91FC91D2
:100A80000190F081E02DC6010995892B11F47E01BA
:100A900002C02196ECCFC701DF91CF911F910F913A
:100AA000FF90EF90DF90CF900895FC01918D828DA3
:100AB000981761F0828DDF01A80FB11D5D968C91B2
:100AC000928D9F5F9F73928F90E008958FEF9FEFBD
:100AD0000895FC01918D828D981731F0828DE80F79
:100AE000F11D858D90E008958FEF9FEF0895FC0133
:100AF000918D228D892F90E0805C9F4F821B910900
:100B00008F73992708958BEE91E00E94770521E07D
:100B1000892B09F420E0822F0895FC01848DDF01E8
:100B2000A80FB11DA35ABF4F2C91848D90E0019660
:100B30008F739927848FA689B7892C93A089B1894F
:100B40008C9180648C93938D848D981306C0028859
:100B5000F389E02D80818F7D80830895EF92FF924D
:100B60000F931F93CF93DF93EC0181E0888F9B8DD0
:100B70008C8D981305C0E889F989808185FD24C092
:100B8000F62E0B8D10E00F5F1F4F0F731127E02E15
:100B90008C8DE8120CC00FB607FCFACFE889F989F2
:100BA000808185FFF5CFCE010E948D05F1CF8B8D21
:100BB000FE01E80FF11DE35AFF4FF0820B8FEA8927
:100BC000FB898081806207C0EE89FF896083E889A4
:100BD000F98980818064808381E090E0DF91CF910A
:100BE0001F910F91FF90EF900895CF93DF93EC0149
:100BF000888D8823C9F0EA89FB89808185FD05C03D
:100C0000A889B9898C9186FD0FC00FB607FCF5CF76
:100C1000808185FFF2CFA889B9898C9185FFEDCFBE
:100C2000CE010E948D05E7CFDF91CF91089580E03E
:100C300090E0892B29F00E94830581110C9400001B
:100C40000895833081F028F4813099F08230A1F04A
:100C500008958730A9F08830B9F08430D1F48091BC
:100C600080008F7D03C0809180008F77809380000B
:100C7000089584B58F7702C084B58F7D84BD0895B3
:100C80008091B0008F7703C08091B0008F7D8093FA
:100C9000B0000895CF93DF93282F30E0F901EC5E88
:100CA000FC4F8491F901EE52F74FD491F901E051D4
:100CB000F74FC491CC2391F081110E942106EC2FB3
:100CC000F0E0EE0FFF1FE853F74FA591B491EC91C0
:100CD000ED2381E090E021F480E002C080E090E02C
:100CE000DF91CF9108951F93CF93DF93282F30E0AA
:100CF000F901EC5EFC4F8491F901EE52F74FD4916B
:100D0000F901E051F74FC491CC23C9F0162F81119E
:100D10000E942106EC2FF0E0EE0FFF1FEA51F74F83
:100D2000A591B4918FB7F894111105C09C91ED2F46
:100D3000E095E92302C0EC91ED2BEC938FBFDF919E
:100D4000CF911F9108953FB7F8948091D70190916A
:100D5000D801A091D901B091DA0126B5A89B05C0B0
:100D60002F3F19F00196A11DB11D3FBFBA2FA92F2A
:100D7000982F8827820F911DA11DB11DBC01CD01A7
:100D800042E0660F771F881F991F4A95D1F7089593
:100D90008F929F92AF92BF92CF92DF92EF92FF928B
:100DA0006B017C010E94A3064B015C01C114D104BC
:100DB000E104F104F1F00E94A306DC01CB018819E3
:100DC0009909AA09BB09883E9340A105B10570F3B2
:100DD00021E0C21AD108E108F10888EE880E83E00C
:100DE000981EA11CB11CC114D104E104F10419F72F
:100DF000DDCFFF90EF90DF90CF90BF90AF909F90AE
:100E00008F9008952FB7F8946091D3017091D40119
:100E10008091D5019091D6012FBF0895FC0190815A
:100E20000180F281E02D892F809560FF12C0F89437
:100E30002281822382838181892B8183A3E2B0E096
:100E40001197F1F78281982B9283789487ED90E047
:100E500011C0F8942281822382838181892B81832E
:100E6000AFEFB0E01197F1F78281982B92837894DD
:100E70008FE090E00197F1F708950895EF92FF92C7
:100E80000F931F93CF93DF93CDB7DEB727970FB69E
:100E9000F894DEBF0FBECDBF81E291E00E94580FF3
:100EA0006091DB010091DD011091DE01C8016F83CB
:100EB0000E94551E6F81681719F0C8010E945D1EBF
:100EC00060910101709102018091030190910401F0
:100ED0000E94F5170091DD011091DE010E5F1F4F9A
:100EE000C8016F830E94551E6F81681719F0C801F1
:100EF0000E945D1E86E2E82EF12C00E010E0B801B1
:100F0000C7010E94950C0F5F1F4F04311105B9F7FF
:100F10008FEFE81AF80A84E5E816F10471F78EE419
:100F200095E00E94730E4091010150910201609181
:100F300003017091040121E0CE0101960E949711F6
:100F400042E050E06CE170E0CE0101960E94250E77
:100F5000CE0101960E9492118AE896E00E94730EDB
:100F60000E943D0F27960FB6F894DEBF0FBECDBF8F
:100F7000DF91CF911F910F91FF90EF9008951F92F5
:100F80000F920FB60F9211242F933F934F935F93BD
:100F90006F937F938F939F93AF93BF93EF93FF9341
:100FA0008BEE91E00E948D05FF91EF91BF91AF9183
:100FB0009F918F917F916F915F914F913F912F9171
:100FC0000F900FBE0F901F9018951F920F920FB6A3
:100FD0000F9211242F938F939F93EF93FF93E091A0
:100FE000FB01F091FC018081E0910102F09102028D
:100FF00082FD12C09081809104028F5F8F732091D7
:101000000502821751F0E0910402F0E0E551FE4F35
:10101000958F8093040201C08081FF91EF919F9191
:101020008F912F910F900FBE0F901F901895CF9317
:10103000DF9390E0FC01EE52F74F2491FC01E05168
:10104000F74F8491882361F190E0880F991FFC018C
:10105000E65FFC4FC591D491FC01EA51F74FA59191
:10106000B491611109C09FB7F894888120958223BB
:101070008883EC912E230BC0623061F49FB7F89403
:101080003881822F809583238883EC912E2B2C939B
:101090009FBF06C08FB7F894E8812E2B28838FBF9F
:1010A000DF91CF9108951F93CF93DF93182FEB011A
:1010B00061E00E941708209711F460E004C0CF3F60
:1010C000D10539F461E0812FDF91CF911F910C940C
:1010D0007306E12FF0E0EC5EFC4FE491E330F9F0B1
:1010E00048F4E130B9F0E230A1F584B5806284BD06
:1010F000C8BD34C0E730E9F0E83019F1E43049F513
:1011000080918000806280938000D0938B00C09398
:101110008A0024C084B5806884BDC7BD1FC080918B
:101120008000806880938000D0938900C0938800FD
:1011300015C08091B00080688093B000C093B30068
:101140000DC08091B00080628093B000C093B40065
:1011500005C0C038D1050CF0B5CFAFCFDF91CF912E
:101160001F9108950E9402076093E7017093E801C0
:101170008093E9019093EA0160E070E08FE00C94C5
:1011800053088F929F92AF92BF92CF92DF92EF92CD
:10119000FF920F931F93CF93DF93CDB7DEB72C97BA
:1011A0000FB6F894DEBF0FBECDBF4B015C01C090FF
:1011B0000101D0900201E0900301F090040185E06C
:1011C0000E944A068C018091D0019091D1010817AC
:1011D0001907D1F062E370E080E090E00E94C80659
:1011E0000115110569F48091DB019091DC010196F4
:1011F0009093DC018093DB010E943E070E94B208BD
:101200001093D1010093D0016091DB017091DC015A
:101210004AE0CE0107960E94C7116DE271E0CE014F
:1012200001960E94F311BE01695F7F4FCE010196C6
:101230000E9434110E94800CCE0101960E949211EE
:10124000CE0107960E9492118091DB019091DC0102
:101250008230910508F04AC043E250E063E270E05A
:1012600081E791E00E94660F0E943D0F2AE939E96B
:1012700049E95EE3C701B6010E9481179B01AC01F9
:10128000C501B4010E94311D87FF1FC022E0B701D4
:10129000A601CE0107960E94971163E371E0CE018B
:1012A00001960E94F311BE01695F7F4FCE01019646
:1012B0000E9434110E94800CCE0101960E9492116E
:1012C000CE0107960E9492112EC02AE939E949E918
:1012D0005EE3C701B6010E9482179B01AC01C50104
:1012E000B4010E94241887FD46C03CC0823091059D
:1012F00069F543E250E063E270E088ED90E00E941F
:10130000660F0E943D0F2AE939E949E95EE3C7010A
:10131000B6010E9482179B01AC01C501B4010E9475
:101320002418181614F461E01EC02AE939E949E9C5
:101330005EE3C701B6010E9481179B01AC01C501A4
:10134000B4010E94311D87FF16C00CC0039779F4C9
:101350004EE150E06EE170E088E690E00E94660F9A
:101360000E943D0F60E08EE00E94730604C0109260
:10137000DC011092DB012C960FB6F894DEBF0FBE95
:10138000CDBFDF91CF911F910F91FF90EF90DF9034
:10139000CF90BF90AF909F908F9008951F920F9223
:1013A0000FB60F9211242F933F938F939F93AF9378
:1013B000BF938091D3019091D401A091D501B091B8
:1013C000D6013091D20123E0230F2D3720F401966E
:1013D000A11DB11D05C026E8230F0296A11DB11D58
:1013E0002093D2018093D3019093D401A093D5018F
:1013F000B093D6018091D7019091D801A091D901E5
:10140000B091DA010196A11DB11D8093D70190938F
:10141000D801A093D901B093DA01BF91AF919F9108
:101420008F913F912F910F900FBE0F901F901895A5
:10143000DC01E0E0615038F08D91E827F0E0E65FF4
:10144000FD4FE491F7CF8E2F0895CF92DF92EF9268
:10145000FF920F931F93CF93DF931F92CDB7DEB709
:101460006C01E62E08E010E0FF24F39461E08F2D7C
:101470008E2109F460E0C60149830E940E07FF0C2B
:101480000150110949810115110581F7411115C05C
:10149000F894D6011196ED91FC91129791818C915F
:1014A0008095892381831196ED91FC911297928109
:1014B0008C9180958923828378940F90DF91CF91CE
:1014C0001F910F91FF90EF90DF90CF900895CF92F2
:1014D000DF92EF92FF920F931F93CF93DF931F92B0
:1014E000CDB7DEB78C01F62E40E065E579830E942A
:1014F000250ACF2C7981D72E760188E0E80EF11CE1
:10150000F60161916F0140E0C8010E94250ACE14E6
:10151000DF04B1F70F90DF91CF911F910F91FF90F2
:10152000EF90DF90CF900895FC0190810180F281CF
:10153000E02DF8948181892B81832281892F8095E8
:1015400028232283A7E0B0E01197F1F721818223BD
:101550008183A3E2B0E01197F1F780817894EFECFA
:10156000F0E03197F1F7982381E009F480E00895E5
:10157000FC0190810180F281E02DF8948181292F76
:1015800020958223818378948DE743E050E0815059
:1015900021F1DA011197F1F730813923C1F3F89481
:1015A0008281822382838181892B81837894ABE736
:1015B000B7E01197F1F7F894818128232183A3E103
:1015C000B1E01197F1F78081982381E009F080E084
:1015D0007894E3E6F6E03197F1F70895AF92BF9281
:1015E000CF92DF92EF92FF920F931F93CF93DF93EF
:1015F0001F92CDB7DEB75C01E62ED72EFC018585A4
:1016000081115DC0C5010E94B80A811105C0F501B4
:101610001386158614866BC040E060EFC5010E94FA
:10162000250A01E0F12CC12C11E0C5010E94940AA9
:10163000682FC50169830E94940A6981613019F499
:101640008130B9F433C04F2D50E068131BC0F50151
:101650008385181730F4E40FF51F8381802349F444
:1016600002C0181731F060E0193058F4F501148702
:1016700008C0F501EF0DF11D8381802B838361E0AC
:1016800009C0C12EF501E40FF51F9381802F8095CD
:1016900089238383C5010E940E071F5F000F11F489
:1016A000F39401E0F7E0FF1508F0BFCF113438F0F4
:1016B000F501C386C11015C081E0858712C0F50110
:1016C00013861586148680E0D5011396EE2DFD2D28
:1016D0009501255F3F4F9D919193A217B307D9F7CD
:1016E00006C0F5018381882351F381E0EDCF0F908F
:1016F000DF91CF911F910F91FF90EF90DF90CF90EE
:10170000BF90AF90089584359105F8F4603371056A
:10171000E0F49B0143E0369527954A95E1F744E5CF
:10172000429FF001439FF00D11248E0F9F1FFC017B
:10173000E556FD4F6770772781E090E001C0880F84
:101740006A95EAF7908D892B808F0895AF92BF92AA
:10175000CF92DF92EF92FF920F931F93CF93DF937D
:101760008B01BC0180918D0290918E020E94670ACC
:1017700040E06EEB80918D0290918E020E94250ACE
:10178000E801680189E0C80ED11CA0908D02B090DC
:101790008E0288E0E82EF12C01E010E0C5010E94E5
:1017A000940A8111102B000F81E0E81AF108B1F7BB
:1017B0001993CC15DD0549F780918D0290918E0229
:1017C0000E94B80A91E0813009F090E0892FDF9102
:1017D000CF911F910F91FF90EF90DF90CF90BF902E
:1017E000AF9008950E94251A0F931F93CF93DF9314
:1017F000EC0188819981009729F02A813B81261785
:10180000370788F48B016F5F7F4F0E945B19009749
:1018100061F0998388831B830A832C813D81232B6C
:1018200011F4FC01108281E001C080E0DF91CF91D2
:101830001F910F910895CF93DF93EC0188819981D7
:10184000009711F00E94C318198218821D821C8211
:101850001B821A82DF91CF910895009769F0FC01F5
:1018600001900020E9F73197AF01481B590BBC01EB
:101870008BEE91E00C942A0580E090E008958F9221
:101880009F92AF92BF920F931F93CF93DF93CDB7E9
:10189000DEB7A1970FB6F894DEBF0FBECDBF19A279
:1018A000423008F44AE08E010F5D1F4F842E912CC8
:1018B000A12CB12CA50194010E944517E62FB90176
:1018C000CA0101501109EA3014F4E05D01C0E95C7D
:1018D000D801EC93232B242B252B61F7C8010E9400
:1018E0002D0CA1960FB6F894DEBF0FBECDBFDF91D1
:1018F000CF911F910F91BF90AF909F908F900895BF
:10190000CF93DF93FC0144815581608171818BEE1F
:1019100091E00E942A05EC0180EC91E00E942D0CE0
:101920008C0F9D1FDF91CF9108958435910500F5AF
:1019300060337105E8F49B0143E0369527954A959D
:10194000E1F744E5429FF001439FF00D11248E0F13
:101950009F1FFC01E556FD4F6770772781E090E0FF
:1019600001C0880F6A95EAF78095908D8923808F52
:1019700008952F923F924F925F926F927F928F9233
:101980009F92AF92BF92CF92DF92EF92FF920F930E
:101990001F93CF93DF93CDB7DEB728970FB6F89498
:1019A000DEBF0FBECDBF78876F831A01FC010190A7
:1019B0000020E9F731979F01281B390B3C832B83CB
:1019C0006F30774281F44091AE026B817C81469FFB
:1019D0009001479F300D112444E550E0DA01A21B2D
:1019E000B30BB887AF832F8138852E303742B1F4DF
:1019F0004091AE026B817C81469F9001479F300DE4
:101A0000112444E550E0421B530B57FF02C04F5FC7
:101A10005F4F9A013595279538872F839E838D8355
:101A2000C12CD12C2B813C81C216D3060CF0F4C002
:101A30009091AE029C9D80019D9D100D11242F81DF
:101A40003885020F131FAD81BE812D91BE83AD83FA
:101A50008091AF02582F577030E04091B002511181
:101A60006EC0869586958695241B3109989FC00186
:101A70001124289FA001299F500D389F500D11243B
:101A80009A012C5F3F4F3A8329834101A12CB12C4D
:101A90008091AF0286958695869590E0A816B90646
:101AA0000CF0B6C049805A8038018091AE0290E0B7
:101AB0009301201B310B28173907D4F5E12CF12CA9
:101AC0008091AE028A9DF0018B9DF00D1124E40DF2
:101AD000F51D8091AC029091AD02E80FF91FE491E1
:101AE000F0E00E2C02C0F595E7950A94E2F780919C
:101AF000B202B701680D791DE0FF03C0811103C078
:101B000006C0811104C0C3010E94950C03C0C3012B
:101B10000E94830B3FEFE31AF30A48E0E416F10456
:101B200079F66FEF661A760A7FEF471A570ABDCF2C
:101B30008FEFA81AB80A98E0890E911CA9CF241B30
:101B40003109989FC001112443E0959587954A95E6
:101B5000E1F7289F5001299FB00C389FB00C112449
:101B6000A4E0AA0EB11CE091AC02F091AD02EA0D26
:101B7000FB1DE4914E2E512C380157E0852E912CFF
:101B80008091AE0290E09301201B310B281739079A
:101B90000CF03EC071018091AF0290E097012219D4
:101BA00033092817390784F52091B202C201082CA5
:101BB00002C0959587950A94E2F7B70180FF04C0AB
:101BC000C301211104C006C0C301211103C00E943A
:101BD000950C02C00E94830BB1E08B1A910897FE0E
:101BE0000FC0EFEFAE1ABE0AE091AC02F091AD0269
:101BF000EA0DFB1DE4914E2E512C87E0882E912C8E
:101C0000FFEFEF1AFF0AC7CF2FEF621A720AB8CFA1
:101C10003FEFC31AD30A06CF28960FB6F894DEBF5B
:101C20000FBECDBFDF91CF911F910F91FF90EF902D
:101C3000DF90CF90BF90AF909F908F907F906F90EC
:101C40005F904F903F902F9008958F929F92AF9208
:101C5000BF92CF92DF92EF92FF920F931F93CF9399
:101C6000DF93CDB7DEB75B014A01CDB6DEB6FC012E
:101C70000481158198012F5F3F4F4DB75EB7421B1E
:101C8000530B0FB6F8945EBF0FBE4DBFEDB7FEB756
:101C900031967F01232B81F0309771F001151105EA
:101CA00051F0FC0160817181A801C7010E943A1ABC
:101CB000F701E00FF11F1082A401B501C7010E94D6
:101CC000B90C0FB6F894DEBE0FBECDBEDF91CF913A
:101CD0001F910F91FF90EF90DF90CF90BF90AF904A
:101CE0009F908F900895ABE9B2E052969C938E93AB
:101CF0005197FC01249153962C9353973196E4917C
:101D00005496EC935497FC013296E4915596EC93DB
:101D10005597FC013396849156968C935697579617
:101D20001C9208950F931F93CF93DF93CDB7DEB727
:101D300029970FB6F894DEBF0FBECDBFFC012081FE
:101D4000203161F18C0180918D0290918E020E9470
:101D5000B80A882309F1BE016F5F7F4FC8010E9456
:101D6000A60B8823C9F068E0CE0101960E94180AEC
:101D70009985891311C08D818F3361F020F48F31E3
:101D800059F489E00CC08F3519F08F3739F004C051
:101D90008BE005C08AE003C080E001C08CE029969A
:101DA0000FB6F894DEBF0FBECDBFDF91CF911F916C
:101DB0000F9108959091A902E091A302F091A402DD
:101DC0002081422F50E0292F30E0209530952423A8
:101DD00035232083E0919F02F091A0029091A70209
:101DE000208161110BC0422F50E0292F30E0209557
:101DF000309524233523208348E003C0922B908321
:101E0000FBCFE0919D02F0919E029091A60220816D
:101E100087FF03C0922B908309C0622F70E0292FA7
:101E200030E020953095262337232083880F90912A
:101E3000A502E0919B02F0919C022081622F70E04C
:101E4000292F30E02095309526233723208300006A
:101E50009091A502E0919B02F0919C022081922B2F
:101E60009083415071F68091A902E091A302F09114
:101E7000A4029081892B80830895CF93DF93809172
:101E8000AB04811112C060E080E40E94DA0E60E0D1
:101E900080E80E94DA0EC3EBD2E061E089910E94F3
:101EA000DA0E84E0CB3AD807C1F7DF91CF910895DD
:101EB000CF93DF930E942D0CEC0180EC91E00E9407
:101EC0002D0C8C0F9D1FDF91CF9108952F923F9283
:101ED0004F925F926F927F928F929F92AF92BF923A
:101EE000CF92DF92EF92FF920F931F93CF93DF93E6
:101EF0004C016B015A0104E110E0C0E0D0E0CA15CA
:101F0000DB050CF041C0CE01D7FD079623E0959587
:101F100087952A95E1F78C9D20018D9D500C9C9D05
:101F2000500C1124CE0168E070E00E943117222489
:101F30002394312C02C0220C331C8A95E2F748E32B
:101F4000642E712CE12CF12CEC14FD04CCF4F7017F
:101F5000E40DF51DE80DF91DE491F0E0E221F32117
:101F6000B801C301EF2B19F00E94830B02C00E943D
:101F7000950C8FEFE81AF80A8FEF681A780AE4CF09
:101F800021960F5F1F4FBBCFDF91CF911F910F9114
:101F9000FF90EF90DF90CF90BF90AF909F908F9089
:101FA0007F906F905F904F903F902F9008958F9209
:101FB0009F92AF92BF92CF92DF92EF92FF92CF9318
:101FC000DF936B017C019B01AC010E9429188823DF
:101FD00019F083EC91E027C046015701E894B7F867
:101FE0002FEF3FEF4FE75FE7C501B4010E942918CB
:101FF00081110DC02FEF3FEF4FE75FE7C501B4013F
:102000000E94311D18161CF487EC91E00CC02FEFD4
:102010003FEF4FE75FE4C701B6010E94241818168E
:1020200074F48BEC91E0DF91CF91FF90EF90DF9013
:10203000CF90BF90AF909F908F900C942D0C2FEF6E
:102040003FEF4FE75FECC701B6010E94311D87FDEE
:10205000E8CF20E030E0A901C701B6010E94311DA0
:1020600087FF11C0E091EB01F091EC010190F0814C
:10207000E02D6DE28BEE91E00995EC01F7FAF0941A
:10208000F7F8F09402C0C0E0D0E02AE037ED43EA70
:102090005BE3C701B6010E9482174B015C010E94FD
:1020A000F5176B017C010E94361D9B01AC01C50137
:1020B000B4010E9481174B015C014AE0C701B601DF
:1020C0000E943F0CC80FD91F84E691E00E942D0C9E
:1020D000C80FD91F20E030E040E251E4C501B4014F
:1020E0000E94971D4B015C010E94F5176B01E12CCA
:1020F000F12C4AE0C701B6010E943F0CC80FD91F5E
:10210000C701B6010E94361D9B01AC01C501B40197
:102110000E94811720E030E040E251E40E94971DC8
:102120000E94F51780E090E04AE00E943F0C8C0F7F
:102130009D1FDF91CF91FF90EF90DF90CF90BF90E8
:10214000AF909F908F900895CF93DF93CDB7DEB778
:1021500061970FB6F894DEBF0FBECDBFE0918D0240
:10216000F0918E02138615861486DF011B96CF012F
:1021700003961E92A817B907E1F7BE01665F7F4F6D
:10218000CF010E94EE0A882341F067E0CE010A9653
:102190000E94180A9989891729F060E070E08EEF93
:1021A00092EC59C080918D0290918E020E94B80AE3
:1021B0008823F1F1BE016F5F7F4FCE010A960E9426
:1021C000A60B8823A9F168E0CE0101960E94180AA7
:1021D000998589132DC0698148E0649FB00111245D
:1021E0008A81282F30E0322F2227330F330F330F0D
:1021F000262B372B8A858031C9F4688570E08F8162
:10220000AB01481B5109CA019695982F88279795CD
:1022100087950E94311760517109207F53E0220F8A
:10222000331F5A95E1F7620F731F04C0B90102C052
:1022300060E874EE613854EE75070CF4AECF072EEB
:10224000000C880B990B0E94381D20E030E040E024
:102250005CE30E94971D61960FB6F894DEBF0FBE37
:10226000CDBFDF91CF910895EF92FF920F931F930F
:10227000CF93DF93EC01FB0184819581E080F180B5
:102280000C811D81E114F104B1F00097B9F0080F41
:10229000191FB801CE010E94F40B882361F0288138
:1022A00039818C819D81B701820F931F0E94331A5F
:1022B0001D830C8303C0CE010E941B0CCE01DF9155
:1022C000CF911F910F91FF90EF900895EF92FF92A1
:1022D0000F931F93CF93DF938C017B0161157105E1
:1022E00069F0FB0101900020E9F73197EF01C61B6F
:1022F000D70BBE010E94F40B811104C0C8010E94DB
:102300001B0C08C0F801D583C483B701808191817B
:102310000E94331AC801DF91CF911F910F91FF9056
:10232000EF900895FC01808191810C94C318EF9285
:10233000FF920F931F93CF93DF93CDB7DEB7A19793
:102340000FB6F894DEBF0FBECDBF7C01CB01BA0142
:10235000F70111821082138212821582148242E0E8
:10236000420F8E010F5F1F4F0E94491ABC01C70127
:102370000E946611A1960FB6F894DEBF0FBECDBFC6
:10238000DF91CF911F910F91FF90EF9008950F93E0
:102390001F93CF93DF93CDB7DEB762970FB6F89454
:1023A000DEBF0FBECDBF8C01CB01F80111821082C0
:1023B000138212821582148250E0BE016F5F7F4F3C
:1023C0000E94691ABE016F5F7F4FC8010E946611AB
:1023D00062960FB6F894DEBF0FBECDBFDF91CF91EE
:1023E0001F910F910895EF92FF920F931F93CF9338
:1023F000DF93EC01198218821B821A821D821C82D3
:102400006115710521F18B01FB0101900020E9F7B5
:1024100031977F01E61AF70AB7010E94F40B811188
:1024200009C0CE01DF91CF911F910F91FF90EF90E6
:102430000C941B0CFD82EC82B80188819981DF919C
:10244000CF911F910F91FF90EF900C94331ADF9171
:10245000CF911F910F91FF90EF900895CF93DF934D
:10246000CDB7DEB7A7970FB6F894DEBF0FBECDBFCE
:10247000789484B5826084BD84B5816084BD85B55F
:10248000826085BD85B5816085BD80916E0081606B
:1024900080936E0010928100809181008260809311
:1024A0008100809181008160809381008091800013
:1024B0008160809380008091B10084608093B1003E
:1024C0008091B00081608093B00080917A00846038
:1024D00080937A0080917A00826080937A00809164
:1024E0007A00816080937A0080917A00806880937E
:1024F0007A001092C100E091FB01F091FC0182E0B2
:102500008083E091F701F091F8011082E091F901E8
:10251000F091FA018FEC808310920302E091FF01A9
:10252000F091000286E08083E091FD01F091FE01D0
:10253000808180618083E091FD01F091FE018081C6
:1025400088608083E091FD01F091FE0180818068C8
:102550008083E091FD01F091FE0180818F7D808379
:102560008091A702E0919F02F091A0029081892BB7
:1025700080838091A602E0919D02F0919E0290815D
:10258000892B80838091A502E0919B02F0919C02AF
:102590009081892B80838091A902E091A302F09120
:1025A000A4029081892B80839091A802E091A102DE
:1025B000F091A2028081282F30E0892F90E0809551
:1025C00090958223932380836AE070E080E090E01E
:1025D0000E94C8068091A802E091A102F091A20297
:1025E0009081892B808360E081E20E94DA0E60E0B6
:1025F00086EC0E94DA0E60E086E00E94DA0E60E06F
:1026000083E10E94DA0E60E080E20E94DA0E60E070
:1026100080E40E94DA0E60E080E80E94DA0E60E05A
:102620008CE00E94DA0EE3EBF2E0119224E0EB3A48
:10263000F207D9F70E943D0F1092AD021092AC0242
:102640001092AB0486E490E09093AD048093AC04C8
:102650008AE896E00E94730E60E084E00E9417080A
:1026600060E085E00E94170860E086E00E9417089D
:1026700060E085E00E94170861E08EE00E94170884
:1026800061E08FE00E9417086FEF73E08FE00E9417
:102690005308E0918D02F0918E0213861586148600
:1026A000DF011B9633961E92AE17BF07E1F710921B
:1026B0008C0211E0BE016F5F7F4F80918D0290917F
:1026C0008E020E94EE0A882309F44AC067E0CE0118
:1026D00001960E94180A98858913ECCF8091880290
:1026E000811127C080918D0290918E020E94B80ABC
:1026F000BE016F5F7F4F80918D0290918E020E948C
:10270000670A40E064EB80918D0290918E020E94F6
:10271000250A80918D0290918E020E94940AF82ED3
:1027200080918D0290918E020E94B80AFF2009F4D8
:102730006AC1F0908902CE0101960E94920E8F1517
:1027400018F48091890204C0CE0101960E94920E75
:102750008093890280918C028F5F80938C02AACF34
:10276000A090DD01B090DE01750132E0E30EF11CB6
:10277000F092DE01E092DD01E11444E0F40629F478
:102780001092DE011092DD0124C0C12CD12CC601B3
:102790000E94551E81113AC15FEFC51AD50AC114B6
:1027A00084E0D806A1F76091DB01C7010E945D1E9D
:1027B00060910101709102018091030190910401E7
:1027C0000E94F5178091DD019091DE0102960E9432
:1027D0005D1E88E293E00E94730E41E061E070E0CC
:1027E000CE0101960E94C71144E150E061E070E023
:1027F000CE0101960E94250ECE0101960E949211F3
:1028000080918D0290918E020E94B80A40E06CEC9B
:1028100080918D0290918E020E94250A409188023B
:1028200064E480918D0290918E020E94250A80912D
:102830008A028823A9F0E0918902E950E33040F44C
:10284000F0E0EE0FFF1FE55FFE4F6081718102C077
:102850006EEE72E0072E000C880B990B0E94C806E2
:102860000E94A4106B017C010E94EE175B014AE0FC
:10287000CE0101960E94C7114D815E8169817A81E6
:102880008BEE91E00E942A05CE0101960E949211E2
:1028900021E8A2162FEFB20609F49AC08AE491E06B
:1028A0000E942D0C86E691E00E942D0C8BE691E0B3
:1028B0000E942D0C0E94A4100E94D70F8BE691E07D
:1028C0000E942D0CC701B6010E94D70F8AE896E03E
:1028D0000E94730E42E050E065E070E089E891E00C
:1028E0000E94B90C8EE495E00E94730E40910101A4
:1028F00050910201609103017091040121E0CE0129
:1029000001960E94971142E050E06CE170E0CE0128
:1029100001960E94250ECE0101960E9492118AE82E
:1029200096E00E94730E21E0B701A601CE01019648
:102930000E9497116DE871E0CE0182960E94F3111A
:10294000BE016F5F7F4FCE0182960E9434110E94BC
:10295000800CCE0182960E949211CE0101960E94B7
:10296000921188E293E00E94730E21E0B701A60164
:10297000CE0101960E94971144E150E061E070E0C1
:10298000CE0101960E94250ECE0101960E94921161
:102990000E943D0FC701B6010E94C1080E940207B4
:1029A0002B013C010E940207DC01CB01841995092F
:1029B000A609B7092091000188389341A105B10506
:1029C00008F040C0211141C081E08093000118C08F
:1029D0008AE896E00E94730E44E150E064E070E003
:1029E00082EA91E00E94B90C60E08EE00E947306DA
:1029F0000E943D0F68EE73E080E090E00E94C80600
:102A00000E941706FDCE1093880293CEC7010E9444
:102A1000551E282F30E03093DC012093DB01C501E7
:102A200004960E94551E682F70E080E090E00E949E
:102A3000361D60930101709302018093030190930E
:102A40000401C7CE2111DCCFBFCF0E9402074B018A
:102A50005C018091E7019091E801A091E901B091BA
:102A6000EA01A5019401281B390B4A0B5B0BCA0133
:102A7000B9011BA21AA21DA21CA21FA21EA22AE01B
:102A8000AE014F5F5F4F0E947F1ABE016F5F7F4FA5
:102A9000CE0182960E94661165EB71E0CE0101962F
:102AA0000E94F311BE016E5D7F4FCE0101960E9420
:102AB00034110E94800CCE0101960E949211CE0129
:102AC00082960E9492118091E7019091E801A09175
:102AD000E901B091EA01881A990AAA0ABB0A38EBFF
:102AE00083163BE09306A104B10408F0AEC0409108
:102AF000010150910201609103017091040122E0F3
:102B0000CE0101960E949711CE0101960E94800C81
:102B1000CE0101960E949211C701B6010E94C10820
:102B200084E00E944A065C019093E2018093E101F7
:102B30008091DF019091E001A816B90609F440C028
:102B40006AE070E080E090E00E94C806AB2881F562
:102B500084E991E00E94580F0E94B2088090010120
:102B600090900201A0900301B090040120E030E0B9
:102B700040E85FE3C501B4010E94811720E030E026
:102B800040E252EC0E94241887FD12C020E030E0A1
:102B900040E05FE3C501B4010E9481176093010129
:102BA0007093020180930301909304010E943E07F9
:102BB0008091E1019091E2019093E0018093DF0127
:102BC00086E00E944A065C019093E6018093E5014D
:102BD0008091E3019091E401A816B90609F4E2CED0
:102BE0006AE070E080E090E00E94C8060E94B208AF
:102BF000AB2811F520E030E040E05FE36091010197
:102C00007091020180910301909104010E9482174A
:102C10004B015C0120E030E040EF52E40E94311DA6
:102C200087FF0AC08092010190920201A0920301E5
:102C3000B09204010E943E078091E5019091E60167
:102C40009093E4018093E301ADCE8FEA91E00E947E
:102C5000580F6FEF73E08FE00E9453080E94020745
:102C60006093E7017093E8018093E9019093EA0192
:102C70003ECF1092EE011092ED0188EE93E0A0E0BD
:102C8000B0E08093EF019093F001A093F101B09335
:102C9000F20185E191E09093EC018093EB0185ECEA
:102CA00090E09093F8018093F70184EC90E090938A
:102CB000FA018093F90180EC90E09093FC018093FD
:102CC000FB0181EC90E09093FE018093FD0182EC8A
:102CD00090E0909300028093FF0186EC90E0909347
:102CE00002028093010210920402109205021092D7
:102CF000060210920702E8EFF8E0E491F0E0EE0F30
:102D0000FF1FEA51F74F8591949190939C02809315
:102D10009B02EAEDF8E0E491E093A502E9EFF8E028
:102D2000E491F0E0EE0FFF1FEA51F74F8591949187
:102D300090939E0280939D02EBEDF8E0E491E09386
:102D4000A602EAEFF8E0E491F0E0EE0FFF1FEA518F
:102D5000F74F859194919093A00280939F02ECEDA0
:102D6000F8E0E491E093A702ECEFF8E0E491F0E002
:102D7000EE0FFF1FEA51F74F859194919093A202B5
:102D80008093A102EEEDF8E0E491E093A802EBEF6E
:102D9000F8E0E491F0E0EE0FFF1FEA51F74F859164
:102DA00094919093A4028093A302EDEDF8E0E49156
:102DB000E093A90261E088E00E94170861E089E0E1
:102DC0000E94170861E08AE00E94170861E08CE029
:102DD0000E94170861E08BE00E94170888E080934A
:102DE000AA028CE08093AB0260E087E00E941708A3
:102DF000E9EDF8E0E491E093AE04E7EFF8E0E49168
:102E0000F0E0EE0FFF1FE853F74F859194919093F8
:102E1000B0048093AF041092B9041092BB041092D6
:102E2000BA04E9EBF4E0129284E0E13BF807D9F749
:102E30008DE397E090939A02809399028EEA94E052
:102E400090938E0280938D0210928C0210928802D1
:102E500089E08093890281E080938A0280938B02CB
:102E6000089597FB072E16F4009407D077FD09D03C
:102E70000E94671707FC05D03EF4909581959F4FFF
:102E80000895709561957F4F0895A1E21A2EAA1BAF
:102E9000BB1BFD010DC0AA1FBB1FEE1FFF1FA2170A
:102EA000B307E407F50720F0A21BB30BE40BF50B07
:102EB000661F771F881F991F1A9469F76095709590
:102EC000809590959B01AC01BD01CF010895AA1B8F
:102ED000BB1B51E107C0AA1FBB1FA617B70710F005
:102EE000A61BB70B881F991F5A95A9F78095909537
:102EF000BC01CD010895EE0FFF1F0590F491E02D68
:102F000009945058BB27AA270E9499170C941B1E9E
:102F10000E940D1E38F00E94141E20F039F49F3FCD
:102F200019F426F40C940A1E0EF4E095E7FB0C94B9
:102F3000041EE92F0E942C1E58F3BA17620773076C
:102F40008407950720F079F4A6F50C944E1E0EF434
:102F5000E0950B2EBA2FA02D0B01B90190010C01A9
:102F6000CA01A0011124FF27591B99F0593F50F4C1
:102F7000503E68F11A16F040A22F232F342F442719
:102F8000585FF3CF469537952795A795F040539511
:102F9000C9F77EF41F16BA0B620B730B840BBAF0E1
:102FA0009150A1F0FF0FBB1F661F771F881FC2F74C
:102FB0000EC0BA0F621F731F841F48F48795779560
:102FC0006795B795F7959E3F08F0B0CF9395880F1A
:102FD00008F09927EE0F9795879508950E94F517A9
:102FE0006894B1110C944F1E08950E94341E88F00D
:102FF0009F5798F0B92F9927B751B0F0E1F0660FBD
:10300000771F881F991F1AF0BA95C9F714C0B130FD
:1030100091F00E944E1EB1E008950C944E1E672F51
:10302000782F8827B85F39F0B93FCCF3869577952C
:103030006795B395D9F73EF4909580957095619515
:103040007F4F8F4F9F4F08950E94731D08F48FEF9D
:1030500008950E94731D880B990B0895CF93DF93F9
:103060008230910510F482E090E0E091BE04F0918E
:10307000BF0420E030E0C0E0D0E0309711F14081A3
:10308000518148175907C0F04817590761F48281E8
:103090009381209719F09B838A832BC09093BF0460
:1030A0008093BE0426C02115310519F0421753073D
:1030B00018F49A01BE01DF01EF010280F381E02DD7
:1030C000DCCF2115310509F1281B390B24303105DE
:1030D00090F412968D919C9113976115710521F0D2
:1030E000FB019383828304C09093BF048093BE044A
:1030F000FD01329644C0FD01E20FF31F81939193CD
:10310000225031092D933C933AC02091BC04309158
:10311000BD04232B41F42091070130910801309325
:10312000BD042093BC0420910501309106012115B6
:10313000310541F42DB73EB74091090150910A0184
:10314000241B350BE091BC04F091BD04E217F3079A
:10315000A0F42E1B3F0B2817390778F0AC014E5F07
:103160005F4F2417350748F04E0F5F1F5093BD0483
:103170004093BC048193919302C0E0E0F0E0CF0162
:10318000DF91CF9108950F931F93CF93DF93009713
:1031900009F48CC0FC013297138212820091BE04A4
:1031A0001091BF040115110581F420813181820F36
:1031B000931F2091BC043091BD042817390779F57D
:1031C000F093BD04E093BC0471C0D80140E050E02E
:1031D000AE17BF0750F412962D913C911397AD0195
:1031E0002115310509F1D901F3CF9D01DA013383AE
:1031F000228360817181860F971F8217930769F47C
:10320000EC0128813981260F371F2E5F3F4F318314
:1032100020838A819B8193838283452B29F4F093B9
:10322000BF04E093BE0442C01396FC93EE93129742
:10323000ED01499159919E01240F351FE217F307C3
:1032400071F480819181840F951F029611969C9351
:103250008E938281938113969C938E931297E0E0D4
:10326000F0E0D80112968D919C911397009719F078
:10327000F8018C01F6CF8D919C9198012E5F3F4F04
:10328000820F931F2091BC043091BD042817390789
:1032900069F4309729F41092BF041092BE0402C062
:1032A000138212821093BD040093BC04DF91CF916E
:1032B0001F910F910895A0E0B0E0E1E6F9E10C94D0
:1032C0006F1EEC01009721F4CB010E942E18B8C0AC
:1032D000FC01E60FF71F9C0122503109E217F307AA
:1032E00008F4ACC0D9010D911C911197061717076E
:1032F000B0F00530110508F49FC0C8010497861787
:10330000970708F499C002501109061B170B019387
:1033100011936D937C93CF010E94C3188DC05B0104
:10332000A01AB10A4C01800E911EA091BE04B0916A
:10333000BF0440E050E0E12CF12C109709F44AC0A2
:10334000A815B905D1F56D907C901197630182E0C5
:10335000C80ED11CCA14DB0480F1A3014A195B0911
:103360006A0182E0C80ED11C1296BC901297139687
:10337000AC91B5E0CB16D10440F0B282A383518367
:103380004083D9016D937C930AC00E5F1F4FC30128
:10339000800F911FF90191838083EB2DFA2FE114A7
:1033A000F10431F0D7011396FC93EE93129744C0C9
:1033B000F093BF04E093BE043FC08D919C911197A0
:1033C0004817590708F4AC017D0112960D90BC9185
:1033D000A02DB3CF8091BC049091BD0488159905B0
:1033E000E1F446175707C8F4809105019091060152
:1033F000009741F48DB79EB74091090150910A01A1
:10340000841B950BE817F907C8F4F093BD04E0930B
:10341000BC04F901718360830FC0CB010E942E1898
:103420007C01009759F0A801BE010E942A1ACE0122
:103430000E94C318C70104C0CE0102C080E090E022
:10344000CDB7DEB7EEE00C948B1E81E090E0F894EF
:103450000C94A21EFB01DC0102C001900D924150B0
:103460005040D8F70895FB01DC0101900D92002037
:10347000E1F70895FB01DC014150504048F0019014
:103480000D920020C9F701C01D9241505040E0F755
:103490000895EF920F931F93CF93DF93E80147FDB9
:1034A00002C034E001C034E1E42F440FFF0BF7FF0A
:1034B00003C0F195E195F109E32E022F2E2FAE0105
:1034C0000E94BB1ACE01DF91CF911F910F91EF9017
:1034D00008954532510520F4423010F00C94741ACE
:1034E000FB011082CB010895BB274A3031F49923A8
:1034F00022F4BDE2909581959F4F0C94A21ABB27B0
:10350000FA01A62F6217710581059105330B30FB77
:1035100066F0AA27660F771F881F991FAA1FA21798
:1035200010F0A21B63953850A9F7A05DAA3308F0EC
:10353000A95DA19336F7B111B1931082CA010C9421
:10354000211DBB27FB015527AA27880F991FAA1FFA
:10355000A41710F0A41B83955051B9F7A05DAA33AE
:1035600008F0A95DA193009779F7B111B193119279
:10357000CB010C94211D4F925F926F927F929F928C
:10358000AF92BF92CF92DF92EF92FF920F931F9371
:10359000CF93DF93CDB7DEB729970FB6F894DEBF90
:1035A0000FBECDBF6A01122FB02E2BE3201720F0E3
:1035B000FF24F394F00E02C0BCE3FB2E0F2D27E096
:1035C000AE014F5F5F4F0E94491CAC018981982F6B
:1035D0009970913031F0E1FC06C0E0FE06C090E247
:1035E00005C09DE203C09BE201C090E0EE2DE071BA
:1035F00083FF3CC0911102C083E001C084E08117C9
:1036000018F4212F281B01C020E0E1110BC0F601A6
:10361000822F30E2882319F031938150FBCFC20E04
:10362000D11C20E0992329F0D6019C93F601319614
:103630006F01C6010396E2FE0AC03EE4D6013C9348
:1036400041E411964C93119712963C9306C03EE6C6
:10365000F601308341E641833283FC01322F40E2A0
:10366000332309F442C041933150FACF82FF44C062
:10367000911102C083E001C084E0811718F4212F6A
:10368000281B01C020E0E1110BC0F601822F30E2BF
:10369000882319F031938150FBCFC20ED11C20E05A
:1036A000992329F0D6019C93F60131966F01C6014A
:1036B0000396E2FE0BC039E4D6013C933EE411963A
:1036C0003C93119736E412963C9307C039E6F60115
:1036D00030833EE6318336E63283FC01322F40E20E
:1036E000332319F041933150FBCFFC01E20FF11D60
:1036F00010828EEF9FEFB7C0F1E0911101C0F0E0B2
:103700006F2F70E01416150624F49A012F5F3F4FB7
:1037100002C021E030E0260F371FBB2029F06B2DBF
:1037200070E06F5F7F4F02C060E070E0260F371FD0
:10373000612F70E0261737071CF4121B212F01C0E0
:1037400020E03E2D387159F4D601322F60E2332348
:1037500019F06D933150FBCFC20ED11C20E0FF2336
:1037600031F0D6019C93B6016F5F7F4F6B01E11181
:103770000BC0F601922F30E3992319F03193915049
:10378000FBCFC20ED11C20E09F2D940F3A81782FE1
:103790007071A72E84FF03C0313309F491501916BC
:1037A00024F4993018F098E001C091E0E42F852FBF
:1037B00057FF02C0E0E080E06E2F782FE0E0F0E0FD
:1037C000AEE29A2E3A01691A71082A01461A570A7E
:1037D0000B2D10E01195019511096F3F8FEF7807C0
:1037E00029F4D6019C92C60101966C014617570731
:1037F00084F0661677066CF47F01E40CF51CA1E0FA
:10380000B0E0AC0FBD1FEA0EFB1ED7011196BC90B5
:1038100002C090E3B92E615071093196C60101963C
:103820007C016017710724F0D601BC926C01D5CFE2
:103830006417750741F4363320F4353321F4A110B1
:1038400002C081E3B82EF601B082F701822F90E228
:10385000882319F091938150FBCFF701E20FF11DFE
:10386000108280E090E029960FB6F894DEBF0FBE7C
:10387000CDBFDF91CF911F910F91FF90EF90DF901F
:10388000CF90BF90AF909F907F906F905F904F9040
:103890000895283008F027E03327DA01990F311D09
:1038A00087FD916000966105710539F432602E5FE5
:1038B0003D9330E32A95E1F708959F3F30F080383B
:1038C0007105610509F03C5F3C5F3D93913008F064
:1038D0008068911DDF93CF931F930F93FF92EF9218
:1038E000192F987F9695E92F96959695E90FFF27C2
:1038F000E25AF64F99273327EE24FF24A701E70168
:1039000005900894079428F4360FE71EF81E491F07
:10391000511D660F771F881F991F0694A1F7059008
:10392000079428F4E70EF81E491F561FC11D770F94
:10393000881F991F661F0694A1F70590079428F425
:10394000F80E491F561FC71FD11D880F991F661FEC
:10395000771F0694A1F70590079420F4490F561F8E
:10396000C71FD81F990F661F771F881F0694A9F7D6
:1039700084911095177041F0D695C7955795479546
:10398000F794E7941A95C1F7E4E0F9E0689415908C
:10399000159135916591959105907FE27395E118A8
:1039A000F10A430B560BC90BD009C0F7E10CF11E0D
:1039B000431F561FC91FD01D7EF4703311F48A9522
:1039C000E6CFE894015030F0080F0AF40027021700
:1039D00008F4202F2395022F7A3328F079E37D9382
:1039E0002A95E9F710C07D932A9589F60694979554
:1039F0006795379517951794E118F10A430B560B05
:103A0000C90BD00998F023957E9173957A3308F00D
:103A100070E37C932013B8F77E9170617D9330F052
:103A2000839571E37D9370E32A95E1F71124EF907C
:103A3000FF900F911F91CF91DF91992787FD90956E
:103A40000895DC01FC01672F71917723E1F732972C
:103A500004C07C916D9370836291AE17BF07C8F369
:103A600008950E94731D08F481E00895E89409C048
:103A700097FB3EF490958095709561957F4F8F4FA1
:103A80009F4F9923A9F0F92F96E9BB279395F695B7
:103A9000879577956795B795F111F8CFFAF4BB0F35
:103AA00011F460FF1BC06F5F7F4F8F4F9F4F16C099
:103AB000882311F096E911C0772321F09EE8872F23
:103AC000762F05C0662371F096E8862F70E060E0DF
:103AD0002AF09A95660F771F881FDAF7880F969558
:103AE000879597F90895990F0008550FAA0BE0E8FC
:103AF000FEEF16161706E807F907C0F012161306B0
:103B0000E407F50798F0621B730B840B950B39F4EF
:103B10000A2661F0232B242B252B21F408950A2655
:103B200009F4A140A6958FEF811D811D08950E9483
:103B3000AA1D0C941B1E0E940D1E38F00E94141E1C
:103B400020F0952311F00C94041E0C940A1E1124ED
:103B50000C944F1E0E942C1E70F3959FC1F3950F7D
:103B600050E0551F629FF001729FBB27F00DB11D01
:103B7000639FAA27F00DB11DAA1F649F6627B00D91
:103B8000A11D661F829F2227B00DA11D621F739F7A
:103B9000B00DA11D621F839FA00D611D221F749F88
:103BA0003327A00D611D231F849F600D211D822FCF
:103BB000762F6A2F11249F5750409AF0F1F08823F6
:103BC0004AF0EE0FFF1FBB1F661F771F881F915023
:103BD0005040A9F79E3F510580F00C94041E0C94B0
:103BE0004F1E5F3FE4F3983ED4F386957795679533
:103BF000B795F795E7959F5FC1F7FE2B880F911D4D
:103C00009695879597F9089597F99F6780E870E0F2
:103C100060E008959FEF80EC089500240A94161642
:103C2000170618060906089500240A9412161306AA
:103C3000140605060895092E0394000C11F4882338
:103C400052F0BB0F40F4BF2B11F460FF04C06F5F54
:103C50007F4F8F4F9F4F089557FD9058440F551F2A
:103C600059F05F3F71F04795880F97FB991F61F0FE
:103C70009F3F79F087950895121613061406551F75
:103C8000F2CF4695F1DF08C0161617061806991FE1
:103C9000F1CF86957105610508940895E894BB27D6
:103CA00066277727CB0197F90895F999FECF92BD42
:103CB00081BDF89A992780B50895262FF999FECFEE
:103CC0001FBA92BD81BD20BD0FB6F894FA9AF99A39
:103CD0000FBE019608952F923F924F925F926F927E
:103CE0007F928F929F92AF92BF92CF92DF92EF928C
:103CF000FF920F931F93CF93DF93CDB7DEB7CA1B0D
:103D0000DB0B0FB6F894DEBF0FBECDBF09942A8837
:103D1000398848885F846E847D848C849B84AA84DF
:103D2000B984C884DF80EE80FD800C811B81AA816C
:103D3000B981CE0FD11D0FB6F894DEBF0FBECDBF37
:083D4000ED010895F894FFCF96
:103D4800010000A4410000C00480005E00BC0077B0
:103D58000100000000AE052A05770555056905F53F
:103D6800056565656565656570726F6D006D6F6485
:103D7800653D006F6E6E6E6E6E6E6E6E6E6E6E6E02
:103D88006E6E6E6E6E6E6E6E6E002052657175652B
:103D98007374696E672074656D706572617475728D
:103DA80065732E2E2E00444F4E450054656D706588
:103DB80072617475726520666F72204465766963F6
:103DC8006520312069733A20005365740061616190
:103DD80061613A006C6F772069732061637469765A
:103DE80065004572726F722053656E736F7200665C
:103DF800696E69730074696D65206B6E6F773A0040
:103E08000D0A006E616E00696E66006F76660000CE
:00000001FF
