:100000000C94EB040C9413050C9413050C94130539
:100010000C9413050C9413050C9413050C94130500
:100020000C9413050C9413050C9413050C941305F0
:100030000C9413050C9413050C9413050C941305E0
:100040000C947C0C0C9413050C94760B0C94500BB4
:100050000C9413050C9413050C9413050C941305C0
:100060000C9413050C94130500000080C0E0E0F030
:10007000F8F8F87C7C7CFCFEFEFE7E3E3E3EFEFEFA
:10008000FEFE7C7C7CF8F8F8F0F0E0C08000000018
:10009000007CFFFFFFFFFFFF830100107CFEFFFFDE
:1000A000FFFFE0C0C0C0FFFFFFFFFEFC3800010300
:1000B000FFFFFFFFFFFFFE00000001070F0F1F3FC4
:1000C0003F7E7C7CF8F8F1F1F3F3F3F3F3F3F3F311
:1000D000F1F1F8F87C7C7E3F3F1F1F0F0703000003
:1000E0000000000000000000808080004858D0A080
:1000F000E0D873673C38141C101F1F101C1C1038EC
:100100002E337868A0B0D84808808080800010180E
:10011000181072B5B5B5FFFF8100000000000000A7
:1001200000000000000000000000000000C3FFBD50
:10013000D55510181800000101010100121A090D0F
:10014000171BCE643C0C283808F8F8083828083803
:10015000E4CC1E16070B1A12010101010000000079
:100160000000000000000000202020242C3C3870FB
:10017000F8DC8EC6C00000C0C68EDCF870383C2C9F
:100180002420202000000000000010101093FFFE2B
:100190007C1010547C7D7DBBBB9393FFFF7C7CFF68
:1001A000FF9393BBBB7D7D7C5410107CFEFF9310AE
:1001B0001010000000010100080808486879391D86
:1001C0003F77E3C707000007C7E3773F1D3979682A
:1001D0004808080800010100000000000000000CB1
:1001E000102D0D00000080808080808000000000C5
:1001F00000010303030303030100000000000000EB
:10020000000000000000000000000000C0C000006E
:1002100000000000000286868686868602000000B6
:100220000081C3C3C3C3C3C381000000FC7A0606B8
:10023000060606067AFC00007EBCC0C0C0C0C0C076
:10024000BC7E0000000000000000000078FC000000
:1002500000000000000000003C7E000000028686D6
:10026000868686867AFC00007EBDC3C3C3C3C3C333
:100270008100000000028686868686867AFC000061
:100280000081C3C3C3C3C3C3BD7E0000FC788080AC
:100290008080808078FC00000001030303030303D7
:1002A0003D7E0000FC7A86868686868602000000F7
:1002B0000081C3C3C3C3C3C3BD7E0000FC7A86866E
:1002C00086868686020000007EBDC3C3C3C3C3C347
:1002D000BD7E000000020606060606067AFC000047
:1002E00000000000000000003C7E0000FC7A8686D2
:1002F000868686867AFC00007EBDC3C3C3C3C3C3A3
:10030000BD7E0000FC7A8686868686867AFC0000A2
:100310000081C3C3C3C3C3C3BD7E000E182D0D002F
:1003200000000000000000000000000000000010BD
:1003300038383838383838381000000000000000ED
:1003400000000000000000000000000000000000AD
:10035000000000000000000000000000000000009D
:100360000000000000000000000040E0E04000004D
:10037000000000000002060E0E0E0E0E0E06020019
:10038000000000103838383838383838100000008D
:100390000080C0E0E0E0E0E0E0C080000000FCFAA7
:1003A000F60E0E0E0E0E0EF6FAFC0000EFC78300DE
:1003B000000000000083C7EF00007FBFDFE0E0E047
:1003C000E0E0E0DFBF7F0000000000000000000070
:1003D00000F0F8FC000000000000000000000083B6
:1003E000C7EF00000000000000000000001F3F7F7A
:1003F00000000002060E0E0E0E0E0EF6FAFC0000B5
:10040000E0D0B83838383838383B170F00007FBF95
:10041000DFE0E0E0E0E0E0C0800000000002060E67
:100420000E0E0E0E0EF6FAFC0000001038383838AA
:10043000383838BBD7EF00000080C0E0E0E0E0E0F3
:10044000E0DFBF7F0000FCF8F0000000000000F0DB
:10045000F8FC00000F173B383838383838BBD7EF76
:1004600000000000000000000000001F3F7F0000AF
:10047000FCFAF60E0E0E0E0E0E06020000000F170E
:100480003B383838383838B8D0E000000080C0E059
:10049000E0E0E0E0E0DFBF7F0000FCFAF60E0E0EC9
:1004A0000E0E0E0602000000EFD7BB383838383881
:1004B00038B8D0E000007FBFDFE0E0E0E0E0E0DF60
:1004C000BF7F00000002060E0E0E0E0E0EF6FAFCA6
:1004D000000000000000000000000083C7EF0000E3
:1004E0000000000000000000001F3F7F0000FCFA39
:1004F000F60E0E0E0E0E0EF6FAFC0000EFD7BB380D
:100500003838383838BBD7EF00007FBFDFE0E0E095
:10051000E0E0E0DFBF7F0000FCFAF60E0E0E0E0EEC
:100520000EF6FAFC00000F173B383838383838BB65
:10053000D7EF00000080C0E0E0E0E0E0E0DFBF7F58
:10054000000608205F0000000000000000002F00EF
:100550000000000700070000147F147F1400242A05
:100560007F2A120023130864620036495522500086
:10057000000503000000001C224100000041221C75
:10058000000014083E08140008083E080800000097
:10059000A060000008080808080000606000000073
:1005A0002010080402003E5149453E0000427F40B1
:1005B00000004261514946002141454B3100181469
:1005C000127F10002745454539003C4A4949300013
:1005D0000171090503003649494936000649492990
:1005E0001E000036360000000056360000000814D9
:1005F00022410000141414141400004122140800B5
:10060000020151090600324959513E007C12111273
:100610007C007F49494936003E41414122007F41EB
:1006200041221C007F49494941007F090909010015
:100630003E4149497A007F0808087F0000417F4118
:1006400000002040413F01007F08142241007F400C
:10065000404040007F020C027F007F0408107F00B2
:100660003E4141413E007F09090906003E415121BA
:100670005E007F09192946004649494931000101B8
:100680007F0101003F4040403F001F2040201F00ED
:100690003F4038403F0063140814630007087008A7
:1006A0000700615149454300007F414100AA55AA16
:1006B00055AA55000041417F0000040201020400D8
:1006C00040404040400000030500000020545454C6
:1006D00078007F484444380038444444200038447B
:1006E00044487F00385454541800087E0901020021
:1006F00018A4A4A47C007F080404780000447D4072
:1007000000004080847D00007F10284400000041EC
:100710007F4000007C04180478007C080404780002
:10072000384444443800FC24242418001824241895
:10073000FC007C0804040800485454542000043F82
:10074000444020003C4040207C001C2040201C00F5
:100750003C4030403C004428102844001CA0A0A08D
:100760007C004464544C440000107C820000000073
:10077000FF00000000827C1000000006090906004E
:100780000000080002010000030407000000000050
:1007900000000000000000230026002900010204E0
:1007A00008102040800102040810200102040810F3
:1007B0002000000000250028002B0004040404048D
:1007C00004040402020202020203030303030300FF
:1007D0005EBCE2613FDD83C29C7E20A3FD1F419D84
:1007E000C3217FFCA2401E5F01E3BD3E6082DC238B
:1007F0007D9FC1421CFEA0E1BF5D0380DE3C62BE66
:10080000E0025CDF81633D7C22C09E1D43A1FF4668
:1008100018FAA427799BC584DA3866E5BB5907DB4B
:10082000856739BAE406581947A5FB7826C49A6546
:100830003BD987045AB8E6A7F91B45C6987A24F82D
:10084000A6441A99C7257B3A6486D85B05E7B98C1C
:10085000D2306EEDB3510F4E10F2AC2F7193CD111B
:100860004FADF3702ECC92D38D6F31B2EC0E50AFF2
:10087000F1134DCE90722C6D33D18F0C52B0EE32FD
:100880006C8ED0530DEFB1F0AE4C1291CF2D73CAD8
:10089000947628ABF517490856B4EA6937D58B57D3
:1008A00009EBB536688AD495CB2977F4AA4816E9BE
:1008B000B7550B88D6346A2B7597C94A14F6A874B5
:1008C0002AC896154BA9F7B6E80A54D7896B3500A4
:1008D000000000240027002A0000407A10F35A008C
:1008E000A0724E18090010A5D4E80000E876481759
:1008F0000000E40B54020000CA9A3B000000E1F53E
:1009000005000080969800000040420F000000A003
:100910008601000000102700000000E8030000002E
:10092000006400000000000A000000000001000058
:100930000000002C76D888DC674F0823DFC1DFAECB
:1009400059E1B1B796E5E3E453C63AE65199769694
:10095000E8E6C28426EB898C9B62ED407C6FFCEF5D
:10096000BC9C9F40F2BAA56FA5F490055A2AF75C8B
:10097000936B6CF9676DC11BFCE0E40D47FEF5203D
:10098000E6B500D0ED902E03009435770500808405
:100990001E080000204E0A000000C80C3333333319
:1009A0000F986E12831141EF8D2114893BE6551685
:1009B000CFFEE6DB18D1844B381BF77C1D901DA4BD
:1009C000BBE424203284725E228100C9F124ECA1B0
:1009D000E53D2700271911241FBECFEFD8E0DEBF69
:1009E000CDBF12E0A0E0B1E0E8E0F4E402C0059081
:1009F0000D92A835B107D9F725E0A8E5B2E001C00E
:100A00001D92A738B207E1F714E0CBEED4E004C0A2
:100A10002197FE010E94471ACA3ED107C9F70E94DA
:100A20000A120C9402220C94000084359105F8F40B
:100A300060337105E0F49B0143E0369527954A95B4
:100A4000E1F744E5429FF001439FF00D11248E0F22
:100A50009F1FFC01E75AFC4F6770772781E090E009
:100A600001C0880F6A95EAF7908D892B808F0895D1
:100A7000CF92DF92EF92FF920F931F93CF93DF936A
:100A80008435910598F46033710580F46A017B0127
:100A90008C01C0E0D0E0CC15DD0544F4BE016E0D44
:100AA0007F1DC8010E9415052196F5CFDF91CF91DA
:100AB0001F910F91FF90EF90DF90CF9008958435B4
:100AC000910528F56033710510F5FB01E770FF27EC
:100AD00021E001C0220FEA95EAF733E075956795AA
:100AE0003A95E1F734E5369FF001379FF00D112478
:100AF0008E0F9F1FFC01EF58FC4F80E090E08417A1
:100B000095072CF43081322B31930196F8CF08955C
:100B1000E9EAF2E0A089B18982E08C93A485B585E9
:100B20001C92A685B7858FEC8C93108EA489B5890D
:100B300086E08C93A289B3898C9180618C93A28981
:100B4000B3898C9188608C93A289B3898C918068D9
:100B50008C930288F389E02D80818F7D80830895B6
:100B60001F93CF93DF93EDE8F7E09491EBEAF7E082
:100B7000D491E9ECF7E0C491CC23D9F0182F992354
:100B800019F0892F0E94A80BEC2FF0E0EE0FFF1F49
:100B9000EF54F84FA591B4918FB7F894111105C097
:100BA0009C91ED2FE095E92302C0EC91ED2BEC93A5
:100BB0008FBFDF91CF911F91089590916703E091CE
:100BC0006103F09162032081422F50E0292F30E031
:100BD00020953095242335232083E0915D03F09107
:100BE0005E0390916503208161110BC0422F50E09C
:100BF000292F30E02095309524233523208348E0A9
:100C000003C0922B9083FBCFE0915B03F0915C03D8
:100C100090916403208187FF03C0922B908309C0C9
:100C2000622F70E0292F30E020953095262337235E
:100C30002083880F90916303E0915903F0915A0348
:100C40002081622F70E0292F30E0209530952623F7
:100C500037232083000090916303E0915903F091C2
:100C60005A032081922B9083415071F68091670343
:100C7000E0916103F09162039081892B8083089554
:100C8000CF93DF9380916905811112C060E080E409
:100C90000E94DD0560E080E80E94DD05C1E7D3E049
:100CA00061E089910E94DD0585E0C936D807C1F76A
:100CB000DF91CF9108958435910500F5603371057A
:100CC000E8F49B0143E0369527954A95E1F744E522
:100CD000429FF001439FF00D11248E0F9F1FFC01D6
:100CE000E75AFC4F6770772781E090E001C0880FDA
:100CF0006A95EAF78095908D8923808F08957F9279
:100D00008F929F92AF92BF92CF92DF92EF92FF921B
:100D10000F931F93CF93DF937C01C4E1D0E068E28F
:100D2000762ECC24C394D12CCE0144979C0143E071
:100D3000359527954A95E1F7729E8001739E100DB7
:100D4000112487709927560102C0AA0CBB1C8A95F2
:100D5000E2F75DE2852E912C0D521109F801E80DA4
:100D6000F91DEE0DFF1DE491F0E0EA21FB21BE012B
:100D7000C401EF2B19F00E94150502C00E945B060A
:100D80008FEF881A980A85E58816910439F721961D
:100D9000CD32D10549F6DF91CF911F910F91FF9090
:100DA000EF90DF90CF90BF90AF909F908F907F900B
:100DB0000895CF93DF93FC01448155816081718157
:100DC00089EA92E00E94A00EEC0161E371E089EAF9
:100DD00092E00E94C5108C0F9D1FDF91CF91089566
:100DE0002F923F924F925F926F927F928F929F923B
:100DF000AF92BF92CF92DF92EF92FF920F931F9329
:100E0000CF93DF93CDB7DEB728970FB6F894DEBF48
:100E10000FBECDBF78876F831A01FC0101900020BF
:100E2000E9F731979F01281B390B3C832B836F30E7
:100E3000774281F440916C036B817C81469F9001E5
:100E4000479F300D112444E550E0DA01A21BB30B9B
:100E5000B887AF832F8138852E303742B1F4409167
:100E60006C036B817C81469F9001479F300D11245C
:100E700044E550E0421B530B57FF02C04F5F5F4FEA
:100E80009A013595279538872F839E838D83C12CB2
:100E9000D12C2B813C81C216D3060CF0F4C090916A
:100EA0006C039C9D80019D9D100D11242F81388520
:100EB000020F131FAD81BE812D91BE83AD83809142
:100EC0006D03582F577030E040916E0351116EC082
:100ED000869586958695241B3109989FC00111241B
:100EE000289FA001299F500D389F500D11249A0171
:100EF0002C5F3F4F3A8329834101A12CB12C809173
:100F00006D0386958695869590E0A816B9060CF037
:100F1000B6C049805A80380180916C0390E09301FB
:100F2000201B310B28173907D4F5E12CF12C8091C7
:100F30006C038A9DF0018B9DF00D1124E40DF51DCD
:100F400080916A0390916B03E80FF91FE491F0E040
:100F50000E2C02C0F595E7950A94E2F78091700394
:100F6000B701680D791DE0FF03C0811103C006C001
:100F7000811104C0C3010E945B0603C0C3010E942B
:100F800015053FEFE31AF30A48E0E416F10479F699
:100F90006FEF661A760A7FEF471A570ABDCF8FEFB9
:100FA000A81AB80A98E0890E911CA9CF241B310910
:100FB000989FC001112443E0959587954A95E1F7E4
:100FC000289F5001299FB00C389FB00C1124A4E039
:100FD000AA0EB11CE0916A03F0916B03EA0DFB1DB0
:100FE000E4914E2E512C380157E0852E912C8091A2
:100FF0006C0390E09301201B310B281739070CF08C
:101000003EC0710180916D0390E097012219330970
:101010002817390784F520917003C201082C02C0FB
:10102000959587950A94E2F7B70180FF04C0C30144
:10103000211104C006C0C301211103C00E945B0638
:1010400002C00E941505B1E08B1A910897FE0FC0EF
:10105000EFEFAE1ABE0AE0916A03F0916B03EA0D5E
:10106000FB1DE4914E2E512C87E0882E912CFFEF32
:10107000EF1AFF0AC7CF2FEF621A720AB8CF3FEFFD
:10108000C31AD30A06CF28960FB6F894DEBF0FBE58
:10109000CDBFDF91CF911F910F91FF90EF90DF9027
:1010A000CF90BF90AF909F908F907F906F905F9008
:1010B0004F903F902F9008958F929F92AF92BF9242
:1010C000CF92DF92EF92FF920F931F93CF93DF9314
:1010D000CDB7DEB75B014A01CDB6DEB6FC010481B7
:1010E000158198012F5F3F4F4DB75EB7421B530BE1
:1010F0000FB6F8945EBF0FBE4DBFEDB7FEB7319689
:101100007F01232B81F0309771F00115110551F00B
:10111000FC0160817181A801C7010E94781DF7015F
:10112000E00FF11F1082A401B501C7010E94F00673
:101130000FB6F894DEBE0FBECDBEDF91CF911F91EA
:101140000F91FF90EF90DF90CF90BF90AF909F9066
:101150008F900895A9E5B3E052969C938E93519792
:10116000FC01249153962C9353973196E491549615
:10117000EC935497FC013296E4915596EC93559775
:10118000FC013396849156968C93569757961C92F1
:101190000895CF93DF93BC0189EA92E00E94C510C5
:1011A000EC0161E371E089EA92E00E94C5108C0FC6
:1011B0009D1FDF91CF910895AF92BF92CF92DF92A2
:1011C000EF92FF920F931F93CF93DF938B01BC019C
:1011D00080914B0390914C030E94150D40E06EEB03
:1011E00080914B0390914C030E94D30CE80168015D
:1011F00089E0C80ED11CA0904B03B0904C0388E04E
:10120000E82EF12C01E010E0C5010E94420D811191
:10121000102B000F81E0E81AF108B1F71993CC15F3
:10122000DD0549F780914B0390914C030E94660DB8
:1012300091E0813009F090E0892FDF91CF911F91EB
:101240000F91FF90EF90DF90CF90BF90AF900895F7
:101250000F931F93CF93DF93CDB7DEB729970FB6C8
:10126000F894DEBF0FBECDBFFC012081203161F1BB
:101270008C0180914B0390914C030E94660D882352
:1012800009F1BE016F5F7F4FC8010E94DC0888230F
:10129000C9F068E0CE0101960E94C60C99858913B9
:1012A00011C08D818F3361F020F48F3159F489E0C2
:1012B0000CC08F3519F08F3739F004C08BE005C0B2
:1012C0008AE003C080E001C08CE029960FB6F89454
:1012D000DEBF0FBECDBFDF91CF911F910F9108955B
:1012E000E1E7F3E0119285E0E936F807D9F70895D0
:1012F000CF92DF92EF92FF920F931F93CF93DF93E2
:10130000EC018B01681779072CF4982F8D2FEB01D6
:10131000092F182F7801EC1AFD0A85E0E816F10470
:101320000CF442C06E018FEFC81AD80AB60181E0F2
:1013300090E00E941505B60182E590E00E94150537
:10134000680181E0C81AD108B60181E090E00E94EE
:101350001505B60182E590E00E94150540E550E0D4
:10136000BE0182E090E00E945F0540E550E0B801D8
:1013700082E090E00E945F058701035011092296E8
:10138000A801BE0180E090E00E943805A801BE01DE
:1013900083E590E0DF91CF911F910F91FF90EF9047
:1013A000DF90CF900C943805DF91CF911F910F9172
:1013B000FF90EF90DF90CF900895CF92DF92EF9261
:1013C000FF920F931F93CF93DF938435910598F489
:1013D0006033710580F46A017B018C01C0E0D0E0CC
:1013E000CC15DD0544F4BE016E0D7F1DC8010E94C1
:1013F0005B062196F5CFDF91CF911F910F91FF9062
:10140000EF90DF90CF9008958435910538F56033E3
:10141000710520F5FB01E770FF2721E030E001C0F6
:10142000220FEA95EAF7209533E0759567953A958E
:10143000E1F734E5369FF001379FF00D11248E0F50
:101440009F1FFC01EF58FC4F80E090E08417950748
:101450002CF43081322331930196F8CF0895FC01AA
:10146000918D828D981761F0828DDF01A80FB11DDB
:101470005D968C91928D9F5F9F73928F90E00895FF
:101480008FEF9FEF0895FC01918D828D981731F0B9
:10149000828DE80FF11D858D90E008958FEF9FEF0D
:1014A0000895FC01918D228D892F90E0805C9F4FE3
:1014B000821B91098F739927089589EA92E00E940F
:1014C000510A21E0892B09F420E0822F0895FC01C4
:1014D000848DDF01A80FB11DA35ABF4F2C91848DBD
:1014E00090E001968F739927848FA689B7892C93F2
:1014F000A089B1898C9180648C93938D848D98138D
:1015000006C00288F389E02D80818F7D8083089555
:10151000EF92FF920F931F93CF93DF93EC0181E043
:10152000888F9B8D8C8D981305C0E889F9898081FF
:1015300085FD24C0F62E0B8D10E00F5F1F4F0F733B
:101540001127E02E8C8DE8120CC00FB607FCFACFE5
:10155000E889F989808185FFF5CFCE010E94670A6D
:10156000F1CF8B8DFE01E80FF11DE35AFF4FF082A2
:101570000B8FEA89FB898081806207C0EE89FF8931
:101580006083E889F98980818064808381E090E0CC
:10159000DF91CF911F910F91FF90EF900895CF931E
:1015A000DF93EC01888D8823C9F0EA89FB8980816B
:1015B00085FD05C0A889B9898C9186FD0FC00FB63D
:1015C00007FCF5CF808185FFF2CFA889B9898C917E
:1015D00085FFEDCFCE010E94670AE7CFDF91CF9163
:1015E000089580E090E0892B29F00E945D0A811126
:1015F0000C94000008953FB7F89480917F05909176
:101600008005A0918105B091820526B5A89B05C0F3
:101610002F3F19F00196A11DB11D3FBFBA2FA92F71
:10162000982F8827820F911DA11DB11DBC01CD01EE
:1016300042E0660F771F881F991F4A95D1F70895DA
:10164000FC0190810180F281E02D892F809560FF5F
:1016500012C0F8942281822382838181892B818325
:10166000A3E2B0E01197F1F78281982B92837894EE
:1016700087ED90E011C0F8942281822382838181DA
:10168000892B8183AFEFB0E01197F1F78281982B1E
:10169000928378948FE090E00197F1F70895089590
:1016A0001F920F920FB60F9211242F933F934F93D7
:1016B0005F936F937F938F939F93AF93BF93EF93BA
:1016C000FF9389EA92E00E94670AFF91EF91BF9130
:1016D000AF919F918F917F916F915F914F913F91CA
:1016E0002F910F900FBE0F901F9018951F920F9281
:1016F0000FB60F9211242F938F939F93EF93FF9325
:10170000E091B902F091BA028081E091BF02F091BC
:10171000C00282FD12C090818091C2028F5F8F73E0
:101720002091C302821751F0E091C202F0E0E75528
:10173000FD4F958F8093C20201C08081FF91EF9190
:101740009F918F912F910F900FBE0F901F90189522
:10175000833081F028F4813099F08230A1F008952F
:101760008730A9F08830B9F08430D1F480918000BE
:101770008F7D03C0809180008F77809380000895D3
:1017800084B58F7702C084B58F7D84BD0895809124
:10179000B0008F7703C08091B0008F7D8093B00040
:1017A0000895CF93DF93282F30E0F901E158F84FE7
:1017B0008491F901E356F84FD491F901E554F84FBB
:1017C000C491CC2391F081110E94A80BEC2FF0E082
:1017D000EE0FFF1FED56F84FA591B491EC91ED235C
:1017E00081E090E021F480E002C080E090E0DF91B1
:1017F000CF910895CF93DF9390E0FC01E356F84F2B
:101800002491FC01E554F84F8491882361F190E024
:10181000880F991FFC01E153F74FC591D491FC014A
:10182000EF54F84FA591B491611109C09FB7F89496
:101830008881209582238883EC912E230BC062300F
:1018400061F49FB7F8943881822F80958323888331
:10185000EC912E2B2C939FBF06C08FB7F894E88194
:101860002E2B28838FBFDF91CF9108958F929F9267
:10187000AF92BF92CF92DF92EF92FF926B017C0109
:101880000E94FB0A4B015C01C114D104E104F10484
:10189000F1F00E94FB0ADC01CB0188199909AA0921
:1018A000BB09883E9340A105B10570F321E0C21A3F
:1018B000D108E108F10888EE880E83E0981EA11C8B
:1018C000B11CC114D104E104F10419F7DDCFFF907C
:1018D000EF90DF90CF90BF90AF909F908F90089542
:1018E0002FB7F89460917B0570917C0580917D0500
:1018F00090917E052FBF08951F920F920FB60F9201
:1019000011242F933F938F939F93AF93BF93809115
:101910007B0590917C05A0917D05B0917E0530916D
:101920007A0523E0230F2D3720F40196A11DB11D68
:1019300005C026E8230F0296A11DB11D20937A054C
:1019400080937B0590937C05A0937D05B0937E05E5
:1019500080917F0590918005A0918105B0918205CD
:101960000196A11DB11D80937F0590938005A093E2
:101970008105B0938205BF91AF919F918F913F9167
:101980002F910F900FBE0F901F901895DC01E0E093
:10199000615038F08D91E827F0E0E153F84FE49181
:1019A000F7CF8E2F0895CF92DF92EF92FF920F9391
:1019B0001F93CF93DF931F92CDB7DEB76C01E62E56
:1019C00008E010E0FF24F39461E08F2D8E2109F4EC
:1019D00060E0C60149830E94200BFF0C01501109F1
:1019E00049810115110581F7411115C0F894D601FF
:1019F0001196ED91FC91129791818C91809589239C
:101A000081831196ED91FC91129792818C91809532
:101A10008923828378940F90DF91CF911F910F914A
:101A2000FF90EF90DF90CF900895CF92DF92EF92EA
:101A3000FF920F931F93CF93DF931F92CDB7DEB723
:101A40008C01F62E40E065E579830E94D30CCF2C03
:101A50007981D72E760188E0E80EF11CF6016191BC
:101A60006F0140E0C8010E94D30CCE14DF04B1F72F
:101A70000F90DF91CF911F910F91FF90EF90DF902A
:101A8000CF900895FC0190810180F281E02DF894BF
:101A90008181892B81832281892F8095282322832C
:101AA000A7E0B0E01197F1F7218182238183A3E2BF
:101AB000B0E01197F1F780817894EFECF0E0319786
:101AC000F1F7982381E009F480E00895FC0190810A
:101AD0000180F281E02DF8948181292F20958223C5
:101AE000818378948DE743E050E0815021F1DA0161
:101AF0001197F1F730813923C1F3F8948281822361
:101B000082838181892B81837894ABE7B7E0119739
:101B1000F1F7F894818128232183A3E1B1E01197A3
:101B2000F1F78081982381E009F080E07894E3E682
:101B3000F6E03197F1F70895AF92BF92CF92DF921E
:101B4000EF92FF920F931F93CF93DF931F92CDB726
:101B5000DEB75C01E62ED72EFC01858581115DC0C4
:101B6000C5010E94660D811105C0F5011386158619
:101B700014866BC040E060EFC5010E94D30C01E009
:101B8000F12CC12C11E0C5010E94420D682FC50146
:101B900069830E94420D6981613019F48130B9F482
:101BA00033C04F2D50E068131BC0F5018385181713
:101BB00030F4E40FF51F8381802349F402C0181725
:101BC00031F060E0193058F4F501148708C0F501D0
:101BD000EF0DF11D8381802B838361E009C0C12E4D
:101BE000F501E40FF51F9381802F8095892383836E
:101BF000C5010E94200B1F5F000F11F4F39401E058
:101C0000F7E0FF1508F0BFCF113438F0F501C386B7
:101C1000C11015C081E0858712C0F50113861586B5
:101C2000148680E0D5011396EE2DFD2D9501255FDC
:101C30003F4F9D919193A217B307D9F706C0F501C5
:101C40008381882351F381E0EDCF0F90DF91CF9115
:101C50001F910F91FF90EF90DF90CF90BF90AF90CA
:101C60000895CF92DF92EF92FF92CF93DF93CDB79B
:101C7000DEB7A7970FB6F894DEBF0FBECDBF0E94A8
:101C8000700C6B017C018091580290915902A091D7
:101C90005A02B0915B02A7019601281B390B4A0B2F
:101CA0005B0BCA01B9011BA21AA21DA21CA21FA292
:101CB0001EA22AE0AE014F5F5F4F0E94BD1DBE0114
:101CC0006F5F7F4FCE0182960E942D1060E472E01C
:101CD000CE0101960E948A10BE016E5D7F4FCE013B
:101CE00001960E94FB0F0E94D906CE0101960E9428
:101CF0005910CE0182960E945910809158029091FD
:101D00005902A0915A02B0915B02C81AD90AEA0A94
:101D1000FB0A81E030ECC31634EDD30631E0E30674
:101D2000F10408F480E0A7960FB6F894DEBF0FBE6A
:101D3000CDBFDF91CF91FF90EF90DF90CF900895CE
:101D4000CF92DF92EF92FF920F931F93CF93DF9387
:101D50006C017A018B01C0E0D0E0CE15DF0589F07F
:101D6000D8016D918D01D601ED91FC910190F0812A
:101D7000E02DC6010995892B11F47E0102C0219640
:101D8000ECCFC701DF91CF911F910F91FF90EF90A2
:101D9000DF90CF9008950E94631D0F931F93CF9300
:101DA000DF93EC0188819981009729F02A813B819A
:101DB0002617370788F48B016F5F7F4F0E94991CAD
:101DC000009761F0998388831B830A832C813D816E
:101DD000232B11F4FC01108281E001C080E0DF912F
:101DE000CF911F910F910895CF93DF93EC018881DC
:101DF0009981009711F00E94011C198218821D829E
:101E00001C821B821A82DF91CF910895CF92DF92BC
:101E1000EF92FF920F931F93CF93DF93EC018B010F
:101E2000681779072CF4982F8D2FEB01092F182FA5
:101E30007801EC1AFD0A85E0E816F1040CF442C0C2
:101E40006E018FEFC81AD80AB60181E090E00E94B7
:101E50005B06B60182E590E00E945B06680181E0C6
:101E6000C81AD108B60181E090E00E945B06B60175
:101E700082E590E00E945B0640E550E0BE0182E012
:101E800090E00E94040A40E550E0B80182E090E052
:101E90000E94040A8701035011092296A801BE017D
:101EA00080E090E00E94DD09A801BE0183E590E09A
:101EB000DF91CF911F910F91FF90EF90DF90CF9026
:101EC0000C94DD09DF91CF911F910F91FF90EF905E
:101ED000DF90CF900895CF93DF93CDB7DEB76197B2
:101EE0000FB6F894DEBF0FBECDBFE0914B03F0916B
:101EF0004C03138615861486DF011B96CF010396CB
:101F00001E92A817B907E1F7BE01665F7F4FCF01A8
:101F10000E949C0D882341F067E0CE010A960E9442
:101F2000C60C9989891729F060E070E08EEF92EC79
:101F300059C080914B0390914C030E94660D8823F9
:101F4000F1F1BE016F5F7F4FCE010A960E94DC085F
:101F50008823A9F168E0CE0101960E94C60C9985FC
:101F600089132DC0698148E0649FB00111248A81E2
:101F7000282F30E0322F2227330F330F330F262B39
:101F8000372B8A858031C9F4688570E08F81AB0179
:101F9000481B5109CA019695982F882797958795D0
:101FA0000E941F1A60517109207F53E0220F331FD6
:101FB0005A95E1F7620F731F04C0B90102C060E8CF
:101FC00074EE613854EE75070CF4AECF072E000C9A
:101FD000880B990B0E94762020E030E040E05CE323
:101FE0000E94D52061960FB6F894DEBF0FBECDBF1C
:101FF000DF91CF910895EF92FF920F931F93CF93AC
:10200000DF93EC01FB0184819581E080F1800C81FC
:102010001D81E114F104B1F00097B9F0080F191F08
:10202000B801CE010E94CD0E882361F0288139814C
:102030008C819D81B701820F931F0E94711D1D83AA
:102040000C8303C0CE010E94F40ECE01DF91CF912C
:102050001F910F91FF90EF900895EF92FF920F93D1
:102060001F93CF93DF938C017B016115710569F09C
:10207000FB0101900020E9F73197EF01C61BD70B58
:10208000BE010E94CD0E811104C0C8010E94F40E51
:1020900008C0F801D583C483B701808191810E9473
:1020A000711DC801DF91CF911F910F91FF90EF90AB
:1020B0000895FC01808191810C94011C0F931F9362
:1020C000CF93DF93CDB7DEB762970FB6F894DEBF3C
:1020D0000FBECDBF8C01CB01F8011182108213829B
:1020E00012821582148250E0BE016F5F7F4F0E9402
:1020F000A71DBE016F5F7F4FC8010E942D10629621
:102100000FB6F894DEBF0FBECDBFDF91CF911F9108
:102110000F910895EF92FF920F931F93CF93DF9348
:10212000EC01198218821B821A821D821C826115A1
:10213000710521F18B01FB0101900020E9F7319736
:102140007F01E61AF70AB7010E94CD0E811109C07E
:10215000CE01DF91CF911F910F91FF90EF900C94E2
:10216000F40EFD82EC82B80188819981DF91CF91D4
:102170001F910F91FF90EF900C94711DDF91CF9103
:102180001F910F91FF90EF9008956115710579F0FF
:10219000FB0101900020E9F73197AF01461B570B77
:1021A000DC01ED91FC910280F381E02D099480E047
:1021B00090E008954F925F926F927F92EF92FF921C
:1021C0000F931F93CF93DF93CDB7DEB7A1970FB6D1
:1021D000F894DEBF0FBECDBF7C01FA01CB0119A27E
:1021E000223008F42AE08E010F5D1F4F422E512C41
:1021F000612C712CBF01A30192010E94A921F90158
:10220000CA01015011096A3014F4605D01C0695CB3
:10221000D8016C93232B242B252B61F7B801C70120
:102220000E94C510A1960FB6F894DEBF0FBECDBFB9
:10223000DF91CF911F910F91FF90EF907F906F9062
:102240005F904F9008954F925F926F927F928F921E
:102250009F92AF92BF92CF92DF92EF92FF926B016B
:102260007C01B42E9B01AC010E94671B882319F0EE
:102270006BE472E027C026013701E89477F82FEF6E
:102280003FEF4FE75FE7C301B2010E94671B811177
:102290000DC02FEF3FEF4FE75FE7C301B2010E9490
:1022A0006F2018161CF46FE472E00CC02FEF3FEFA4
:1022B0004FE75FE4C701B6010E94621B181694F451
:1022C00063E572E089EA92E0FF90EF90DF90CF90B3
:1022D000BF90AF909F908F907F906F905F904F9046
:1022E0000C94C5102FEF3FEF4FE75FECC701B6012D
:1022F0000E946F2087FDE4CF20E030E0A901C701F4
:10230000B6010E946F2087FF11C0E091A902F091F1
:10231000AA020190F081E02D6DE289EA92E0099530
:102320004C01F7FAF094F7F8F09402C0812C912C4C
:10233000A12C60E070E080E09FE3AB1441F020E06E
:1023400030E040E251E40E94BA1AA394F6CF9B0118
:10235000AC01C701B6010E944E1A2B013C010E943C
:10236000331B6B017C010E9474209B01AC01C301F3
:10237000B2010E944D1A2B013C012AE0B701A601CF
:1023800089EA92E00E94DA107C01E80CF91CBB207B
:1023900041F06EE471E089EA92E00E94C510E80E17
:1023A000F91EDB2CDD2031F120E030E040E251E489
:1023B000C301B2010E94D5202B013C010E94331BB6
:1023C0004B01A12CB12C2AE0B501A40189EA92E0CD
:1023D0000E94DA10E80EF91EC501B4010E947420B3
:1023E0009B01AC01C301B2010E944D1A2B013C01BB
:1023F000DA94D8CFC701FF90EF90DF90CF90BF90D5
:10240000AF909F908F907F906F905F904F900895C6
:102410000C94C510CF93DF93CDB7DEB7A8970FB656
:10242000F894DEBF0FBECDBF789484B5826084BDC2
:1024300084B5816084BD85B5826085BD85B58160C8
:1024400085BD80916E00816080936E001092810046
:102450008091810082608093810080918100816001
:1024600080938100809180008160809380008091C2
:10247000B10084608093B1008091B000816080934E
:10248000B00080917A00846080937A0080917A0015
:10249000826080937A0080917A00816080937A00D4
:1024A00080917A00806880937A001092C100109227
:1024B0008F0210929002109291021092920210924A
:1024C0005D0210925E0210925F021092600260ED57
:1024D00077E080E090E00E94360C89EA92E09093E9
:1024E0008E0280938D020E9488050E94700C0091DC
:1024F0005D0210915E0220915F0230916002DC016A
:10250000CB01801B910BA20BB30BC297A105B105A8
:1025100038F463E070E080E090E00E94360CE5CF94
:102520000E94700C60935D0270935E0280935F0264
:102530009093600262E271E080918D0290918E0230
:102540000E9408126AE070E080E090E00E94360C81
:1025500081E0809361020E94880580916503E0918B
:102560005D03F0915E039081892B808380916403E9
:10257000E0915B03F0915C039081892B80838091D3
:102580006303E0915903F0915A039081892B808372
:1025900080916703E0916103F09162039081892B40
:1025A000808390916603E0915F03F09160038081E6
:1025B000282F30E0892F90E08095909582239323F7
:1025C00080836AE070E080E090E00E94360C8091A9
:1025D0006603E0915F03F09160039081892B808313
:1025E00060E081E20E94DD0560E086EC0E94DD058E
:1025F00060E086E00E94DD0560E083E10E94DD0589
:1026000060E080E20E94DD0560E080E40E94DD057C
:1026100060E080E80E94DD0560E08CE00E94DD055E
:102620000E9470090E94400610926B0310926A0388
:102630001092690586E490E090936B0580936A059B
:1026400081E495E00E94AA0860E084E00E94FA0B11
:1026500060E085E00E94FA0B60E086E00E94FA0BE1
:1026600060E086E00E94FA0B61E08EE00E94FA0BC7
:10267000E0914B03F0914C03138615861486DF011D
:102680001B9633961E92AE17BF07E1F710924A03CE
:1026900011E0BE016F5F7F4F80914B0390914C031F
:1026A0000E949C0D882309F44AC067E0CE01019680
:1026B0000E94C60C98858913ECCF80914603811146
:1026C00027C080914B0390914C030E94660DBE0180
:1026D0006F5F7F4F80914B0390914C030E94150DCB
:1026E00040E064EB80914B0390914C030E94D30C2B
:1026F00080914B0390914C030E94420D082F8091D2
:102700004B0390914C030E94660D002309F489C588
:1027100000914703CE0101960E942809801718F402
:102720008091470304C0CE0101960E94280980933E
:10273000470380914A038F5F80934A03AACFC090DA
:102740009702D090980286010E5F1F4F1093980257
:1027500000939702011584E0180741F41092980243
:1027600010929702EE24E394F12C3FC0E12CF12C5F
:10277000C7010E949321811157C58FEFE81AF80A0B
:10278000E11484E0F806A1F760910001C8010E94FD
:102790009B2180919702909198026091040102968A
:1027A0000E949B21DFCF20E030E040E05FE3C301E7
:1027B000B2010E944E1A9B01AC01C501B4010E94F6
:1027C000621B87FF78C185E00E94D10B8C0190933A
:1027D000A8028093A7028091A5029091A6020817F3
:1027E000190709F071C10E94F10A64E371E089EAF6
:1027F00092E00E94081280914B0390914C030E943A
:10280000660D40E06CEC80914B0390914C030E946C
:10281000D30C4091460364E480914B0390914C03A8
:102820000E94D30C809148038823A9F0E0914703CC
:10283000E950E33040F4F0E0EE0FFF1FE45FFE4F9D
:102840006081718102C06EEE72E0072E000C880B71
:10285000990B0E94360C60E571E089EA92E00E94D3
:1028600008120E946B0F4B015C010E946B0F2B0141
:102870003C0165E571E089EA92E00E9408120E943D
:102880006B0F42E00E94231165E571E089EA92E056
:102890000E94081242E0C501B4010E94231181E4A4
:1028A00095E00E94AA0842E050E062E070E083E711
:1028B00091E00E94F00660910401709105014AE0E8
:1028C000CE0101960E945E1042E050E06FE070E0A1
:1028D000CE0101960E945C08CE0101960E9459101B
:1028E00042E050E067E370E086E791E00E94F00686
:1028F0008BE193E00E94AA08C301B2010E942C1B45
:102900004AE0CE0101960E945E1044E150E062E090
:1029100070E0CE0101960E945C08CE0101960E94F3
:1029200059100E9440066091040170910501072E24
:10293000000C880B990B0E9476202B013C0184E04F
:102940000E94D10B8C0180919502909196020817FC
:102950001907B1F06AE070E080E090E00E94360C68
:102960000115110549F4809193029091940201960A
:102970009093940280939302109396020093950291
:1029800060919302709194024AE0CE0101960E94F8
:102990005E106CE771E0CE0182960E948A10BE0143
:1029A0006F5F7F4FCE0182960E94FB0F0E94D90677
:1029B000CE0182960E945910CE0101960E945910B4
:1029C00080919302909194028230910508F03FC06B
:1029D00082E691E00E947F060E9440062DEC3CECCE
:1029E0004CEC5EE3C301B2010E944D1A9B01AC01A5
:1029F000C501B4010E946F2087FFD5CE1BA21AA289
:102A00001DA21CA21FA21EA28E010F5F1F4F22E05B
:102A100044E0C301B2010E94871DBC01CE01829631
:102A20000E942D1062E871E0C8010E948A10BE0168
:102A30006E5D7F4FC8010E94FB0F0E94D906C8013E
:102A40000E945910CE0182960E94591019C08230FE
:102A5000910549F585EE90E00E947F060E944006B0
:102A600020E030E040E05FE3C301B2010E944E1A73
:102A70009B01AC01C501B4010E94621B181614F43D
:102A800081E01AC020E030E040E05FE3C301B20122
:102A90000E944D1A9B01AC01C501B4010E946F2038
:102AA00087FF91CE08C0039751F488E690E00E941A
:102AB0007F060E94400680E00E94B00584CE1092FE
:102AC0009402109293027FCE6AE070E080E090E082
:102AD0000E94360C012B09F09BC369E971E089EA79
:102AE00092E00E9408120091A3021091A4020F5FCD
:102AF0001F4F1093A4020093A3020E94700C6093D6
:102B000058027093590280935A0290935B024AE0F4
:102B1000B801CE0101960E945E10CE0101960E947E
:102B2000D906CE0101960E945910F0920301E0925D
:102B300002016CEA71E089EA92E00E9408120E94A8
:102B4000700981E495E00E94AA0842E050E06EE03E
:102B500077E287EB91E00E94F0064FE050E06EE0F4
:102B600077E285EC91E00E94F0064EE150E06EE0E5
:102B700077E282ED91E00E94F0066DE070E080E087
:102B800090E00E9478090E944006A12CB12C01E03F
:102B900010E08091020190910301892B09F438C360
:102BA0008091A3029091A402019709F008C184E0EA
:102BB0000E94D10B9093A2028093A1020E94310E39
:102BC000882349F01092A4021092A30210920301EC
:102BD000109202011DC3C090A102D090A202809168
:102BE0009F029091A002C816D90609F446C06AE077
:102BF00070E080E090E00E94360CC114D104A9F589
:102C00000F5F1F4F0430110589F002301105F9F0F4
:102C10000330110551F56CE170E08DE090E00E9409
:102C2000060F6BE270E08CE190E01BC06BE270E09D
:102C30008CE190E00E94060F6DE070E080E090E093
:102C40000E9478090E94400601E010E00EC06DE08D
:102C500070E080E090E00E94060F6CE170E08DE093
:102C600090E00E9478090E944006D092A002C09293
:102C70009F0287ED91E00E94C90886E00E94D10B77
:102C80006C0190939E0280939D0280919B02909193
:102C90009C02C816D90609F443C06AE070E080E0DF
:102CA00090E00E94360CC114D104B1F50150110915
:102CB00019F10230110589F003301105E9F00130F6
:102CC000110551F56CE170E08DE090E00E94060F77
:102CD0006DE070E080E090E00AC06BE270E08CE1B3
:102CE00090E00E94060F6CE170E08DE090E00E94A1
:102CF00078090E94400610C06DE070E08EEF9FEFF3
:102D00000E94060F6BE270E08CE190E00E9478096F
:102D10000E94400603E010E0D0929C02C0929B0209
:102D20004AE0B801CE0101960E945E1060EE71E0AB
:102D3000CE0182960E948A10BE016F5F7F4FCE0146
:102D400082960E94FB0F0E94D906CE0182960E94B5
:102D50005910CE0101960E94591085E00E94D10BB6
:102D60006C019093A8028093A7028A159B0539F104
:102D70006AE070E080E090E00E94360CCD28D9F443
:102D80008AEE91E00E94C9086091A3027091A402AA
:102D90006F5F7F4F7093A4026093A3024AE0CE015D
:102DA00001960E945E10CE0101960E94D906CE01C6
:102DB00001960E945910A090A702B090A80280919D
:102DC000A3029091A402029709F0E3CE033011050B
:102DD00059F41092A4021092A302109203011092CF
:102DE00002010E94700914C20E947009812C912C6A
:102DF0000E94310E882329F01092A4021092A3029F
:102E0000F7C188EF91E00E94C9084AE0B801CE01FD
:102E100001960E945E10CE0101960E94D906CE0155
:102E200001960E94591010939A020093990282E031
:102E300092E00E94C9086091990270919A024AE05A
:102E4000CE0101960E945E10CE0101960E94D90625
:102E5000CE0101960E9459108091990290919A0298
:102E60000197029708F061C18DE092E00E94C908C5
:102E700084E00E94D10B9093A2028093A1028091E2
:102E8000990290919A020297A9F481E495E00E9438
:102E9000AA0844E050E06EE077E289EC91E00E94FD
:102EA000F0068FED91E00E94AA08609104017091F4
:102EB000050114C081E495E00E94AA0844E050E0B6
:102EC0006EE077E28BEB91E00E94F0068BE193E0FD
:102ED0000E94AA0860910001709101014AE0CE01B0
:102EE00001960E945E1044E150E06EE077E2CE0170
:102EF00001960E945C08CE0101960E9459100E9422
:102F00004006C090A102D090A20280919F029091B1
:102F1000A002C816D90609F459C06AE070E080E042
:102F200090E00E94360CCD2809F048C087E192E07D
:102F30000E94C9088091990290919A02823091056D
:102F400081F4C0900401D090050181E0C816D1043D
:102F5000A9F181E0C81AD108D0920501C0920401FC
:102F600015C0019759F5C0900001D090010181E092
:102F7000C81AD10880910401909105010296C816E3
:102F8000D906E1F0D0920101C09200018BE193E0FB
:102F90000E94AA084AE0B601CE0101960E945E1086
:102FA00044E150E06EE077E2CE0101960E945C08B9
:102FB000CE0101960E9459100E9440068091A10204
:102FC0009091A2029093A00280939F0286E00E94BB
:102FD000D10B90939E0280939D02809199029091D3
:102FE0009A020297A9F481E495E00E94AA0844E0BD
:102FF00050E06EE077E289EC91E00E94F0068BE110
:1030000093E00E94AA08609104017091050114C028
:1030100081E495E00E94AA0844E050E06EE077E287
:103020008BEB91E00E94F0068BE193E00E94AA08EE
:1030300060910001709101014AE0CE0101960E9469
:103040005E1044E150E06EE077E2CE0101960E940E
:103050005C08CE0101960E9459100E944006C09063
:103060009D02D0909E0280919B0290919C02C81676
:10307000D90609F455C06AE070E080E090E00E9453
:10308000360CCD2809F044C08091990290919A02A3
:1030900082309105A1F4C0900401D09005018FEF1A
:1030A000C81AD80A80910001909101010297C816B0
:1030B000D90671F1D0920501C092040111C00197A7
:1030C00039F5C0900001D090010187E7C816D104FE
:1030D000FCF48FEFC81AD80AD0920101C092000107
:1030E0008BE193E00E94AA084AE0B601CE01019666
:1030F0000E945E1044E150E06EE077E2CE0101965E
:103100000E945C08CE0101960E9459100E94400660
:1031100080919D0290919E0290939C0280939B02CD
:1031200085E292E00E94C90804C010929A021092AF
:10313000990285E00E94D10B6C019093A8028093C4
:10314000A7028815990509F453CE6AE070E080E083
:1031500090E00E94360CCD2809F055C06091A30282
:103160007091A4026F5F7F4F7093A4026093A302DB
:103170004AE0CE0101960E945E10CE0101960E94A7
:10318000D906CE0101960E9459108091A302909118
:10319000A4020397C1F589E292E00E94C9086091F8
:1031A0000001C0909702D0909802C60168A70E94C3
:1031B000932168A5681719F0C6010E949B216091B0
:1031C0000401C0909702D090980282E0C80ED11CF2
:1031D000C60168A70E94932168A5681719F0C60167
:1031E0000E949B211092A4021092A3020E947009D7
:1031F000109203011092020165E372E089EA92E005
:103200000E940812C6CC8090A7029090A802F0CD30
:103210008091A7029091A8029093A6028093A502A4
:10322000E2CA1093460374CAC8010E949321282F52
:1032300030E03093010120930001C60104960E9402
:10324000932190E090930501809304018BCA109222
:10325000AC021092AB0288EE93E0A0E0B0E0809365
:10326000AD029093AE02A093AF02B093B00286E19C
:1032700091E09093AA028093A90285EC90E090934C
:10328000B6028093B50284EC90E09093B8028093EC
:10329000B70280EC90E09093BA028093B90281EC7F
:1032A00090E09093BC028093BB0282EC90E09093FC
:1032B000BE028093BD0286EC90E09093C0028093A2
:1032C000BF021092C2021092C3021092C402109266
:1032D000C502E3ECF7E0E491F0E0EE0FFF1FEF54DE
:1032E000F84F8591949190935A0380935903E5EA9E
:1032F000F7E0E491E0936303E4ECF7E0E491F0E0BD
:10330000EE0FFF1FEF54F84F8591949190935C035B
:1033100080935B03E6EAF7E0E491E0936403E5EC75
:10332000F7E0E491F0E0EE0FFF1FEF54F84F8591C6
:10333000949190935E0380935D03E7EAF7E0E49154
:10334000E0936503E7ECF7E0E491F0E0EE0FFF1F98
:10335000EF54F84F859194919093600380935F03AD
:10336000E9EAF7E0E491E0936603E6ECF7E0E49144
:10337000F0E0EE0FFF1FEF54F84F8591949190937A
:10338000620380936103E8EAF7E0E491E093670366
:1033900061E088E00E94FA0B61E089E00E94FA0B8C
:1033A00061E08AE00E94FA0B61E08CE00E94FA0B77
:1033B00061E08BE00E94FA0B88E0809368038CE068
:1033C0008093690360E087E00E94FA0BE4EAF7E08B
:1033D000E491E0936C05E2ECF7E0E491F0E0EE0FAD
:1033E000FF1FED56F84F8591949190936E05809351
:1033F0006D05109277051092790510927805E7E730
:10340000F5E0129285E0EF36F807D9F78FE49BE0FC
:1034100090935803809357038CE695E090934C0368
:1034200080934B0310924A031092460389E08093E5
:10343000470381E08093480380934903089597FBF5
:10344000072E16F4009407D077FD09D00E94331A96
:1034500007FC05D03EF4909581959F4F0895709597
:1034600061957F4F0895AA1BBB1B51E107C0AA1F9E
:10347000BB1FA617B70710F0A61BB70B881F991F15
:103480005A95A9F780959095BC01CD010895EE0F4E
:10349000FF1F0590F491E02D09945058BB27AA27EF
:1034A0000E94651A0C9459210E944B2138F00E9409
:1034B000522120F039F49F3F19F426F40C9448214E
:1034C0000EF4E095E7FB0C944221E92F0E946A215B
:1034D00058F3BA17620773078407950720F079F449
:1034E000A6F50C948C210EF4E0950B2EBA2FA02D8E
:1034F0000B01B90190010C01CA01A0011124FF27A1
:10350000591B99F0593F50F4503E68F11A16F0409B
:10351000A22F232F342F4427585FF3CF469537959A
:103520002795A795F0405395C9F77EF41F16BA0B5F
:10353000620B730B840BBAF09150A1F0FF0FBB1F0D
:10354000661F771F881FC2F70EC0BA0F621F731F56
:10355000841F48F4879577956795B795F7959E3FB3
:1035600008F0B0CF9395880F08F09927EE0F979544
:10357000879508950E94CE1A0C9459210E945221D9
:1035800058F00E944B2140F029F45F3F29F00C9441
:10359000422151110C948D210C9448210E946A21E2
:1035A00068F39923B1F3552391F3951B550BBB2772
:1035B000AA2762177307840738F09F5F5F4F220FB7
:1035C000331F441FAA1FA9F335D00E2E3AF0E0E8AE
:1035D00032D091505040E695001CCAF72BD0FE2FF8
:1035E00029D0660F771F881FBB1F2617370748078C
:1035F000AB07B0E809F0BB0B802DBF01FF27935844
:103600005F4F3AF09E3F510578F00C9442210C94A4
:103610008D215F3FE4F3983ED4F3869577956795C7
:10362000B795F7959F5FC9F7880F911D9695879578
:1036300097F90895E1E0660F771F881FBB1F621797
:1036400073078407BA0720F0621B730B840BBA0B55
:10365000EE1F88F7E09508950E94331B6894B1111E
:103660000C948D2108950E94722188F09F5798F044
:10367000B92F9927B751B0F0E1F0660F771F881F77
:10368000991F1AF0BA95C9F714C0B13091F00E9491
:103690008C21B1E008950C948C21672F782F882716
:1036A000B85F39F0B93FCCF3869577956795B395B8
:1036B000D9F73EF490958095709561957F4F8F4F27
:1036C0009F4F08950E94B12008F48FEF08950E9443
:1036D000B120880B990B0895CF93DF938230910529
:1036E00010F482E090E0E0918505F091860520E0FD
:1036F00030E0C0E0D0E0309711F1408151814817AF
:103700005907C0F04817590761F4828193812097C7
:1037100019F09B838A832BC090938605809385053F
:1037200026C02115310519F04217530718F49A01E4
:10373000BE01DF01EF010280F381E02DDCCF211516
:10374000310509F1281B390B2430310590F412960C
:103750008D919C9113976115710521F0FB01938365
:10376000828304C09093860580938505FD0132967F
:1037700044C0FD01E20FF31F819391932250310960
:103780002D933C933AC02091830530918405232BDF
:1037900041F4209108013091090130938405209370
:1037A000830520910601309107012115310541F46F
:1037B0002DB73EB740910A0150910B01241B350BE8
:1037C000E0918305F0918405E217F307A0F42E1B26
:1037D0003F0B2817390778F0AC014E5F5F4F241775
:1037E000350748F04E0F5F1F5093840540938305C3
:1037F0008193919302C0E0E0F0E0CF01DF91CF919F
:1038000008950F931F93CF93DF93009709F48CC013
:10381000FC01329713821282009185051091860572
:103820000115110581F420813181820F931F2091B0
:103830008305309184052817390779F5F0938405BD
:10384000E093830571C0D80140E050E0AE17BF0798
:1038500050F412962D913C911397AD01211531052D
:1038600009F1D901F3CF9D01DA013383228360810D
:103870007181860F971F8217930769F4EC012881E5
:103880003981260F371F2E5F3F4F318320838A8176
:103890009B8193838283452B29F4F0938605E093E3
:1038A000850542C01396FC93EE931297ED01499162
:1038B00059919E01240F351FE217F30771F480819F
:1038C0009181840F951F029611969C938E9382810D
:1038D000938113969C938E931297E0E0F0E0D801C9
:1038E00012968D919C911397009719F0F8018C0115
:1038F000F6CF8D919C9198012E5F3F4F820F931FC1
:1039000020918305309184052817390769F4309791
:1039100029F4109286051092850502C01382128246
:103920001093840500938305DF91CF911F910F9130
:103930000895A0E0B0E0EFE9FCE10C94CF21EC01A8
:10394000009721F4CB010E946C1BB8C0FC01E60F6C
:10395000F71F9C0122503109E217F30708F4ACC0AD
:10396000D9010D911C91119706171707B0F005307A
:10397000110508F49FC0C80104978617970708F43B
:1039800099C002501109061B170B019311936D93F7
:103990007C93CF010E94011C8DC05B01A01AB10A6B
:1039A0004C01800E911EA0918505B091860540E0E6
:1039B00050E0E12CF12C109709F44AC0A815B90584
:1039C000D1F56D907C901197630182E0C80ED11CF7
:1039D000CA14DB0480F1A3014A195B096A0182E081
:1039E000C80ED11C1296BC9012971396AC91B5E0FC
:1039F000CB16D10440F0B282A38351834083D90116
:103A00006D937C930AC00E5F1F4FC301800F911FFF
:103A1000F90191838083EB2DFA2FE114F10431F049
:103A2000D7011396FC93EE93129744C0F09386054A
:103A3000E09385053FC08D919C91119748175907D8
:103A400008F4AC017D0112960D90BC91A02DB3CF6E
:103A5000809183059091840588159905E1F44617B6
:103A60005707C8F48091060190910701009741F42F
:103A70008DB79EB740910A0150910B01841B950BA5
:103A8000E817F907C8F4F0938405E0938305F9017A
:103A9000718360830FC0CB010E946C1B7C01009777
:103AA00059F0A801BE010E94681DCE010E94011CB0
:103AB000C70104C0CE0102C080E090E0CDB7DEB700
:103AC000EEE00C94EB2181E090E0F8940C9402225B
:103AD000FB01DC0102C001900D9241505040D8F72B
:103AE0000895FB01DC0101900D920020E1F708959B
:103AF000FB01DC014150504048F001900D92002044
:103B0000C9F701C01D9241505040E0F70895EF926F
:103B10000F931F93CF93DF93E80147FD02C034E07A
:103B200001C034E1E42F440FFF0BF7FF03C0F19510
:103B3000E195F109E32E022F2E2FAE010E94F91D0F
:103B4000CE01DF91CF911F910F91EF9008954532F3
:103B5000510520F4423010F00C94B21DFB0110828C
:103B6000CB010895BB274A3031F4992322F4BDE2FA
:103B7000909581959F4F0C94E01DBB27FA01A62FCD
:103B80006217710581059105330B30FB66F0AA279A
:103B9000660F771F881F991FAA1FA21710F0A21B7C
:103BA00063953850A9F7A05DAA3308F0A95DA193E9
:103BB00036F7B111B1931082CA010C945F20BB2774
:103BC000FB015527AA27880F991FAA1FA41710F0D9
:103BD000A41B83955051B9F7A05DAA3308F0A95DE5
:103BE000A193009779F7B111B1931192CB010C9485
:103BF0005F204F925F926F927F929F92AF92BF929F
:103C0000CF92DF92EF92FF920F931F93CF93DF93A8
:103C1000CDB7DEB729970FB6F894DEBF0FBECDBF84
:103C20006A01122FB02E2BE3201720F0FF24F3940B
:103C3000F00E02C0BCE3FB2E0F2D27E0AE014F5F5C
:103C40005F4F0E94871FAC018981982F9970913036
:103C500031F0E1FC06C0E0FE06C090E205C09DE246
:103C600003C09BE201C090E0EE2DE07183FF3CC0F9
:103C7000911102C083E001C084E0811718F4212F64
:103C8000281B01C020E0E1110BC0F601822F30E2B9
:103C9000882319F031938150FBCFC20ED11C20E054
:103CA000992329F0D6019C93F60131966F01C60144
:103CB0000396E2FE0AC03EE4D6013C9341E411962D
:103CC0004C93119712963C9306C03EE6F601308362
:103CD00041E641833283FC01322F40E2332309F471
:103CE00042C041933150FACF82FF44C0911102C0CB
:103CF00083E001C084E0811718F4212F281B01C044
:103D000020E0E1110BC0F601822F30E2882319F088
:103D100031938150FBCFC20ED11C20E0992329F0B2
:103D2000D6019C93F60131966F01C6010396E2FE1F
:103D30000BC039E4D6013C933EE411963C931197B5
:103D400036E412963C9307C039E6F60130833EE62E
:103D5000318336E63283FC01322F40E2332319F0FF
:103D600041933150FBCFFC01E20FF11D10828EEF29
:103D70009FEFB7C0F1E0911101C0F0E06F2F70E04C
:103D80001416150624F49A012F5F3F4F02C021E05C
:103D900030E0260F371FBB2029F06B2D70E06F5FDE
:103DA0007F4F02C060E070E0260F371F612F70E088
:103DB000261737071CF4121B212F01C020E03E2DCF
:103DC000387159F4D601322F60E2332319F06D9324
:103DD0003150FBCFC20ED11C20E0FF2331F0D601C1
:103DE0009C93B6016F5F7F4F6B01E1110BC0F60131
:103DF000922F30E3992319F031939150FBCFC20EEB
:103E0000D11C20E09F2D940F3A81782F7071A72E3E
:103E100084FF03C0313309F49150191624F499300A
:103E200018F098E001C091E0E42F852F57FF02C001
:103E3000E0E080E06E2F782FE0E0F0E0AEE29A2E36
:103E40003A01691A71082A01461A570A0B2D10E027
:103E50001195019511096F3F8FEF780729F4D6016D
:103E60009C92C60101966C014617570784F06616AE
:103E700077066CF47F01E40CF51CA1E0B0E0AC0F18
:103E8000BD1FEA0EFB1ED7011196BC9002C090E345
:103E9000B92E615071093196C60101967C016017F7
:103EA000710724F0D601BC926C01D5CF6417750759
:103EB00041F4363320F4353321F4A11002C081E3FC
:103EC000B82EF601B082F701822F90E2882319F014
:103ED00091938150FBCFF701E20FF11D108280E03A
:103EE00090E029960FB6F894DEBF0FBECDBFDF91EC
:103EF000CF911F910F91FF90EF90DF90CF90BF90E7
:103F0000AF909F907F906F905F904F900895283072
:103F100008F027E03327DA01990F311D87FD916002
:103F200000966105710539F432602E5F3D9330E3F0
:103F30002A95E1F708959F3F30F0803871056105BB
:103F400009F03C5F3C5F3D93913008F08068911D23
:103F5000DF93CF931F930F93FF92EF92192F987FC8
:103F60009695E92F96959695E90FFF27ED5CF64F0C
:103F700099273327EE24FF24A701E7010590089431
:103F8000079428F4360FE71EF81E491F511D660FCF
:103F9000771F881F991F0694A1F70590079428F4AE
:103FA000E70EF81E491F561FC11D770F881F991F66
:103FB000661F0694A1F70590079428F4F80E491F90
:103FC000561FC71FD11D880F991F661F771F0694A4
:103FD000A1F70590079420F4490F561FC71FD81F5B
:103FE000990F661F771F881F0694A9F78491109573
:103FF000177041F0D695C79557954795F794E79474
:104000001A95C1F7E9EDF8E068941590159135918E
:104010006591959105907FE27395E118F10A430B44
:10402000560BC90BD009C0F7E10CF11E431F561FF8
:10403000C91FD01D7EF4703311F48A95E6CFE89441
:10404000015030F0080F0AF40027021708F4202F5F
:104050002395022F7A3328F079E37D932A95E9F7A7
:1040600010C07D932A9589F60694979567953795A4
:1040700017951794E118F10A430B560BC90BD00999
:1040800098F023957E9173957A3308F070E37C93D2
:104090002013B8F77E9170617D9330F0839571E3C2
:1040A0007D9370E32A95E1F71124EF90FF900F9133
:1040B0001F91CF91DF91992787FD90950895DC019D
:1040C000FC01672F71917723E1F7329704C07C914F
:1040D0006D9370836291AE17BF07C8F308950E9475
:1040E000B12008F481E00895E89409C097FB3EF4FC
:1040F00090958095709561957F4F8F4F9F4F992335
:10410000A9F0F92F96E9BB279395F69587957795B2
:104110006795B795F111F8CFFAF4BB0F11F460FF72
:104120001BC06F5F7F4F8F4F9F4F16C0882311F0CA
:1041300096E911C0772321F09EE8872F762F05C0DE
:10414000662371F096E8862F70E060E02AF09A9579
:10415000660F771F881FDAF7880F9695879597F96E
:104160000895990F0008550FAA0BE0E8FEEF161608
:104170001706E807F907C0F012161306E407F5075B
:1041800098F0621B730B840B950B39F40A2661F0CF
:10419000232B242B252B21F408950A2609F4A14072
:1041A000A6958FEF811D811D08950E94E8200C9433
:1041B00059210E944B2138F00E94522120F0952372
:1041C00011F00C9442210C94482111240C948D215F
:1041D0000E946A2170F3959FC1F3950F50E0551F1F
:1041E000629FF001729FBB27F00DB11D639FAA274C
:1041F000F00DB11DAA1F649F6627B00DA11D661F9B
:10420000829F2227B00DA11D621F739FB00DA11DBB
:10421000621F839FA00D611D221F749F3327A00D75
:10422000611D231F849F600D211D822F762F6A2F11
:1042300011249F5750409AF0F1F088234AF0EE0F76
:10424000FF1FBB1F661F771F881F91505040A9F7A3
:104250009E3F510580F00C9442210C948D215F3FCC
:10426000E4F3983ED4F3869577956795B795F795DF
:10427000E7959F5FC1F7FE2B880F911D9695879557
:1042800097F9089597F99F6780E870E060E00895D6
:104290009FEF80EC089500240A941616170618065E
:1042A0000906089500240A9412161306140605063A
:1042B0000895092E0394000C11F4882352F0BB0FCB
:1042C00040F4BF2B11F460FF04C06F5F7F4F8F4F2E
:1042D0009F4F089557FD9058440F551F59F05F3F69
:1042E00071F04795880F97FB991F61F09F3F79F018
:1042F00087950895121613061406551FF2CF46959A
:10430000F1DF08C0161617061806991FF1CF86951B
:104310007105610508940895E894BB2766277727FF
:10432000CB0197F90895F999FECF92BD81BDF89A16
:10433000992780B50895262FF999FECF1FBA92BD0F
:1043400081BD20BD0FB6F894FA9AF99A0FBE019676
:104350000895A1E21A2EAA1BBB1BFD010DC0AA1FC6
:10436000BB1FEE1FFF1FA217B307E407F50720F0DE
:10437000A21BB30BE40BF50B661F771F881F991F59
:104380001A9469F760957095809590959B01AC01A2
:10439000BD01CF0108952F923F924F925F926F928D
:1043A0007F928F929F92AF92BF92CF92DF92EF92C5
:1043B000FF920F931F93CF93DF93CDB7DEB7CA1B46
:1043C000DB0B0FB6F894DEBF0FBECDBF09942A8871
:1043D000398848885F846E847D848C849B84AA8419
:1043E000B984C884DF80EE80FD800C811B81AA81A6
:1043F000B981CE0FD11D0FB6F894DEBF0FBECDBF71
:08440000ED010895F894FFCFCF
:10440800220001001E000000870580005E00BC003D
:10441800770100000000880AA00E510A2F0A430AFB
:10442800CF0A564D4450565F317C315F564D44504B
:10443800560D0A002052657175657374696E6720A0
:1044480074656D7065726174757265732E2E2E00B9
:10445800444F4E450054656D7065726174757265A0
:1044680020666F7220446576696365203120697320
:104478003A20004C3A006D6F64653A006D6F6465D0
:104488003D006F6E6E6E6E6E6E6E6E6E6E6E6E6EE2
:104498006E6E6E6E6E6E6E6E007768696C65206605
:1044A80073737373696E697368656400737461729A
:1044B80074206D656E7500536574204869676820BF
:1044C80054656D7000536574204C6F772054656D8A
:1044D8007000457869740072756E206564643A00EE
:1044E80072756E20646F776E3A00636865636B203F
:1044F800636F756E74657200736574206D656E7593
:104508003A007365745374617475733A0073657413
:10451800206973206368006C6F772069732061637A
:1045280074697665006C6F770065656565656565B6
:1045380070726F6D007768696C65206578697400C2
:1045480074696D65206B6E6F773A006E616E0069F5
:084558006E66006F766600003C
:00000001FF
