:100000000C947B080C94D60C0C94AF0C0C94A308A5
:100010000C94A3080C94A3080C94A3080C94A308B4
:100020000C94A3080C94A3080C94A3080C94A308A4
:100030000C94A3080C94A3080C94A3080C94A30894
:100040000C94650C0C94A3080C94760B0C94500B38
:100050000C94A3080C94A3080C94A3080C94A30874
:100060000C94A3080C94A3080000000024002700AF
:100070002A001112131415160A0B0C0D0E0F000096
:100080000000000000000000000000000000000070
:100090000000008080808080808080C0C0C0C0C0A0
:1000A000C0C0C0C0C0C0C0C0C0C0C0C0C0C0C0C050
:1000B000C0C0C0C0C0808080808080808000000080
:1000C0000000000000000000000000000000000030
:1000D000000000003030707878787C3C3C3C1E1E7C
:1000E0001E1E0F0F0F0F0707078787878383C3C362
:1000F000C3C3C3C3C3C3C3C1C1C1C1C1C1C1C1C1E2
:10010000C1C3C3C3C3C3C3C3C3C3838387878707B1
:1001100007070F0F0F0F1E1E1E1E3C3C3C7C7878FD
:100120007870303000000000000000000000000087
:10013000000000040C0E1E1E1E0F0F0F0F07078776
:10014000878383C3C3C3C3C3C1C1C1E1E1E1E1E1AB
:10015000E1E1E1E1E1C1C1C1C3C3C3C3C38383879B
:100160008707070F0F0F0F1E1E1E0E0C0400000046
:10017000000000000000000000000000000000007F
:10018000000000000000000000000000000000006F
:100190000000010103030703030303030181C1C13D
:1001A000E1E1E1E1E1E1E1E1C1C181010303030337
:1001B000030703030101000000000000000000002D
:1001C000000000000000000000000000000000002F
:1001D000000000000000000000000000000000001F
:1001E000000000000000000000000000000000000F
:1001F000000307070F0F0F0F0F0F0F0F0707030065
:1002000000000000000000000000000000000000EE
:1002100000000000000000000000000000000000DE
:1002200000006870646060986460E46864DC303486
:10023000B00C10740000340000000000000000004A
:1002400000000000000000000000000000000000AE
:10025000000000000000000000000000000000009E
:10026000000000000000000000000000000000008E
:10027000000000000000000000000000000000007E
:10028000000000000000000000000000000000006E
:10029000000000000000000000000000000000005E
:1002A00000008080808080C0C0C0C0C0C0C0C0C00E
:1002B000C0C0C0C0C0C0C0C0C0C0C0C0C0C0C0C03E
:1002C000C0C0C0808080808000000000000000006E
:1002D000000000000000000000000000000000001E
:1002E000000000000000000000000000040C0E1ED2
:1002F0001E1E0F0F0F0F070787878383C3C3C3C358
:10030000C3C1C1C1E1E1E1E1E1E1E1E1E1E1C1C19B
:10031000C1C3C3C3C3C38383878707070F0F0F0FEF
:100320001E1E1E0E0C040000000000000000000055
:1003300000000000000000000000000000000000BD
:10034000000000000000000000000001010303079E
:1003500003030303030181C1C1E1E1E1E1E1E1E163
:10036000E1C1C1810103030303030703030101008A
:10037000000000000000000000000000000000007D
:10038000000000000000000000000000000000006D
:10039000000000000000000000000000000000005D
:1003A000000000000000000000000307070F0F0F0F
:1003B0000F0F0F0F0F0707030000000000000000E1
:1003C000000000000000000000000000000000002D
:1003D000000000000000000000000000000000001D
:1003E000000000000000000000000000000000000D
:1003F00000000000000000000000000000000000FD
:1004000000000000000000000000000000000000EC
:1004100000000000000000000000000000000000DC
:1004200000000000000000000000000000000000CC
:1004300000000000000000000000000000000000BC
:1004400000000000000000000000000000000000AC
:10045000000000000000000000000000000000009C
:10046000000000000000000000000000000000008C
:10047000000000000000000000000000000000007C
:10048000000000000000000000000000000000006C
:10049000000000000000000000000000000000005C
:1004A000000000000000000000000000000000004C
:1004B0000080808080C0C0C0C0C0C0C0C0E0E0E09C
:1004C000E0E0E0E0E0E0E0C0C0C0C0C0C0C0C0808C
:1004D000808080000000000000000000000000009C
:1004E000000000000000000000000000000000000C
:1004F00000000000000000000000000000000000FC
:10050000000000000101030307030303030301814B
:10051000C1C1E1E1E1E1E1E1E1E1C1C18101030347
:1005200003030307030301010000000000000000B3
:1005300000000000000000000000000000000000BB
:1005400000000000000000000000000000000000AB
:10055000000000000000000000000000000000009B
:100560000000000307070F0F0F0F0F0F0F0F0707F4
:100570000300000000000000000000000000000078
:10058000000000000000000000000000000000006B
:10059000000000000000000000000000000000005B
:1005A0000400000800000800000000000000000037
:1005B000000000000000000000000000000000003B
:1005C000000000000000000000000000000000002B
:1005D000000000000000000000000000000000001B
:1005E000000000000000000000000000000000000B
:1005F00000000000000000000000000000000000FB
:1006000000000000000000000000000000000000EA
:1006100000000000000000000000000000000000DA
:1006200000000000000000000000000000000000CA
:1006300000000000000000000000000000000000BA
:1006400000000000000000000000000000000000AA
:10065000000000000000000000000000000000009A
:10066000000000000000000000000000000000008A
:10067000000000000000000000000000000000007A
:10068000000000000000000000000000000000006A
:10069000000000000000000000000000000000005A
:1006A000000000000000000000000000000000004A
:1006B000000000000000000000000000000000003A
:1006C000000000000000000080C0C0E0E0E0E0E0CA
:1006D000E0E0E0C0C080000000000000000000007A
:1006E000000000000000000000000000000000000A
:1006F00000000000000000000000000000000000FA
:1007000000000000000000000000000000000000E9
:100710000000000000000000000000000307070FB9
:100720000F0F0F0F0F0F0F0707030000000000004F
:1007300000000000000000000000000000000000B9
:100740000000000000000000000000000000200089
:10075000000C00000800000000000400000400007D
:10076000000000010203040500000008000201006F
:100770000003040700000000000000000E182D0D0B
:100780000000000000000000000000000000000069
:100790001038383838383838381000000000000079
:1007A0000000000000000000000000000000000049
:1007B0000000000000000000000000000000000039
:1007C000000000000000000000000040E0E04000E9
:1007D00000000000000002060E0E0E0E0E0E0602B5
:1007E0000000000010383838383838383810000029
:1007F000000080C0E0E0E0E0E0E0C080000000FC3D
:10080000FAF60E0E0E0E0E0EF6FAFC0000EFC7837F
:1008100000000000000083C7EF00007FBFDFE0E0C2
:10082000E0E0E0E0DFBF7F0000000000000000002B
:100830000000F0F8FC0000000000000000000000D4
:1008400083C7EF00000000000000000000001F3F11
:100850007F00000002060E0E0E0E0E0EF6FAFC00D1
:1008600000E0D0B83838383838383B170F00007FF0
:10087000BFDFE0E0E0E0E0E0C08000000000020652
:100880000E0E0E0E0E0EF6FAFC0000001038383870
:1008900038383838BBD7EF00000080C0E0E0E0E037
:1008A000E0E0DFBF7F0000FCF8F000000000000087
:1008B000F0F8FC00000F173B383838383838BBD711
:1008C000EF00000000000000000000001F3F7F005C
:1008D00000FCFAF60E0E0E0E0E0E06020000000FC1
:1008E000173B383838383838B8D0E000000080C0BE
:1008F000E0E0E0E0E0E0DFBF7F0000FCFAF60E0E93
:100900000E0E0E0E0602000000EFD7BB3838383846
:100910003838B8D0E000007FBFDFE0E0E0E0E0E0A2
:10092000DFBF7F00000002060E0E0E0E0E0EF6FA5E
:10093000FC000000000000000000000083C7EF0082
:10094000000000000000000000001F3F7F0000FCCE
:10095000FAF60E0E0E0E0E0EF6FAFC0000EFD7BBE6
:10096000383838383838BBD7EF00007FBFDFE0E0D9
:10097000E0E0E0E0DFBF7F0000FCFAF60E0E0E0EB6
:100980000E0EF6FAFC00000F173B383838383838AE
:10099000BBD7EF00000080C0E0E0E0E0E0E0DFBFB8
:1009A0007F000C102D0D0000008080808080800072
:1009B0000000000001030303030303010000000023
:1009C000000000000000000000000000000000C067
:1009D000C00000000000000002868686868686022F
:1009E0000000000081C3C3C3C3C3C381000000FC77
:1009F0007A0606060606067AFC00007EBCC0C0C069
:100A0000C0C0C0BC7E0000000000000000000078F4
:100A1000FC000000000000000000003C7E00000020
:100A2000028686868686867AFC00007EBDC3C3C3A6
:100A3000C3C3C38100000000028686868686867A4C
:100A4000FC00000081C3C3C3C3C3C3BD7E0000FC60
:100A50007880808080808078FC00000001030303A0
:100A60000303033D7E0000FC7A8686868686860226
:100A70000000000081C3C3C3C3C3C3BD7E0000FC2C
:100A80007A868686868686020000007EBDC3C3C342
:100A9000C3C3C3BD7E000000020606060606067A32
:100AA000FC000000000000000000003C7E0000FC94
:100AB0007A8686868686867AFC00007EBDC3C3C39E
:100AC000C3C3C3BD7E0000FC7A8686868686867A8E
:100AD000FC00000081C3C3C3C3C3C3BD7E000608BE
:100AE000205F0000000000000000002F0000000058
:100AF0000700070000147F147F1400242A7F2A12A5
:100B00000023130864620036495522500000050393
:100B1000000000001C224100000041221C000014C3
:100B2000083E08140008083E0808000000A0600005
:100B30000008080808080000606000000020100895
:100B40000402003E5149453E0000427F4000004201
:100B500061514946002141454B31001814127F1064
:100B6000002745454539003C4A4949300001710993
:100B7000050300364949493600064949291E000047
:100B800036360000000056360000000814224100EE
:100B9000001414141414000041221408000201511E
:100BA000090600324959513E007C1211127C007F27
:100BB00049494936003E41414122007F4141221CC2
:100BC000007F49494941007F09090901003E414927
:100BD000497A007F0808087F0000417F410000201B
:100BE00040413F01007F08142241007F40404040C7
:100BF000007F020C027F007F0408107F003E41410D
:100C0000413E007F09090906003E4151215E007FF7
:100C1000091929460046494949310001017F01016E
:100C2000003F4040403F001F2040201F003F403811
:100C3000403F006314081463000708700807006150
:100C40005149454300007F414100AA55AA55AA5584
:100C5000000041417F0000040201020400404040C6
:100C60004040000003050000002054545478007FE9
:100C70004844443800384444442000384444487FC1
:100C800000385454541800087E0901020018A4A426
:100C9000A47C007F080404780000447D40000040EC
:100CA00080847D00007F102844000000417F4000C8
:100CB000007C04180478007C08040478003844445C
:100CC000443800FC242424180018242418FC007C38
:100CD0000804040800485454542000043F444020B1
:100CE000003C4040207C001C2040201C003C403048
:100CF000403C004428102844001CA0A0A07C0044D4
:100D000064544C440000107C8200000000FF00008E
:100D10000000827C100000000609090600000000A7
:100D200000000080C0C0E0E00000FCFC0000E0E04B
:100D3000C0C0800000000000000000000080F8FE3D
:100D40001F070301000000003F3F000000000103F7
:100D5000073FFEF880000000000000001F7FF8E061
:100D60008000000000000000000000000080E0F8AB
:100D70007F1F0000000000000000000000010303CE
:100D800007060E060E0E060E0607030300000000FF
:100D900000000000000000000000000000F0000063
:100DA0000000000000000000000000000000000043
:100DB000000000000000000182241008040002026C
:100DC0000202020004081824820100000000000052
:100DD00000000000000002020202000F204080001C
:100DE000000000000000000080C0200F000202028E
:100DF00002000000000000000000000000040201EA
:100E00000000010002027A02020001000001020457
:100E1000000000000000000028203078403028202A
:100E20003078303028000000000000000000000092
:100E3000000000000000E0000000000000000000D2
:100E4000000000000000000000000000000000089A
:100E50009090607E4081810206FF06028181407E83
:100E6000609090880000000000000000000000007A
:100E7000000080484830F01008080507FF07050803
:100E80000810F03048488800000000000000000012
:100E90000000000000000000000300000402033F07
:100EA0000302040000030000000000000000000036
:100EB0000000000000000000000000000000005ED4
:100EC000BCE2613FDD83C29C7E20A3FD1F419DC328
:100ED000217FFCA2401E5F01E3BD3E6082DC237DDA
:100EE0009FC1421CFEA0E1BF5D0380DE3C62BEE00C
:100EF000025CDF81633D7C22C09E1D43A1FF46183A
:100F0000FAA427799BC584DA3866E5BB5907DB85E7
:100F10006739BAE406581947A5FB7826C49A653B99
:100F2000D987045AB8E6A7F91B45C6987A24F8A6CB
:100F3000441A99C7257B3A6486D85B05E7B98CD2F9
:100F4000306EEDB3510F4E10F2AC2F7193CD114FA7
:100F5000ADF3702ECC92D38D6F31B2EC0E50AFF159
:100F6000134DCE90722C6D33D18F0C52B0EE326C8B
:100F70008ED0530DEFB1F0AE4C1291CF2D73CA94B9
:100F80007628ABF517490856B4EA6937D58B570967
:100F9000EBB536688AD495CB2977F4AA4816E9B719
:100FA000550B88D6346A2B7597C94A14F6A8742A4B
:100FB000C896154BA9F7B6E80A54D7896B350000D7
:100FC00000002300260029000102040810204080B0
:100FD0000102040810200102040810200000000093
:100FE000250028002B000404040404040404020265
:100FF0000202020203030303030300407A10F35AC0
:1010000000A0724E18090010A5D4E80000E8764848
:10101000170000E40B54020000CA9A3B000000E1F4
:10102000F505000080969800000040420F00000087
:10103000A08601000000102700000000E803000067
:1010400000006400000000000A0000000000010031
:10105000000000002C76D888DC674F0823DFC1DF52
:10106000AE59E1B1B796E5E3E453C63AE651997655
:1010700096E8E6C28426EB898C9B62ED407C6FFC8F
:10108000EFBC9C9F40F2BAA56FA5F490055A2AF7D1
:101090005C936B6CF9676DC11BFCE0E40D47FEF5DA
:1010A00020E6B500D0ED902E030094357705008042
:1010B000841E080000204E0A000000C80C333333A1
:1010C000330F986E12831141EF8D2114893BE65541
:1010D00016CFFEE6DB18D1844B381BF77C1D901D24
:1010E000A4BBE424203284725E228100C9F124EC86
:1010F000A1E53D27081D11241FBECFEFD8E0DEBFBC
:10110000CDBF11E0A0E0B1E0E4EDFAE402C005904B
:101110000D92A63DB107D9F724E0A6EDB1E001C0DC
:101120001D92A13EB207E1F718E0CBE7D8E004C07A
:101130002197FE010E946E1ECA37D107C9F70E948F
:10114000D6160C9468250C940000FC01918D828DBC
:10115000981761F0828DDF01A80FB11D5D968C910B
:10116000928D9F5F9F73928F90E008958FEF9FEF16
:101170000895FC01918D828D981731F0828DE80FD2
:10118000F11D858D90E008958FEF9FEF0895FC018C
:10119000918D228D892F90E0805C9F4F821B910959
:1011A0008F739927089584EF91E00E94C70821E08A
:1011B000892B09F420E0822F0895FC01848DDF0142
:1011C000A80FB11DA35ABF4F2C91848D90E00196BA
:1011D0008F739927848FA689B7892C93A089B189A9
:1011E0008C9180648C93938D848D981306C00288B3
:1011F000F389E02D80818F7D80830895EF92FF92A7
:101200000F931F93CF93DF93EC0181E0888F9B8D29
:101210008C8D981305C0E889F989808185FD24C0EB
:10122000F62E0B8D10E00F5F1F4F0F731127E02E6E
:101230008C8DE8120CC00FB607FCFACFE889F9894B
:10124000808185FFF5CFCE010E94DD08F1CF8B8D27
:10125000FE01E80FF11DE35AFF4FF0820B8FEA8980
:10126000FB898081806207C0EE89FF896083E889FD
:10127000F98980818064808381E090E0DF91CF9163
:101280001F910F91FF90EF900895CF93DF93EC01A2
:10129000888D8823C9F0EA89FB89808185FD05C096
:1012A000A889B9898C9186FD0FC00FB607FCF5CFD0
:1012B000808185FFF2CFA889B9898C9185FFEDCF18
:1012C000CE010E94DD08E7CFDF91CF91089580E045
:1012D00090E0892B29F00E94D30881110C94000022
:1012E0000895833081F028F4813099F08230A1F0A4
:1012F00008958730A9F08830B9F08430D1F4809116
:1013000080008F7D03C0809180008F778093800064
:10131000089584B58F7702C084B58F7D84BD08950C
:101320008091B0008F7703C08091B0008F7D809353
:10133000B0000895CF93DF93282F30E0F901E859EA
:10134000F84F8491F901E853F04FD491F901EA5133
:10135000F04FC491CC2391F081110E947109EC2FC0
:10136000F0E0EE0FFF1FE254F04FA591B491EC9125
:10137000ED2381E090E021F480E002C080E090E085
:10138000DF91CF9108953FB7F8948091EE0190914D
:10139000EF01A091F001B091F10126B5A89B05C025
:1013A0002F3F19F00196A11DB11D3FBFBA2FA92FE4
:1013B000982F8827820F911DA11DB11DBC01CD0161
:1013C00042E0660F771F881F991F4A95D1F708954D
:1013D0000895FC0190810180F281E02D892F809594
:1013E00060FF12C0F8942281822382838181892B3D
:1013F0008183A3E2B0E01197F1F78281982B928369
:10140000789487ED90E011C0F89422818223828342
:101410008181892B8183AFEFB0E01197F1F7828151
:10142000982B928378948FE090E00197F1F70895DC
:1014300008950F931F93CF93DF931F92CDB7DEB71D
:101440008C0169830E941B256981681741F0C801DE
:101450000F90DF91CF911F910F910C9423250F9046
:10146000DF91CF911F910F9108958F929F92AF922C
:10147000BF92CF92DF92EF92FF920F931F93CF9381
:10148000DF9300D000D000D0CDB7DEB76091D60199
:101490008091D8019091D9010E94190A809005018C
:1014A00090900601A0900701B0900801C501B40119
:1014B0000E94E11E6B017C018091D8019091D901BD
:1014C0006C2D02960E94190AB601DD0C880B990B4F
:1014D0000E94FE239B01AC01C501B4010E94741E51
:1014E00011E020E030E0A9010E94171F18160CF04F
:1014F00010E08091D8019091D901612F04960E944B
:10150000232586E2E82EF12C00E010E0B801C701A7
:101510000E94990F0F5F1F4F04311105B9F78FEF2C
:10152000E81AF80A84E5E816F10471F786EA91E012
:101530000E94711300E010E0C8010E941B2588235F
:1015400059F0682F70E080E090E04AE00E947F133D
:1015500086E491E00E945F130E5F1F4F011584E047
:10156000180751F786EA91E00E94711382EA99E028
:101570000E94771140910501509106016091070189
:101580007091080121E0CE0101960E94A61642E06A
:1015900050E06CE170E0CE0101960E942911CE016D
:1015A00001960E94A1168EED9AE00E9477110E948A
:1015B0008D1226960FB6F894DEBF0FBECDBFDF9119
:1015C000CF911F910F91FF90EF90DF90CF90BF9040
:1015D000AF909F908F90089580910901823009F01B
:1015E00053C00E949A09019789F480E10E949A09E8
:1015F000892B31F48091E7019091E801019728C08F
:101600008091E7019091E80101960AC080E10E9473
:101610009A09892BC1F48091E7019091E801019723
:101620009093E8018093E70120E030E040E05FE341
:101630006091050170910601809107019091080168
:101640000E94751E17C08091E7019091E8010196F4
:101650009093E8018093E70120E030E040E05FE311
:101660006091050170910601809107019091080138
:101670000E94741E60930501709306018093070118
:10168000909308010E94350A80910901823010F080
:1016900010920901809109018F5F809309010895DB
:1016A0001F920F920FB60F9211242F933F934F93D7
:1016B0005F936F937F938F939F93AF93BF93EF93BA
:1016C000FF9384EF91E00E94DD08FF91EF91BF91BD
:1016D000AF919F918F917F916F915F914F913F91CA
:1016E0002F910F900FBE0F901F9018951F920F9281
:1016F0000FB60F9211242F938F939F93EF93FF9325
:10170000E0910402F09105028081E0910A02F091DB
:101710000B0282FD12C0908180910D028F5F8F734A
:1017200020910E02821751F0E0910D02F0E0EC5092
:10173000FE4F958F80930D0201C08081FF91EF9144
:101740009F918F912F910F900FBE0F901F90189522
:101750001F93CF93DF93282F30E0F901E859F84F1A
:101760008491F901E853F04FD491F901EA51F04F17
:10177000C491CC23C9F0162F81110E947109EC2F5E
:10178000F0E0EE0FFF1FE452F04FA591B4918FB738
:10179000F894111105C09C91ED2FE095E92302C04A
:1017A000EC91ED2BEC938FBFDF91CF911F910895BA
:1017B000CF93DF9390E0FC01E853F04F2491FC01BC
:1017C000EA51F04F8491882361F190E0880F991FCE
:1017D000FC01E859FF4FC591D491FC01E452F04F50
:1017E000A591B491611109C09FB7F89488812095A3
:1017F00082238883EC912E230BC0623061F49FB763
:10180000F8943881822F809583238883EC912E2B46
:101810002C939FBF06C08FB7F894E8812E2B2883A6
:101820008FBFDF91CF9108958230910538F0880FF6
:10183000991F880F991F05970197F1F708958F92C7
:101840009F92AF92BF92CF92DF92EF92FF926B0185
:101850007C010E94C3094B015C01C114D104E10465
:10186000F104F1F00E94C309DC01CB018819990948
:10187000AA09BB09883E9340A105B10570F321E098
:10188000C21AD108E108F10888EE880E83E0981E9C
:10189000A11CB11CC114D104E104F10419F7DDCF7E
:1018A000FF90EF90DF90CF90BF90AF909F908F9080
:1018B00008952FB7F8946091EA017091EB0180913F
:1018C000EC019091ED012FBF08951F920F920FB67A
:1018D0000F9211242F933F938F939F93AF93BF93B6
:1018E0008091EA019091EB01A091EC01B091ED01A2
:1018F0003091E90123E0230F2D3720F40196A11D3B
:10190000B11D05C026E8230F0296A11DB11D20932D
:10191000E9018093EA019093EB01A093EC01B0936D
:10192000ED018091EE019091EF01A091F001B09155
:10193000F1010196A11DB11D8093EE019093EF017D
:10194000A093F001B093F101BF91AF919F918F915E
:101950003F912F910F900FBE0F901F9018951F92DF
:101960000F920FB60F9211242F933F934F935F93D3
:101970006F937F938F939F93AF93BF93EF93FF9357
:10198000E0910201F09103010995FF91EF91BF9160
:10199000AF919F918F917F916F915F914F913F9107
:1019A0002F910F900FBE0F901F9018951F920F92BE
:1019B0000FB60F9211242F933F934F935F936F9322
:1019C0007F938F939F93AF93BF93EF93FF93E09198
:1019D0000001F09101010995FF91EF91BF91AF9145
:1019E0009F918F917F916F915F914F913F912F9137
:1019F0000F900FBE0F901F9018958EBD00000DB474
:101A000007FEFDCF8EB50895DC01E0E0615038F0AF
:101A10008D91E827F0E0E254F14FE491F7CF8E2F5B
:101A20000895CF92DF92EF92FF920F931F93CF937F
:101A3000DF931F92CDB7DEB76C01E62E08E010E011
:101A4000FF24F39461E08F2D8E2109F460E0C6013C
:101A500049830E94E909FF0C0150110949810115D0
:101A6000110581F7411115C0F894D6011196ED9139
:101A7000FC91129791818C91809589238183119695
:101A8000ED91FC91129792818C91809589238283AC
:101A900078940F90DF91CF911F910F91FF90EF906D
:101AA000DF90CF900895CF92DF92EF92FF920F9345
:101AB0001F93CF93DF931F92CDB7DEB78C01F62E25
:101AC00040E065E579830E94110DCF2C7981D72EF6
:101AD000760188E0E80EF11CF60161916F0140E0AB
:101AE000C8010E94110DCE14DF04B1F70F90DF91F1
:101AF000CF911F910F91FF90EF90DF90CF900895BD
:101B0000FC0190810180F281E02DF8948181892B84
:101B100081832281892F809528232283A7E0B0E04A
:101B20001197F1F7218182238183A3E2B0E011971D
:101B3000F1F780817894EFECF0E03197F1F798239A
:101B400081E009F480E00895FC0190810180F28138
:101B5000E02DF8948181292F209582238183789428
:101B60008DE743E050E0815021F1DA011197F1F760
:101B700030813923C1F3F894828182238283818169
:101B8000892B81837894ABE7B7E01197F1F7F8944C
:101B9000818128232183A3E1B1E01197F1F78081AE
:101BA000982381E009F080E07894E3E6F6E031974D
:101BB000F1F70895AF92BF92CF92DF92EF92FF922A
:101BC0000F931F93CF93DF931F92CDB7DEB75C01C6
:101BD000E62ED72EFC01858581115DC0C5010E94CE
:101BE000A40D811105C0F5011386158614866BC0FE
:101BF00040E060EFC5010E94110D01E0F12CC12C05
:101C000011E0C5010E94800D682FC50169830E9403
:101C1000800D6981613019F48130B9F433C04F2DE2
:101C200050E068131BC0F5018385181730F4E40FEA
:101C3000F51F8381802349F402C0181731F060E05A
:101C4000193058F4F501148708C0F501EF0DF11DA6
:101C50008381802B838361E009C0C12EF501E40FED
:101C6000F51F9381802F809589238383C5010E946E
:101C7000E9091F5F000F11F4F39401E0F7E0FF158D
:101C800008F0BFCF113438F0F501C386C11015C07C
:101C900081E0858712C0F50113861586148680E0E1
:101CA000D5011396EE2DFD2D9501255F3F4F9D919A
:101CB0009193A217B307D9F706C0F5018381882352
:101CC00051F381E0EDCF0F90DF91CF911F910F91F4
:101CD000FF90EF90DF90CF90BF90AF9008958F92DC
:101CE0009F92AF92BF92CF92DF92EF92FF920F93AB
:101CF0001F93CF93DF936B017C018090050190903F
:101D00000601A0900701B09008018FE00E949A0997
:101D1000EC018091E5019091E601C817D90729F1FE
:101D200062E370E080E090E00E941F0C2097C9F40D
:101D30008091D6019091D701019663E070E00E94F6
:101D4000241E9093D7018093D6010E94350A0E94E9
:101D5000590C6093DA017093DB018093DC0190935E
:101D6000DD01D093E601C093E5018091D601909109
:101D7000D701009709F04CC003E210E023E230E005
:101D800045E25EE064E170E088E390E00E940A14BE
:101D90000E948D12A5019401C701B6010E94741E14
:101DA0006B017C012AE939E949E95EEB0E94F723DE
:101DB00018163CF061E081E10E94A80B8FE690E0EC
:101DC00076C02AE939E949E95EE3C701B6010E9414
:101DD000171F1816D4F48EED90E09093F3018093C2
:101DE000F2010E94C01360E03DC02AE939E949E9E7
:101DF0005EE3C501B4010E94741E9B01AC01C701E2
:101E0000B6010E94F72387FDE6CF80EF90E04FC038
:101E100081309105B1F503E210E023E230E04CE8B7
:101E20005DE064E170E088E390E00E940A140E94A3
:101E30008D122AE939E949E95EE3C501B4010E943E
:101E4000751E9B01AC01C701B6010E94171F181631
:101E500064F68FE690E09093F3018093F2010E9484
:101E6000C01361E081E1DF91CF911F910F91FF904D
:101E7000EF90DF90CF90BF90AF909F908F900C9499
:101E8000A80B029731F50EE110E02EE130E04CE1B5
:101E90005DE064E170E088E390E00E940A140E9433
:101EA0008D1260E081E10E94A80B8EED90E090938E
:101EB000F3018093F201DF91CF911F910F91FF9079
:101EC000EF90DF90CF90BF90AF909F908F900C9449
:101ED000C013DF91CF911F910F91FF90EF90DF9092
:101EE000CF90BF90AF909F908F90089584359105CB
:101EF000F8F460337105E0F49B0143E036952795D3
:101F00004A95E1F744E5429FF001439FF00D11240B
:101F10008E0F9F1FFC01E454FD4F6770772781E00F
:101F200090E001C0880F6A95EAF7908D892B808F29
:101F300008958435910500F560337105E8F49B013F
:101F400043E0369527954A95E1F744E5429FF00135
:101F5000439FF00D11248E0F9F1FFC01E454FD4F91
:101F60006770772781E090E001C0880F6A95EAF7F3
:101F70008095908D8923808F08952F923F924F9264
:101F80005F926F927F928F929F92AF92BF92CF9209
:101F9000DF92EF92FF920F931F93CF93DF93CDB712
:101FA000DEB728970FB6F894DEBF0FBECDBF788797
:101FB0006F831A01FC0101900020E9F731979F011E
:101FC000281B390B3C832B836F30774281F440917F
:101FD000CF026B817C81469F9001479F300D112479
:101FE00044E550E0DA01A21BB30BB887AF832F8121
:101FF00038852E303742B1F44091CF026B817C811D
:10200000469F9001479F300D112444E550E0421B4C
:10201000530B57FF02C04F5F5F4F9A0135952795CD
:1020200038872F839E838D83C12CD12C2B813C81BB
:10203000C216D3060CF0F4C09091CF029C9D800193
:102040009D9D100D11242F813885020F131FAD8126
:10205000BE812D91BE83AD838091D002582F5770E1
:1020600030E04091D10251116EC0869586958695DB
:10207000241B3109989FC0011124289FA001299F8A
:10208000500D389F500D11249A012C5F3F4F3A8319
:1020900029834101A12CB12C8091D002869586958F
:1020A000869590E0A816B9060CF0B6C049805A8013
:1020B00038018091CF0290E09301201B310B28174B
:1020C0003907D4F5E12CF12C8091CF028A9DF001E3
:1020D0008B9DF00D1124E40DF51D8091CD029091A2
:1020E000CE02E80FF91FE491F0E00E2C02C0F59546
:1020F000E7950A94E2F78091D302B701680D791D44
:10210000E0FF03C0811103C006C0811104C0C301F8
:102110000E94990F03C0C3010E94760F3FEFE31A9C
:10212000F30A48E0E416F10479F66FEF661A760ACE
:102130007FEF471A570ABDCF8FEFA81AB80A98E069
:10214000890E911CA9CF241B3109989FC00111242D
:1021500043E0959587954A95E1F7289F5001299F7F
:10216000B00C389FB00C1124A4E0AA0EB11CE09171
:10217000CD02F091CE02EA0DFB1DE4914E2E512CC2
:10218000380157E0852E912C8091CF0290E0930189
:10219000201B310B281739070CF03EC071018091CC
:1021A000D00290E09701221933092817390784F5E6
:1021B0002091D302C201082C02C0959587950A94FC
:1021C000E2F7B70180FF04C0C301211104C006C0BB
:1021D000C301211103C00E94990F02C00E94760F13
:1021E000B1E08B1A910897FE0FC0EFEFAE1ABE0A4E
:1021F000E091CD02F091CE02EA0DFB1DE4914E2E4E
:10220000512C87E0882E912CFFEFEF1AFF0AC7CFE1
:102210002FEF621A720AB8CF3FEFC31AD30A06CF64
:1022200028960FB6F894DEBF0FBECDBFDF91CF91D9
:102230001F910F91FF90EF90DF90CF90BF90AF90E4
:102240009F908F907F906F905F904F903F902F90D6
:1022500008958F929F92AF92BF92CF92DF92EF92AA
:10226000FF920F931F93CF93DF93CDB7DEB75B0140
:102270004A01CDB6DEB6FC010481158198012F5FBD
:102280003F4F4DB75EB7421B530B0FB6F8945EBF7E
:102290000FBE4DBFEDB7FEB731967F01232B81F006
:1022A000309771F00115110551F0FC0160817181C9
:1022B000A801C7010E942D21F701E00FF11F108234
:1022C000A401B501C7010E94BD0F0FB6F894DEBE90
:1022D0000FBECDBEDF91CF911F910F91FF90EF9078
:1022E000DF90CF90BF90AF909F908F900895ACEB10
:1022F000B2E052969C938E935197FC012491539691
:102300002C9353973196E4915496EC935497FC0197
:102310003296E4915596EC935597FC01339684914F
:1023200056968C93569757961C920895AF92BF92EB
:10233000CF92DF92EF92FF920F931F93CF93DF9391
:102340008B01BC018091AE029091AF020E94530DAF
:1023500040E06EEB8091AE029091AF020E94110DB1
:10236000E801680189E0C80ED11CA090AE02B090CF
:10237000AF0288E0E82EF12C01E010E0C5010E94D8
:10238000800D8111102B000F81E0E81AF108B1F7E0
:102390001993CC15DD0549F78091AE029091AF02FB
:1023A0000E94A40D91E0813009F090E0892FDF9127
:1023B000CF911F910F91FF90EF90DF90CF90BF9042
:1023C000AF9008950F931F93CF93DF93CDB7DEB7F0
:1023D00029970FB6F894DEBF0FBECDBFFC01208158
:1023E000203161F18C018091AE029091AF020E9488
:1023F000A40D882309F1BE016F5F7F4FC8010E94C1
:1024000096118823C9F068E0CE0101960E94040D60
:102410009985891311C08D818F3361F020F48F313C
:1024200059F489E00CC08F3519F08F3739F004C0AA
:102430008BE005C08AE003C080E001C08CE02996F3
:102440000FB6F894DEBF0FBECDBFDF91CF911F91C5
:102450000F9108959091CA02E091C402F091C502D3
:102460002081422F50E0292F30E020953095242301
:1024700035232083E091C002F091C1029091C802FF
:10248000208161110BC0422F50E0292F30E02095B0
:10249000309524233523208348E003C0922B90837A
:1024A000FBCFE091BE02F091BF029091C702208164
:1024B00087FF03C0922B908309C0622F70E0292F01
:1024C00030E020953095262337232083880F909184
:1024D000C602E091BC02F091BD022081622F70E043
:1024E000292F30E0209530952623372320830000C4
:1024F0009091C602E091BC02F091BD022081922B26
:102500009083415071F68091CA02E091C402F0912B
:10251000C5029081892B80830895CF93DF938091AA
:10252000CC04811112C060E080E40E942A1260E0B5
:1025300080E80E942A12C4EDD2E061E089910E94F5
:102540002A1284E0CC3CD807C1F7DF91CF910895DF
:10255000CF93DF939CB59F7D9CBD9CB5937F9CBD25
:102560009CB59C7F9CBD9DB591609DBDC1E9D2E0AD
:10257000682F8A810E94A80B8C899D89DF91CF9159
:102580000C94140C81E00C94A81280E00C94A81216
:102590001F93CF93DF9300D0CDB7DEB76A838983D3
:1025A0000E94C51289818F7180620E94FD0C182FD4
:1025B0006A81862F0E94FD0C0E94C212812F0F900B
:1025C0000F90DF91CF911F910895CF93DF931F92CA
:1025D000CDB7DEB789830E94C51289818F710E94B1
:1025E000FD0C8FEF0E94FD0C89830E94C21289812D
:1025F0000F90DF91CF910895EF92FF920F931F9369
:10260000CF93DF9300D01F92CDB7DEB7162F4A834A
:102610007B8389830E94C51289818F7180620E94A9
:10262000FD0C082FE12E7B81F72E4A81140F1E1519
:1026300031F0F70181917F010E94FD0CF8CF0E94DB
:10264000C212802F0F900F900F90DF91CF911F91AA
:102650000F91FF90EF90089580E00E94E51281FDB8
:102660000BC0682F626080E00E94C81265E070E0D5
:1026700080E090E00C941F0C0895CF93DF931F929D
:10268000CDB7DEB70E94C51281EE0E94FD0C898392
:102690000E94C21289810F90DF91CF9108952091FD
:1026A000910230919202409193025091940224172A
:1026B000350721F0682F822F0C94A80B08950097FE
:1026C00069F0FC0101900020E9F73197AF01481B48
:1026D000590BBC0184EF91E00C94461580E090E02A
:1026E0000895CF93DF930E945F13EC0186E491E09D
:1026F0000E945F138C0F9D1FDF91CF9108958F92E1
:102700009F92AF92BF920F931F93CF93DF93CDB75A
:10271000DEB7A1970FB6F894DEBF0FBECDBF19A2EA
:10272000423008F44AE08E010F5D1F4F842E912C39
:10273000A12CB12CA50194010E94381EE62FB901ED
:10274000CA0101501109EA3014F4E05D01C0E95CEE
:10275000D801EC93232B242B252B61F7C8010E9471
:102760005F13A1960FB6F894DEBF0FBECDBFDF9109
:10277000CF911F910F91BF90AF909F908F90089530
:102780000F931F93CF93DF931F92CDB7DEB7909136
:102790009802092F911101E080919902811103C0E3
:1027A000192F101B01C010E00E94C51280EA0E9480
:1027B000FD0C002321F08091F2010E94FD0C1123F9
:1027C00029F080E00E94FD0C1150F9CF0E94C21246
:1027D00081E00E944F130E94C5128FEF0E94FD0CF2
:1027E00089830E94C21289818073A9F380E00E94CC
:1027F0004F1360E787E00E94C81284FF04C00E9464
:102800003D1380E001C081E00F90DF91CF911F91D7
:102810000F9108952F923F924F925F926F927F9205
:102820008F929F92AF92BF92CF92DF92EF92FF92E0
:102830000F931F93CF93DF936C014A0159017B01E2
:10284000C0E0D0E0C017D1070CF040C0CE01D7FDEA
:10285000079623E0959587952A95E1F78A9D2001B3
:102860008B9D500C9A9D500C1124CE0168E070E0B5
:102870000E94241E22242394312C02C0220C331CDB
:102880008A95E2F736014C185D08C3018C199D0941
:102890008A159B05B4F4F201E60DF71DE80DF91D4C
:1028A000E491F0E0E221F321B701C301EF2B19F02D
:1028B0000E94760F02C00E94990F8FEF681A780A63
:1028C000E4CF21968FEFE81AF80ABCCFDF91CF91C1
:1028D0001F910F91FF90EF90DF90CF90BF90AF903E
:1028E0009F908F907F906F905F904F903F902F9030
:1028F00008958F929F92AF92BF92CF92DF92EF9204
:10290000FF92CF93DF936B017C019B01AC010E948E
:102910001C1F882319F089EC91E027C0460157015C
:10292000E894B7F82FEF3FEF4FE75FE7C501B40139
:102930000E941C1F81110DC02FEF3FEF4FE75FE793
:10294000C501B4010E94F72318161CF48DEC91E028
:102950000CC02FEF3FEF4FE75FE4C701B6010E94C5
:10296000171F181674F481ED91E0DF91CF91FF905D
:10297000EF90DF90CF90BF90AF909F908F900C948E
:102980005F132FEF3FEF4FE75FECC701B6010E94E7
:10299000F72387FDE8CF20E030E0A901C701B601A9
:1029A0000E94F72387FF11C0E091F401F091F50137
:1029B0000190F081E02D6DE284EF91E00995EC014A
:1029C000F7FAF094F7F8F09402C0C0E0D0E02AE003
:1029D00037ED43EA5BE3C701B6010E94751E4B0168
:1029E0005C010E94E81E6B017C010E94FC239B019C
:1029F000AC01C501B4010E94741E4B015C014AE0A8
:102A0000C701B6010E947F13C80FD91F83E691E06A
:102A10000E945F13C80FD91F20E030E040E251E46C
:102A2000C501B4010E945D244B015C010E94E81EB7
:102A30006B01E12CF12C4AE0C701B6010E947F1323
:102A4000C80FD91FC701B6010E94FC239B01AC012E
:102A5000C501B4010E94741E20E030E040E251E460
:102A60000E945D240E94E81E80E090E04AE00E94FF
:102A70007F138C0F9D1FDF91CF91FF90EF90DF9020
:102A8000CF90BF90AF909F908F900895CF92DF929C
:102A9000EF92FF920F931F93CF93DF936C017A0114
:102AA0008B01C0E0D0E0CE15DF0589F0D8016D9133
:102AB0008D01D601ED91FC910190F081E02DC601D0
:102AC0000995892B11F47E0102C02196ECCFC70134
:102AD000DF91CF911F910F91FF90EF90DF90CF90FA
:102AE00008950E941821CF93DF93CDB7DEB7619789
:102AF0000FB6F894DEBF0FBECDBFE091AE02F091ED
:102B0000AF02138615861486DF011B96CF0103964C
:102B10001E92A817B907E1F7BE01665F7F4FCF018C
:102B20000E94DA0D882341F067E0CE010A960E94E8
:102B3000040D9989891729F060E070E08EEF92EC1E
:102B400059C08091AE029091AF020E94A40D8823DB
:102B5000F1F1BE016F5F7F4FCE010A960E94961180
:102B60008823A9F168E0CE0101960E94040D9985A1
:102B700089132DC0698148E0649FB00111248A81C6
:102B8000282F30E0322F2227330F330F330F262B1D
:102B9000372B8A858031C9F4688570E08F81AB015D
:102BA000481B5109CA019695982F882797958795B4
:102BB0000E94241E60517109207F53E0220F331FB1
:102BC0005A95E1F7620F731F04C0B90102C060E8B3
:102BD00074EE613854EE75070CF4AECF072E000C7E
:102BE000880B990B0E94FE2320E030E040E05CE37C
:102BF0000E945D2461960FB6F894DEBF0FBECDBF74
:102C0000DF91CF910895CF92DF92EF92FF92CF9311
:102C1000DF936C01990FEE08FF08F7FE1AC0E091F0
:102C2000F401F091F5010190F081E02D6DE284EF67
:102C300091E00995EC0166277727CB016C197D0996
:102C40008E099F094AE00E947F137C01EC0EFD1E55
:102C500006C04AE0C701B6010E947F137C0186E4EA
:102C600091E00E945F138E0D9F1DDF91CF91FF9029
:102C7000EF90DF90CF9008950F931F93CF93DF9342
:102C8000EC0188819981009729F02A813B812617E0
:102C9000370788F48B016F5F7F4F0E944E200097AB
:102CA00061F0998388831B830A832C813D81232BC8
:102CB00011F4FC01108281E001C080E0DF91CF912E
:102CC0001F910F910895CF93DF93EC018881998133
:102CD000009711F00E94B61F198218821D821C8273
:102CE0001B821A82DF91CF910895EF92FF920F938A
:102CF0001F93CF93DF938C017B016115710569F000
:102D0000FB0101900020E9F73197EF01C61BD70BBB
:102D1000BE010E943C16811104C0C8010E946316C6
:102D200008C0F801D583C483B701808191810E94D6
:102D30002621C801DF91CF911F910F91FF90EF9055
:102D40000895FC01808191810C94B61FEF92FF924F
:102D50000F931F93CF93DF93CDB7DEB7A1970FB635
:102D6000F894DEBF0FBECDBF7C01CB01BA01F701E5
:102D700011821082138212821582148242E0420F65
:102D80008E010F5F1F4F0E943C21BC01C7010E94B2
:102D90007516A1960FB6F894DEBF0FBECDBFDF91BA
:102DA000CF911F910F91FF90EF900895CF93DF93F4
:102DB000CDB7DEB7A8970FB6F894DEBF0FBECDBF74
:102DC000789484B5826084BD84B5816084BD85B506
:102DD000826085BD85B5816085BD80916E00816012
:102DE00080936E00109281008091810082608093B8
:102DF00081008091810081608093810080918000BA
:102E00008160809380008091B10084608093B100E4
:102E10008091B00081608093B00080917A008460DE
:102E200080937A0080917A00826080937A0080910A
:102E30007A00816080937A0080917A008068809324
:102E40007A001092C10060E082E00E94D80B61E03D
:102E500082E00E94A80B60E080E10E94D80B61E054
:102E600080E10E94A80BE0910402F091050282E04B
:102E70008083E0910002F09101021082E091020251
:102E8000F09103028FEC808310920C02E091080213
:102E9000F091090286E08083E0910602F09107023A
:102EA000808180618083E0910602F0910702808139
:102EB00088608083E0910602F0910702808180683B
:102EC0008083E0910602F091070280818F7D8083EC
:102ED00080919102909192022091930230919402FC
:102EE0008217930719F061E00E94D80B809193023A
:102EF0009091940220919102309192022817390703
:102F000019F061E00E94D80B1FB7F8948091DE01A0
:102F1000811127C0E0EFFFE08491E2EDFFE09491A2
:102F2000E82FF0E0EE0FFF1FE859FF4FA591B49195
:102F3000EC91E92321F461E08AE00E94A80B61E0B2
:102F40008AE00E94D80B8CB580618CBD8CB5806402
:102F50008CBD61E08DE00E94D80B61E08BE00E94A7
:102F6000D80B8091DE018F5F8093DE011FBF80E070
:102F70000E944F1381E00E94A81265E070E080E09B
:102F800090E00E941F0C6CE080E00E94C8126FE588
:102F900084E00E94C81286E00E94E512877D182F07
:102FA00010628BE990E0A0E0B0E08093A1029093E2
:102FB000A202A093A302B093A402612F86E00E9414
:102FC000C81286E00E94E512811709F4F4C286E077
:102FD0000E94E51286E00E94E51245E550E060E0BF
:102FE00070E04093A1025093A2026093A3027093F9
:102FF000A402682F677D86E00E94C81286E00E94C6
:10300000E5120E94C51280E50E94FD0C83E70E9434
:10301000FD0C0E94C21260E08DE10E94C81260E0C7
:103020008CE10E94C8121092990260E787E00E942A
:10303000C8126CE485E00E94C8120E94C51282EE9C
:103040000E94FD0C0E94C2120E943D130E942C138C
:1030500080E00E94E512682F6E7F80E00E94C81217
:1030600051EEF52EFB8E10EF1C8F1D8F08EE0E8F8C
:103070000F8F18A219A21AA240919F02BE01655E8D
:103080007F4F8AE00E94FC1240919F02BE01655E64
:103090007F4F80E10E94FC126091980281E10E94C2
:1030A000C812FB8A1C8B1D8B0E8B88EA8F8B188EA7
:1030B000198E1A8EE9E7F0E0849140919F02BE01DB
:1030C0006D5E7F4F0E94FC12E3E7F0E08491609117
:1030D00098020E94C81282E00E94E512E3E6F7E03F
:1030E000E49161E070E001C0660FEA95EAF7682BB1
:1030F00082E00E94C8128091C802E091C002F09163
:10310000C1029081892B80838091C702E091BE0229
:10311000F091BF029081892B80838091C602E0915B
:10312000BC02F091BD029081892B80838091CA02FC
:10313000E091C402F091C5029081892B8083909127
:10314000C902E091C202F091C3028081282F30E0D1
:10315000892F90E0809590958223932380836AE065
:1031600070E080E090E00E941F0C8091C902E09125
:10317000C202F091C3029081892B808360E081E2DA
:103180000E942A1260E086EC0E942A1260E086E02B
:103190000E942A1260E083E10E942A1260E080E22D
:1031A0000E942A1260E080E40E942A1260E080E817
:1031B0000E942A1260E08CE00E942A12E4EDF2E004
:1031C000119224E0EC3CF207D9F70E948D12109284
:1031D000CE021092CD021092CC0486E490E090933F
:1031E000CE048093CD048EED9AE00E94771162E0C8
:1031F0008FE00E94D80B61E081E10E94D80BE09142
:10320000AE02F091AF02138615861486DF011B967D
:1032100033961E92AE17BF07E1F71092AD0211E090
:10322000BE016F5F7F4F8091AE029091AF020E940E
:10323000DA0D882309F44AC067E0CE0101960E94A6
:10324000040D98858913ECCF8091A902811127C0C4
:103250008091AE029091AF020E94A40DBE016F5FFB
:103260007F4F8091AE029091AF020E94530D40E0DB
:1032700064EB8091AE029091AF020E94110D80919B
:10328000AE029091AF020E94800D082F8091AE0295
:103290009091AF020E94A40D002309F490C1009107
:1032A000AA02CE0101960E94E211801718F48091C3
:1032B000AA0204C0CE0101960E94E2118093AA02E4
:1032C0008091AD028F5F8093AD02AACFC090D801EC
:1032D000D090D90186010E5F1F4F1093D901009342
:1032E000D801011534E0130729F41092D901109286
:1032F000D80124C0E12CF12CC7010E941B258111AB
:1033000061C18FEFE81AF80AE114E4E0FE06A1F7C4
:103310006091D601C8010E9423256091050170913A
:10332000060180910701909108010E94E81E80919A
:10333000D8019091D90102960E9423258CE797E04D
:103340000E9477111CA21BA21EA21DA218A61FA2DA
:103350001982BE016F5F7F4FCE0183960E94751662
:1033600044E150E061E070E0CE0183960E942911B3
:10337000CE0183960E94A1168CEE9AE090930101F3
:1033800080930001809169008C7F81608093690047
:10339000E89A2DED222E312CEE24E394F12CCC244E
:1033A000CA9443E0D42E86E291E00E9471133092D9
:1033B000F3012092F2010E94C01365E070E080E00A
:1033C00090E00E941F0C0E942C1380E00E94E512E6
:1033D000682F616080E00E94C81260E787E00E9469
:1033E000C81281E00E944F1380919A02882341F015
:1033F00040919F026AE972E08AE00E94FC1210C0CC
:1034000082E00E94E512E2E6F7E09491B70101C084
:10341000660F9A95EAF76095682382E00E94C812C9
:103420008DE10E94E51281FFC2C00E943D13BFC022
:1034300087E10E94E51280FFF9C089E991E00E94CE
:10344000711381149104A104B10421F40E94590C58
:103450004B015C010E94590C681979098A099B0982
:103460000E94FC23AB01BC0122E0CE0183960E94A6
:10347000A6161A8219821C821B821E821D8269E096
:1034800070E0CE0101960E943C16811129C2CE0146
:1034900001960E9463168FA198A56BA07CA00D8158
:1034A0001E816114710409F43BC2009709F023C224
:1034B0004D815E8169817A8184EF91E00E94461599
:1034C00086E491E00E945F13CE0101960E94A1164E
:1034D000CE0183960E94A1160E94590CDC01CB01FB
:1034E00088199909AA09BB0981319742A105B1053B
:1034F00008F49ECF80E79FE60E9403168AE0A82E7C
:10350000B12C0AE210E024E530E049EA55E060E041
:1035100070E080E090E00E940A140E948D1264E640
:1035200070E080E090E00E941F0C24E530E040EF66
:1035300053E060E070E080E090E00E940A140E9496
:103540008D1264E670E080E090E00E941F0C24E59C
:1035500030E047E352E060E070E080E090E00E94FD
:103560000A140E948D1264E670E080E090E00E94F0
:103570001F0C24E530E04EE750E060E070E080E0B2
:1035800090E00E940A140E948D1264E670E080E0D0
:1035900090E00E941F0CE4EDF2E0119224E0EC3C7C
:1035A000F207D9F731E0A31AB10809F0AACF812CAC
:1035B000912C54013DCF81E08093970208CD109368
:1035C000A9026DCEC8010E941B2590E09093D701FF
:1035D0008093D601C60104960E941B25682F70E0D7
:1035E00080E090E00E94FC234B015C0160930501A8
:1035F000709306018093070190930801C601069617
:103600000E941B25882309F499CE20E030E040E099
:103610005FE3C501B4010E94751E609305017093BC
:103620000601809307019093080188CE10919802BB
:1036300001E0111101C000E080919902811102C0E6
:10364000101B01C010E00E94C51281E60E94FD0C13
:10365000002329F08FEF0E94FD0C8093F2011123CB
:1036600029F08FEF0E94FD0C1150F9CF0E94C21279
:1036700060E787E00E94C8128091F2019091F30107
:103680000E94031665E070E080E090E00E941F0C4D
:1036900080E00E944F138091A1029091A2020E94AB
:1036A000140C8DE10E94E51281FF08C08091A102F7
:1036B0009091A2020E94140C0E943D1380E00E948F
:1036C000E512682F6E7F80E00E94C81282E00E949F
:1036D000E512E2E6F7E09491970101C0220F9A9576
:1036E000EAF7682F622B82E00E94C8128091AE0236
:1036F0009091AF020E94A40D40E06CEC8091AE026C
:103700009091AF020E94110D4091A90264E4809152
:10371000AE029091AF020E94110D8091AB028823FE
:10372000A9F0E091AA02E950E33040F4F0E0EE0F96
:10373000FF1FE05FFE4F6081718102C06EEE72E09C
:10374000072E000C880B990B0E941F0C0E9473150A
:103750004B015C010E94E11EDC01CB018C011CA22B
:103760001BA21EA21DA218A61FA24AE0BE016F5FE7
:103770007F4F0E945C21BE016F5F7F4FCE01839619
:103780000E9475164FA158A56BA17CA184EF91E012
:103790000E944615CE0183960E94A11601381F4F44
:1037A00009F47DC089E491E00E945F1385E691E011
:1037B0000E945F138AE691E00E945F130E947315D6
:1037C0000E9479148AE691E00E945F13C501B4015A
:1037D0000E9479148EED9AE00E94771142E050E049
:1037E00065E070E088E891E00E94BD0F82EA99E010
:1037F0000E947711409105015091060160910701E7
:103800007091080121E0CE0101960E94A61642E0C7
:1038100050E06CE170E0CE0101960E942911CE01CA
:1038200001960E94A1168EED9AE00E9477118CE716
:1038300097E00E94771121E0B501A401CE01019625
:103840000E94A61644E150E061E070E0CE010196CE
:103850000E942911CE0101960E94A1160E948D128C
:10386000C501B4010E946F0E0E94590C2B013C014E
:103870001FEF0E94590CDC01CB0184199509A609A0
:10388000B7092091040188389341A105B10508F0DA
:103890004CC021114DC081E08093040118C08EED11
:1038A0009AE00E94771144E150E064E070E08CE817
:1038B00091E00E94BD0F60E081E10E94A80B0E9490
:1038C0008D1268EE73E080E090E00E941F0C309251
:1038D000F3012092F2010E94C0130E94670963CD98
:1038E00089E090E09E838D836CE371E089819A8109
:1038F0000E942621D0CD080F191FB801CE010196D4
:103900000E943C16882361F029813A818D819E8135
:10391000B301820F931F0E9426211E830D83C8CD01
:10392000CE0101960E946316C3CD2111D0CFB3CF33
:103930000E94590C2091DA013091DB014091DC01A9
:103940005091DD01DC01CB01821B930BA40BB50B65
:10395000883B9B40A105B10528F4C501B4010E9434
:103960006F0E87CF80EA91E00E94711361E085E0DD
:103970000E94D80BEDE6F7E08491833051F48091FA
:103980008000806880938000D0928900C092880077
:1039900008C08430E8F4813079F484B5806884BD4F
:1039A00017BD0E94590C6093DA017093DB0180937C
:1039B000DC019093DD01D1CF823029F484B580629F
:1039C00084BD18BDEECF61E085E00E94A80BE9CF71
:1039D000873041F48091B00080688093B0001093EC
:1039E000B300DFCF883041F48091B00080628093D3
:1039F000B0001093B400D5CF843029F780918000B7
:103A0000806280938000D0928B00C0928A00C9CFE0
:103A10001092F7011092F60188EE93E0A0E0B0E07A
:103A20008093F8019093F901A093FA01B093FB0100
:103A30008AE191E09093F5018093F40185EC90E0A8
:103A4000909301028093000284EC90E09093030233
:103A50008093020280EC90E0909305028093040230
:103A600081EC90E0909307028093060282EC90E054
:103A7000909309028093080286EC90E090930B02E9
:103A800080930A0210920D0210920E0210920F0201
:103A900010921002ECEEFFE0E491F0E0EE0FFF1F59
:103AA000E452F04F859194919093BD028093BC02B3
:103AB000EEECFFE0E491E093C602EDEEFFE0E4916E
:103AC000F0E0EE0FFF1FE452F04F85919491909338
:103AD000BF028093BE02EFECFFE0E491E093C702E7
:103AE000E9EFFFE0E491F0E0EE0FFF1FE452F04F4A
:103AF000859194919093C1028093C002EBEDFFE019
:103B0000E491E093C802EAEEFFE0E491F0E0EE0F0A
:103B1000FF1FE452F04F859194919093C3028093DC
:103B2000C202ECECFFE0E491E093C902E9EEFFE0B1
:103B3000E491F0E0EE0FFF1FE452F04F8591949175
:103B40009093C5028093C402EBECFFE0E491E09314
:103B5000CA0261E086E00E94D80B61E087E00E9423
:103B6000D80B61E083E10E94D80B61E084E00E9401
:103B7000D80B61E083E00E94D80B86E08093CB02F3
:103B800084E08093CC0260E088E00E94D80BE0EDF6
:103B9000FFE0E491E093CF04EEEEFFE0E491F0E08B
:103BA000EE0FFF1FE254F04F859194919093D10452
:103BB0008093D0041092DA041092DC041092DB049B
:103BC000EAEDF4E0129284E0E23DF807D9F788E1EB
:103BD0009AE09093BB028093BA028FEC94E09093AA
:103BE000AF028093AE021092AD021092A90289E05A
:103BF0008093AA0281E08093AB028093AC0289E0BB
:103C000090E090939202809391028AE090E09093EA
:103C10009402809393021092970280E2809398021C
:103C20001092990285E080939F0285E090E0A0E0E9
:103C3000B0E08093A5029093A602A093A702B09350
:103C4000A80210929A02089597FB072E16F400948A
:103C500007D077FD09D00E945A1E07FC05D03EF41C
:103C6000909581959F4F0895709561957F4F089528
:103C7000A1E21A2EAA1BBB1BFD010DC0AA1FBB1F70
:103C8000EE1FFF1FA217B307E407F50720F0A21BE2
:103C9000B30BE40BF50B661F771F881F991F1A944F
:103CA00069F760957095809590959B01AC01BD0179
:103CB000CF010895AA1BBB1B51E107C0AA1FBB1F60
:103CC000A617B70710F0A61BB70B881F991F5A95A8
:103CD000A9F780959095BC01CD010895EE0FFF1FC7
:103CE0000590F491E02D09945058BB27AA270E9413
:103CF0008C1E0C94E1240E94D32438F00E94DA2414
:103D000020F039F49F3F19F426F40C94D0240EF4DB
:103D1000E095E7FB0C94CA24E92F0E94F22458F3A3
:103D2000BA17620773078407950720F079F4A6F5A0
:103D30000C9414250EF4E0950B2EBA2FA02D0B0138
:103D4000B90190010C01CA01A0011124FF27591BE0
:103D500099F0593F50F4503E68F11A16F040A22FE6
:103D6000232F342F4427585FF3CF46953795279557
:103D7000A795F0405395C9F77EF41F16BA0B620B56
:103D8000730B840BBAF09150A1F0FF0FBB1F661F9D
:103D9000771F881FC2F70EC0BA0F621F731F841FE0
:103DA00048F4879577956795B795F7959E3F08F006
:103DB000B0CF9395880F08F09927EE0F97958795C8
:103DC00008950E94E81E6894B1110C941525089579
:103DD0000E94FA2488F09F5798F0B92F9927B7517D
:103DE000B0F0E1F0660F771F881F991F1AF0BA959F
:103DF000C9F714C0B13091F00E941425B1E00895C4
:103E00000C941425672F782F8827B85F39F0B93FB5
:103E1000CCF3869577956795B395D9F73EF4909551
:103E20008095709561957F4F8F4F9F4F08950E94A9
:103E3000392408F48FEF08950E943924880B990BD8
:103E40000895CF93DF938230910510F482E090E0E3
:103E5000E091DF04F091E00420E030E0C0E0D0E049
:103E6000309711F14081518148175907C0F0481728
:103E7000590761F482819381209719F09B838A838B
:103E80002BC09093E0048093DF0426C021153105F8
:103E900019F04217530718F49A01BE01DF01EF0130
:103EA0000280F381E02DDCCF2115310509F1281BBB
:103EB000390B2430310590F412968D919C91139713
:103EC0006115710521F0FB019383828304C09093F7
:103ED000E0048093DF04FD01329644C0FD01E20F4F
:103EE000F31F81939193225031092D933C933AC053
:103EF0002091DD043091DE04232B41F420910C014C
:103F000030910D013093DE042093DD0420910A01ED
:103F100030910B012115310541F42DB73EB7409189
:103F20000E0150910F01241B350BE091DD04F0913F
:103F3000DE04E217F307A0F42E1B3F0B2817390706
:103F400078F0AC014E5F5F4F2417350748F04E0FF5
:103F50005F1F5093DE044093DD048193919302C070
:103F6000E0E0F0E0CF01DF91CF9108950F931F9330
:103F7000CF93DF93009709F48CC0FC013297138232
:103F800012820091DF041091E0040115110581F403
:103F900020813181820F931F2091DD043091DE0456
:103FA0002817390779F5F093DE04E093DD0471C03A
:103FB000D80140E050E0AE17BF0750F412962D91A3
:103FC0003C911397AD012115310509F1D901F3CFCA
:103FD0009D01DA013383228360817181860F971FEF
:103FE0008217930769F4EC0128813981260F371F66
:103FF0002E5F3F4F318320838A819B81938382830D
:10400000452B29F4F093E004E093DF0442C01396BB
:10401000FC93EE931297ED01499159919E01240F63
:10402000351FE217F30771F480819181840F951F8A
:10403000029611969C938E938281938113969C9302
:104040008E931297E0E0F0E0D80112968D919C914A
:104050001397009719F0F8018C01F6CF8D919C9180
:1040600098012E5F3F4F820F931F2091DD04309106
:10407000DE042817390769F4309729F41092E00418
:104080001092DF0402C0138212821093DE040093A8
:10409000DD04DF91CF911F910F910895A0E0B0E072
:1040A000E4E5F0E20C943525EC01009721F4CB0116
:1040B0000E94211FB8C0FC01E60FF71F9C0122508F
:1040C0003109E217F30708F4ACC0D9010D911C9136
:1040D000119706171707B0F00530110508F49FC0B7
:1040E000C80104978617970708F499C00250110970
:1040F000061B170B019311936D937C93CF010E94C4
:10410000B61F8DC05B01A01AB10A4C01800E911E32
:10411000A091DF04B091E00440E050E0E12CF12CEC
:10412000109709F44AC0A815B905D1F56D907C9097
:104130001197630182E0C80ED11CCA14DB0480F120
:10414000A3014A195B096A0182E0C80ED11C1296CC
:10415000BC9012971396AC91B5E0CB16D10440F009
:10416000B282A38351834083D9016D937C930AC0AB
:104170000E5F1F4FC301800F911FF9019183808350
:10418000EB2DFA2FE114F10431F0D7011396FC93D3
:10419000EE93129744C0F093E004E093DF043FC035
:1041A0008D919C9111974817590708F4AC017D0136
:1041B00012960D90BC91A02DB3CF8091DD0490910B
:1041C000DE0488159905E1F446175707C8F4809175
:1041D0000A0190910B01009741F48DB79EB7409171
:1041E0000E0150910F01841B950BE817F907C8F4D5
:1041F000F093DE04E093DD04F901718360830FC066
:10420000CB010E94211F7C01009759F0A801BE013B
:104210000E941D21CE010E94B61FC70104C0CE011D
:1042200002C080E090E0CDB7DEB7EEE00C945125FF
:1042300081E090E0F8940C946825FB01DC0102C059
:1042400001900D9241505040D8F70895FB01DC01D8
:1042500001900D920020E1F70895FB01DC0141502F
:10426000504048F001900D920020C9F701C01D9206
:1042700041505040E0F70895EF920F931F93CF9372
:10428000DF93E80147FD02C034E001C034E1E42FD0
:10429000440FFF0BF7FF03C0F195E195F109E32E01
:1042A000022F2E2FAE010E948121CE01DF91CF91EE
:1042B0001F910F91EF900895BB274A3031F4992355
:1042C00022F4BDE2909581959F4F0C946821BB2705
:1042D000FB015527AA27880F991FAA1FA41710F0C2
:1042E000A41B83955051B9F7A05DAA3308F0A95DCE
:1042F000A193009779F7B111B1931192CB010C946E
:10430000E7234F925F926F927F929F92AF92BF92FC
:10431000CF92DF92EF92FF920F931F93CF93DF9391
:10432000CDB7DEB729970FB6F894DEBF0FBECDBF6D
:104330006A01122FB02E2BE3201720F0FF24F394F4
:10434000F00E02C0BCE3FB2E0F2D27E0AE014F5F45
:104350005F4F0E940F23AC018981982F9970913093
:1043600031F0E1FC06C0E0FE06C090E205C09DE22F
:1043700003C09BE201C090E0EE2DE07183FF3CC0E2
:10438000911102C083E001C084E0811718F4212F4D
:10439000281B01C020E0E1110BC0F601822F30E2A2
:1043A000882319F031938150FBCFC20ED11C20E03D
:1043B000992329F0D6019C93F60131966F01C6012D
:1043C0000396E2FE0AC03EE4D6013C9341E4119616
:1043D0004C93119712963C9306C03EE6F60130834B
:1043E00041E641833283FC01322F40E2332309F45A
:1043F00042C041933150FACF82FF44C0911102C0B4
:1044000083E001C084E0811718F4212F281B01C02C
:1044100020E0E1110BC0F601822F30E2882319F071
:1044200031938150FBCFC20ED11C20E0992329F09B
:10443000D6019C93F60131966F01C6010396E2FE08
:104440000BC039E4D6013C933EE411963C9311979E
:1044500036E412963C9307C039E6F60130833EE617
:10446000318336E63283FC01322F40E2332319F0E8
:1044700041933150FBCFFC01E20FF11D10828EEF12
:104480009FEFB7C0F1E0911101C0F0E06F2F70E035
:104490001416150624F49A012F5F3F4F02C021E045
:1044A00030E0260F371FBB2029F06B2D70E06F5FC7
:1044B0007F4F02C060E070E0260F371F612F70E071
:1044C000261737071CF4121B212F01C020E03E2DB8
:1044D000387159F4D601322F60E2332319F06D930D
:1044E0003150FBCFC20ED11C20E0FF2331F0D601AA
:1044F0009C93B6016F5F7F4F6B01E1110BC0F6011A
:10450000922F30E3992319F031939150FBCFC20ED3
:10451000D11C20E09F2D940F3A81782F7071A72E27
:1045200084FF03C0313309F49150191624F49930F3
:1045300018F098E001C091E0E42F852F57FF02C0EA
:10454000E0E080E06E2F782FE0E0F0E0AEE29A2E1F
:104550003A01691A71082A01461A570A0B2D10E010
:104560001195019511096F3F8FEF780729F4D60156
:104570009C92C60101966C014617570784F0661697
:1045800077066CF47F01E40CF51CA1E0B0E0AC0F01
:10459000BD1FEA0EFB1ED7011196BC9002C090E32E
:1045A000B92E615071093196C60101967C016017E0
:1045B000710724F0D601BC926C01D5CF6417750742
:1045C00041F4363320F4353321F4A11002C081E3E5
:1045D000B82EF601B082F701822F90E2882319F0FD
:1045E00091938150FBCFF701E20FF11D108280E023
:1045F00090E029960FB6F894DEBF0FBECDBFDF91D5
:10460000CF911F910F91FF90EF90DF90CF90BF90CF
:10461000AF909F907F906F905F904F90089528305B
:1046200008F027E03327DA01990F311D87FD9160EB
:1046300000966105710539F432602E5F3D9330E3D9
:104640002A95E1F708959F3F30F0803871056105A4
:1046500009F03C5F3C5F3D93913008F08068911D0C
:10466000DF93CF931F930F93FF92EF92192F987FB1
:104670009695E92F96959695E90FFF27EC5AFF4EF0
:1046800099273327EE24FF24A701E701059008941A
:10469000079428F4360FE71EF81E491F511D660FB8
:1046A000771F881F991F0694A1F70590079428F497
:1046B000E70EF81E491F561FC11D770F881F991F4F
:1046C000661F0694A1F70590079428F4F80E491F79
:1046D000561FC71FD11D880F991F661F771F06948D
:1046E000A1F70590079420F4490F561FC71FD81F44
:1046F000990F661F771F881F0694A9F7849110955C
:10470000177041F0D695C79557954795F794E7945C
:104710001A95C1F7EAEFFFE068941590159135916D
:104720006591959105907FE27395E118F10A430B2D
:10473000560BC90BD009C0F7E10CF11E431F561FE1
:10474000C91FD01D7EF4703311F48A95E6CFE8942A
:10475000015030F0080F0AF40027021708F4202F48
:104760002395022F7A3328F079E37D932A95E9F790
:1047700010C07D932A9589F606949795679537958D
:1047800017951794E118F10A430B560BC90BD00982
:1047900098F023957E9173957A3308F070E37C93BB
:1047A0002013B8F77E9170617D9330F0839571E3AB
:1047B0007D9370E32A95E1F71124EF90FF900F911C
:1047C0001F91CF91DF91992787FD90950895DC0186
:1047D000FC01672F71917723E1F7329704C07C9138
:1047E0006D9370836291AE17BF07C8F308950E945E
:1047F000392408F481E00895E89409C097FB3EF459
:1048000090958095709561957F4F8F4F9F4F99231D
:10481000A9F0F92F96E9BB279395F695879577959B
:104820006795B795F111F8CFFAF4BB0F11F460FF5B
:104830001BC06F5F7F4F8F4F9F4F16C0882311F0B3
:1048400096E911C0772321F09EE8872F762F05C0C7
:10485000662371F096E8862F70E060E02AF09A9562
:10486000660F771F881FDAF7880F9695879597F957
:104870000895990F0008550FAA0BE0E8FEEF1616F1
:104880001706E807F907C0F012161306E407F50744
:1048900098F0621B730B840B950B39F40A2661F0B8
:1048A000232B242B252B21F408950A2609F4A1405B
:1048B000A6958FEF811D811D08950E9470240C9490
:1048C000E1240E94D32438F00E94DA2420F09523BA
:1048D00011F00C94CA240C94D02411240C941525A6
:1048E0000E94F22470F3959FC1F3950F50E0551F7D
:1048F000629FF001729FBB27F00DB11D639FAA2735
:10490000F00DB11DAA1F649F6627B00DA11D661F83
:10491000829F2227B00DA11D621F739FB00DA11DA4
:10492000621F839FA00D611D221F749F3327A00D5E
:10493000611D231F849F600D211D822F762F6A2FFA
:1049400011249F5750409AF0F1F088234AF0EE0F5F
:10495000FF1FBB1F661F771F881F91505040A9F78C
:104960009E3F510580F00C94CA240C9415255F3F9E
:10497000E4F3983ED4F3869577956795B795F795C8
:10498000E7959F5FC1F7FE2B880F911D9695879540
:1049900097F9089597F99F6780E870E060E00895BF
:1049A0009FEF80EC089500240A9416161706180647
:1049B0000906089500240A94121613061406050623
:1049C0000895092E0394000C11F4882352F0BB0FB4
:1049D00040F4BF2B11F460FF04C06F5F7F4F8F4F17
:1049E0009F4F089557FD9058440F551F59F05F3F52
:1049F00071F04795880F97FB991F61F09F3F79F001
:104A000087950895121613061406551FF2CF469582
:104A1000F1DF08C0161617061806991FF1CF869504
:104A20007105610508940895E894BB2766277727E8
:104A3000CB0197F90895F999FECF92BD81BDF89AFF
:104A4000992780B50895262FF999FECF1FBA92BDF8
:104A500081BD20BD0FB6F894FA9AF99A0FBE01965F
:104A600008952F923F924F925F926F927F928F9212
:104A70009F92AF92BF92CF92DF92EF92FF920F93ED
:104A80001F93CF93DF93CDB7DEB7CA1BDB0B0FB6F7
:104A9000F894DEBF0FBECDBF09942A8839884888B4
:104AA0005F846E847D848C849B84AA84B984C8844A
:104AB000DF80EE80FD800C811B81AA81B981CE0F41
:104AC000D11D0FB6F894DEBF0FBECDBFED01089526
:044AD000F894FFCF88
:104AD400E809E809010000A441010000E1048000A4
:104AE4005E00BC00770100000000FE084615C70800
:104AF400A508B90845097777777777777777777750
:104B040077777777777777206E72660074696D654B
:104B1400206973203A000D0A00205265717565738F
:104B240074696E672074656D706572617475726501
:104B3400732E2E2E00444F4E450054656D706572E1
:104B4400617475726520666F722044657669636569
:104B540020312069733A2000536574004572726FE6
:104B6400722053656E736F72006E6F206E726600F2
:104B740066696E697300616161616161616161614E
:104B84006161616161616161616161616161616111
:104B94006161616161616161006E616E00696E668F
:064BA400006F76660000C0
:00000001FF
