:100000000C94E2000C940A010C940A010C940A016D
:100010000C940A010C940A010C940A010C940A0134
:100020000C940A010C940A010C940A010C940A0124
:100030000C940A010C940A010C940A010C940A0114
:100040000C94AD030C940A010C94A5020C947F024D
:100050000C940A010C940A010C940A010C940A01F4
:100060000C940A010C940A01005EBCE2613FDD833E
:10007000C29C7E20A3FD1F419DC3217FFCA2401E88
:100080005F01E3BD3E6082DC237D9FC1421CFEA078
:10009000E1BF5D0380DE3C62BEE0025CDF81633D68
:1000A0007C22C09E1D43A1FF4618FAA427799BC558
:1000B00084DA3866E5BB5907DB856739BAE4065848
:1000C0001947A5FB7826C49A653BD987045AB8E638
:1000D000A7F91B45C6987A24F8A6441A99C7257B28
:1000E0003A6486D85B05E7B98CD2306EEDB3510F18
:1000F0004E10F2AC2F7193CD114FADF3702ECC9208
:10010000D38D6F31B2EC0E50AFF1134DCE90722CF7
:100110006D33D18F0C52B0EE326C8ED0530DEFB1E7
:10012000F0AE4C1291CF2D73CA947628ABF51749D7
:100130000856B4EA6937D58B5709EBB536688AD4C7
:1001400095CB2977F4AA4816E9B7550B88D6346AB7
:100150002B7597C94A14F6A8742AC896154BA9F7A7
:10016000B6E80A54D7896B35000000002400270048
:100170002A0000000000250028002B0000000008D5
:10018000000201000003040700000000000000005E
:1001900000000000230026002900040404040404D5
:1001A0000404020202020202030303030303010226
:1001B00004081020408001020408102001020408F5
:1001C00010202C0F11241FBECFEFD8E0DEBFCDBF13
:1001D00012E0A0E0B1E0E0E0FAE202C005900D928A
:1001E000AA30B107D9F723E0AAE0B2E001C01D921E
:1001F000AC33B207E1F710E0C2EED0E004C02197C3
:10020000FE010E940110C13ED107C9F70E94BA0A3F
:100210000C94FE140C940000FC01918D828D9817B3
:1002200061F0828DDF01A80FB11D5D968C91928DDA
:100230009F5F9F73928F90E008958FEF9FEF0895D7
:10024000FC01918D828D981731F0828DE80FF11DA0
:10025000858D90E008958FEF9FEF0895FC01918DBB
:10026000228D892F90E0805C9F4F821B91098F73B4
:100270009927089582E692E00E942E0121E0892BC1
:1002800009F420E0822F0895FC01848DDF01A80F7E
:10029000B11DA35ABF4F2C91848D90E001968F73AE
:1002A0009927848FA689B7892C93A089B1898C91CD
:1002B00080648C93938D848D981306C00288F38993
:1002C000E02D80818F7D80830895EF92FF920F93C0
:1002D0001F93CF93DF93EC0181E0888F9B8D8C8DF2
:1002E000981305C0E889F989808185FD24C0F62E20
:1002F0000B8D10E00F5F1F4F0F731127E02E8C8DB9
:10030000E8120CC00FB607FCFACFE889F9898081A2
:1003100085FFF5CFCE010E944401F1CF8B8DFE0108
:10032000E80FF11DE35AFF4FF0820B8FEA89FB893A
:100330008081806207C0EE89FF896083E889F9893E
:1003400080818064808381E090E0DF91CF911F9174
:100350000F91FF90EF900895CF93DF93EC01888D7C
:100360008823C9F0EA89FB89808185FD05C0A889B9
:10037000B9898C9186FD0FC00FB607FCF5CF80813F
:1003800085FFF2CFA889B9898C9185FFEDCFCE0189
:100390000E944401E7CFDF91CF91089580E090E083
:1003A000892B29F00E943A0181110C9400000895D4
:1003B000833081F028F4813099F08230A1F00895E3
:1003C0008730A9F08830B9F08430D1F48091800072
:1003D0008F7D03C0809180008F7780938000089587
:1003E00084B58F7702C084B58F7D84BD08958091D8
:1003F000B0008F7703C08091B0008F7D8093B000F4
:100400000895CF93DF93282F30E0F901E458FE4F91
:100410008491F901E255FE4FD491F901E656FE4F61
:10042000C491CC2391F081110E94D801EC2FF0E00F
:10043000EE0FFF1FE057FE4FA591B491EC91ED2315
:1004400081E090E021F480E002C080E090E0DF9164
:10045000CF9108953FB7F89480910B0290910C02D0
:10046000A0910D02B0910E0226B5A89B05C02F3FAA
:1004700019F00196A11DB11D3FBFBA2FA92F982FCA
:100480008827820F911DA11DB11DBC01CD0142E045
:10049000660F771F881F991F4A95D1F70895FC01B1
:1004A00090810180F281E02D892F809560FF12C03C
:1004B000F8942281822382838181892B8183A3E224
:1004C000B0E01197F1F78281982B9283789487EDB1
:1004D00090E011C0F8942281822382838181892B4C
:1004E0008183AFEFB0E01197F1F78281982B92836F
:1004F00078948FE090E00197F1F7089508951F92A6
:100500000F920FB60F9211242F933F934F935F9347
:100510006F937F938F939F93AF93BF93EF93FF93CB
:1005200082E692E00E944401FF91EF91BF91AF916A
:100530009F918F917F916F915F914F913F912F91FB
:100540000F900FBE0F901F9018951F920F920FB62D
:100550000F9211242F938F939F93EF93FF93E0912A
:100560007202F09173028081E0917802F091790239
:1005700082FD12C0908180917B028F5F8F732091EA
:100580007C02821751F0E0917B02F0E0EE59FD4FC2
:10059000958F80937B0201C08081FF91EF919F91A5
:1005A0008F912F910F900FBE0F901F9018951F9352
:1005B000CF93DF93282F30E0F901E458FE4F849168
:1005C000F901E255FE4FD491F901E656FE4FC49170
:1005D000CC23C9F0162F81110E94D801EC2FF0E036
:1005E000EE0FFF1FEE58FE4FA591B4918FB7F89410
:1005F000111105C09C91ED2FE095E92302C0EC910B
:10060000ED2BEC938FBFDF91CF911F910895CF9386
:10061000DF93EC0160E08E810E94D70261E08E8161
:100620000E94D70260E08E810E94D7028BE891E0A1
:100630000197F1F7DF91CF910895CF93DF9390E089
:10064000FC01E255FE4F2491FC01E656FE4F8491D9
:10065000882361F190E0880F991FFC01E859FE4F53
:10066000C591D491FC01EE58FE4FA591B491611152
:1006700009C09FB7F8948881209582238883EC91E4
:100680002E230BC0623061F49FB7F8943881822F1B
:10069000809583238883EC912E2B2C939FBF06C0DB
:1006A0008FB7F894E8812E2B28838FBFDF91CF91ED
:1006B00008958F929F92AF92BF92CF92DF92EF9266
:1006C000FF926B017C010E942A024B015C01C11464
:1006D000D104E104F104F1F00E942A02DC01CB0113
:1006E00088199909AA09BB09883E9340A105B1055B
:1006F00070F321E0C21AD108E108F10888EE880EF3
:1007000083E0981EA11CB11CC114D104E104F104C2
:1007100019F7DDCFFF90EF90DF90CF90BF90AF90B3
:100720009F908F90089560E08CE00E94560768E2E9
:1007300071E082E193E00E94B80A68EB7BE080E020
:1007400090E00E94590360E089E00E9456076AEC3D
:1007500071E082E193E00C94B80A1F920F920FB6F9
:100760000F9211242F933F938F939F93AF93BF9337
:1007700080910F0290911002A0911102B09112028B
:1007800030910A0223E0230F2D3720F40196A11D9A
:10079000B11D05C026E8230F0296A11DB11D2093AF
:1007A0000A0280930F0290931002A0931102B0935B
:1007B000120280910B0290910C02A0910D02B09157
:1007C0000E020196A11DB11D80930B0290930C02A5
:1007D000A0930D02B0930E02BF91AF919F918F91A4
:1007E0003F912F910F900FBE0F901F901895DC0135
:1007F000E0E0615038F08D91E827F0E0E859FF4FD4
:10080000E491F7CF8E2F0895CF92DF92EF92FF926F
:100810000F931F93CF93DF931F92CDB7DEB76C0179
:10082000E62E08E010E0FF24F39461E08F2D8E2186
:1008300009F460E0C60149830E944F02FF0C015099
:10084000110949810115110581F7411115C0F8946D
:10085000D6011196ED91FC91129791818C91809522
:10086000892381831196ED91FC91129792818C914D
:1008700080958923828378940F90DF91CF911F9187
:100880000F91FF90EF90DF90CF900895CF92DF927D
:10089000EF92FF920F931F93CF93DF931F92CDB7E9
:1008A000DEB78C01F62E40E065E579830E940404F2
:1008B000CF2C7981D72E760188E0E80EF11CF60165
:1008C00061916F0140E0C8010E940404CE14DF046E
:1008D000B1F70F90DF91CF911F910F91FF90EF90A3
:1008E000DF90CF900895FC0190810180F281E02D8E
:1008F000F8948181892B81832281892F80952823F7
:100900002283A7E0B0E01197F1F721818223818350
:10091000A3E2B0E01197F1F780817894EFECF0E07A
:100920003197F1F7982381E009F480E00895FC0104
:1009300090810180F281E02DF8948181292F20950A
:100940008223818378948DE743E050E0815021F148
:10095000DA011197F1F730813923C1F3F8948281DC
:10096000822382838181892B81837894ABE7B7E0EE
:100970001197F1F7F894818128232183A3E1B1E055
:100980001197F1F78081982381E009F080E0789455
:10099000E3E6F6E03197F1F70895AF92BF92CF9278
:1009A000DF92EF92FF920F931F93CF93DF931F92EB
:1009B000CDB7DEB75C01E62ED72EFC01858581110F
:1009C0005DC0C5010E949704811105C0F501138621
:1009D000158614866BC040E060EFC5010E940404D8
:1009E00001E0F12CC12C11E0C5010E947304682FB5
:1009F000C50169830E9473046981613019F48130F3
:100A0000B9F433C04F2D50E068131BC0F501838546
:100A1000181730F4E40FF51F8381802349F402C0D6
:100A2000181731F060E0193058F4F501148708C048
:100A3000F501EF0DF11D8381802B838361E009C0F7
:100A4000C12EF501E40FF51F9381802F8095892336
:100A50008383C5010E944F021F5F000F11F4F394BE
:100A600001E0F7E0FF1508F0BFCF113438F0F501D1
:100A7000C386C11015C081E0858712C0F5011386B9
:100A80001586148680E0D5011396EE2DFD2D950177
:100A9000255F3F4F9D919193A217B307D9F706C0E9
:100AA000F5018381882351F381E0EDCF0F90DF9131
:100AB000CF911F910F91FF90EF90DF90CF90BF905B
:100AC000AF900895CF92DF92EF92FF920F931F9312
:100AD000CF93DF937C016C0187E0C80ED11CC0E08E
:100AE000D0E0062F10E0B8010C2E02C07595679576
:100AF0000A94E2F76170F60181916F010E94D702BA
:100B00002196C430D10579F7C701DF91CF911F91AC
:100B10000F91FF90EF90DF90CF900C940703CF924E
:100B2000DF92EF92FF920F931F93CF93DF93EC012D
:100B3000F62E642F8C810E94D7028D818F3F19F091
:100B400060E00E94D7028F850F2D10E084FF25C042
:100B50006E0187E0C80ED11CE12CF12CB8010E2CDF
:100B600002C0759567950A94E2F76170F60181916C
:100B70006F010E94D702FFEFEF1AFF0A88E0E81624
:100B8000F10461F7CE01DF91CF911F910F91FF909A
:100B9000EF90DF90CF900C940703B80184E0759537
:100BA00067958A95E1F7CE010E9462056F2DCE010F
:100BB000DF91CF911F910F91FF90EF90DF90CF9039
:100BC0000C94620541E00E948F0581E090E0089559
:100BD00040E00C948F05CF92DF92EF92FF920F933B
:100BE0001F93CF93DF936C017A018B01C0E0D0E0BB
:100BF000CE15DF0589F0D8016D918D01D601ED91FB
:100C0000FC910190F081E02DC6010995892B11F42A
:100C10007E0102C02196ECCFC701DF91CF911F91D9
:100C20000F91FF90EF90DF90CF900895AF92BF9219
:100C3000CF92DF92EF92FF920F931F93CF93DF93A8
:100C40008B01BC0180910403909105030E9446042E
:100C500040E06EEB80910403909105030E94040430
:100C6000E801680189E0C80ED11CA0900403B0908F
:100C7000050388E0E82EF12C01E010E0C5010E9498
:100C800073048111102B000F81E0E81AF108B1F70D
:100C90001993CC15DD0549F7809104039091050364
:100CA0000E94970491E0813009F090E0892FDF9154
:100CB000CF911F910F91FF90EF90DF90CF90BF9059
:100CC000AF9008950E9416130F931F93CF93DF9355
:100CD000EC0188819981009729F02A813B812617B0
:100CE000370788F48B016F5F7F4F0E944C1200978B
:100CF00061F0998388831B830A832C813D81232B98
:100D000011F4FC01108281E001C080E0DF91CF91FD
:100D10001F910F910895EF92FF920F931F93CF931E
:100D2000DF93EC01623018F08F8588608F876B8BC2
:100D30001C8A80E48D8B80E18E8B80E58F8B61E057
:100D40008C810E941D038D818F3F19F061E00E940C
:100D50001D0361E08E810E941D037E0187E0E80E85
:100D6000F11C00E010E08F8584FD03C084E090E07A
:100D700002C088E090E0081719074CF461E0F70121
:100D800081917F010E941D030F5F1F4FECCF8BE30A
:100D90009DE00197F1F760E08C810E94D70260E04E
:100DA0008E810E94D7028D818F3F19F060E00E94F2
:100DB000D7026F8564FD1DC063E0CE010E9462050D
:100DC0000BE416E4C8010197F1F763E0CE010E943D
:100DD0006205C8010197F1F763E0CE010E94620548
:100DE00083E592E00197F1F762E0CE010E9462058F
:100DF00016C06062CE010E94E8058BE496E401977C
:100E0000F1F76F856062CE010E94E80583E592E00C
:100E10000197F1F76F856062CE010E94E8056F854A
:100E20006062CE010E94E80584E0888B6CE0CE0110
:100E30000E94E80561E0CE010E94E8058BE39FE196
:100E40000197F1F782E0898B66E0CE01DF91CF91C7
:100E50001F910F91FF90EF900C94E805E2E6F2E00D
:100E6000A089B18982E08C93A485B5851C92A68562
:100E7000B7858FEC8C93108EA489B58986E08C930E
:100E8000A289B3898C9180618C93A289B3898C915A
:100E900088608C93A289B3898C9180688C93028836
:100EA000F389E02D80818F7D80830895643008F080
:100EB00063E090912503691710F06FEF690FE62F3B
:100EC000F0E0EE5EFC4F9489682F690F606882E164
:100ED00093E00C94E805CF93DF93CDB7DEB761972D
:100EE0000FB6F894DEBF0FBECDBFE0910403F091C2
:100EF0000503138615861486DF011B96CF01039622
:100F00001E92A817B907E1F7BE01665F7F4FCF01B8
:100F10000E94CD04882341F067E0CE010A960E942A
:100F2000F7039989891729F060E070E08EEF92EC61
:100F300059C080910403909105030E94970488236F
:100F4000F1F1BE016F5F7F4FCE010A960E94160637
:100F50008823A9F168E0CE0101960E94F7039985E4
:100F600089132DC0698148E0649FB00111248A81F2
:100F7000282F30E0322F2227330F330F330F262B49
:100F8000372B8A858031C9F4688570E08F81AB0189
:100F9000481B5109CA019695982F882797958795E0
:100FA0000E94D90F60517109207F53E0220F331F37
:100FB0005A95E1F7620F731F04C0B90102C060E8DF
:100FC00074EE613854EE75070CF4AECF072E000CAA
:100FD000880B990B0E94721320E030E040E05CE344
:100FE0000E94D11361960FB6F894DEBF0FBECDBF3D
:100FF000DF91CF91089580910403909105030E94A1
:10100000970440E06CEC80910403909105030E94EA
:1010100004044091FF0264E480910403909105036D
:101020000E940404809101038823A9F0E091000349
:10103000E950E33040F4F0E0EE0FFF1FE65FFE4FB3
:101040006081718102C06EEE72E0072E000C880B89
:10105000990B0C94590308950F931F93CF93DF932B
:10106000CDB7DEB729970FB6F894DEBF0FBECDBF60
:10107000FC012081203161F18C0180910403909169
:1010800005030E949704882309F1BE016F5F7F4F1B
:10109000C8010E9416068823C9F068E0CE010196B7
:1010A0000E94F7039985891311C08D818F3361F0F8
:1010B00020F48F3159F489E00CC08F3519F08F3747
:1010C00039F004C08BE005C08AE003C080E001C0B5
:1010D0008CE029960FB6F894DEBF0FBECDBFDF912E
:1010E000CF911F910F910895CF93DF93EC018881E9
:1010F0009981009711F00E94B411198218821D8203
:101100001C821B821A82DF91CF910895EF92FF9289
:101110000F931F93CF93DF93EC01FB0184819581A3
:10112000E080F1800C811D81E114F104B1F00097A1
:10113000B9F0080F191FB801CE010E946406882378
:1011400061F0288139818C819D81B701820F931FC5
:101150000E9424131D830C8303C0CE010E947408D7
:10116000CE01DF91CF911F910F91FF90EF900895E5
:10117000EF92FF920F931F93CF93DF93EC017B01CC
:101180008A01BA010E946406811104C0CE010E9446
:10119000740807C01D830C83B701888199810E9460
:1011A0002413CE01DF91CF911F910F91FF90EF900B
:1011B0000895EF92FF920F931F93CF93DF93CDB7D4
:1011C000DEB762970FB6F894DEBF0FBECDBF8C01BD
:1011D000CB01F801118210821382128215821482CF
:1011E00050E09E012F5F3F4F7901B9010E942B1300
:1011F000F70101900020E9F73197AF014E195F091F
:10120000B701C8010E94B80862960FB6F894DEBF15
:101210000FBECDBFDF91CF911F910F91FF90EF9047
:1012200008956115710579F0FB0101900020E9F73F
:101230003197AF01461B570BDC01ED91FC91028009
:10124000F381E02D099480E090E00895CF93DF933F
:10125000BC0182E692E00E941109EC016DE371E0AD
:1012600082E692E00E9411098C0F9D1FDF91CF91C1
:101270000895CF93DF93FC01448155816081718192
:1012800082E692E00E94EB05EC016DE371E082E6FC
:1012900092E00E9411098C0F9D1FDF91CF9108955C
:1012A0004F925F926F927F92EF92FF920F931F93F4
:1012B000CF93DF93CDB7DEB7A1970FB6F894DEBF1B
:1012C0000FBECDBF7C01FA01CB0119A2223008F478
:1012D0002AE08E010F5D1F4F422E512C612C712C84
:1012E000BF01A30192010E94A514F901CA01015096
:1012F00011096A3014F4605D01C0695CD8016C9317
:10130000232B242B252B61F7B801C7010E9411095B
:10131000A1960FB6F894DEBF0FBECDBFDF91CF917F
:101320001F910F91FF90EF907F906F905F904F9083
:101330000895CF92DF92EF92FF920F931F93CF9376
:10134000DF93EC016A017B01E881F9810190F08172
:10135000E02D6DE209958C0144275527BA014C19FF
:101360005D096E097F092AE0CE010E945009800FB5
:10137000911FDF91CF911F910F91FF90EF90DF9020
:10138000CF900895AC01990F660B770B77FF04C0DF
:1013900082E193E00C9499092AE082E193E00C94B5
:1013A00050094F925F926F927F928F929F92AF926D
:1013B000BF92CF92DF92EF92FF92CF93DF93EC0137
:1013C0006A017B01B22E9A01AB01C701B6010E94EE
:1013D0001A11882319F06DEF71E027C0260137013B
:1013E000E89477F82FEF3FEF4FE75FE7C301B201D3
:1013F0000E941A1181110DC02FEF3FEF4FE75FE7F9
:10140000C301B2010E946B1318161CF461E072E074
:101410000CC02FEF3FEF4FE75FE4C701B6010E941A
:10142000151118169CF465E072E0CE01DF91CF91A2
:10143000FF90EF90DF90CF90BF90AF909F908F90F4
:101440007F906F905F904F900C9411092FEF3FEFBA
:101450004FE75FECC701B6010E946B1387FDE3CF36
:1014600020E030E0A901C701B6010E946B1387FF9D
:101470000EC0E881F9810190F081E02D6DE2CE018E
:1014800009954C01F7FAF094F7F8F09402C0812C1A
:10149000912CA12C60E070E080E09FE3AB1441F060
:1014A00020E030E040E251E40E947410A394F6CFB3
:1014B0009B01AC01C701B6010E9408102B013C0141
:1014C0000E94E6106B017C010E9470139B01AC012D
:1014D000C301B2010E9407102B013C012AE0B701B1
:1014E000A601CE010E9450097C01E80CF91CBB202A
:1014F00039F068E671E0CE010E941109E80EF91E8C
:10150000DB2CDD2029F120E030E040E251E4C30192
:10151000B2010E94D1132B013C010E94E6104B0145
:10152000A12CB12C2AE0B501A401CE010E945009E2
:10153000E80EF91EC501B4010E9470139B01AC01B5
:10154000C301B2010E9407102B013C01DA94D9CFEC
:10155000C701DF91CF91FF90EF90DF90CF90BF90C8
:10156000AF909F908F907F906F905F904F90089575
:101570000C941109CF93DF93CDB7DEB760970FB608
:10158000F894DEBF0FBECDBF789484B5826084BD71
:1015900084B5816084BD85B5826085BD85B5816077
:1015A00085BD80916E00816080936E0010928100F5
:1015B00080918100826080938100809181008160B0
:1015C0008093810080918000816080938000809171
:1015D000B10084608093B1008091B00081608093FD
:1015E000B00080917A00846080937A0080917A00C4
:1015F000826080937A0080917A00816080937A0083
:1016000080917A00806880937A001092C1001092D5
:10161000460210924702109248021092490210921C
:10162000140210921502109216021092170260ED29
:1016300077E080E090E00E94590382E692E0909388
:101640004502809344020E942E072FB7F8948091A0
:101650000F0290911002A0911102B09112022FBFBF
:101660004091140250911502609116027091170278
:10167000841B950BA60BB70BC297A105B10538F4D7
:1016800063E070E080E090E00E945903DECF2FB766
:10169000F89480910F0290911002A0911102B091E4
:1016A00012022FBF8093140290931502A09316028A
:1016B000B09317026EE271E080914402909145026E
:1016C0000E94B80A6AE070E080E090E00E9459034E
:1016D00081E0809318020E942E0760E088E00E945B
:1016E0001D0360E089E00E941D0360E08AE00E9423
:1016F0001D0360E08DE00E941D0361E086E00E9412
:101700001D0361E084E10E941D03E0910403F09158
:101710000503138615861486DF011B9633961E92E9
:10172000AE17BF07E1F7109203038E010F5F1F4F43
:10173000FF24F394B80180910403909105030E9463
:10174000CD04882309F445C067E0C8010E94F7036F
:1017500098858913EFCF8091FF02811125C0809178
:101760000403909105030E949704B801809104033B
:10177000909105030E94460440E064EB80910403CD
:10178000909105030E940404809104039091050345
:101790000E947304E82E80910403909105030E9437
:1017A0009704EE2009F442C3E0900003C8010E94B0
:1017B0002C088E1518F48091000303C0C8010E9404
:1017C0002C0880930003809103038F5F80930303B1
:1017D000B1CF62E082E193E00E948B0660E471E0A9
:1017E00082E193E00E94B80AC0906002D09061024A
:1017F000760122E0E20EF11CF0926102E0926002BA
:10180000E11484E0F80641F4109261021092600243
:10181000EE24E394F12C42C0A12CB12CC5010E940E
:101820008F14811106C32FEFA21AB20AA11484E00B
:10183000B806A1F760910001C7010E94971480913A
:101840006002909161026091020102960E949714D9
:10185000DFCF20E030E040E05FE3C301B2010E944F
:1018600008109B01AC01C501B4010E94151187FF4E
:1018700064C18DE00E94010289E00E9401025C01C6
:1018800090935F0280935E0280915C0290915D0272
:10189000A816B90609F06AC10E94CE0180916002C3
:1018A0009091610202960E948F141B861A861D86F3
:1018B0001C861F861E864AE0B80190E00E944113F4
:1018C000F80101900020E9F73197AF01401B510B5F
:1018D000B801CE010A960E94B8081A8219821C82A9
:1018E0001B821E821D8247E050E066E471E0C80161
:1018F0000E94B808BE01665F7F4FC8010E9486083B
:101900000E94390989819A810E94B4118A859B8538
:101910000E94B41161E084E10E94D7026EE471E09C
:1019200082E692E00E94B80A0E94FB078AE691E0F4
:101930000E9426090E946B074B015C016FE671E073
:1019400082E692E00E94B80A0E946B07AB01BC01DC
:1019500022E082E692E00E94D1096FE671E082E621
:1019600092E00E94B80A22E0B501A40182E692E06A
:101970000E94D10960E086E00E9456070E946B0732
:10198000AB01BC0121E082E193E00E94D10961E05A
:1019900080E00E9456076DE871E082E193E00E94CA
:1019A000B80A61E08AE00E94560780910201909196
:1019B00003010E94C20961E089E00E94560760911C
:1019C000020170910301072E000C880B990B0E94F5
:1019D00072132B013C0188E00E9401026C0180918E
:1019E0004C0290914D02C816D906B1F06AE070E041
:1019F00080E090E00E945903C114D10449F4809121
:101A00004A0290914B02019690934B0280934A02B6
:101A1000D0924D02C0924C0260914A0270914B02EA
:101A20004AE0C8010E94D9081B861A861D861C86BA
:101A30001F861E8645E050E067E971E0CE010A96F8
:101A40000E94B808B801CE010A960E9486080E943A
:101A500039098A859B850E94B41189819A810E94E7
:101A6000B41180914A0290914B0282309105F8F4B2
:101A700060E08CE00E9456076DE971E082E193E03E
:101A80000E94B80A2DEC3CEC4CEC5EE3C301B201C1
:101A90000E9407109B01AC01C501B4010E946B13A9
:101AA00087FFD7CE82EA91E00E9426094BC08230A0
:101AB000910509F049C060E08CE00E94560769EB8F
:101AC00071E082E193E00E94B80A20E030E040E05B
:101AD0005FE3C301B2010E9408109B01AC01C50184
:101AE000B4010E94151118166CF120E030E040E0BE
:101AF0005FE3C301B2010E9407109B01AC01C50165
:101B0000B4010E946B1387FFB4CE0E94FB070E94B2
:101B10006B074B015C018091020190910301BC01B4
:101B2000990F880B990B0E9472139B01AC01C501A0
:101B3000B4010E946B1387FF9CCE60E086E00E9498
:101B4000D70297CE61E0FACF039759F460E08CE0BA
:101B50000E9456076EEB71E082E193E00E94B80AA2
:101B6000ECCFF0924B02E0924A0283CE6AE070E042
:101B700080E090E00E945903AB2809F04EC18091AB
:101B80005A0290915B02019690935B0280935A02F5
:101B900080915A0290915B02009709F438C1019735
:101BA00009F0BFC088E00E9401025C0190935502D9
:101BB000809354028091520290915302A816B90664
:101BC00001F16AE070E080E090E00E945903AB28E8
:101BD00081F480910201909103018F3C2FEF9207D5
:101BE00031F00197909303018093020102C00E949B
:101BF00093038091540290915502909353028093E5
:101C000052028AE00E9401025C019093510280938B
:101C1000500280914E0290914F02A816B906A9F188
:101C20006AE070E080E090E00E945903AB2829F55B
:101C300080915A0290915B028130910581F48091EC
:101C40000201909103018737910534F40196909336
:101C500003018093020111C00E9493030EC00297FA
:101C600061F4809100019091010181339105A4F705
:101C70000196909301018093000180915002909110
:101C8000510290934F0280934E0264EF71E080E026
:101C900090E00E94590383EC91E00E94260961E0E4
:101CA00080E00E94560767EC71E082E193E00E94B9
:101CB000B80A61E08AE00E94560780910201909183
:101CC00003010E94C20964EF71E080E090E00E948D
:101CD000590380ED91E00E94260960910001C090B7
:101CE0006002D0906102C601688B0E948F146889DF
:101CF000681719F0C6010E94971460910201A09024
:101D00006002B090610282E0A80EB11CC501688B30
:101D10000E948F146889681741F0C5010E949714CA
:101D200004C010925B0210925A0289E00E940102E4
:101D30005C019093590280935802809156029091D1
:101D40005702A816B90641F16AE070E080E090E021
:101D50000E945903AB2801F56CED71E082E692E038
:101D60000E94B80A60915A0270915B026F5F7F4FC8
:101D700070935B0260935A024AE0C8010E94D9083E
:101D80004D815E8169817A8182E692E00E94EB0555
:101D900089819A810E94B4118091580290915902D0
:101DA000909357028093560261E080E00E945607AC
:101DB0006DE871E082E193E00E94B80A61E08AE098
:101DC0000E94560780910201909103010E94C2096E
:101DD00061E089E00E94560740915A0250915B02EF
:101DE000052E000C660B770B77FF05C082E692E0AC
:101DF0000E94990905C02AE082E692E00E945009FB
:101E00006DE371E082E692E00E941109C1CE6EEEB0
:101E100071E082E692E00E94B80A80915E029091A1
:101E20005F0290935D0280935C0236CDF092FF02D8
:101E3000BBCCC7010E948F14282F30E030930101E2
:101E400020930001C60104960E948F1490E09093A5
:101E5000030180930201DCCC1092650210926402AF
:101E600088EE93E0A0E0B0E0809366029093670272
:101E7000A0936802B093690284E191E090936302B9
:101E80008093620285EC90E090936F0280936E02E3
:101E900084EC90E0909371028093700280EC90E06B
:101EA000909373028093720281EC90E0909375029C
:101EB0008093740282EC90E0909377028093760294
:101EC00086EC90E0909379028093780210927B02E6
:101ED00010927C0210927D0210927E0210921503E5
:101EE0001092140384E291E0909313038093120301
:101EF0008CE0809316038FEF809317038BE0809321
:101F0000180385E08093190384E080931A0383E02B
:101F100080931B0382E080931C0310921D03109298
:101F20001E0310921F03109220031092210361E000
:101F300082E193E00E948B0660E087E00E941D032F
:101F4000E5EBF1E0E491E0932A03E1EAF1E0E491CA
:101F5000F0E0EE0FFF1FE057FE4F859194919093B4
:101F60002C0380932B0310923503109237031092A9
:101F70003603E5E3F3E0129283E0ED32F807D9F798
:101F80008EE792E090931103809310038AE293E02E
:101F90009093050380930403109203031092FF02B1
:101FA00089E08093000381E0809301038093020322
:101FB000089597FB072E16F4009407D077FD09D0FB
:101FC0000E94ED0F07FC05D03EF4909581959F4F40
:101FD0000895709561957F4F0895AA1BBB1B51E131
:101FE00007C0AA1FBB1FA617B70710F0A61BB70B89
:101FF000881F991F5A95A9F780959095BC01CD012E
:102000000895EE0FFF1F0590F491E02D09945058AC
:10201000BB27AA270E941F100C9455140E94471436
:1020200038F00E944E1420F039F49F3F19F426F442
:102030000C9444140EF4E095E7FB0C943E14E92F45
:102040000E94661458F3BA1762077307840795074E
:1020500020F079F4A6F50C9488140EF4E0950B2E7C
:10206000BA2FA02D0B01B90190010C01CA01A001EA
:102070001124FF27591B99F0593F50F4503E68F145
:102080001A16F040A22F232F342F4427585FF3CF86
:10209000469537952795A795F0405395C9F77EF457
:1020A0001F16BA0B620B730B840BBAF09150A1F0A0
:1020B000FF0FBB1F661F771F881FC2F70EC0BA0F26
:1020C000621F731F841F48F4879577956795B795AE
:1020D000F7959E3F08F0B0CF9395880F08F09927A9
:1020E000EE0F9795879508950E9488100C945514CB
:1020F0000E944E1458F00E94471440F029F45F3FAC
:1021000029F00C943E1451110C9489140C9444142D
:102110000E94661468F39923B1F3552391F3951B3C
:10212000550BBB27AA2762177307840738F09F5FF8
:102130005F4F220F331F441FAA1FA9F335D00E2E65
:102140003AF0E0E832D091505040E695001CCAF7D2
:102150002BD0FE2F29D0660F771F881FBB1F261795
:1021600037074807AB07B0E809F0BB0B802DBF016C
:10217000FF2793585F4F3AF09E3F510578F00C943B
:102180003E140C9489145F3FE4F3983ED4F3869593
:1021900077956795B795F7959F5FC9F7880F911D5C
:1021A0009695879597F90895E1E0660F771F881F48
:1021B000BB1F621773078407BA0720F0621B730BFB
:1021C000840BBA0BEE1F88F7E09508950E946E14F9
:1021D00088F09F5798F0B92F9927B751B0F0E1F0E8
:1021E000660F771F881F991F1AF0BA95C9F714C098
:1021F000B13091F00E948814B1E008950C948814D5
:10220000672F782F8827B85F39F0B93FCCF38695D0
:1022100077956795B395D9F73EF49095809570952D
:1022200061957F4F8F4F9F4F08950E94AD1308F423
:102230008FEF08950E94AD13880B990B0895CF93EB
:10224000DF938230910510F482E090E0E0913A0350
:10225000F0913B0320E030E0C0E0D0E0309711F196
:102260004081518148175907C0F04817590761F458
:1022700082819381209719F09B838A832BC090934E
:102280003B0380933A0326C02115310519F042170C
:10229000530718F49A01BE01DF01EF010280F381B8
:1022A000E02DDCCF2115310509F1281B390B243035
:1022B000310590F412968D919C91139761157105DB
:1022C00021F0FB019383828304C090933B038093AE
:1022D0003A03FD01329644C0FD01E20FF31F8193E2
:1022E0009193225031092D933C933AC020913803A9
:1022F00030913903232B41F42091060130910701DD
:102300003093390320933803209104013091050163
:102310002115310541F42DB73EB740910801509188
:102320000901241B350BE0913803F0913903E217C2
:10233000F307A0F42E1B3F0B2817390778F0AC01E8
:102340004E5F5F4F2417350748F04E0F5F1F5093C5
:102350003903409338038193919302C0E0E0F0E0A9
:10236000CF01DF91CF9108950F931F93CF93DF9308
:10237000009709F48CC0FC013297138212820091FD
:102380003A0310913B030115110581F4208131813D
:10239000820F931F20913803309139032817390792
:1023A00079F5F0933903E093380371C0D80140E028
:1023B00050E0AE17BF0750F412962D913C91139741
:1023C000AD012115310509F1D901F3CF9D01DA01E4
:1023D0003383228360817181860F971F8217930751
:1023E00069F4EC0128813981260F371F2E5F3F4F9A
:1023F000318320838A819B8193838283452B29F4B7
:10240000F0933B03E0933A0342C01396FC93EE93A0
:102410001297ED01499159919E01240F351FE21742
:10242000F30771F480819181840F951F02961196B4
:102430009C938E938281938113969C938E93129793
:10244000E0E0F0E0D80112968D919C9113970097EF
:1024500019F0F8018C01F6CF8D919C9198012E5FB7
:102460003F4F820F931F2091380330913903281773
:10247000390769F4309729F410923B0310923A031C
:1024800002C0138212821093390300933803DF9144
:10249000CF911F910F910895A0E0B0E0E2E5F2E145
:1024A0000C94CB14EC01009721F4CB010E941F1176
:1024B000B8C0FC01E60FF71F9C0122503109E2175A
:1024C000F30708F4ACC0D9010D911C9111970617C0
:1024D0001707B0F00530110508F49FC0C801049734
:1024E0008617970708F499C002501109061B170BAD
:1024F000019311936D937C93CF010E94B4118DC011
:102500005B01A01AB10A4C01800E911EA0913A0302
:10251000B0913B0340E050E0E12CF12C109709F41E
:102520004AC0A815B905D1F56D907C90119763014B
:1025300082E0C80ED11CCA14DB0480F1A3014A1941
:102540005B096A0182E0C80ED11C1296BC901297FA
:102550001396AC91B5E0CB16D10440F0B282A383C0
:1025600051834083D9016D937C930AC00E5F1F4F46
:10257000C301800F911FF90191838083EB2DFA2F06
:10258000E114F10431F0D7011396FC93EE93129706
:1025900044C0F0933B03E0933A033FC08D919C917C
:1025A00011974817590708F4AC017D0112960D9058
:1025B000BC91A02DB3CF8091380390913903881539
:1025C0009905E1F446175707C8F4809104019091EA
:1025D0000501009741F48DB79EB7409108015091D5
:1025E0000901841B950BE817F907C8F4F093390328
:1025F000E0933803F901718360830FC0CB010E941F
:102600001F117C01009759F0A801BE010E941B1305
:10261000CE010E94B411C70104C0CE0102C080E007
:1026200090E0CDB7DEB7EEE00C94E71481E090E0E7
:10263000F8940C94FE14FB01DC0102C001900D9291
:1026400041505040D8F70895FB01DC0101900D92F4
:102650000020E1F708954532510520F4423010F092
:102660000C943613FB011082CB010895BB274A302E
:1026700031F4992322F4BDE2909581959F4F0C94FB
:102680004213BB27FB015527AA27880F991FAA1FB2
:10269000A41710F0A41B83955051B9F7A05DAA337D
:1026A00008F0A95DA193009779F7B111B193119248
:1026B000CB010C945B13DC01FC01672F7191772334
:1026C000E1F7329704C07C916D9370836291AE17ED
:1026D000BF07C8F308950E94AD1308F481E0089580
:1026E000E89409C097FB3EF49095809570956195AC
:1026F0007F4F8F4F9F4F9923A9F0F92F96E9BB2762
:102700009395F695879577956795B795F111F8CFDD
:10271000FAF4BB0F11F460FF1BC06F5F7F4F8F4F48
:102720009F4F16C0882311F096E911C0772321F03E
:102730009EE8872F762F05C0662371F096E8862FD6
:1027400070E060E02AF09A95660F771F881FDAF72D
:10275000880F9695879597F90895990F0008550F5A
:10276000AA0BE0E8FEEF16161706E807F907C0F017
:1027700012161306E407F50798F0621B730B840B1F
:10278000950B39F40A2661F0232B242B252B21F4F9
:1027900008950A2609F4A140A6958FEF811D811D99
:1027A00008950E94E4130C9455140E94471438F0C5
:1027B0000E944E1420F0952311F00C943E140C94BA
:1027C000441411240C9489140E94661470F3959F8C
:1027D000C1F3950F50E0551F629FF001729FBB2718
:1027E000F00DB11D639FAA27F00DB11DAA1F649FB4
:1027F0006627B00DA11D661F829F2227B00DA11D67
:10280000621F739FB00DA11D621F839FA00D611DEC
:10281000221F749F3327A00D611D231F849F600D0D
:10282000211D822F762F6A2F11249F5750409AF036
:10283000F1F088234AF0EE0FFF1FBB1F661F771FC2
:10284000881F91505040A9F79E3F510580F00C948D
:102850003E140C9489145F3FE4F3983ED4F38695BC
:1028600077956795B795F795E7959F5FC1F7FE2B2D
:10287000880F911D9695879597F9089597F99F6709
:1028800080E870E060E008959FEF80EC08950024F8
:102890000A941616170618060906089500240A94C5
:1028A00012161306140605060895092E0394000C4B
:1028B00011F4882352F0BB0F40F4BF2B11F460FFDA
:1028C00004C06F5F7F4F8F4F9F4F089557FD905803
:1028D000440F551F59F05F3F71F04795880F97FBE4
:1028E000991F61F09F3F79F087950895121613069E
:1028F0001406551FF2CF4695F1DF08C016161706CD
:102900001806991FF1CF8695710561050894089501
:10291000E894BB2766277727CB0197F90895F999A3
:10292000FECF92BD81BDF89A992780B50895262FD4
:10293000F999FECF1FBA92BD81BD20BD0FB6F894A4
:10294000FA9AF99A0FBE01960895A1E21A2EAA1BCF
:10295000BB1BFD010DC0AA1FBB1FEE1FFF1FA2174F
:10296000B307E407F50720F0A21BB30BE40BF50B4C
:10297000661F771F881F991F1A9469F760957095D5
:10298000809590959B01AC01BD01CF0108952F92D8
:102990003F924F925F926F927F928F929F92AF92EF
:1029A000BF92CF92DF92EF92FF920F931F93CF933C
:1029B000DF93CDB7DEB7CA1BDB0B0FB6F894DEBFD3
:1029C0000FBECDBF09942A88398848885F846E84F9
:1029D0007D848C849B84AA84B984C884DF80EE8043
:1029E000FD800C811B81AA81B981CE0FD11D0FB64C
:1029F000F894DEBF0FBECDBFED010895F894FFCF70
:102A00001E001C0000003C0380005E00BC0077013B
:102A1000000000006501EB052E010C012001AC0156
:102A200000000000E205EB054572726F7200564D22
:102A30004450565F317C315F564D4450560D0A006C
:102A400054454D503A006C6F777773737300205282
:102A5000657175657374696E672074656D706572F4
:102A60006174757265732E2E2E00444F4E450054CE
:102A7000656D706572617475726520666F72204451
:102A8000657669636520312069733A200053657467
:102A9000706F696E743A006D6F64653D00486561E2
:102AA00074006F6E6E6E6E6E6E6E6E6E6E6E6E6EAD
:102AB0006E6E6E6E6E6E6E6E00436F6F6C004F4684
:102AC0004620006C6F77002020202020202020004E
:102AD0006565656565656570726F6D00636C6963DA
:102AE0006B20697320696E207768696C6500776870
:102AF000696C652066696E6973686564006E616EF5
:0A2B000000696E66006F7666000043
:00000001FF
