:100000000C9463000C948B000C948B000C94720382
:100010000C9472030C9472030C948B000C948B0060
:100020000C948B000C948B000C948B000C948B0024
:100030000C948B000C948B000C948B000C948B0014
:100040000C9428030C948B000C943D020C94170222
:100050000C948B000C948B000C948B000C948B00F4
:100060000C948B000C948B000000000024002700EF
:100070002A0000000008000201000003040700003D
:1000800000000000000000000000250028002B00F8
:1000900000000000230026002900040404040404D6
:1000A0000404020202020202030303030303010227
:1000B00004081020408001020408102001020408F6
:1000C00010207B0C710C11241FBECFEFD8E0DEBFD7
:1000D000CDBF15E0A0E0B1E0EEE5F0E202C0059092
:1000E0000D92AA30B107D9F726E0AAE0B5E001C029
:1000F0001D92A835B207E1F710E0C2E6D0E004C0D7
:100100002197FE010E944E0DC136D107C9F70E940A
:1001100070060C9422100C940000FC01918D828DCD
:10012000981761F0828DDF01A80FB11D5D968C914B
:10013000928D9F5F9F73928F90E008958FEF9FEF56
:100140000895FC01918D828D981731F0828DE80F12
:10015000F11D858D90E008958FEF9FEF0895FC01CC
:10016000918D228D892F90E0805C9F4F821B910999
:100170008F739927089588E995E00E94AF0021E0E8
:10018000892B09F420E0822F0895FC01848DDF0182
:10019000A80FB11DA35ABF4F2C91848D90E00196FA
:1001A0008F739927848FA689B7892C93A089B189E9
:1001B0008C9180648C93938D848D981306C00288F3
:1001C000F389E02D80818F7D80830895EF92FF92E7
:1001D0000F931F93CF93DF93EC0181E0888F9B8D6A
:1001E0008C8D981305C0E889F989808185FD24C02C
:1001F000F62E0B8D10E00F5F1F4F0F731127E02EAF
:100200008C8DE8120CC00FB607FCFACFE889F9898B
:10021000808185FFF5CFCE010E94C500F1CF8B8D87
:10022000FE01E80FF11DE35AFF4FF0820B8FEA89C0
:10023000FB898081806207C0EE89FF896083E8893D
:10024000F98980818064808381E090E0DF91CF91A3
:100250001F910F91FF90EF900895CF93DF93EC01E2
:10026000888D8823C9F0EA89FB89808185FD05C0D6
:10027000A889B9898C9186FD0FC00FB607FCF5CF10
:10028000808185FFF2CFA889B9898C9185FFEDCF58
:10029000CE010E94C500E7CFDF91CF91089580E0A5
:1002A00090E0892B29F00E94BB0081110C94000082
:1002B000089520919505309196052817390771F416
:1002C0009091930580919405981741F0E0919305E2
:1002D000F0E0E65FFA4F808190E008958FEF9FEFA6
:1002E000089508951F93CF93DF93DC015C962D91C1
:1002F0003C915D972115310539F481E090E013962A
:100300009C938E9312973DC05196ED91FC9152971C
:1003100050969C915097892F80951FB75E964C916F
:100320005E9741FB772770F941FD6095F894408115
:10033000772311F0492B01C048234083E90121971D
:10034000F1F748E0508160FF02C0592B01C05823EB
:100350005083E9012197F1F76695415099F777238A
:1003600021F090818923808303C08081982B908322
:100370001FBF5C968D919C915D970197F1F721E0ED
:1003800030E0C901DF91CF911F910895209195052B
:10039000309196052817390771F4809194052091C2
:1003A000930590E080589F4F821B910960E870E0B0
:1003B0000E94260D089580E090E008952091950513
:1003C0003091960528173907B9F4909193058091DB
:1003D0009405981789F0E0919305F0E0E65FFA4FF5
:1003E00080812091930530E02F5F3F4F2F77332797
:1003F0002093930590E008958FEF9FEF0895E0918B
:100400009505F0919605E817F90769F4A389B48971
:100410009C918589809589238C93109296051092E2
:10042000950581E0089580E008950E944B0F1F928A
:100430000F920FB60F9211242F933F934F935F9318
:100440006F937F938F939F93AF93BF93EF93FF939C
:1004500088E995E00E94C500FF91EF91BF91AF91AF
:100460009F918F917F916F915F914F913F912F91CC
:100470000F900FBE0F901F9018951F920F920FB6FE
:100480000F9211242F938F939F93EF93FF93E091FB
:10049000A805F091A9058081E091AE05F091AF0526
:1004A00082FD12C090818091B1058F5F8F73209182
:1004B000B205821751F0E091B105F0E0E856FA4F2D
:1004C000958F8093B10501C08081FF91EF919F913D
:1004D0008F912F910F900FBE0F901F90189590E065
:1004E000FC01EE58FF4F3491FC01E255FF4F24917F
:1004F000FC01E656FF4FE491EE2309F43BC03323A1
:1005000039F1333091F038F43130A9F0323001F55F
:1005100084B58F7D12C0373091F03830A1F034307F
:10052000B9F4809180008F7D03C0809180008F7727
:10053000809380000DC084B58F7784BD09C0809101
:10054000B0008F7703C08091B0008F7D8093B000A2
:10055000F0E0EE0FFF1FEA57FF4FA591B4918FB760
:10056000F894EC91611103C020952E2301C02E2B2D
:100570002C938FBF0895CF93DF9390E0FC01E25559
:10058000FF4F2491FC01E656FF4F8491882361F1CF
:1005900090E0880F991FFC01E859FF4FC591D49155
:1005A000FC01EA57FF4FA591B491611109C09FB7B3
:1005B000F8948881209582238883EC912E230BC0A8
:1005C000623061F49FB7F8943881822F809583233D
:1005D0008883EC912E2B2C939FBF06C08FB7F89485
:1005E000E8812E2B28838FBFDF91CF9108953FB7ED
:1005F000F89480918F0590919005A0919105B0910C
:10060000920526B5A89B05C02F3F19F00196A11DA4
:10061000B11D3FBFBA2FA92F982F8827820F911D98
:10062000A11DB11DBC01CD0142E0660F771F881FDF
:10063000991F4A95D1F708952FB7F89460918B05CB
:1006400070918C0580918D0590918E052FBF089536
:100650001F920F920FB60F9211242F933F938F93F7
:100660009F93AF93BF9380918B0590918C05A09140
:100670008D05B0918E0530918A0523E0230F2D372B
:1006800020F40196A11DB11D05C026E8230F029696
:10069000A11DB11D20938A0580938B0590938C0535
:1006A000A0938D05B0938E0580918F059091900554
:1006B000A0919105B09192050196A11DB11D809365
:1006C0008F0590939005A0939105B0939205BF91EB
:1006D000AF919F918F913F912F910F900FBE0F90EF
:1006E0001F9018951F920F920FB60F9211242F93FF
:1006F0003F934F935F936F937F938F939F93AF93AA
:10070000BF93EF93FF93E0919505F0919605309795
:1007100009F451C0968DA685B785858591FF04C0E3
:100720009C91892329F447C09C91892309F043C0F7
:10073000A389B4899C918589809589238C93868926
:1007400097890197F1F7608D718DA685B7855585DD
:1007500038E020E0CB010197F1F7822F90E09595EA
:100760008795282F4C91452309F02068315091F747
:10077000868D81FD20958091940590E001968F777C
:10078000992730919305381749F0A0919405B0E06E
:10079000A65FBA4F2C938093940503C0868D816029
:1007A000868F828D938D0197F1F7A389B4899C91EF
:1007B0008589892B8C93FF91EF91BF91AF919F9188
:1007C0008F917F916F915F914F913F912F910F90FA
:1007D0000FBE0F901F901895CF92DF92EF92FF926D
:1007E0000F931F93CF93DF936C017A018B01C0E0CD
:1007F000D0E0CE15DF0589F0D8016D918D01D601CD
:10080000ED91FC910190F081E02DC6010995892BB5
:1008100011F47E0102C02196ECCFC701DF91CF9188
:100820001F910F91FF90EF90DF90CF9008950F935D
:100830001F93CF93DF93EC0188819981009729F072
:100840002A813B812617370788F48B016F5F7F4F22
:100850000E94810E009761F0998388831B830A832D
:100860002C813D81232B11F4FC01108281E001C019
:1008700080E0DF91CF911F910F910895CF93DF9387
:10088000EC0188819981009711F00E94E90D19828D
:1008900018821D821C821B821A82DF91CF910895DB
:1008A000EF92FF920F931F93CF93DF93EC017B01A5
:1008B0008A01BA010E941704811104C0CE010E946E
:1008C0003E0407C01D830C83B701888199810E9473
:1008D000590FCE01DF91CF911F910F91FF90EF90B3
:1008E0000895CF93DF93FC0144815581608171812C
:1008F00088E995E00E94EC03EC0142E050E06EE5EF
:1009000071E088E995E00E94EC038C0F9D1FDF9158
:10091000CF9108958F929F92AF92BF92CF92DF9224
:10092000EF92FF920E94F7024B015C0188EEC82E05
:1009300083E0D82EE12CF12C0E94F702DC01CB01E0
:1009400088199909AA09BB09883E9340A105B105F8
:1009500058F021E0C21AD108E108F10888EE880EAB
:1009600083E0981EA11CB11CC114D104E104F10460
:1009700019F7FF90EF90DF90CF90BF90AF909F90CE
:100980008F9008950F931F930E941C0360933D0660
:1009900070933E0680933F0690934006E0913506A3
:1009A000F09136060680F781E02D85E396E0099503
:1009B00097FF1FC00E941C0300913D0610913E0648
:1009C00020913F0630914006DC01CB01801B910B4A
:1009D000A20BB30B0091390610913A0620913B0609
:1009E00030913C0680179107A207B307B8F28FEF4A
:1009F0009FEF1F910F910895CF93DF93FC01248106
:100A00003581232B71F0FB01DC01CD91DC916081FC
:100A10007181CE010E94600F009719F08C1B9D0B15
:100A200002C08FEF9FEFDF91CF910895EF92FF9279
:100A30000F931F93CF93DF93FC01248135816115C0
:100A4000710511F480E019C041155105A9F07B0131
:100A5000EC018A01020F131FB8010E9417048823BA
:100A600089F3288139818C819D81B701820F931F81
:100A70000E94590F1D830C8381E0DF91CF911F915C
:100A80000F91FF90EF900895CF93DF93EC01FB015E
:100A900044815581608171810E941605811103C0D6
:100AA000CE010E943E04CE01DF91CF910895EF92D6
:100AB000FF920F931F93CF93DF93CDB7DEB72797A6
:100AC0000FB6F894DEBF0FBECDBF7C01CB014AE06C
:100AD0008E010F5F1F4FB8010E94C10FF8010190F6
:100AE0000020E9F73197AF01401B510BB801C70156
:100AF0000E94160527960FB6F894DEBF0FBECDBF35
:100B0000DF91CF911F910F91FF90EF900895EF9299
:100B1000FF920F931F93CF93DF93CDB7DEB7289744
:100B20000FB6F894DEBF0FBECDBF7C01CB014AE00B
:100B30008E010F5F1F4FB8010E94A10FF8010190B5
:100B40000020E9F73197AF01401B510BB801C701F5
:100B50000E94160528960FB6F894DEBF0FBECDBFD3
:100B6000DF91CF911F910F91FF90EF900895611544
:100B7000710551F0FB0101900020E9F73197AF01B9
:100B8000461B570B0C94160580E00895CF93DF9316
:100B9000EC016115710559F0FB0101900020E9F7A6
:100BA0003197AF01461B570B0E94500402C00E94B0
:100BB0003E04CE01DF91CF910895FC0180819181A7
:100BC0000C94E90DFB01DC0111961C921E92139608
:100BD0001C921E92129715961C921E9214978617BD
:100BE000970749F0608171816115710521F0448199
:100BF00055810C9450040895FC01118210821382D7
:100C00001282158214826115710551F0FB01019069
:100C10000020E9F73197AF01461B570B0C945004A5
:100C20000895CF92DF92EF92FF92CF93DF93CDB7EB
:100C3000DEB728970FB6F894DEBF0FBECDBF7C019C
:100C40006B0160E671E0CE0101960E94FC05F701A0
:100C5000448155816081718185E396E00E94EC03B7
:100C60000E941C030D2C000CEE08FF08C60ED71EB8
:100C7000E81EF91E0E941C036C157D058E059F055C
:100C8000B0F485E396E00E94C601892B99F385E3D1
:100C900096E00E94DE018F83188641E050E0BE019D
:100CA000695F7F4FCE0101960E941605EACF4D8104
:100CB0005E8169817A8188E995E00E94EC03CE012A
:100CC00001960E94DD0528960FB6F894DEBF0FBE90
:100CD000CDBFDF91CF91FF90EF90DF90CF9008953F
:100CE000CF93DF93CDB7DEB7E0970FB6F894DEBFB2
:100CF0000FBECDBF789484B5826084BD84B5816019
:100D000084BD85B5826085BD85B5816085BD8091D6
:100D10006E00816080936E0010928100809181004E
:100D20008260809381008091810081608093810046
:100D3000809180008160809380008091B100846008
:100D40008093B1008091B00081608093B000809169
:100D50007A00846080937A0080917A008260809328
:100D60007A0080917A00816080937A0080917A0085
:100D7000806880937A001092C100E091A805F091FC
:100D8000A90582E08083E091A405F091A505108279
:100D9000E091A605F091A7058FEC80831092B00535
:100DA000E091AC05F091AD0586E08083E091AA0565
:100DB000F091AB05808180618083E091AA05F0917C
:100DC000AB05808188608083E091AA05F091AB0536
:100DD000808180688083E091AA05F091AB058081D5
:100DE0008F7D80831092500610924F0610924E060F
:100DF00010924D0610924C0610924B068DE991E030
:100E0000909352068093510690914106963108F0D6
:100E100057C02DEB30E030934C0620934B062BE966
:100E200031E030934E0620934D062CE231E03093B2
:100E3000500620934F0620916800983050F031E022
:100E40009E3008F430E081E001C0880F3A95EAF75F
:100E500001C084E0822B80936800983038F09E3087
:100E600040F0963148F020E030E008C02DE630E058
:100E700005C02BE630E002C02CE630E03093490696
:100E800020934806983030F481E001C0880F9A958D
:100E9000EAF70EC0292F30E09E3018F428503109AF
:100EA00002C02E50310981E001C0880F2A95EAF76F
:100EB00080934A0680915106909152060197F1F76E
:100EC00080914F0690915006892B21F180919505D4
:100ED0009091960526E085339207E1F0009711F096
:100EE0000E94FF01809153068E7F809353061092DB
:100EF00094051092930585E396E090939605809370
:100F00009505E0914806F0914906908180914A0646
:100F1000892B808366E271E0CE0101960E94FC0578
:100F200068EE73E0CE0101960E941106CE01019693
:100F30000E94DD0564E371E0CE0101960E94FC058C
:100F400068EE73E0CE0101960E941106CE01019673
:100F50000E94DD056FE371E0CE0101960E94FC0561
:100F600068EE73E0CE0101960E941106CE01019653
:100F70000E94DD056DE471E0CE0101960E94FC0542
:100F800068EE73E0CE0101960E941106CE01019633
:100F90000E94DD0545E050E061E671E088E995E0FA
:100FA0000E94EC0342E050E06EE571E088E995E0D4
:100FB0000E94EC0361E08EE00E94BB0261E08FE0E2
:100FC0000E94BB0261E081E10E94BB0261E081E11D
:100FD0000E946F020E948A0460E081E10E946F0219
:100FE00085E396E00E94C601892B09F477C460E688
:100FF00071E0CE018B960E94FC050E94C20497FD11
:101000000FC08A30910561F089831A8241E050E077
:10101000BE016F5F7F4FCE018B960E941605EDCF0C
:10102000CE018B960E94710467E671E0CE010196B5
:101030000E94FC05BE016F5F7F4FCE018B960E9420
:10104000FC048C01CE0101960E94DD050F3F1F4F6D
:1010500009F43FC4BE01655D7F4FCE0149960E94F1
:10106000E2056BE671E0CE0101960E94FC05BE012F
:101070006F5F7F4FCE0149960E94FC046C01CE0148
:1010800001960E94DD056BE671E0CE0101960E949B
:10109000FC058D8D9E8D2D813E817C01E21AF30A27
:1010A0002115310539F1009729F18217930710F1C5
:1010B000E816F90620F07C0121E0E21AF108A98C7B
:1010C000BA8C69807A80C5010FEF1FEF45018E0C45
:1010D0009F1C8816990680F0B3010E94600F00974C
:1010E00059F09C012A193B09E216F30608F0890120
:1010F0000196EFCF0FEF1FEFCE0101960E94DD05A5
:10110000780186010F5F1F4FE016F10628F4902F3B
:10111000812F8701E92EF82E60E671E0CE0143961B
:101120000E94FC058D8D9E8D08171907C0F48E1541
:101130009F0508F47C01E98DFA8DEE0DFF1DD0802E
:101140001082698D7A8D600F711FCE0143960E94C7
:10115000C605898D9A8DFC01EE0DFF1DD0826DE6CE
:1011600071E0CE0101960E94FC05BE016D5E7F4FCD
:10117000CE0101960E9444050E947104CE010196A1
:101180000E94DD058B899C89009721F00E947A0FCF
:10119000162F01C010E0CE0143960E94DD0510938A
:1011A0009705CE0149960E94DD051C8A1B8A1E8A7E
:1011B0001D8A188E1F8A4AE0BE016F5F7F4F812F04
:1011C00090E00E94C10FBE016F5F7F4FCE0143963A
:1011D0000E94C60563E771E0CE0101960E94FC05FE
:1011E000BE016D5E7F4FCE0101960E9444050E94B4
:1011F0007104CE0101960E94DD05CE0143960E9446
:10120000DD0569E771E0CE0101960E94FC05BE0193
:101210006F5F7F4FCE018B960E94FC048C01CE0144
:1012200001960E94DD050F3F1F4F21F061E08EE027
:101230000E946F0264E871E0CE0101960E94FC05F5
:10124000BE016F5F7F4FCE018B960E94FC048C0124
:10125000CE0101960E94DD050F3F1F4F21F060E097
:101260008EE00E946F0260E971E0CE0101960E945B
:10127000FC05BE016F5F7F4FCE018B960E94FC0480
:101280008C01CE0101960E94DD050F3F1F4F21F01A
:1012900061E08FE00E946F026BE971E0CE01019680
:1012A0000E94FC05BE016F5F7F4FCE018B960E94AE
:1012B000FC048C01CE0101960E94DD050F3F1F4FFB
:1012C00021F060E08FE00E946F0267EA71E0CE01DA
:1012D00001960E94FC05BE016F5F7F4FCE018B9689
:1012E0000E94FC048C01CE0101960E94DD050F3F97
:1012F0001F4F21F061E081E10E946F0262EB71E01B
:10130000CE0101960E94FC05BE016F5F7F4FCE01AA
:101310008B960E94FC048C01CE0101960E94DD0593
:101320000F3F1F4F21F060E081E10E946F026EEBE2
:1013300071E0CE0101960E94FC05BE016F5F7F4FF8
:10134000CE018B960E94FC048C01CE0101960E9476
:10135000DD050F3F1F4F61F061E081E10E946F02E8
:1013600061E08FE00E946F0261E08EE00E946F02F8
:101370006AEC71E0CE0101960E94FC05BE016F5F30
:101380007F4FCE018B960E94FC048C01CE0101960A
:101390000E94DD050F3F1F4F61F060E081E10E9478
:1013A0006F0260E08FE00E946F0260E08EE00E94BA
:1013B0006F020E948A040091970510E062ED71E0CF
:1013C000CE0185960E94FC051C8A1B8A1E8A1D8AF6
:1013D000188E1F8A4AE0BE016F5F7F4FC8010E94CE
:1013E000A10FBE016F5F7F4FCE0143960E94C605DD
:1013F00067ED71E0CE0101960E94FC05BE016D5EB5
:101400007F4FCE0101960E9444050E947104CE01D7
:1014100001960E94DD05CE0143960E94DD0561EE36
:1014200071E0CE014F960E94FC056FE172E0CE01A3
:1014300049960E94FC05B801CE0149960E94870595
:101440006BE671E0CE0149960E94B7056BA17CA1C5
:10145000CE0149960E9457056EE571E0CE0149968E
:101460000E94B705BE01675E7F4FCE0101960E94C4
:10147000E20568EE73E0CE0101960E941106CE01EE
:1014800001960E94DD05BE01615E7F4FCE0101968F
:101490000E94E20568EE73E0CE0101960E941106FB
:1014A000CE0101960E94DD056BE272E0CE014F96FF
:1014B0000E94C6056FE172E0CE0149960E94C60502
:1014C000B801CE0149960E9487056BE671E0CE0116
:1014D00049960E94B7056BA17CA1CE0149960E9456
:1014E00057056EE571E0CE0149960E94B705BE0131
:1014F000675E7F4FCE0101960E94E20568EE73E0C1
:10150000CE0101960E941106CE0101960E94DD05D2
:10151000BE01615E7F4FCE0101960E94E20568EE3A
:1015200073E0CE0101960E941106CE0101960E9441
:10153000DD056BE972E0CE014F960E94C6056FE1B2
:1015400072E0CE0149960E94C605B801CE014996C7
:101550000E9487056BE671E0CE0149960E94B705AF
:101560006BA17CA1CE0149960E9457056EE571E002
:10157000CE0149960E94B705BE01675E7F4FCE013E
:1015800001960E94E20568EE73E0CE0101960E948A
:101590001106CE0101960E94DD05BE01615E7F4FFE
:1015A000CE0101960E94E20568EE73E0CE0101963D
:1015B0000E941106CE0101960E94DD0561E173E0F3
:1015C000CE014F960E94C6056FE172E0CE014996AA
:1015D0000E94C605B801CE0149960E9487056BE6B8
:1015E00071E0CE0149960E94B7056BA17CA1CE01A6
:1015F00049960E9457056EE571E0CE0149960E941A
:10160000B705BE01675E7F4FCE0101960E94E205DD
:1016100068EE73E0CE0101960E941106CE0101969C
:101620000E94DD05BE01615E7F4FCE0101960E94E2
:10163000E20568EE73E0CE0101960E941106CE012C
:1016400001960E94DD056DE873E0CE014F960E9481
:10165000C6056FE172E0CE0149960E94C605B80149
:10166000CE0149960E9487056BE671E0CE0149964E
:101670000E94B7056BA17CA1CE0149960E94570537
:101680006EE571E0CE0149960E94B705BE01675E26
:101690007F4FCE0101960E94E20568EE73E0CE0115
:1016A00001960E941106CE0101960E94DD05BE0141
:1016B000615E7F4FCE0101960E94E20568EE73E005
:1016C000CE0101960E941106CE0101960E94DD0511
:1016D00067E074E0CE014F960E94C6056FE172E0AC
:1016E000CE0149960E94C605B801CE0149960E94D6
:1016F00087056BE671E0CE0149960E94B7056BA1A4
:101700007CA1CE0149960E9457056EE571E0CE019D
:1017100049960E94B705BE01675E7F4FCE010196D4
:101720000E94E20568EE73E0CE0101960E94110668
:10173000CE0101960E94DD05BE01615E7F4FCE01A4
:1017400001960E94E20568EE73E0CE0101960E94C8
:101750001106CE0101960E94DD0564E574E0CE011C
:101760004F960E94C6056FE172E0CE0149960E9435
:10177000C605B801CE0149960E9487056BE671E067
:10178000CE0149960E94B7056BA17CA1CE01499676
:101790000E9457056EE571E0CE0149960E94B7059B
:1017A000BE01675E7F4FCE0101960E94E20568EEA2
:1017B00073E0CE0101960E941106CE0101960E94AF
:1017C000DD05BE01615E7F4FCE0101960E94E205FC
:1017D00068EE73E0CE0101960E941106CE010196DB
:1017E0000E94DD0566EE74E0CE014F960E94C605AC
:1017F0006FE172E0CE0149960E94C605B801CE01A4
:1018000049960E9487056BE671E0CE0149960E94D9
:10181000B7056BA17CA1CE0149960E9457056EE5E4
:1018200071E0CE0149960E94B705BE01675E7F4F09
:10183000CE0101960E94E20568EE73E0CE010196AA
:101840000E941106CE0101960E94DD05BE01615E77
:101850007F4FCE0101960E94E20568EE73E0CE0153
:1018600001960E941106CE0101960E94DD056DEFE2
:1018700074E0CE0143960E94FC05B801CE01439668
:101880000E9487056EE571E0CE0143960E94B70580
:10189000BE016D5E7F4FCE0101960E94E20568EBAE
:1018A0007BE0CE0101960E941106CE0101960E94B6
:1018B000DD05CE0143960E94DD05CE0149960E94CA
:1018C000DD05CE014F960E94DD05CE0185960E9472
:1018D000DD05CE018B960E94DD0582CB0E944F0173
:1018E0007FCB8AE191E0909336068093350685E3BD
:1018F00096E00C94FF0110929B0510929A0588EED9
:1019000093E0A0E0B0E080939C0590939D05A093A8
:101910009E05B0939F052AE031E03093990520930E
:10192000980525EC30E03093A5052093A40524EC20
:1019300030E03093A7052093A60520EC30E03093EB
:10194000A9052093A80521EC30E03093AB05209346
:10195000AA0522EC30E03093AD052093AC0526ECCF
:1019600030E03093AF052093AE051092B105109290
:10197000B2051092B3051092B40510923806109279
:1019800037068093390690933A06A0933B06B093AE
:101990003C068AE191E090933606809335061092DA
:1019A0004C0610924B0610924E0610924D06109265
:1019B000500610924F0610925206109251066091F6
:1019C00053066E7F6D7F609353066695617081E06C
:1019D000682783E00E946F0261E083E00E94BB02FF
:1019E000E1EBF0E0E491E0934506EDE9F0E0E4910D
:1019F000F0E0EE0FFF1FEA57FF4F8591949190930F
:101A000047068093460660E082E00E94BB02809118
:101A1000530681FD04C061E082E00E946F0282E013
:101A200080934106E0EBF0E0E491E0934206ECE9BC
:101A3000F0E0E491F0E0EE0FFF1FE057FF4F8591DB
:101A400094919093440680934306089597FB072E44
:101A500016F4009407D077FD09D00E943A0D07FCD8
:101A600005D03EF4909581959F4F089570956195AE
:101A70007F4F0895AA1BBB1B51E107C0AA1FBB1FC4
:101A8000A617B70710F0A61BB70B881F991F5A950A
:101A9000A9F780959095BC01CD010895EE0FFF1F29
:101AA0000590F491E02D0994CF93DF938230910556
:101AB00010F482E090E0E0915606F091570620E0A5
:101AC00030E0C0E0D0E0309711F1408151814817FB
:101AD0005907C0F04817590761F482819381209714
:101AE00019F09B838A832BC09093570680935606E8
:101AF00026C02115310519F04217530718F49A0131
:101B0000BE01DF01EF010280F381E02DDCCF211562
:101B1000310509F1281B390B2430310590F4129658
:101B20008D919C9113976115710521F0FB019383B1
:101B3000828304C09093570680935606FD01329627
:101B400044C0FD01E20FF31F8193919322503109AC
:101B50002D933C933AC02091540630915506232B87
:101B600041F42091020130910301309355062093F6
:101B7000540620910001309101012115310541F4F5
:101B80002DB73EB74091040150910501241B350B40
:101B9000E0915406F0915506E217F307A0F42E1BCE
:101BA0003F0B2817390778F0AC014E5F5F4F2417C1
:101BB000350748F04E0F5F1F50935506409354066B
:101BC0008193919302C0E0E0F0E0CF01DF91CF91EB
:101BD00008950F931F93CF93DF93009709F48CC060
:101BE000FC0132971382128200915606109157061B
:101BF0000115110581F420813181820F931F2091FD
:101C00005406309155062817390779F5F093550693
:101C1000E093540671C0D80140E050E0AE17BF0712
:101C200050F412962D913C911397AD012115310579
:101C300009F1D901F3CF9D01DA0133832283608159
:101C40007181860F971F8217930769F4EC01288131
:101C50003981260F371F2E5F3F4F318320838A81C2
:101C60009B8193838283452B29F4F0935706E0935D
:101C7000560642C01396FC93EE931297ED014991DC
:101C800059919E01240F351FE217F30771F48081EB
:101C90009181840F951F029611969C938E93828159
:101CA000938113969C938E931297E0E0F0E0D80115
:101CB00012968D919C911397009719F0F8018C0161
:101CC000F6CF8D919C9198012E5F3F4F820F931F0D
:101CD00020915406309155062817390769F430973A
:101CE00029F4109257061092560602C013821282EF
:101CF0001093550600935406DF91CF911F910F91D9
:101D00000895A0E0B0E0E7E8FEE00C94EF0FEC01EE
:101D1000009721F4CB010E94540DB8C0FC01E60FDE
:101D2000F71F9C0122503109E217F30708F4ACC0F9
:101D3000D9010D911C91119706171707B0F00530C6
:101D4000110508F49FC0C80104978617970708F487
:101D500099C002501109061B170B019311936D9343
:101D60007C93CF010E94E90D8DC05B01A01AB10ADE
:101D70004C01800E911EA0915606B091570640E08E
:101D800050E0E12CF12C109709F44AC0A815B905D0
:101D9000D1F56D907C901197630182E0C80ED11C43
:101DA000CA14DB0480F1A3014A195B096A0182E0CD
:101DB000C80ED11C1296BC9012971396AC91B5E048
:101DC000CB16D10440F0B282A38351834083D90162
:101DD0006D937C930AC00E5F1F4FC301800F911F4C
:101DE000F90191838083EB2DFA2FE114F10431F096
:101DF000D7011396FC93EE93129744C0F0935706C5
:101E0000E09356063FC08D919C9111974817590752
:101E100008F4AC017D0112960D90BC91A02DB3CFBA
:101E2000809154069091550688159905E1F446175E
:101E30005707C8F48091000190910101009741F487
:101E40008DB79EB74091040150910501841B950BFD
:101E5000E817F907C8F4F0935506E0935406F90122
:101E6000718360830FC0CB010E94540D7C010097E9
:101E700059F0A801BE010E94500FCE010E94E90D49
:101E8000C70104C0CE0102C080E090E0CDB7DEB74C
:101E9000EEE00C940B1081E090E0F8940C9422108A
:101EA000FB01DC0102C001900D9241505040D8F777
:101EB0000895FB01DC0101900D920020E1F70895E7
:101EC000FB0151915523A9F0BF01DC014D9145174C
:101ED0004111E1F759F4CD010190002049F04D91F5
:101EE00040154111C9F3FB014111EFCF81E090E0B2
:101EF000019708951F93FC0199278827BC01E89456
:101F000011911032E9F3193010F01E30C8F31B3272
:101F100051F01D3249F4689406C00E94AC0F610F65
:101F2000711D811D911D119110531A30B0F33EF4B3
:101F300090958095709561957F4F8F4F9F4F1F9122
:101F40000895BB274A3031F4992322F4BDE29095DD
:101F500081959F4F0C94C20F592F482F372F262F52
:101F6000660F771F881F991F660F771F881F991F9D
:101F7000620F731F841F951F660F771F881F991F9D
:101F80000895BB27FB015527AA27880F991FAA1F71
:101F9000A41710F0A41B83955051B9F7A05DAA3384
:101FA00008F0A95DA193009779F7B111B19311924F
:101FB000CB010C94DB0FDC01FC01672F71917723BF
:101FC000E1F7329704C07C916D9370836291AE17F4
:101FD000BF07C8F308952F923F924F925F926F927E
:101FE0007F928F929F92AF92BF92CF92DF92EF92A9
:101FF000FF920F931F93CF93DF93CDB7DEB7CA1B2A
:10200000DB0B0FB6F894DEBF0FBECDBF09942A8854
:10201000398848885F846E847D848C849B84AA84FC
:10202000B984C884DF80EE80FD800C811B81AA8189
:10203000B981CE0FD11D0FB6F894DEBF0FBECDBF54
:10204000ED01089510E0C2E6D0E004C0FE010E9458
:0E2050004E0D2196C336D107C9F7F894FFCF85
:10205E0000005806800000000000E600EC03AF0010
:10206E008D00A1002D01000000007201EC03C601DD
:10207E00DE015901710141542B43574D4F44453DEB
:10208E00320D0A0041542B43494653520D0A00416A
:10209E00542B4349504D55583D310D0A0041542B98
:1020AE004349505345525645523D312C38300D0A56
:1020BE00007265616479002B4950442C007979795E
:1020CE00793D00737373703D0072656C61792F31C9
:1020DE002F6F6E0072656C61792F312F6F666600FF
:1020EE0072656C61792F322F6F6E0072656C61793B
:1020FE002F322F6F66660072656C61792F332F6FEA
:10210E006E0072656C61792F332F6F666600616C9D
:10211E006C2F7472696767657200616C6C2F6F66E5
:10212E006600666F6F6F00636F6D6D6D6D6D6D3DEB
:10213E0000485454502F312E3120323030204F4B26
:10214E000D0A20436F6E74656E742D547970653A66
:10215E0020746578742F68746D6C3B2063686172AF
:10216E007365743D7574662D380D0A0D0A20004195
:10217E00542B43495053454E443D003C21444F435C
:10218E00545950452068746D6C3E3C68746D6C3EBD
:10219E003C686561643E3C7469746C653E494F549D
:1021AE003C2F7469746C653E3C2F686561643E3CDF
:1021BE00626F64793E203C6469763E20203C61204B
:1021CE00687265663D22687474703A2F2F31393209
:1021DE002E3136382E342E312F72656C61792F31B7
:1021EE002F6F6E20223E20202020003C62757474DA
:1021FE006F6E3E2072656C61792031204F4E3C2F00
:10220E00627574746F6E3E3C2F613E20203C6120DF
:10221E00687265663D22687474703A2F2F313932B8
:10222E002E3136382E342E312F72656C61792F3166
:10223E002F6F666620223E203C627574746F6E3E70
:10224E002072656C61792031204F46463C2F6275B5
:10225E0074746F6E3E3C2F613E203C2F6469763E57
:10226E00003C6469763E3C6120687265663D22687A
:10227E007474703A2F2F3139322E3136382E342E67
:10228E00312F72656C61792F322F6F6E20223E20B6
:10229E003C627574746F6E3E2072656C617920328B
:1022AE00204F4E3C2F627574746F6E3E3C2F613E14
:1022BE0020203C6120687265663D22687474703A15
:1022CE002F2F3139322E3136382E342E312F726572
:1022DE006C61792F322F6F666620223E00203C62A1
:1022EE007574746F6E3E2072656C61792032204F6A
:1022FE0046463C2F627574746F6E3E3C2F613E20D5
:10230E003C2F6469763E3C6469763E203C612068D1
:10231E007265663D22687474703A2F2F3139322EF1
:10232E003136382E342E312F72656C61792F332F62
:10233E006F6E20223E203C627574746F6E3E20726A
:10234E00656C61792033204F4E3C2F627574746F2B
:10235E006E3E3C2F613E003C6120687265663D22F8
:10236E00687474703A2F2F3139322E3136382E343C
:10237E002E312F72656C61792F332F6F6666202296
:10238E003E203C627574746F6E3E2072656C61798E
:10239E002033204F46463C2F627574746F6E3E3C60
:1023AE002F613E003C6120687265663D2268747440
:1023BE00703A2F2F3139322E3136382E342E312FAE
:1023CE00616C6C2F6F666620223E203C62757474C1
:1023DE006F6E3E20416C6C204F46463C2F627574EA
:1023EE00746F6E3E3C2F613E3C6120687265663DA7
:1023FE0022687474703A2F2F3139322E3136382EBE
:10240E00342E312F616C6C2F747269676765722080
:10241E00223E203C627574746F6E3E20416C6C20BF
:10242E0074726969676765723C2F627574746F6E3A
:10243E003E3C2F613E0020203C2F6469763E3C2FAF
:10244E00626F64793E3C2F68746D6C3E0041542B74
:0A245E00434950434C4F53453D00E5
:00000001FF
