:100000000C9463000C948B000C948B000C94BB0537
:100010000C94BB050C94BB050C948B000C948B00CA
:100020000C948B000C948B000C948B000C948B0024
:100030000C948B000C948B000C948B000C948B0014
:100040000C9471050C948B000C943F050C941905CD
:100050000C948B000C948B000C948B000C948B00F4
:100060000C948B000C948B000000000024002700EF
:100070002A0000000008000201000003040700003D
:1000800000000000000000000000250028002B00F8
:1000900000000000230026002900040404040404D6
:1000A0000404020202020202030303030303010227
:1000B00004081020408001020408102001020408F6
:1000C000102035069D0911241FBECFEFD8E0DEBFFA
:1000D000CDBF11E0A0E0B1E0E4E2F9E102C005909B
:1000E0000D92AE34B107D9F722E0AEE4B1E001C021
:1000F0001D92A336B207E1F710E0C2E6D0E004C0DB
:100100002197FE010E94CF09C136D107C9F70E948D
:10011000E0060C94850C0C940000CF92DF92EF92D5
:10012000FF920F931F93CF93DF936C017A018B01A2
:10013000C0E0D0E0CE15DF0589F0D8016D918D01CA
:10014000D601ED91FC910190F081E02DC601099559
:10015000892B11F47E0102C02196ECCFC701DF91FB
:10016000CF911F910F91FF90EF90DF90CF90089566
:10017000FC01918D828D981761F0828DDF01A80FAF
:10018000B11D5D968C91928D9F5F9F73928F90E0D1
:1001900008958FEF9FEF0895FC01918D828D981740
:1001A00031F0828DE80FF11D858D90E008958FEF7D
:1001B0009FEF0895FC01918D228D892F90E0805C46
:1001C0009F4F821B91098F739927089583EA91E0CD
:1001D0000E94DA0021E0892B09F420E0822F0895A3
:1001E000FC01848DDF01A80FB11DA35ABF4F2C91D4
:1001F000848D90E001968F739927848FA689B789A3
:100200002C93A089B1898C9180648C93938D848D7B
:10021000981306C00288F389E02D80818F7D80834A
:100220000895EF92FF920F931F93CF93DF93EC010A
:1002300081E0888F9B8D8C8D981305C0E889F989A2
:10024000808185FD24C0F62E0B8D10E00F5F1F4FBF
:100250000F731127E02E8C8DE8120CC00FB607FC2F
:10026000FACFE889F989808185FFF5CFCE010E9418
:10027000F000F1CF8B8DFE01E80FF11DE35AFF4F27
:10028000F0820B8FEA89FB898081806207C0EE894A
:10029000FF896083E889F98980818064808381E0B7
:1002A00090E0DF91CF911F910F91FF90EF90089513
:1002B000CF93DF93EC01888D8823C9F0EA89FB890D
:1002C000808185FD05C0A889B9898C9186FD0FC004
:1002D0000FB607FCF5CF808185FFF2CFA889B989D9
:1002E0008C9185FFEDCFCE010E94F000E7CFDF912A
:1002F000CF91089580E090E0892B29F00E94E600DC
:1003000081110C940000089590E0FC01EE58FF4F1D
:100310003491FC01E255FF4F2491FC01E656FF4F5A
:10032000E491EE2309F43BC0332339F1333091F0EB
:1003300038F43130A9F0323001F584B58F7D12C028
:10034000373091F03830A1F03430B9F4809180002A
:100350008F7D03C0809180008F77809380000DC0D7
:1003600084B58F7784BD09C08091B0008F7703C0BA
:100370008091B0008F7D8093B000F0E0EE0FFF1F02
:10038000EA57FF4FA591B4918FB7F894EC916111A2
:1003900003C020952E2301C02E2B2C938FBF0895D0
:1003A000CF93DF9390E0FC01E255FF4F2491FC01D5
:1003B000E656FF4F8491882361F190E0880F991FE2
:1003C000FC01E859FF4FC591D491FC01EA57FF4F5A
:1003D000A591B491611109C09FB7F89488812095C7
:1003E00082238883EC912E230BC0623061F49FB787
:1003F000F8943881822F809583238883EC912E2B6B
:100400002C939FBF06C08FB7F894E8812E2B2883CA
:100410008FBFDF91CF9108951F93CF93DF93182F54
:10042000EB0161E00E94D001209711F460E004C06C
:10043000CF3FD10539F461E0812FDF91CF911F913A
:100440000C948401E12FF0E0EE58FF4FE491E3308B
:10045000F9F048F4E130B9F0E230A1F584B58062FA
:1004600084BDC8BD34C0E730E9F0E83019F1E430AC
:1004700049F580918000806280938000D0938B004A
:10048000C0938A0024C084B5806884BDC7BD1FC0E6
:1004900080918000806880938000D0938900C09311
:1004A000880015C08091B00080688093B000C09330
:1004B000B3000DC08091B00080628093B000C09303
:1004C000B40005C0C038D1050CF0B5CFAFCFDF9177
:1004D000CF911F9108953FB7F89480919301909127
:1004E0009401A0919501B091960126B5A89B05C0F5
:1004F0002F3F19F00196A11DB11D3FBFBA2FA92FA3
:10050000982F8827820F911DA11DB11DBC01CD011F
:1005100042E0660F771F881F991F4A95D1F708950B
:100520008F929F92AF92BF92CF92DF92EF92FF9203
:100530000E946B024B015C018AE0C82ED12CE12C99
:10054000F12C0E946B02DC01CB0188199909AA09E0
:10055000BB09883E9340A105B10558F021E0C21ABD
:10056000D108E108F10888EE880E83E0981EA11CEE
:10057000B11CC114D104E104F10419F7FF90EF900C
:10058000DF90CF90BF90AF909F908F900895209173
:10059000990130919A012817390771F490919701C8
:1005A00080919801981741F0E0919701F0E0E25BAB
:1005B000FE4F808190E008958FEF9FEF089508959A
:1005C0001F93CF93DF93DC015C962D913C915D9757
:1005D0002115310539F481E090E013969C938E93B8
:1005E00012973DC05196ED91FC91529750969C9177
:1005F0005097892F80951FB75E964C915E9741FB6F
:10060000772770F941FD6095F8944081772311F0C8
:10061000492B01C048234083E9012197F1F748E0C5
:10062000508160FF02C0592B01C058235083E9015B
:100630002197F1F76695415099F7772321F0908142
:100640008923808303C08081982B90831FBF5C9691
:100650008D919C915D970197F1F721E030E0C90100
:10066000DF91CF911F9108952091990130919A01C6
:100670002817390771F4809198012091970190E033
:10068000805C9F4F821B910960E470E00E94A70983
:10069000089580E090E008952091990130919A01A9
:1006A00028173907B9F4909197018091980198170C
:1006B00089F0E0919701F0E0E25BFE4F80812091AC
:1006C000970130E02F5F3F4F2F733327209397011F
:1006D00090E008958FEF9FEF0895E0919901F091D8
:1006E0009A01E817F90769F4A389B4899C9185896F
:1006F000809589238C9310929A011092990181E040
:10070000089580E00895009769F0FC0101900020B1
:10071000E9F73197AF01481B590BBC0183EA91E01F
:100720000C948D0080E090E008958F929F92AF929C
:10073000BF920F931F93CF93DF93CDB7DEB7A197EF
:100740000FB6F894DEBF0FBECDBF19A2423008F439
:100750004AE08E010F5D1F4F842E912CA12CB12CED
:10076000A50194010E94630CE62FB901CA01015052
:100770001109EA3014F4E05D01C0E95CD801EC93A2
:10078000232B242B252B61F7C8010E948303A196FC
:100790000FB6F894DEBF0FBECDBFDF91CF911F9192
:1007A0000F91BF90AF909F908F900895CF92DF925E
:1007B000EF92FF92CF93DF936C01990FEE08FF0841
:1007C000F7FE1AC0E091A301F091A4010190F0811D
:1007D000E02D6DE283EA91E00995EC016627772729
:1007E000CB016C197D098E099F094AE00E9495038F
:1007F0007C01EC0EFD1E06C04AE0C701B6010E9456
:1008000095037C018AE291E00E9483038E0D9F1D77
:10081000DF91CF91FF90EF90DF90CF900895CF932D
:10082000DF93FC01448155816081718183EA91E00D
:100830000E948D00EC018AE291E00E9483038C0FFC
:100840009D1FDF91CF9108950F931F93CF93DF9357
:10085000EC0188819981009729F02A813B81261734
:10086000370788F48B016F5F7F4F0E94020B009760
:1008700061F0998388831B830A832C813D81232B1C
:1008800011F4FC01108281E001C080E0DF91CF9182
:100890001F910F910895CF93DF93EC018881998187
:1008A000009711F00E946A0A198218821D821C8228
:1008B0001B821A82DF91CF910895EF92FF920F93DE
:1008C0001F93CF93DF93EC01FB0184819581E0803E
:1008D000F1800C811D81E114F104B1F00097B9F0B1
:1008E000080F191FB801CE010E942404882361F06B
:1008F000288139818C819D81B701820F931F0E94CD
:10090000DA0B1D830C8303C0CE010E944B04CE0181
:10091000DF91CF911F910F91FF90EF900895EF928B
:10092000FF920F931F93CF93DF93EC0119821882EC
:100930001B821A821D821C826115710521F18B01B7
:10094000FB0101900020E9F731977F01E61AF70AD1
:10095000B7010E942404811109C0CE01DF91CF911B
:100960001F910F91FF90EF900C944B04FD82EC824D
:10097000B80188819981DF91CF911F910F91FF90EC
:10098000EF900C94DA0BDF91CF911F910F91FF90B4
:10099000EF900895CF92DF92EF92FF920F931F9303
:1009A000CF93DF93CDB7DEB729970FB6F894DEBFAC
:1009B0000FBECDBF8C01862FF801118210821382E9
:1009C00012821582148250E09E012F5F3F4F690111
:1009D000B90190E00E94E10BF60101900020E9F7D7
:1009E00031977F01EC18FD08B701C8010E9424046B
:1009F000811104C0C8010E944B0408C0F801F582AF
:100A0000E482B601808191810E94DA0B29960FB6AB
:100A1000F894DEBF0FBECDBFDF91CF911F910F9134
:100A2000FF90EF90DF90CF9008950C94160C0E94E9
:100A3000CC0B1F920F920FB60F9211242F933F935E
:100A40004F935F936F937F938F939F93AF93BF93D6
:100A5000EF93FF9383EA91E00E94F000FF91EF9102
:100A6000BF91AF919F918F917F916F915F914F91C6
:100A70003F912F910F900FBE0F901F9018951F92CE
:100A80000F920FB60F9211242F938F939F93EF9392
:100A9000FF93E091B301F091B4018081E091B9013D
:100AA000F091BA0182FD12C090818091BC018F5FEC
:100AB0008F732091BD01821751F0E091BC01F0E0ED
:100AC000ED55FE4F958F8093BC0101C08081FF9151
:100AD000EF919F918F912F910F900FBE0F901F90CC
:100AE00018951F920F920FB60F9211242F933F93D8
:100AF0008F939F93AF93BF9380918F0190919001BB
:100B0000A0919101B091920130918E0123E0230FC9
:100B10002D3720F40196A11DB11D05C026E8230F35
:100B20000296A11DB11D20938E0180938F01909399
:100B30009001A0939101B0939201809193019091C3
:100B40009401A0919501B09196010196A11DB11D4E
:100B50008093930190939401A0939501B093960193
:100B6000BF91AF919F918F913F912F910F900FBEA9
:100B70000F901F9018951F920F920FB60F9211248D
:100B80002F933F934F935F936F937F938F939F9395
:100B9000AF93BF93EF93FF93E0919901F0919A0186
:100BA000309709F451C0968DA685B785858591FF4C
:100BB00004C09C91892329F447C09C91892309F0A2
:100BC00043C0A389B4899C918589809589238C939E
:100BD000868997890197F1F7608D718DA685B78514
:100BE000558538E020E0CB010197F1F7822F90E0A6
:100BF00095958795282F4C91452309F02068315011
:100C000091F7868D81FD20958091980190E0019665
:100C10008F73992730919701381749F0A091980167
:100C2000B0E0A25BBE4F2C938093980103C0868DE9
:100C30008160868F828D938D0197F1F7A389B489A6
:100C40009C918589892B8C93FF91EF91BF91AF91F6
:100C50009F918F917F916F915F914F913F912F91D4
:100C60000F900FBE0F901F9018951092A601109232
:100C7000A50188EE93E0A0E0B0E08093A7019093F7
:100C8000A801A093A901B093AA012EE031E030930E
:100C9000A4012093A30125EC30E03093B001209310
:100CA000AF0124EC30E03093B2012093B10120EC8D
:100CB00030E03093B4012093B30121EC30E0309365
:100CC000B6012093B50122EC30E03093B8012093B7
:100CD000B70126EC30E03093BA012093B9011092AD
:100CE000BC011092BD011092BE011092BF01109282
:100CF0004302109242028093440290934502A093D3
:100D00004602B09347028EE191E0909341028093B6
:100D100040021092570210925602109259021092FD
:100D2000580210925B0210925A0210925D021092C9
:100D30005C0260915E026E7F6D7F60935E026695DD
:100D4000617081E0682788E00E94840161E088E0AA
:100D50000E94D001E6EBF0E0E491E0935002E2EA79
:100D6000F0E0E491F0E0EE0FFF1FEA57FF4F8591AE
:100D70009491909352028093510260E087E00E9428
:100D8000D00180915E0281FD04C061E087E00E9495
:100D9000840187E080934C02E5EBF0E0E491E0937E
:100DA0004D02E1EAF0E0E491F0E0EE0FFF1FE057C2
:100DB000FF4F8591949190934F0280934E02089536
:100DC000CF93DF93CDB7DEB72D970FB6F894DEBF84
:100DD0000FBECDBF789484B5826084BD84B5816038
:100DE00084BD85B5826085BD85B5816085BD8091F6
:100DF0006E00816080936E0010928100809181006E
:100E00008260809381008091810081608093810065
:100E1000809180008160809380008091B100846027
:100E20008093B1008091B00081608093B000809188
:100E30007A00846080937A0080917A008260809347
:100E40007A0080917A00816080937A0080917A00A4
:100E5000806880937A001092C10061E083E00E9474
:100E6000D00161E085E00E94D00161E086E00E944F
:100E7000D00160E083E00E94840160E085E00E9490
:100E8000840160E086E00E948401E090A101F0907E
:100E9000A201E11424E0F20629F41092A2011092BA
:100EA000A10125C0C12CD12CC6010E9415058111BC
:100EB00029C28FEFC81AD80AC11424E0D206A1F7BC
:100EC00060919B01C7010E941E0C8091A10190912D
:100ED000A20160919D0102960E941E0C8091A101C9
:100EE0009091A20160919F0104960E941E0C809136
:100EF0009B0190919C01835D9E4F0E9483038AE237
:100F000091E00E94830360919B0170919C0183E0BA
:100F10000E940C0260919F017091A00186E00E94E6
:100F20000C0260919D0170919E0185E00E940C026F
:100F3000E091B301F091B40182E08083E091AF01D0
:100F4000F091B0011082E091B101F091B2018FEC0B
:100F500080831092BB01E091B701F091B80186E067
:100F60008083E091B501F091B6018081806180833A
:100F7000E091B501F091B601808188608083E091B5
:100F8000B501F091B601808180688083E091B50160
:100F9000F091B60180818F7D808310925B02109268
:100FA0005A0210925902109258021092570210924F
:100FB00056028DE991E090935D0280935C029091DE
:100FC0004C02963108F057C02DEB30E030935702B9
:100FD000209356022BE931E03093590220935802B6
:100FE0002CE231E030935B0220935A02209168009A
:100FF000983050F031E09E3008F430E081E001C0DC
:10100000880F3A95EAF701C084E0822B809368004C
:10101000983038F09E3040F0963148F020E030E0D3
:1010200008C02DE630E005C02BE630E002C02CE61B
:1010300030E03093540220935302983030F481E032
:1010400001C0880F9A95EAF70EC0292F30E09E3034
:1010500018F42850310902C02E50310981E001C036
:10106000880F2A95EAF78093550280915C0290914F
:101070005D020197F1F780915A0290915B02892BF2
:1010800021F18091990190919A0122E08034920798
:10109000E1F0009711F00E946D0380915E028E7F57
:1010A00080935E02109298011092970180E492E082
:1010B00090939A0180939901E0915302F091540228
:1010C000908180915502892B80838091A10190911C
:1010D000A2010E9415054AE0682FCE0101960E94E8
:1010E000CA046DE271E0CE0107960E948F04BE0132
:1010F0006F5F7F4FCE0107960E945D040E940F0430
:101100008F8198850E946A0A89819A810E946A0A61
:101110008091A1019091A20102960E9415054AE0DA
:10112000682FCE0101960E94CA0464E371E0CE01EB
:1011300007960E948F04BE016F5F7F4FCE01079616
:101140000E945D040E940F048F8198850E946A0AA4
:1011500089819A810E946A0A8091A1019091A201DD
:1011600004960E9415054AE0682FCE0101960E9460
:10117000CA046CE371E0CE0107960E948F04BE01A1
:101180006F5F7F4FCE0107960E945D040E940F049F
:101190008F8198850E946A0A89819A810E946A0AD1
:1011A00080E492E00E94340302970CF4A8C080E42B
:1011B00092E00E944C035C0180E492E00E944C03A8
:1011C000182F00E0A00EB11E6501E12CF12C4AE0C1
:1011D000C701B6010E9495038AE291E00E94830351
:1011E000C501885E93408F3F9105A8F42601370121
:1011F00088EE481A83E0580A610871085092A001ED
:1012000040929F01B20186E00E940C02C2010E943E
:10121000D6030E949002C501805D97408F3F9105E3
:10122000A8F42601370120ED421A27E0520A61088E
:10123000710850929E0140929D01B20185E00E948A
:101240000C02C2010E94D6030E94900288EBA81AE9
:101250008BE0B80A2FEFA216B10498F488EBC81AF5
:101260008BE0D80AE108F108D0929C01C0929B0162
:10127000B60183E00E940C02C6010E94D6030E94C0
:10128000900281E491E00E9483038AE291E00E944F
:10129000830360919B01E090A101F090A201C7013E
:1012A0006D870E94160C6D85681719F0C7010E94A2
:1012B0001E0C60919D01E090A101F090A20122E03E
:1012C000E20EF11CC7016D870E94160C6D85681730
:1012D00019F0C7010E941E0C60919F01E090A101CE
:1012E000F090A20184E0E80EF11CC7016D870E9416
:1012F000160C6D85681719F0C7010E941E0C0E941C
:101300007A01E3CEC7010E94150590E090939C01FD
:1013100080939B01C70102960E94150590E090936F
:101320009E0180939D01C70104960E94150590E0DF
:101330009093A00180939F01DACD8EE191E090938C
:1013400041028093400280E492E00C946D0397FB8D
:10135000072E16F4009407D077FD09D00E94BB0930
:1013600007FC05D03EF4909581959F4F08957095A8
:1013700061957F4F0895AA1BBB1B51E107C0AA1FAF
:10138000BB1FA617B70710F0A61BB70B881F991F26
:101390005A95A9F780959095BC01CD010895EE0F5F
:1013A000FF1F0590F491E02D0994CF93DF938230D5
:1013B000910510F482E090E0E0916102F091620208
:1013C00020E030E0C0E0D0E0309711F14081518161
:1013D00048175907C0F04817590761F48281938173
:1013E000209719F09B838A832BC09093620280938D
:1013F000610226C02115310519F04217530718F470
:101400009A01BE01DF01EF010280F381E02DDCCF04
:101410002115310509F1281B390B2430310590F4D1
:1014200012968D919C9113976115710521F0FB0126
:101430009383828304C09093620280936102FD01D2
:10144000329644C0FD01E20FF31F81939193225025
:1014500031092D933C933AC020915F023091600294
:10146000232B41F42091020130910301309360025B
:1014700020935F0220910001309101012115310577
:1014800041F42DB73EB74091040150910501241B52
:10149000350BE0915F02F0916002E217F307A0F4D0
:1014A0002E1B3F0B2817390778F0AC014E5F5F4FBA
:1014B0002417350748F04E0F5F1F5093600240938A
:1014C0005F028193919302C0E0E0F0E0CF01DF91F1
:1014D000CF9108950F931F93CF93DF93009709F453
:1014E0008CC0FC013297138212820091610210912C
:1014F00062020115110581F420813181820F931F51
:1015000020915F02309160022817390779F5F09336
:101510006002E0935F0271C0D80140E050E0AE1776
:10152000BF0750F412962D913C911397AD012115F0
:10153000310509F1D901F3CF9D01DA01338322830B
:1015400060817181860F971F8217930769F4EC0100
:1015500028813981260F371F2E5F3F4F318320832B
:101560008A819B8193838283452B29F4F0936202C5
:10157000E093610242C01396FC93EE931297ED0143
:10158000499159919E01240F351FE217F30771F419
:1015900080819181840F951F029611969C938E9362
:1015A0008281938113969C938E931297E0E0F0E0F2
:1015B000D80112968D919C911397009719F0F8011C
:1015C0008C01F6CF8D919C9198012E5F3F4F820F39
:1015D000931F20915F02309160022817390769F448
:1015E000309729F4109262021092610202C01382B5
:1015F00012821093600200935F02DF91CF911F91DE
:101600000F910895A0E0B0E0E8E0FBE00C94300C0E
:10161000EC01009721F4CB010E94D509B8C0FC0170
:10162000E60FF71F9C0122503109E217F30708F477
:10163000ACC0D9010D911C91119706171707B0F096
:101640000530110508F49FC0C80104978617970755
:1016500008F499C002501109061B170B019311934E
:101660006D937C93CF010E946A0A8DC05B01A01A22
:10167000B10A4C01800E911EA0916102B0916202EC
:1016800040E050E0E12CF12C109709F44AC0A81575
:10169000B905D1F56D907C901197630182E0C80E79
:1016A000D11CCA14DB0480F1A3014A195B096A0149
:1016B00082E0C80ED11C1296BC9012971396AC9182
:1016C000B5E0CB16D10440F0B282A38351834083AE
:1016D000D9016D937C930AC00E5F1F4FC301800F29
:1016E000911FF90191838083EB2DFA2FE114F1040E
:1016F00031F0D7011396FC93EE93129744C0F09308
:101700006202E09361023FC08D919C91119748174E
:10171000590708F4AC017D0112960D90BC91A02DE3
:10172000B3CF80915F029091600288159905E1F432
:1017300046175707C8F48091000190910101009766
:1017400041F48DB79EB74091040150910501841B6F
:10175000950BE817F907C8F4F0936002E0935F0275
:10176000F901718360830FC0CB010E94D5097C0110
:10177000009759F0A801BE010E94D10BCE010E9432
:101780006A0AC70104C0CE0102C080E090E0CDB774
:10179000DEB7EEE00C944C0C81E090E0F8940C94F1
:1017A000850CFB01DC0102C001900D9241505040BC
:1017B000D8F70895FB01DC0101900D920020E1F7BC
:1017C00008954532510520F4423010F00C94EC0B92
:1017D000FB011082CB010895BB27FB015527AA27E7
:1017E000880F991FAA1FA41710F0A41B83955051AE
:1017F000B9F7A05DAA3308F0A95DA193009779F726
:10180000B111B1931192CB010C94060CDC01FC01D7
:10181000672F71917723E1F7329704C07C916D9324
:1018200070836291AE17BF07C8F30895F999FECF90
:1018300092BD81BDF89A992780B50895262FF99910
:10184000FECF1FBA92BD81BD20BD0FB6F894FA9AA3
:10185000F99A0FBE019608952F923F924F925F9290
:101860006F927F928F929F92AF92BF92CF92DF92B0
:10187000EF92FF920F931F93CF93DF93CDB7DEB715
:10188000CA1BDB0B0FB6F894DEBF0FBECDBF0994A9
:101890002A88398848885F846E847D848C849B8400
:1018A000AA84B984C884DF80EE80FD800C811B810E
:1018B000AA81B981CE0FD11D0FB6F894DEBF0FBE3D
:1018C000CDBFED010895A1E21A2EAA1BBB1BFD019D
:1018D0000DC0AA1FBB1FEE1FFF1FA217B307E4070F
:1018E000F50720F0A21BB30BE40BF50B661F771F67
:1018F000881F991F1A9469F7609570958095909547
:101900009B01AC01BD01CF01089510E0C2E6D0E01B
:1019100004C0FE010E94CF092196C336D107C9F742
:04192000F894FFCF69
:1019240000006302800001000000000000001101BB
:101934008D00DA00B800CC00580100000000E0027D
:101944008D0034034C03C702DF020D0A0072656484
:10195400206973006772656520697300622069738A
:0E196400006565656565656570726F6D0000F4
:00000001FF
