:100000000C946E040C9496040C9496040C94960430
:100010000C9496040C9496040C9496040C949604F8
:100020000C9496040C9496040C9496040C949604E8
:100030000C9496040C9496040C9496040C949604D8
:100040000C94EC090C9496040C94E6080C94C008EB
:100050000C9496040C9496040C9496040C949604B8
:100060000C9496040C94960400000080C0E0E0F02C
:10007000F8F8F87C7C7CFCFEFEFE7E3E3E3EFEFEFA
:10008000FEFE7C7C7CF8F8F8F0F0E0C08000000018
:10009000007CFFFFFFFFFFFF830100107CFEFFFFDE
:1000A000FFFFE0C0C0C0FFFFFFFFFEFC3800010300
:1000B000FFFFFFFFFFFFFE00000001070F0F1F3FC4
:1000C0003F7E7C7CF8F8F1F1F3F3F3F3F3F3F3F311
:1000D000F1F1F8F87C7C7E3F3F1F1F0F0703000003
:1000E0000000000000000000000000202020242C60
:1000F0003C3870F8DC8EC6C00000C0C68EDCF870DC
:10010000383C2C242020200000000000001010109B
:1001100093FFFE7C1010547C7D7DBBBB9393FFFF4F
:100120007C7CFFFF9393BBBB7D7D7C5410107CFED9
:10013000FF93101010000000010100080808486833
:1001400079391D3F77E3C707000007C7E3773F1DF5
:100150003979684808080800010100000000000023
:100160000000000000808080004858D0A0E0D873D4
:10017000673C38141C101F1F101C1C10382E3378BD
:1001800068A0B0D8480880808080001018181072CD
:10019000B5B5B5FFFF8100000000000000000000C1
:1001A00000000000000000000000C3FFBDD5551096
:1001B000181800000101010100121A090D171BCEC9
:1001C000643C0C283808F8F80838280838E4CC1EB5
:1001D00016070B1A12010101010000000000000CBB
:1001E000102D0D00000080808080808000000000C5
:1001F00000010303030303030100000000000000EB
:10020000000000000000000000000000C0C000006E
:1002100000000000000286868686868602000000B6
:100220000081C3C3C3C3C3C381000000FC7A0606B8
:10023000060606067AFC00007EBCC0C0C0C0C0C076
:10024000BC7E0000000000000000000078FC000000
:1002500000000000000000003C7E000000028686D6
:10026000868686867AFC00007EBDC3C3C3C3C3C333
:100270008100000000028686868686867AFC000061
:100280000081C3C3C3C3C3C3BD7E0000FC788080AC
:100290008080808078FC00000001030303030303D7
:1002A0003D7E0000FC7A86868686868602000000F7
:1002B0000081C3C3C3C3C3C3BD7E0000FC7A86866E
:1002C00086868686020000007EBDC3C3C3C3C3C347
:1002D000BD7E000000020606060606067AFC000047
:1002E00000000000000000003C7E0000FC7A8686D2
:1002F000868686867AFC00007EBDC3C3C3C3C3C3A3
:10030000BD7E0000FC7A8686868686867AFC0000A2
:100310000081C3C3C3C3C3C3BD7E000E182D0D002F
:1003200000000000000000000000000000000010BD
:1003300038383838383838381000000000000000ED
:1003400000000000000000000000000000000000AD
:10035000000000000000000000000000000000009D
:100360000000000000000000000040E0E04000004D
:10037000000000000002060E0E0E0E0E0E06020019
:10038000000000103838383838383838100000008D
:100390000080C0E0E0E0E0E0E0C080000000FCFAA7
:1003A000F60E0E0E0E0E0EF6FAFC0000EFC78300DE
:1003B000000000000083C7EF00007FBFDFE0E0E047
:1003C000E0E0E0DFBF7F0000000000000000000070
:1003D00000F0F8FC000000000000000000000083B6
:1003E000C7EF00000000000000000000001F3F7F7A
:1003F00000000002060E0E0E0E0E0EF6FAFC0000B5
:10040000E0D0B83838383838383B170F00007FBF95
:10041000DFE0E0E0E0E0E0C0800000000002060E67
:100420000E0E0E0E0EF6FAFC0000001038383838AA
:10043000383838BBD7EF00000080C0E0E0E0E0E0F3
:10044000E0DFBF7F0000FCF8F0000000000000F0DB
:10045000F8FC00000F173B383838383838BBD7EF76
:1004600000000000000000000000001F3F7F0000AF
:10047000FCFAF60E0E0E0E0E0E06020000000F170E
:100480003B383838383838B8D0E000000080C0E059
:10049000E0E0E0E0E0DFBF7F0000FCFAF60E0E0EC9
:1004A0000E0E0E0602000000EFD7BB383838383881
:1004B00038B8D0E000007FBFDFE0E0E0E0E0E0DF60
:1004C000BF7F00000002060E0E0E0E0E0EF6FAFCA6
:1004D000000000000000000000000083C7EF0000E3
:1004E0000000000000000000001F3F7F0000FCFA39
:1004F000F60E0E0E0E0E0EF6FAFC0000EFD7BB380D
:100500003838383838BBD7EF00007FBFDFE0E0E095
:10051000E0E0E0DFBF7F0000FCFAF60E0E0E0E0EEC
:100520000EF6FAFC00000F173B383838383838BB65
:10053000D7EF00000080C0E0E0E0E0E0E0DFBF7F58
:10054000000608205F0000000000000000002F00EF
:100550000000000700070000147F147F1400242A05
:100560007F2A120023130864620036495522500086
:10057000000503000000001C224100000041221C75
:10058000000014083E08140008083E080800000097
:10059000A060000008080808080000606000000073
:1005A0002010080402003E5149453E0000427F40B1
:1005B00000004261514946002141454B3100181469
:1005C000127F10002745454539003C4A4949300013
:1005D0000171090503003649494936000649492990
:1005E0001E000036360000000056360000000814D9
:1005F00022410000141414141400004122140800B5
:10060000020151090600324959513E007C12111273
:100610007C007F49494936003E41414122007F41EB
:1006200041221C007F49494941007F090909010015
:100630003E4149497A007F0808087F0000417F4118
:1006400000002040413F01007F08142241007F400C
:10065000404040007F020C027F007F0408107F00B2
:100660003E4141413E007F09090906003E415121BA
:100670005E007F09192946004649494931000101B8
:100680007F0101003F4040403F001F2040201F00ED
:100690003F4038403F0063140814630007087008A7
:1006A0000700615149454300007F414100AA55AA16
:1006B00055AA55000041417F0000040201020400D8
:1006C00040404040400000030500000020545454C6
:1006D00078007F484444380038444444200038447B
:1006E00044487F00385454541800087E0901020021
:1006F00018A4A4A47C007F080404780000447D4072
:1007000000004080847D00007F10284400000041EC
:100710007F4000007C04180478007C080404780002
:10072000384444443800FC24242418001824241895
:10073000FC007C0804040800485454542000043F82
:10074000444020003C4040207C001C2040201C00F5
:100750003C4030403C004428102844001CA0A0A08D
:100760007C004464544C440000107C820000000073
:10077000FF00000000827C1000000006090906004E
:100780000000080002010000030407000000000050
:1007900000000000000000230026002900010204E0
:1007A00008102040800102040810200102040810F3
:1007B0002000000000250028002B0004040404048D
:1007C00004040402020202020203030303030300FF
:1007D0005EBCE2613FDD83C29C7E20A3FD1F419D84
:1007E000C3217FFCA2401E5F01E3BD3E6082DC238B
:1007F0007D9FC1421CFEA0E1BF5D0380DE3C62BE66
:10080000E0025CDF81633D7C22C09E1D43A1FF4668
:1008100018FAA427799BC584DA3866E5BB5907DB4B
:10082000856739BAE406581947A5FB7826C49A6546
:100830003BD987045AB8E6A7F91B45C6987A24F82D
:10084000A6441A99C7257B3A6486D85B05E7B98C1C
:10085000D2306EEDB3510F4E10F2AC2F7193CD111B
:100860004FADF3702ECC92D38D6F31B2EC0E50AFF2
:10087000F1134DCE90722C6D33D18F0C52B0EE32FD
:100880006C8ED0530DEFB1F0AE4C1291CF2D73CAD8
:10089000947628ABF517490856B4EA6937D58B57D3
:1008A00009EBB536688AD495CB2977F4AA4816E9BE
:1008B000B7550B88D6346A2B7597C94A14F6A874B5
:1008C0002AC896154BA9F7B6E80A54D7896B3500A4
:1008D000000000240027002A00002F1911241FBE49
:1008E000CFEFD8E0DEBFCDBF12E0A0E0B1E0ECEF8B
:1008F000FDE302C005900D92A435B107D9F725E0BC
:10090000A4E5B2E001C01D92AD38B207E1F714E0F2
:10091000CEE6D4E004C02197FE010E944F1ACD36E6
:10092000D107C9F70E94E5100C94FC1E0C9400003E
:10093000AF92BF92CF92DF92EF92FF920F931F93ED
:10094000CF93DF938B01BC018091510390915203AF
:100950000E94850A40E06EEB809151039091520312
:100960000E94430AE801680189E0C80ED11CA090EA
:100970005103B090520388E0E82EF12C01E010E022
:10098000C5010E94B20A8111102B000F81E0E81A04
:10099000F108B1F71993CC15DD0549F780915103A2
:1009A000909152030E94D60A91E0813009F090E0C4
:1009B000892FDF91CF911F910F91FF90EF90DF90E2
:1009C000CF90BF90AF900895EFEAF2E0A089B1898F
:1009D00082E08C93A485B5851C92A685B7858FECA3
:1009E0008C93108EA489B58986E08C93A289B389F3
:1009F0008C9180618C93A289B3898C9188608C934F
:100A0000A289B3898C9180688C930288F389E02D48
:100A100080818F7D808308950F931F93CF93DF9301
:100A2000CDB7DEB729970FB6F894DEBF0FBECDBFA6
:100A3000FC012081203161F18C0180915103909162
:100A400052030E94D60A882309F1BE016F5F7F4FCF
:100A5000C8010E9498048823C9F068E0CE0101967D
:100A60000E94360A9985891311C08D818F3361F0F8
:100A700020F48F3159F489E00CC08F3519F08F378D
:100A800039F004C08BE005C08AE003C080E001C0FB
:100A90008CE029960FB6F894DEBF0FBECDBFDF9174
:100AA000CF911F910F910895AFE5B3E052969C93BB
:100AB0008E935197FC01249153962C935397319622
:100AC000E4915496EC935497FC013296E491559638
:100AD000EC935597FC013396849156968C935697D8
:100AE00057961C92089590916D03E0916703F091E1
:100AF00068032081422F50E0292F30E02095309567
:100B0000242335232083E0916303F09164039091C3
:100B10006B03208161110BC0422F50E0292F30E080
:100B20002095309524233523208348E003C0922B61
:100B30009083FBCFE0916103F091620390916A038F
:100B4000208187FF03C0922B908309C0622F70E041
:100B5000292F30E020953095262337232083880FD6
:100B600090916903E0915F03F09160032081622F0F
:100B700070E0292F30E020953095262337232083FD
:100B8000000090916903E0915F03F0916003208180
:100B9000922B9083415071F680916D03E091670331
:100BA000F09168039081892B80830895CF93DF9320
:100BB00080916F05811112C060E080E40E9473058E
:100BC00060E080E80E947305C7E7D3E061E08991A7
:100BD0000E94730585E0CF36D807C1F7DF91CF912A
:100BE0000895E7E7F3E0119285E0EF36F807D9F7CB
:100BF00008958435910500F560337105E8F49B0193
:100C000043E0369527954A95E1F744E5429FF00188
:100C1000439FF00D11248E0F9F1FFC01E15AFC4FE2
:100C20006770772781E090E001C0880F6A95EAF746
:100C30008095908D8923808F089584359105F8F4EF
:100C400060337105E0F49B0143E0369527954A95A2
:100C5000E1F744E5429FF001439FF00D11248E0F10
:100C60009F1FFC01E15AFC4F6770772781E090E0FD
:100C700001C0880F6A95EAF7908D892B808F0895BF
:100C80007F928F929F92AF92BF92CF92DF92EF921C
:100C9000FF920F931F93CF93DF937C01C4E1D0E0C9
:100CA00068E2762ECC24C394D12CCE0144979C01CB
:100CB00043E0359527954A95E1F7729E8001739E32
:100CC000100D112487709927560102C0AA0CBB1C75
:100CD0008A95E2F75DE2852E912C0D521109F801FB
:100CE000E80DF91DEE0DFF1DE491F0E0EA21FB2176
:100CF000BE01C401EF2B19F00E941D0602C00E9424
:100D0000F9058FEF881A980A85E58816910439F756
:100D10002196CD32D10549F6DF91CF911F910F91E8
:100D2000FF90EF90DF90CF90BF90AF909F908F900B
:100D30007F9008951F93CF93DF93EBE8F7E09491B2
:100D4000E9EAF7E0D491E7ECF7E0C491CC23D9F0DD
:100D5000182F992319F0892F0E941809EC2FF0E021
:100D6000EE0FFF1FEF54F84FA591B4918FB7F89491
:100D7000111105C09C91ED2FE095E92302C0EC9183
:100D8000ED2BEC938FBFDF91CF911F910895CF93FF
:100D9000DF93CDB7DEB761970FB6F894DEBF0FBE15
:100DA000CDBFE0915103F09152031386158614864E
:100DB000DF011B96CF0103961E92A817B907E1F732
:100DC000BE01665F7F4FCF010E940C0B882341F06C
:100DD00067E0CE010A960E94360A9989891729F0A0
:100DE00060E070E08EEF92EC59C0809151039091D9
:100DF00052030E94D60A8823F1F1BE016F5F7F4F34
:100E0000CE010A960E9498048823A9F168E0CE01D9
:100E100001960E94360A998589132DC0698148E0A0
:100E2000649FB00111248A81282F30E0322F2227BD
:100E3000330F330F330F262B372B8A858031C9F4BC
:100E4000688570E08F81AB01481B5109CA019695F6
:100E5000982F8827979587950E94271A60517109C6
:100E6000207F53E0220F331F5A95E1F7620F731F63
:100E700004C0B90102C060E874EE613854EE750731
:100E80000CF4AECF072E000C880B990B0E94861D28
:100E900020E030E040E05CE30E94E51D61960FB683
:100EA000F894DEBF0FBECDBFDF91CF910895809142
:100EB0005103909152030E94D60A40E06CEC80915D
:100EC0005103909152030E94430A40914C0364E401
:100ED00080915103909152030E94430A80914E03E6
:100EE0008823A9F0E0914D03E950E33040F4F0E0AD
:100EF000EE0FFF1FE45FFE4F6081718102C06EEE56
:100F000072E0072E000C880B990B0C94A60908952B
:100F1000CF93DF93FC0144815581608171818FEA19
:100F200092E00E946C0CEC0164E571E08FEA92E0C3
:100F30000E9449108C0F9D1FDF91CF910895FC01F5
:100F4000918D828D981761F0828DDF01A80FB11D00
:100F50005D968C91928D9F5F9F73928F90E0089524
:100F60008FEF9FEF0895FC01918D828D981731F0DE
:100F7000828DE80FF11D858D90E008958FEF9FEF32
:100F80000895FC01918D228D892F90E0805C9F4F08
:100F9000821B91098F73992708958FEA92E00E942E
:100FA000C10721E0892B09F420E0822F0895FC017C
:100FB000848DDF01A80FB11DA35ABF4F2C91848DE2
:100FC00090E001968F739927848FA689B7892C9317
:100FD000A089B1898C9180648C93938D848D9813B2
:100FE00006C00288F389E02D80818F7D808308957B
:100FF000EF92FF920F931F93CF93DF93EC0181E069
:10100000888F9B8D8C8D981305C0E889F989808124
:1010100085FD24C0F62E0B8D10E00F5F1F4F0F7360
:101020001127E02E8C8DE8120CC00FB607FCFACF0A
:10103000E889F989808185FFF5CFCE010E94D70725
:10104000F1CF8B8DFE01E80FF11DE35AFF4FF082C7
:101050000B8FEA89FB898081806207C0EE89FF8956
:101060006083E889F98980818064808381E090E0F1
:10107000DF91CF911F910F91FF90EF900895CF9343
:10108000DF93EC01888D8823C9F0EA89FB89808190
:1010900085FD05C0A889B9898C9186FD0FC00FB662
:1010A00007FCF5CF808185FFF2CFA889B9898C91A3
:1010B00085FFEDCFCE010E94D707E7CFDF91CF911B
:1010C000089580E090E0892B29F00E94CD078111DE
:1010D0000C94000008953FB7F89480918505909195
:1010E0008605A0918705B091880526B5A89B05C007
:1010F0002F3F19F00196A11DB11D3FBFBA2FA92F97
:10110000982F8827820F911DA11DB11DBC01CD0113
:1011100042E0660F771F881F991F4A95D1F70895FF
:10112000FC0190810180F281E02D892F809560FF84
:1011300012C0F8942281822382838181892B81834A
:10114000A3E2B0E01197F1F78281982B9283789413
:1011500087ED90E011C0F8942281822382838181FF
:10116000892B8183AFEFB0E01197F1F78281982B43
:10117000928378948FE090E00197F1F708950895B5
:101180001F920F920FB60F9211242F933F934F93FC
:101190005F936F937F938F939F93AF93BF93EF93DF
:1011A000FF938FEA92E00E94D707FF91EF91BF91E2
:1011B000AF919F918F917F916F915F914F913F91EF
:1011C0002F910F900FBE0F901F9018951F920F92A6
:1011D0000FB60F9211242F938F939F93EF93FF934A
:1011E000E091BF02F091C0028081E091C502F091D0
:1011F000C60282FD12C090818091C8028F5F8F73FA
:101200002091C902821751F0E091C802F0E0E15547
:10121000FD4F958F8093C80201C08081FF91EF91AF
:101220009F918F912F910F900FBE0F901F90189547
:10123000833081F028F4813099F08230A1F0089554
:101240008730A9F08830B9F08430D1F480918000E3
:101250008F7D03C0809180008F77809380000895F8
:1012600084B58F7702C084B58F7D84BD0895809149
:10127000B0008F7703C08091B0008F7D8093B00065
:101280000895CF93DF93282F30E0F901E158F84F0C
:101290008491F901E356F84FD491F901E554F84FE0
:1012A000C491CC2391F081110E941809EC2FF0E039
:1012B000EE0FFF1FED56F84FA591B491EC91ED2381
:1012C00081E090E021F480E002C080E090E0DF91D6
:1012D000CF910895CF93DF9390E0FC01E356F84F50
:1012E0002491FC01E554F84F8491882361F190E04A
:1012F000880F991FFC01E153F74FC591D491FC0170
:10130000EF54F84FA591B491611109C09FB7F894BB
:101310008881209582238883EC912E230BC0623034
:1013200061F49FB7F8943881822F80958323888356
:10133000EC912E2B2C939FBF06C08FB7F894E881B9
:101340002E2B28838FBFDF91CF9108958F929F928C
:10135000AF92BF92CF92DF92EF92FF926B017C012E
:101360000E946B084B015C01C114D104E104F1043B
:10137000F1F00E946B08DC01CB0188199909AA09D8
:10138000BB09883E9340A105B10570F321E0C21A64
:10139000D108E108F10888EE880E83E0981EA11CB0
:1013A000B11CC114D104E104F10419F7DDCFFF90A1
:1013B000EF90DF90CF90BF90AF909F908F90089567
:1013C0002FB7F89460918105709182058091830513
:1013D000909184052FBF08951F920F920FB60F9220
:1013E00011242F933F938F939F93AF93BF9380913B
:1013F000810590918205A0918305B091840530917B
:10140000800523E0230F2D3720F40196A11DB11D87
:1014100005C026E8230F0296A11DB11D209380056B
:101420008093810590938205A0938305B0938405F2
:101430008091850590918605A0918705B0918805DA
:101440000196A11DB11D8093850590938605A093FB
:101450008705B0938805BF91AF919F918F913F9180
:101460002F910F900FBE0F901F901895DC01E0E0B8
:10147000615038F08D91E827F0E0E153F84FE491A6
:10148000F7CF8E2F0895CF92DF92EF92FF920F93B6
:101490001F93CF93DF931F92CDB7DEB76C01E62E7B
:1014A00008E010E0FF24F39461E08F2D8E2109F411
:1014B00060E0C60149830E949008FF0C01501109A9
:1014C00049810115110581F7411115C0F894D60124
:1014D0001196ED91FC91129791818C9180958923C1
:1014E00081831196ED91FC91129792818C91809558
:1014F0008923828378940F90DF91CF911F910F9170
:10150000FF90EF90DF90CF900895CF92DF92EF920F
:10151000FF920F931F93CF93DF931F92CDB7DEB748
:101520008C01F62E40E065E579830E94430ACF2CBA
:101530007981D72E760188E0E80EF11CF6016191E1
:101540006F0140E0C8010E94430ACE14DF04B1F7E6
:101550000F90DF91CF911F910F91FF90EF90DF904F
:10156000CF900895FC0190810180F281E02DF894E4
:101570008181892B81832281892F80952823228351
:10158000A7E0B0E01197F1F7218182238183A3E2E4
:10159000B0E01197F1F780817894EFECF0E03197AB
:1015A000F1F7982381E009F480E00895FC0190812F
:1015B0000180F281E02DF8948181292F20958223EA
:1015C000818378948DE743E050E0815021F1DA0186
:1015D0001197F1F730813923C1F3F8948281822386
:1015E00082838181892B81837894ABE7B7E011975F
:1015F000F1F7F894818128232183A3E1B1E01197C9
:10160000F1F78081982381E009F080E07894E3E6A7
:10161000F6E03197F1F70895AF92BF92CF92DF9243
:10162000EF92FF920F931F93CF93DF931F92CDB74B
:10163000DEB75C01E62ED72EFC01858581115DC0E9
:10164000C5010E94D60A811105C0F50113861586D1
:1016500014866BC040E060EFC5010E94430A01E0C0
:10166000F12CC12C11E0C5010E94B20A682FC501FE
:1016700069830E94B20A6981613019F48130B9F43A
:1016800033C04F2D50E068131BC0F5018385181738
:1016900030F4E40FF51F8381802349F402C018174A
:1016A00031F060E0193058F4F501148708C0F501F5
:1016B000EF0DF11D8381802B838361E009C0C12E72
:1016C000F501E40FF51F9381802F80958923838393
:1016D000C5010E9490081F5F000F11F4F39401E010
:1016E000F7E0FF1508F0BFCF113438F0F501C386DD
:1016F000C11015C081E0858712C0F50113861586DB
:10170000148680E0D5011396EE2DFD2D9501255F01
:101710003F4F9D919193A217B307D9F706C0F501EA
:101720008381882351F381E0EDCF0F90DF91CF913A
:101730001F910F91FF90EF90DF90CF90BF90AF90EF
:101740000895CF92DF92EF92FF920F931F93CF9362
:10175000DF93CDB7DEB7A7970FB6F894DEBF0FBE05
:10176000CDBF0E94E0096B017C01809154029091F1
:101770005502A0915602B0915702A7019601281B6D
:10178000390B4A0B5B0BCA01B9011BA21AA21DA29D
:101790001CA21FA21EA22AE08E010F5F1F4FA801EC
:1017A0000E94331DF80101900020E9F73197AF0145
:1017B000401B510BB801CE0182960E94D60F69E4FE
:1017C00072E0C8010E943410BE016E5D7F4FC801F7
:1017D0000E94A40F0E948807C8010E94F70FCE0143
:1017E00082960E94F70F8091540290915502A09129
:1017F0005602B0915702C81AD90AEA0AFB0A81E0D8
:1018000030ECC31634EDD30631E0E306F10408F4FE
:1018100080E0A7960FB6F894DEBF0FBECDBFDF9174
:10182000CF911F910F91FF90EF90DF90CF9008958F
:101830008435910528F56033710510F5FB01E770DB
:10184000FF2721E001C0220FEA95EAF733E0759502
:1018500067953A95E1F734E5369FF001379FF00D33
:1018600011248E0F9F1FFC01E958FC4F80E090E08F
:10187000841795072CF43081322B31930196F8CFE1
:1018800008958435910538F56033710520F5FB0125
:10189000E770FF2721E030E001C0220FEA95EAF768
:1018A000209533E0759567953A95E1F734E5369FD5
:1018B000F001379FF00D11248E0F9F1FFC01E95896
:1018C000FC4F80E090E0841795072CF430813223A0
:1018D00031930196F8CF0895CF92DF92EF92FF9265
:1018E0000F931F93CF93DF936C017A018B01C0E0BC
:1018F000D0E0CE15DF0589F0D8016D918D01D601BC
:10190000ED91FC910190F081E02DC6010995892BA4
:1019100011F47E0102C02196ECCFC701DF91CF9177
:101920001F910F91FF90EF90DF90CF900895CF928D
:10193000DF92EF92FF920F931F93CF93DF93843543
:10194000910598F46033710580F46A017B018C0184
:10195000C0E0D0E0CC15DD0544F4BE016E0D7F1D66
:10196000C8010E941D062196F5CFDF91CF911F91EE
:101970000F91FF90EF90DF90CF900895CF92DF927C
:10198000EF92FF920F931F93CF93DF9384359105CE
:1019900098F46033710580F46A017B018C01C0E02A
:1019A000D0E0CC15DD0544F4BE016E0D7F1DC801ED
:1019B0000E94F9052196F5CFDF91CF911F910F91EC
:1019C000FF90EF90DF90CF9008950E94F91C0F9345
:1019D0001F93CF93DF93EC0188819981009729F0C1
:1019E0002A813B812617370788F48B016F5F7F4F71
:1019F0000E942F1C009761F0998388831B830A83C0
:101A00002C813D81232B11F4FC01108281E001C067
:101A100080E0DF91CF911F910F9108952F923F9217
:101A20004F925F926F927F928F929F92AF92BF92EE
:101A3000CF92DF92EF92FF920F931F93CF93DF939A
:101A4000CDB7DEB728970FB6F894DEBF0FBECDBF77
:101A500078876F831A01FC0101900020E9F7319724
:101A60009F01281B390B3C832B836F30774281F415
:101A7000409172036B817C81469F9001479F300D9E
:101A8000112444E550E0DA01A21BB30BB887AF8301
:101A90002F8138852E303742B1F4409172036B812B
:101AA0007C81469F9001479F300D112444E550E012
:101AB000421B530B57FF02C04F5F5F4F9A01359592
:101AC000279538872F839E838D83C12CD12C2B8122
:101AD0003C81C216D3060CF0F4C0909172039C9D19
:101AE00080019D9D100D11242F813885020F131F39
:101AF000AD81BE812D91BE83AD8380917303582F3C
:101B0000577030E04091740351116EC086958695F0
:101B10008695241B3109989FC0011124289FA0019C
:101B2000299F500D389F500D11249A012C5F3F4F73
:101B30003A8329834101A12CB12C809173038695AE
:101B40008695869590E0A816B9060CF0B6C0498037
:101B50005A8038018091720390E09301201B310B71
:101B600028173907D4F5E12CF12C809172038A9D56
:101B7000F0018B9DF00D1124E40DF51D8091700393
:101B800090917103E80FF91FE491F0E00E2C02C070
:101B9000F595E7950A94E2F780917603B701680D11
:101BA000791DE0FF03C0811103C006C0811104C08C
:101BB000C3010E94F90503C0C3010E941D063FEF47
:101BC000E31AF30A48E0E416F10479F66FEF661AB7
:101BD000760A7FEF471A570ABDCF8FEFA81AB80AC7
:101BE00098E0890E911CA9CF241B3109989FC00150
:101BF000112443E0959587954A95E1F7289F500178
:101C0000299FB00C389FB00C1124A4E0AA0EB11C7F
:101C1000E0917003F0917103EA0DFB1DE4914E2EEB
:101C2000512C380157E0852E912C8091720390E061
:101C30009301201B310B281739070CF03EC07101AE
:101C40008091730390E0970122193309281739070F
:101C500084F520917603C201082C02C095958795E2
:101C60000A94E2F7B70180FF04C0C301211104C048
:101C700006C0C301211103C00E94F90502C00E94E1
:101C80001D06B1E08B1A910897FE0FC0EFEFAE1A58
:101C9000BE0AE0917003F0917103EA0DFB1DE4911F
:101CA0004E2E512C87E0882E912CFFEFEF1AFF0A61
:101CB000C7CF2FEF621A720AB8CF3FEFC31AD30A09
:101CC00006CF28960FB6F894DEBF0FBECDBFDF91CA
:101CD000CF911F910F91FF90EF90DF90CF90BF9029
:101CE000AF909F908F907F906F905F904F903F90BC
:101CF0002F9008958F929F92AF92BF92CF92DF92D2
:101D0000EF92FF920F931F93CF93DF93CDB7DEB780
:101D10005B014A01CDB6DEB6FC0104811581980154
:101D20002F5F3F4F4DB75EB7421B530B0FB6F89472
:101D30005EBF0FBE4DBFEDB7FEB731967F01232BBF
:101D400081F0309771F00115110551F0FC016081AF
:101D50007181A801C7010E940E1DF701E00FF11F5C
:101D60001082A401B501C7010E940E0D0FB6F894B0
:101D7000DEBE0FBECDBEDF91CF911F910F91FF90C0
:101D8000EF90DF90CF90BF90AF909F908F9008958D
:101D9000CF92DF92EF92FF920F931F93CF93DF9337
:101DA000EC018B01681779072CF4982F8D2FEB012C
:101DB000092F182F7801EC1AFD0A85E0E816F104C6
:101DC0000CF442C06E018FEFC81AD80AB60181E048
:101DD00090E00E941D06B60182E590E00E941D067B
:101DE000680181E0C81AD108B60181E090E00E9444
:101DF0001D06B60182E590E00E941D0640E550E018
:101E0000BE0182E090E00E94180C40E550E0B8016D
:101E100082E090E00E94180C87010350110922967D
:101E2000A801BE0180E090E00E94970CA801BE01CD
:101E300083E590E0DF91CF911F910F91FF90EF909C
:101E4000DF90CF900C94970CDF91CF911F910F9161
:101E5000FF90EF90DF90CF900895CF92DF92EF92B6
:101E6000FF920F931F93CF93DF93EC018B016817C1
:101E700079072CF4982F8D2FEB01092F182F78015B
:101E8000EC1AFD0A85E0E816F1040CF442C06E017C
:101E90008FEFC81AD80AB60181E090E00E94F905D8
:101EA000B60182E590E00E94F905680181E0C81A58
:101EB000D108B60181E090E00E94F905B60182E503
:101EC00090E00E94F90540E550E0BE0182E090E01C
:101ED0000E94410C40E550E0B80182E090E00E9491
:101EE000410C8701035011092296A801BE0180E030
:101EF00090E00E94BE0CA801BE0183E590E0DF9156
:101F0000CF911F910F91FF90EF90DF90CF900C94A5
:101F1000BE0CDF91CF911F910F91FF90EF90DF905A
:101F2000CF900895CF93DF93EC018881998100973A
:101F300011F00E94971B198218821D821C821B823D
:101F40001A82DF91CF910895EF92FF920F931F9322
:101F5000CF93DF93EC01FB0184819581E080F180D8
:101F60000C811D81E114F104B1F00097B9F0080F64
:101F7000191FB801CE010E94E70C882361F0288167
:101F800039818C819D81B701820F931F0E94071DAB
:101F90001D830C8303C0CE010E94920FCE01DF91FE
:101FA000CF911F910F91FF90EF900895EF92FF92C4
:101FB0000F931F93CF93DF93EC017B018A01BA014A
:101FC0000E94E70C811104C0CE010E94920F07C04D
:101FD0001D830C83B701888199810E94071DCE0162
:101FE000DF91CF911F910F91FF90EF900895FC0129
:101FF000808191810C94971BEF92FF920F931F9316
:10200000CF93DF93CDB7DEB762970FB6F894DEBFFC
:102010000FBECDBF8C01CB01F8011182108213825B
:1020200012821582148250E09E012F5F3F4F79018A
:10203000B9010E941D1DF70101900020E9F73197B9
:10204000AF014E195F09B701C8010E94D60F629611
:102050000FB6F894DEBF0FBECDBFDF91CF911F91B9
:102060000F91FF90EF900895FC011182108213826E
:102070001282158214826115710551F0FB010190E5
:102080000020E9F73197AF01461B570B0C94D60F90
:1020900008956115710579F0FB0101900020E9F7C1
:1020A0003197AF01461B570BDC01ED91FC9102808B
:1020B000F381E02D099480E090E00895CF93DF93C1
:1020C000BC018FEA92E00E944910EC0164E571E0E6
:1020D0008FEA92E00E9449108C0F9D1FDF91CF91F3
:1020E00008954F925F926F927F92EF92FF920F93BB
:1020F0001F93CF93DF93CDB7DEB7A1970FB6F894B8
:10210000DEBF0FBECDBF7C01FA01CB0119A2223088
:1021100008F42AE08E010F5D1F4F422E512C612CD6
:10212000712CBF01A30192010E94A31EF901CA01F3
:10213000015011096A3014F4605D01C0695CD80176
:102140006C93232B242B252B61F7B801C7010E9428
:102150004910A1960FB6F894DEBF0FBECDBFDF9138
:10216000CF911F910F91FF90EF907F906F905F90B4
:102170004F900895CF92DF92EF92FF92CF93DF932B
:102180006B017C01E091AF02F091B0020190F0810F
:10219000E02D6DE28FEA92E00995EC014427552786
:1021A000BA014C195D096E097F092AE08FEA92E0B5
:1021B0000E9471108C0F9D1FDF91CF91FF90EF90C7
:1021C000DF90CF9008950C944910CF93DF93CDB753
:1021D000DEB72E970FB6F894DEBF0FBECDBF789452
:1021E00084B5826084BD84B5816084BD85B582601C
:1021F00085BD85B5816085BD80916E0081608093CD
:102200006E00109281008091810082608093810035
:102210008091810081608093810080918000816045
:10222000809380008091B10084608093B1008091A0
:10223000B00081608093B00080917A0084608093C8
:102240007A0080917A00826080937A0080917A008F
:10225000816080937A0080917A00806880937A0010
:102260001092C1001092A3021092A4021092A50233
:102270001092A602109271021092720210927302D2
:102280001092740260ED77E080E090E00E94A60971
:102290008FEA92E09093A2028093A1020E94E4044C
:1022A0000E94E00900917102109172022091730264
:1022B00030917402DC01CB01801B910BA20BB30B9C
:1022C000C297A105B10538F463E070E080E090E0CA
:1022D0000E94A609E5CF0E94E00960937102709305
:1022E0007202809373029093740262E271E08091B3
:1022F000A1029091A2020E94E3106AE070E080E0E7
:1023000090E00E94A60981E0809375020E94E40497
:1023100080916B03E0916303F09164039081892BBA
:10232000808380916A03E0916103F0916203908160
:10233000892B808380916903E0915F03F0916003B2
:102340009081892B808380916D03E0916703F091E8
:1023500068039081892B808390916C03E0916503E1
:10236000F09166038081282F30E0892F90E08095DE
:1023700090958223932380836AE070E080E090E070
:102380000E94A60980916C03E0916503F0916603B9
:102390009081892B808360E081E20E94730560E078
:1023A00086EC0E94730560E086E00E94730560E0A1
:1023B00083E10E94730560E080E20E94730560E0A3
:1023C00080E40E94730560E080E80E94730560E08D
:1023D0008CE00E9473050E94F1050E94D6051092C0
:1023E00071031092700310926F0586E490E0909351
:1023F00071058093700581E495E00E94540560E0CA
:1024000088E00E946A0960E089E00E946A0960E051
:102410008AE00E946A0960E08DE00E946A0961E03A
:102420008CE00E946A09E0915103F09152031386F7
:1024300015861486DF011B9633961E92AE17BF07D2
:10244000E1F71092500311E0BE016F5F7F4F809162
:102450005103909152030E940C0B882309F44AC047
:1024600067E0CE0101960E94360A98858913ECCF69
:1024700080914C03811127C08091510390915203A8
:102480000E94D60ABE016F5F7F4F809151039091E9
:1024900052030E94850A40E064EB809151039091C1
:1024A00052030E94430A80915103909152030E946B
:1024B000B20A082F80915103909152030E94D60ACC
:1024C000002309F419C600914D03CE0101960E9424
:1024D0000C05801718F480914D0304C0CE010196BD
:1024E0000E940C0580934D03809150038F5F809371
:1024F0005003AACF22242394312C0E94E009672B99
:10250000682B692B09F0FBC50E94E0096230710558
:102510008105910508F0F3C53DC00E94E009609374
:10252000710270937202809373029093740264E359
:1025300071E08091A1029091A2020E94E3106CE3ED
:1025400071E08091A1029091A2020E94E3100E948A
:10255000E009AB01BC012AE08091A1029091A202A6
:102560000E9471106EE371E08091A1029091A2022D
:102570000E94E31065E070E080E090E00E94A60910
:102580006AE070E080E090E00E94A6098091750208
:1025900081110EC60E94E00928EE33E040E050E0D1
:1025A0000E94A31EC901805C964E909359028093AD
:1025B000580260E17EE00E94271ACB0168E170E0DA
:1025C0000E94271A90935B0280935A02AC01092E55
:1025D000000C660B770B97FF05C0CB01BA010E9478
:1025E000BA1005C02AE08FEA92E00E94711064E5FB
:1025F00071E08FEA92E00E94491067E571E08FEA8E
:1026000092E00E94E3100E94570783E791E00E9446
:102610005E100E94C7060E94C21A4B015C018B012A
:1026200068E771E08FEA92E00E94E3100E94C7061B
:102630006B017C019B01AC010E94FD1A882319F0FB
:1026400066E971E01AC026013701E89477F82FEFA8
:102650003FEF4FE75FE7C301B2010E94FD1A81110E
:1026600011C02FEF3FEF4FE75FE7C301B2010E94B8
:102670007F1D18163CF46AE971E08FEA92E00E942F
:10268000491084C02FEF3FEF4FE75FE4C701B60169
:102690000E94F81A18161CF46EE971E0EECF2FEFC5
:1026A0003FEF4FE75FECC701B6010E947F1D87FD3A
:1026B000F3CF20E030E0A901C701B6010E947F1DE1
:1026C00087FF0FC0E091AF02F091B0020190F0815E
:1026D000E02D6DE28FEA92E00995F7FAF094F7F8B1
:1026E000F0942AE037ED43EA5BE3C701B6010E94AC
:1026F000561A2B013C010E94C91A6B017C010E94F1
:10270000841D9B01AC01C301B2010E94551A2B012B
:102710003C012AE0B701A6018FEA92E00E94711005
:1027200061E771E08FEA92E00E94491020E030E01A
:1027300040E251E4C301B2010E94E51D2B013C01BE
:102740000E94C91A6B01E12CF12C2AE0B701A60105
:102750008FEA92E00E947110C701B6010E94841DA9
:102760009B01AC01C301B2010E94551A20E030E088
:1027700040E251E40E94E51D0E94C91AAB0160E0ED
:1027800070E02AE08FEA92E00E94711068E771E041
:102790008FEA92E00E94E310A401092C000C660B62
:1027A000770B77FF05C0CB01BA010E94BA1005C0B4
:1027B0002AE08FEA92E00E94711081E495E00E9485
:1027C000540542E050E062E070E082EA91E00E944D
:1027D0000E0D60910401709105014AE0CE01019651
:1027E0000E94FC0F42E050E06FE070E0CE010196E5
:1027F0000E947A0ECE0101960E94F70F42E050E04F
:1028000067E370E085EA91E00E940E0D609102019D
:10281000709103014AE0CE0101960E94FC0F42E054
:1028200050E061E470E0CE0101960E947A0ECE0184
:1028300001960E94F70F8BE193E00E9454054AE055
:10284000B401CE0101960E94FC0F44E150E062E029
:1028500070E0CE0101960E947A0ECE0101960E9490
:10286000F70F0E94D6058DE00E9441097C018091FE
:102870005E0290915F02E816F906B1F06AE070E03E
:1028800080E090E00E94A609E114F10449F48091EF
:102890005C0290915D02019690935D0280935C02D0
:1028A000F0925F02E0925E0260915C0270915D02C4
:1028B0004AE0CE0101960E94FC0F68EA71E0CE0169
:1028C00009960E943410BE016F5F7F4FCE010996BA
:1028D0000E94A40F0E948807CE0109960E94F70F5C
:1028E000CE0101960E94F70F80915C0290915D02EB
:1028F0008230910550F582E691E00E9440060E94E8
:10290000D60580910401909105010817190714F468
:1029100081E018C0E0900201F09003010E151F0540
:102920000CF447C068E873E180E090E00E94A609DB
:102930000E9457070E94C7060E94C21A6E157F05A3
:10294000C4F180E00E949A0634C08230910521F5DE
:1029500085EE90E00E9440060E94D605809102011B
:1029600090910301801791079CF2E0900401F09090
:1029700005010E151F05ECF468E873E180E090E0B6
:102980000E94A6090E9457070E94C7060E94C21A09
:102990006E157F0574F4D5CF039739F488E690E07F
:1029A0000E9440060E94D60504C010925D0210925B
:1029B0005C0289E00E9441098C0190936F02809330
:1029C0006E0280916C0290916D020817190709F44C
:1029D00090C36AE070E080E090E00E94A609012BBD
:1029E00009F07FC36EEA71E08FEA92E00E94E31083
:1029F00000916A0210916B020F5F1F4F10936B02E0
:102A000000936A020E94E009609354027093550299
:102A100080935602909357024AE0B801CE01019686
:102A20000E94FC0FCE0101960E948807CE010196FC
:102A30000E94F70F309201012092000161EC71E0D9
:102A40008FEA92E00E94E3100E94F10581E495E094
:102A50000E94540542E050E06EE077E28CEC91E099
:102A60000E940E0D4FE050E06EE077E28AED91E0BB
:102A70000E940E0D4EE150E06EE077E287EE91E0AD
:102A80000E940E0D6DE070E080E090E00E94C80EA4
:102A90000E94D605E12CF12C01E010E080910001AC
:102AA00090910101892B09F41CC380916A029091D5
:102AB0006B02019709F008C188E00E9441099093D8
:102AC0006902809368020E94A10B882349F010924A
:102AD0006B0210926A02109201011092000101C370
:102AE000C0906802D090690280916602909167025E
:102AF000C816D90609F446C06AE070E080E090E0AC
:102B00000E94A609C114D104A9F50F5F1F4F04301C
:102B1000110589F002301105F9F00330110551F566
:102B20006CE170E08DE090E00E942D0F6BE270E0B0
:102B30008CE190E01BC06BE270E08CE190E00E94C1
:102B40002D0F6DE070E080E090E00E94C80E0E94C2
:102B5000D60501E010E00EC06DE070E080E090E08E
:102B60000E942D0F6CE170E08DE090E00E94C80E95
:102B70000E94D605D0926702C09266028CEE91E068
:102B80000E945E108AE00E9441096C0190936502E8
:102B9000809364028091620290916302C816D90604
:102BA00009F443C06AE070E080E090E00E94A6096A
:102BB000C114D104B1F50150110919F10230110508
:102BC00089F003301105E9F00130110551F56CE190
:102BD00070E08DE090E00E942D0F6DE070E080E0ED
:102BE00090E00AC06BE270E08CE190E00E942D0F53
:102BF0006CE170E08DE090E00E94C80E0E94D60566
:102C000010C06DE070E08EEF9FEF0E942D0F6BE221
:102C100070E08CE190E00E94C80E0E94D60503E0AF
:102C200010E0D0926302C09262024AE0B801CE0185
:102C300001960E94FC0F65EF71E0CE0109960E949B
:102C40003410BE016F5F7F4FCE0109960E94A40F22
:102C50000E948807CE0109960E94F70FCE010196C7
:102C60000E94F70F89E00E9441096C0190936F0266
:102C700080936E028E159F0539F16AE070E080E066
:102C800090E00E94A609CD28D9F48FEF91E00E9430
:102C90005E1060916A0270916B026F5F7F4F70935C
:102CA0006B0260936A024AE0CE0101960E94FC0F1B
:102CB000CE0101960E948807CE0101960E94F70F6F
:102CC000E0906E02F0906F0280916A0290916B0228
:102CD000029709F0E3CE0E94F105C12CD12C0E948D
:102CE000A10B882329F010926B0210926A02E9C1AD
:102CF0008DE092E00E945E104AE0B801CE0101969C
:102D00000E94FC0FCE0101960E948807CE01019619
:102D10000E94F70F109361020093600287E192E036
:102D20000E945E1060916002709161024AE0CE01E3
:102D300001960E94FC0FCE0101960E948807CE01E9
:102D400001960E94F70F80916002909161020197B5
:102D5000029708F07BC182E292E00E945E1088E058
:102D60000E944109909369028093680280916002F9
:102D7000909161020297A9F481E495E00E945405C4
:102D800044E050E06EE077E28EED91E00E940E0D9F
:102D90008FED91E00E94540560910401709105014E
:102DA00014C081E495E00E94540544E050E06EE0D8
:102DB00077E280ED91E00E940E0D8BE193E00E949E
:102DC000540560910201709103014AE0CE01019621
:102DD0000E94FC0F44E150E06EE077E2CE010196E4
:102DE0000E947A0ECE0101960E94F70F0E94D6052E
:102DF000A0906802B090690280916602909167028B
:102E0000A816B90609F460C06AE070E080E090E0BE
:102E10000E94A609AB2809F04FC08CE292E00E9404
:102E20005E10809160029091610282309105B9F448
:102E3000A0900401B0900501B1E0AB16B10441F0DF
:102E400081E0A81AB108B0920501A09204011CC04B
:102E500068EB7BE080E090E00E94A6092DC001971E
:102E600059F5A0900201B0900301A1E0AA1AB1089F
:102E700080910401909105010296A816B90641F3CC
:102E8000B0920301A09202018BE193E00E945405ED
:102E90004AE0B501CE0101960E94FC0F44E150E0EA
:102EA0006EE077E2CE0101960E947A0ECE01019685
:102EB0000E94F70F0E94D6058091680290916902E6
:102EC00090936702809366028AE00E944109909382
:102ED0006502809364028091600290916102029782
:102EE000A9F481E495E00E94540544E050E06EE0CE
:102EF00077E28EED91E00E940E0D8BE193E00E944F
:102F00005405609104017091050114C081E495E0BD
:102F10000E94540544E050E06EE077E280ED91E0DD
:102F20000E940E0D8BE193E00E9454056091020116
:102F3000709103014AE0CE0101960E94FC0F44E12A
:102F400050E06EE077E2CE0101960E947A0ECE014B
:102F500001960E94F70F0E94D605A0906402B090DF
:102F600065028091620290916302A816B90609F485
:102F70005CC06AE070E080E090E00E94A609AB28A7
:102F800009F04BC0809160029091610282309105FE
:102F9000D9F4A0900401B0900501BFEFAB1ABB0AB1
:102FA00080910201909103010297A816B90629F0B9
:102FB000B0920501A092040118C068EB7BE080E0AC
:102FC00090E00E94A60929C0019739F5A09002015E
:102FD000B090030187E7A816B1047CF7AFEFAA1AF7
:102FE000BA0AB0920301A09202018BE193E00E9421
:102FF00054054AE0B501CE0101960E94FC0F44E160
:1030000050E06EE077E2CE0101960E947A0ECE018A
:1030100001960E94F70F0E94D6058091640290915C
:103020006502909363028093620264EF71E080E036
:1030300090E00E94A6098AE392E00E945E1064EF8D
:1030400071E080E090E00E94A60904C01092610245
:103050001092600289E00E9441095C0190936F0226
:1030600080936E028C159D0509F439CE6AE070E0FC
:1030700080E090E00E94A609AB2871F560916A0299
:1030800070916B026F5F7F4F70936B0260936A0267
:103090004AE0CE0101960E94FC0FCE0101960E94EB
:1030A0008807CE0101960E94F70F80916A029091E5
:1030B0006B02039789F410926B0210926A020E94CD
:1030C000F10510920101109200016EE372E08FEAA7
:1030D00092E00E94E310E2CCC0906E02D0906F02AA
:1030E000FECD80916E0290916F0290936D0280935D
:1030F0006C020E94610801CA10934C03E4C90E944B
:10310000E0096093AB027093AC028093AD029093A0
:10311000AE020091A7021091A8022091A90230915D
:10312000AA02601771078207930740F46093A70211
:103130007093A8028093A9029093AA020091A7021B
:103140001091A8022091A9023091AA026B017C0182
:10315000C01AD10AE20AF30A970186010A3F110553
:103160002105310508F416CA6093A7027093A802DE
:103170008093A9029093AA020E94E0090091710233
:10318000109172022091730230917402DC01CB0124
:10319000801B910BA20BB30BC297A105B10508F0E0
:1031A000BCC963E070E080E090E00E94A609E4CF33
:1031B0008091A1029091A202DC01ED91FC9104802A
:1031C000F581E02D0995892B99F38091A1029091C9
:1031D000A202DC01ED91FC910480F581E02D0995BE
:1031E000181619060CF0D6C98091A1029091A2027E
:1031F000DC01ED91FC910680F781E02D099599277E
:103200008336910551F08637910509F4C3C9883595
:103210009105D9F610927502D8CF67E471E08091DC
:10322000A1029091A2020E94E3102AE041E050E046
:1032300060E070E08091A1029091A2020E94711062
:103240006EE471E08091A1029091A2020E94E310CD
:1032500062E370E080E090E00E94A6099BC91092B2
:10326000B2021092B10288EE93E0A0E0B0E0809349
:10327000B3029093B402A093B502B093B60286E174
:1032800091E09093B0028093AF0285EC90E0909330
:10329000BC028093BB0284EC90E09093BE028093CA
:1032A000BD0280EC90E09093C0028093BF0281EC5D
:1032B00090E09093C2028093C10282EC90E09093E0
:1032C000C4028093C30286EC90E09093C602809380
:1032D000C5021092C8021092C9021092CA0210923E
:1032E000CB02E2ECF7E0E491F0E0EE0FFF1FEF54C9
:1032F000F84F859194919093600380935F03E4EA83
:10330000F7E0E491E0936903E1ECF7E0E491F0E0A9
:10331000EE0FFF1FEF54F84F859194919093620345
:1033200080936103E3EAF7E0E491E0936A03E0EC61
:10333000F7E0E491F0E0EE0FFF1FEF54F84F8591B6
:1033400094919093640380936303E2EAF7E0E4913D
:10335000E0936B03EEEBF7E0E491F0E0EE0FFF1F7C
:10336000EF54F84F85919491909366038093650391
:10337000E0EAF7E0E491E0936C03EFEBF7E0E4912F
:10338000F0E0EE0FFF1FEF54F84F8591949190936A
:10339000680380936703E1EAF7E0E491E0936D034B
:1033A00061E087E00E946A0961E086E00E946A09A4
:1033B00061E085E00E946A0961E083E00E946A0999
:1033C00061E084E00E946A0987E080936E0383E0F5
:1033D00080936F0360E08BE00E946A09E8EAF7E0FF
:1033E000E491E0937205E6ECF7E0E491F0E0EE0F93
:1033F000FF1FED56F84F859194919093740580933B
:10340000730510927D0510927F0510927E05EDE701
:10341000F5E0129285E0E537F807D9F78FEB98E0F1
:1034200090935E0380935D0382E795E0909352034F
:10343000809351031092500310924C0389E08093C3
:103440004D0381E080934E0380934F03089597FBD3
:10345000072E16F4009407D077FD09D00E943B1A7E
:1034600007FC05D03EF4909581959F4F0895709587
:1034700061957F4F0895AA1BBB1B51E107C0AA1F8E
:10348000BB1FA617B70710F0A61BB70B881F991F05
:103490005A95A9F780959095BC01CD010895EE0F3E
:1034A000FF1F0590F491E02D09945058BB27AA27DF
:1034B0000E946D1A0C94691E0E945B1E38F00E94D7
:1034C000621E20F039F49F3F19F426F40C94581E24
:1034D0000EF4E095E7FB0C94521EE92F0E947A1E31
:1034E00058F3BA17620773078407950720F079F439
:1034F000A6F50C949C1E0EF4E0950B2EBA2FA02D71
:103500000B01B90190010C01CA01A0011124FF2790
:10351000591B99F0593F50F4503E68F11A16F0408B
:10352000A22F232F342F4427585FF3CF469537958A
:103530002795A795F0405395C9F77EF41F16BA0B4F
:10354000620B730B840BBAF09150A1F0FF0FBB1FFD
:10355000661F771F881FC2F70EC0BA0F621F731F46
:10356000841F48F4879577956795B795F7959E3FA3
:1035700008F0B0CF9395880F08F09927EE0F979534
:10358000879508950E94C91A6894B1110C949D1EE4
:1035900008950E94821E88F09F5798F0B92F9927AE
:1035A000B751B0F0E1F0660F771F881F991F1AF02E
:1035B000BA95C9F714C0B13091F00E949C1EB1E0D9
:1035C00008950C949C1E672F782F8827B85F39F0D8
:1035D000B93FCCF3869577956795B395D9F73EF4C7
:1035E00090958095709561957F4F8F4F9F4F08956F
:1035F0000E94C11D08F48FEF08950E94C11D880B21
:10360000990B0895CF93DF938230910510F482E0F7
:1036100090E0E0918B05F0918C0520E030E0C0E077
:10362000D0E0309711F14081518148175907C0F01F
:103630004817590761F482819381209719F09B8381
:103640008A832BC090938C0580938B0526C021150F
:10365000310519F04217530718F49A01BE01DF0132
:10366000EF010280F381E02DDCCF2115310509F156
:10367000281B390B2430310590F412968D919C91C2
:1036800013976115710521F0FB019383828304C0B8
:1036900090938C0580938B05FD01329644C0FD010B
:1036A000E20FF31F81939193225031092D933C93A4
:1036B0003AC02091890530918A05232B41F420914D
:1036C00008013091090130938A05209389052091E2
:1036D0000601309107012115310541F42DB73EB7A0
:1036E00040910A0150910B01241B350BE091890593
:1036F000F0918A05E217F307A0F42E1B3F0B281761
:10370000390778F0AC014E5F5F4F2417350748F05A
:103710004E0F5F1F50938A054093890581939193C3
:1037200002C0E0E0F0E0CF01DF91CF9108950F9368
:103730001F93CF93DF93009709F48CC0FC0132975D
:103740001382128200918B0510918C0501151105D1
:1037500081F420813181820F931F2091890530915E
:103760008A052817390779F5F0938A05E0938905CA
:1037700071C0D80140E050E0AE17BF0750F4129678
:103780002D913C911397AD012115310509F1D90116
:10379000F3CF9D01DA013383228360817181860F2B
:1037A000971F8217930769F4EC0128813981260F4E
:1037B000371F2E5F3F4F318320838A819B81938304
:1037C0008283452B29F4F0938C05E0938B0542C04E
:1037D0001396FC93EE931297ED01499159919E0136
:1037E000240F351FE217F30771F480819181840F54
:1037F000951F029611969C938E93828193811396C6
:103800009C938E931297E0E0F0E0D80112968D9190
:103810009C911397009719F0F8018C01F6CF8D91C8
:103820009C9198012E5F3F4F820F931F2091890535
:1038300030918A052817390769F4309729F41092D6
:103840008C0510928B0502C01382128210938A0598
:1038500000938905DF91CF911F910F910895A0E00A
:10386000B0E0E5E3FCE10C94C91EEC01009721F403
:10387000CB010E94021BB8C0FC01E60FF71F9C01A0
:1038800022503109E217F30708F4ACC0D9010D91B9
:103890001C91119706171707B0F00530110508F4B1
:1038A0009FC0C80104978617970708F499C0025073
:1038B0001109061B170B019311936D937C93CF0194
:1038C0000E94971B8DC05B01A01AB10A4C01800EAB
:1038D000911EA0918B05B0918C0540E050E0E12C49
:1038E000F12C109709F44AC0A815B905D1F56D90CF
:1038F0007C901197630182E0C80ED11CCA14DB04CE
:1039000080F1A3014A195B096A0182E0C80ED11C4B
:103910001296BC9012971396AC91B5E0CB16D104D9
:1039200040F0B282A38351834083D9016D937C938D
:103930000AC00E5F1F4FC301800F911FF9019183D1
:103940008083EB2DFA2FE114F10431F0D7011396A7
:10395000FC93EE93129744C0F0938C05E0938B0593
:103960003FC08D919C9111974817590708F4AC01FD
:103970007D0112960D90BC91A02DB3CF8091890549
:1039800090918A0588159905E1F446175707C8F400
:103990008091060190910701009741F48DB79EB781
:1039A00040910A0150910B01841B950BE817F90710
:1039B000C8F4F0938A05E0938905F9017183608367
:1039C0000FC0CB010E94021B7C01009759F0A80197
:1039D000BE010E94FE1CCE010E94971BC70104C0BD
:1039E000CE0102C080E090E0CDB7DEB7EEE00C94EF
:1039F000E51E81E090E0F8940C94FC1EFB01DC01D4
:103A000002C001900D9241505040D8F70895FB013B
:103A1000DC0101900D920020E1F70895FB01DC012B
:103A20004150504048F001900D920020C9F701C06C
:103A30001D9241505040E0F708954532510520F461
:103A4000423010F00C94281DFB011082CB01089528
:103A5000BB274A3031F4992322F4BDE29095819539
:103A60009F4F0C94561DBB27FA01A62F62177105B4
:103A700081059105330B30FB66F0AA27660F771F8F
:103A8000881F991FAA1FA21710F0A21B6395385018
:103A9000A9F7A05DAA3308F0A95DA19336F7B1118B
:103AA000B1931082CA010C946F1DBB27FB015527EF
:103AB000AA27880F991FAA1FA41710F0A41B83958B
:103AC0005051B9F7A05DAA3308F0A95DA193009702
:103AD00079F7B111B1931192CB010C946F1DDC01F8
:103AE000FC01672F71917723E1F7329704C07C9135
:103AF0006D9370836291AE17BF07C8F308950E945B
:103B0000C11D08F481E00895E89409C097FB3EF4D4
:103B100090958095709561957F4F8F4F9F4F99231A
:103B2000A9F0F92F96E9BB279395F6958795779598
:103B30006795B795F111F8CFFAF4BB0F11F460FF58
:103B40001BC06F5F7F4F8F4F9F4F16C0882311F0B0
:103B500096E911C0772321F09EE8872F762F05C0C4
:103B6000662371F096E8862F70E060E02AF09A955F
:103B7000660F771F881FDAF7880F9695879597F954
:103B80000895990F0008550FAA0BE0E8FEEF1616EE
:103B90001706E807F907C0F012161306E407F50741
:103BA00098F0621B730B840B950B39F40A2661F0B5
:103BB000232B242B252B21F408950A2609F4A14058
:103BC000A6958FEF811D811D08950E94F81D0C940C
:103BD000691E0E945B1E38F00E94621E20F0952331
:103BE00011F00C94521E0C94581E11240C949D1E1E
:103BF0000E947A1E70F3959FC1F3950F50E0551FF8
:103C0000629FF001729FBB27F00DB11D639FAA2731
:103C1000F00DB11DAA1F649F6627B00DA11D661F80
:103C2000829F2227B00DA11D621F739FB00DA11DA1
:103C3000621F839FA00D611D221F749F3327A00D5B
:103C4000611D231F849F600D211D822F762F6A2FF7
:103C500011249F5750409AF0F1F088234AF0EE0F5C
:103C6000FF1FBB1F661F771F881F91505040A9F789
:103C70009E3F510580F00C94521E0C949D1E5F3F98
:103C8000E4F3983ED4F3869577956795B795F795C5
:103C9000E7959F5FC1F7FE2B880F911D969587953D
:103CA00097F9089597F99F6780E870E060E00895BC
:103CB0009FEF80EC089500240A9416161706180644
:103CC0000906089500240A94121613061406050620
:103CD0000895092E0394000C11F4882352F0BB0FB1
:103CE00040F4BF2B11F460FF04C06F5F7F4F8F4F14
:103CF0009F4F089557FD9058440F551F59F05F3F4F
:103D000071F04795880F97FB991F61F09F3F79F0FD
:103D100087950895121613061406551FF2CF46957F
:103D2000F1DF08C0161617061806991FF1CF869501
:103D30007105610508940895E894BB2766277727E5
:103D4000CB0197F90895A1E21A2EAA1BBB1BFD0116
:103D50000DC0AA1FBB1FEE1FFF1FA217B307E4076A
:103D6000F50720F0A21BB30BE40BF50B661F771FC2
:103D7000881F991F1A9469F76095709580959095A2
:103D80009B01AC01BD01CF0108952F923F924F924C
:103D90005F926F927F928F929F92AF92BF92CF92DB
:103DA000DF92EF92FF920F931F93CF93DF93CDB7E4
:103DB000DEB7CA1BDB0B0FB6F894DEBF0FBECDBF5C
:103DC00009942A88398848885F846E847D848C842D
:103DD0009B84AA84B984C884DF80EE80FD800C8136
:103DE0001B81AA81B981CE0FD11D0FB6F894DEBF19
:0C3DF0000FBECDBFED010895F894FFCF89
:103DFC0001002200200000008D0580005E00BC0048
:103E0C00770100000000F8076C0CC1079F07B3078F
:103E1C003F08564D4450565F317C315F564D4450EF
:103E2C00560D0A00564D4450455F31007C005F56DC
:103E3C004D4450450D0A00564D4450435F005F56AB
:103E4C004D4450430D0A00205265717565737469B9
:103E5C006E672074656D7065726174757265732E12
:103E6C002E2E00444F4E450054656D706572617482
:103E7C0075726520666F72204465766963652031C2
:103E8C002069733A20006E616E00696E66006F7671
:103E9C0066004C3A00483A006D6F64653D007768E7
:103EAC00696C65206673737373696E697368656496
:103EBC00007374617274206D656E750053657420A7
:103ECC00486967682054656D7000536574204C6FA9
:103EDC00772054656D7000457869740072756E209A
:103EEC006564643A0072756E20646F776E3A006395
:103EFC006865636B20636F756E74657200736574AF
:103F0C00206D656E753A00736574537461747573C6
:103F1C003A00736574206973206368006C6F7720B6
:103F2C00697320616374697665006C6F77007768DC
:103F3C00696C6520657869740074696D65206B6EB9
:043F4C006F773A0051
:00000001FF
