:100000000C94E3000C940B010C940B010C940B0169
:100010000C940B010C940B010C940B010C940B0130
:100020000C940B010C940B010C940B010C940B0120
:100030000C940B010C940B010C940B010C940B0110
:100040000C94FE040C940B010C94CC040C94A604A8
:100050000C940B010C940B010C940B010C940B01F0
:100060000C940B010C940B0100000008000201002D
:100070000003040700000000000000001112131428
:1000800015160A0B0C0D0E0F0001020304050000EB
:100090000000250028002B0000000000240027009D
:1000A0002A000404040404040404020202020202FA
:1000B000030303030303010204081020408001022C
:1000C0000408102001020408102000407A10F35A9E
:1000D00000A0724E18090010A5D4E80000E8764888
:1000E000170000E40B54020000CA9A3B000000E134
:1000F000F505000080969800000040420F000000C7
:10010000A08601000000102700000000E8030000A6
:1001100000006400000000000A0000000000010070
:10012000000000002C76D888DC674F0823DFC1DF91
:10013000AE59E1B1B796E5E3E453C63AE651997694
:1001400096E8E6C28426EB898C9B62ED407C6FFCCE
:10015000EFBC9C9F40F2BAA56FA5F490055A2AF710
:100160005C936B6CF9676DC11BFCE0E40D47FEF519
:1001700020E6B500D0ED902E030094357705008081
:10018000841E080000204E0A000000C80C333333E0
:10019000330F986E12831141EF8D2114893BE65580
:1001A00016CFFEE6DB18D1844B381BF77C1D901D63
:1001B000A4BBE424203284725E228100C9F124ECC5
:1001C000A1E53D27480511241FBECFEFD8E0DEBFD3
:1001D000CDBF11E0A0E0B1E0EAE4FCE102C005908F
:1001E0000D92AA36B107D9F722E0AAE6B1E001C024
:1001F0001D92A333B207E1F710E0C3EED0E004C0D4
:100200002197FE010E941709C23ED107C9F70E943B
:100210008E050C94230E0C94000090E0FC01EA542F
:10022000FF4F2491FC01EE55FF4F8491882399F0F4
:1002300090E0880F991FFC01E856FF4FA591B491FB
:10024000FC01E257FF4F859194918FB7F894EC91A0
:10025000E22BEC938FBF0895CF92DF92EF92FF9243
:100260000F931F93CF93DF936C017A018B01C0E052
:10027000D0E0CE15DF0589F0D8016D918D01D60152
:10028000ED91FC910190F081E02DC6010995892B3B
:1002900011F47E0102C02196ECCFC701DF91CF910E
:1002A0001F910F91FF90EF90DF90CF900895FC0188
:1002B000918D828D981761F0828DDF01A80FB11D9D
:1002C0005D968C91928D9F5F9F73928F90E00895C1
:1002D0008FEF9FEF0895FC01918D828D981731F07B
:1002E000828DE80FF11D858D90E008958FEF9FEFCF
:1002F0000895FC01918D228D892F90E0805C9F4FA5
:10030000821B91098F73992708958AE791E00E94D3
:10031000790121E0892B09F420E0822F0895FC0166
:10032000848DDF01A80FB11DA35ABF4F2C91848D7E
:1003300090E001968F739927848FA689B7892C93B3
:10034000A089B1898C9180648C93938D848D98134E
:1003500006C00288F389E02D80818F7D8083089517
:10036000EF92FF920F931F93CF93DF93EC0181E005
:10037000888F9B8D8C8D981305C0E889F9898081C1
:1003800085FD24C0F62E0B8D10E00F5F1F4F0F73FD
:100390001127E02E8C8DE8120CC00FB607FCFACFA7
:1003A000E889F989808185FFF5CFCE010E948F0110
:1003B000F1CF8B8DFE01E80FF11DE35AFF4FF08264
:1003C0000B8FEA89FB898081806207C0EE89FF89F3
:1003D0006083E889F98980818064808381E090E08E
:1003E000DF91CF911F910F91FF90EF900895CF93E0
:1003F000DF93EC01888D8823C9F0EA89FB8980812D
:1004000085FD05C0A889B9898C9186FD0FC00FB6FE
:1004100007FCF5CF808185FFF2CFA889B9898C913F
:1004200085FFEDCFCE010E948F01E7CFDF91CF9105
:10043000089580E090E0892B29F00E9485018111C8
:100440000C940000089590E0FC01E859FF4F3491AE
:10045000FC01EA54FF4F2491FC01EE55FF4FE4915B
:10046000EE2309F43BC0332339F1333091F038F4F3
:100470003130A9F0323001F584B58F7D12C03730AC
:1004800091F03830A1F03430B9F4809180008F7D44
:1004900003C0809180008F77809380000DC084B569
:1004A0008F7784BD09C08091B0008F7703C08091A1
:1004B000B0008F7D8093B000F0E0EE0FFF1FE25799
:1004C000FF4FA591B4918FB7F894EC91611103C0DF
:1004D00020952E2301C02E2B2C938FBF08952091A1
:1004E0001702309118024091190250911A022417F4
:1004F000350721F0682F822F0C9423020895823053
:10050000910538F0880F991F880F991F059701975B
:10051000F1F708953FB7F89480916B0190916C01C9
:10052000A0916D01B0916E0126B5A89B05C02F3F2B
:1005300019F00196A11DB11D3FBFBA2FA92F982F09
:100540008827820F911DA11DB11DBC01CD0142E084
:10055000660F771F881F991F4A95D1F708958F92CC
:100560009F92AF92BF92CF92DF92EF92FF926B0178
:100570007C010E948A024B015C01C114D104E10498
:10058000F104F1F00E948A02DC01CB01881999097B
:10059000AA09BB09883E9340A105B10570F321E08B
:1005A000C21AD108E108F10888EE880E83E0981E8F
:1005B000A11CB11CC114D104E104F10419F7DDCF71
:1005C000FF90EF90DF90CF90BF90AF909F908F9073
:1005D00008958EBD00000DB407FEFDCF8EB50895C1
:1005E000CF93DF939CB59F7D9CBD9CB5937F9CBDB5
:1005F0009CB59C7F9CBD9DB591609DBDC7E1D2E03F
:10060000682F8A810E9423028C899D89DF91CF9176
:100610000C947F0281E00C94F00280E00C94F002D4
:10062000CF93DF931F92CDB7DEB70E940D0381EE0B
:100630000E94E90289830E940A0389810F90DF9159
:10064000CF910895CF93DF931F92CDB7DEB7898303
:100650000E940D0389818F710E94E9028FEF0E9431
:10066000E90289830E940A0389810F90DF91CF916B
:1006700008951F93CF93DF9300D0CDB7DEB76A8381
:1006800089830E940D0389818F7180620E94E90233
:10069000182F6A81862F0E94E9020E940A03812F87
:1006A0000F900F90DF91CF911F91089580E00E94ED
:1006B000220381FD0BC0682F626080E00E94390335
:1006C00065E070E080E090E00C94AF02089580E077
:1006D0000E946F0280912702909128020E947F025F
:1006E0008DE10E94220381FF08C080912702909132
:1006F00028020E947F020E94100380E00E942203D1
:10070000682F6E7F80E00E94390382E00E942203FE
:10071000E8E8F0E0E49161E070E001C0660FEA957E
:10072000EAF7682B82E00C943903EF92FF920F9363
:100730001F93CF93DF9300D01F92CDB7DEB7162F54
:100740004A837B8389830E940D0389818F71806234
:100750000E94E902082FE12E7B81F72E4A81140FB7
:100760001E1531F0F70181917F010E94E902F8CF57
:100770000E940A03802F0F900F900F90DF91CF916E
:100780001F910F91FF90EF9008950E94560380E013
:100790000E942203682F616080E00E94390360E7B5
:1007A00087E00E94390381E00E946F02809120025D
:1007B000882341F04091250260E272E08AE00E94C5
:1007C000950312C082E00E942203E8E8F0E0E49181
:1007D00021E030E001C0220FEA95EAF72095622F70
:1007E000682382E00E9439038DE10E94220381FD8B
:1007F0000C9410030895009769F0FC01019000200B
:10080000E9F73197AF01481B590BBC018AE791E02A
:100810000C942C0180E090E00895CF93DF930E9428
:10082000FB03EC0186E191E00E94FB038C0F9D1F0E
:10083000DF91CF9108950F931F93CF93DF931F9272
:10084000CDB7DEB788EC90E090937501809374018A
:1008500090911E02192F911111E080911F028111B8
:1008600003C0092F011B01C000E00E940D0380EAB4
:100870000E94E902112321F0809174010E94E90293
:10088000102F112329F080E00E94E9021150F9CFC6
:100890000E940A0381E00E946F020E940D038FEF05
:1008A0000E94E90289830E940A0389818073A9F367
:1008B00080E00E946F0260E787E00E94390384FDB8
:1008C0000E94100389E191E00F90DF91CF911F9179
:1008D0000F910C940D040E94140B0F931F93CF9350
:1008E000DF93EC0188819981009729F02A813B816F
:1008F0002617370788F48B016F5F7F4F0E944A0AE3
:10090000009761F0998388831B830A832C813D8142
:10091000232B11F4FC01108281E001C080E0DF9103
:10092000CF911F910F910895CF93DF93EC018881B0
:100930009981009711F00E94B209198218821D82D4
:100940001C821B821A82DF91CF9108951F920F9211
:100950000FB60F9211242F933F934F935F936F9392
:100960007F938F939F93AF93BF93EF93FF938AE708
:1009700091E00E948F01FF91EF91BF91AF919F9104
:100980008F917F916F915F914F913F912F910F9038
:100990000FBE0F901F9018951F920F920FB60F92D7
:1009A00011242F938F939F93EF93FF93E0918A01EC
:1009B000F0918B018081E0919001F091910182FD95
:1009C00012C09081809193018F5F8F732091940169
:1009D000821751F0E0919301F0E0E658FE4F958FB9
:1009E0008093930101C08081FF91EF919F918F913E
:1009F0002F910F900FBE0F901F9018951F920F927E
:100A00000FB60F9211242F933F938F939F93AF9321
:100A1000BF938091700190917101A0917201B0918A
:100A2000730130916A0123E0230F2D3720F40196E2
:100A3000A11DB11D05C026E8230F0296A11DB11D01
:100A400020936A018093700190937101A0937201C9
:100A5000B093730180916B0190916C01A0916D0135
:100A6000B0916E010196A11DB11D80936B01909311
:100A70006C01A0936D01B0936E01BF91AF919F91F6
:100A80008F913F912F910F900FBE0F901F9018954F
:100A9000EAE7F1E01382128288EE93E0A0E0B0E092
:100AA00084839583A683B7838AE091E091838083D2
:100AB00085EC90E09587848784EC90E09787868723
:100AC00080EC90E0918B808B81EC90E0938B828B1B
:100AD00082EC90E0958B848B86EC90E0978B868BF4
:100AE000118E128E138E148EE7E1F2E089E090E011
:100AF000918380838AE090E093838283168280E2F0
:100B00008783108685E0868785E090E0A0E0B0E0EE
:100B1000848B958BA68BB78B11860895CF93DF932B
:100B2000CDB7DEB7E7970FB6F894DEBF0FBECDBFE7
:100B3000789484B5826084BD84B5816084BD85B5B8
:100B4000826085BD85B5816085BD80916E008160C4
:100B500080936E001092810080918100826080936A
:100B6000810080918100816080938100809180006C
:100B70008160809380008091B10084608093B10097
:100B80008091B00081608093B00080917A00846091
:100B900080937A0080917A00826080937A008091BD
:100BA0007A00816080937A0080917A0080688093D7
:100BB0007A001092C1008AE791E00E94F701E0916B
:100BC0008C01F0918D0180818F7E8083E0918C017A
:100BD000F0918D018081877F8083E0918C01F0917D
:100BE0008D0180818F778083E0918C01F0918D0160
:100BF00080818F7D80838091940180939301809187
:100C00001702909118022091190230911A0282174E
:100C1000930711F00E940D018091190290911A0220
:100C200020911702309118022817390711F00E94FD
:100C30000D011FB7F89480916F01811124C0ECEA77
:100C4000F0E08491E0ECF0E09491E82FF0E0EE0F1A
:100C5000FF1FE856FF4FA591B491EC91E92321F4D1
:100C600061E08AE00E9423028AE00E940D018CB5B7
:100C700080618CBD8CB580648CBD8DE00E940D01BF
:100C80008BE00E940D0180916F018F5F80936F0157
:100C90001FBF80E00E946F0281E00E94F00265E0C9
:100CA00070E080E090E00E94AF026CE080E00E9483
:100CB00039036FE584E00E94390386E00E94220335
:100CC000877D182F10628BE990E0A0E0B0E0809360
:100CD000270290932802A0932902B0932A02612F41
:100CE00086E00E94390386E00E942203811709F4FE
:100CF000C1C086E00E94220386E00E94220345E5EF
:100D000050E060E070E04093270250932802609327
:100D1000290270932A02682F677D86E00E943903BA
:100D200086E00E9422030E940D0380E50E94E902F2
:100D300083E70E94E9020E940A0360E08DE10E94BD
:100D4000390360E08CE10E94390310921F0260E7D2
:100D500087E00E9439036CE485E00E9439030E9419
:100D60000D0382EE0E94E9020E940A030E94100312
:100D70000E94560380E00E942203682F6E7F80E06D
:100D80000E94390381EEF82EFAA610EF1BA71CA7CC
:100D900008EE0DA788EA8EA71FA618AA19AA4091E7
:100DA0002502BE01665D7F4F8AE00E949503409157
:100DB0002502BE01665D7F4F80E10E949503609130
:100DC0001E0281E10E943903FAA21BA31CA30DA3FA
:100DD0000EA31FA218A619A6E3E8F0E084914091A3
:100DE0002502BE016E5D7F4F0E949503EDE7F0E0A6
:100DF000849160911E020E94390382E00E942203C6
:100E0000E9E8F0E0E49161E070E001C0660FEA9586
:100E1000EAF7682B82E00E9439030E94C50383E051
:100E20000E940D0182E00E940D019AE0892E912C12
:100E3000A12CB12C65E070E080E090E00E94AF0250
:100E40000E9467030E941B0465E070E080E090E070
:100E50000E94AF020E94C50387E10E94220380FD29
:100E6000AAC161E082E00E9423028BE291E00E942D
:100E70000D0448C081E080931D023BCF0E940A030D
:100E800060E787E00E943903C0907401D09075013B
:100E90000D2C000CEE08FF08F7FE5DC0E0917A0112
:100EA000F0917B010190F081E02D6DE28AE791E005
:100EB000099522273327A9012C193D094E095F09FD
:100EC00019A28E010F5D1F4FCA01B901A50194013E
:100ED0000E94F508605DF80162938F0121153105CC
:100EE0004105510589F7C8010E94FB0386E191E0A5
:100EF0000E94FB038091740190917501803F9105E0
:100F000009F03FC01092760110927701109278019B
:100F10001092790110911E0201E0111101C000E050
:100F200080911F02811102C0101B01C010E00E94BD
:100F30000D0381E60E94E902002329F08FEF0E9451
:100F4000E90280937401112309F498CF8FEF0E9476
:100F5000E9021150F8CFA701960119A28E010F5D89
:100F60001F4FCA01B901A50194010E94F508605DF7
:100F7000F80162938F01211531054105510589F76B
:100F8000B2CF8F36910589F41092760110927701D5
:100F9000109278011092790161E083E00E942302AF
:100FA00064EF71E080E090E003C1009721F08D3D97
:100FB000910509F0E5C0409076015090770160906E
:100FC0007801709079014114510461047104A1F415
:100FD0002FB7F8948091700190917101A0917201E6
:100FE000B09173012FBF8093760190937701A09306
:100FF0007801B09379018ECF65E070E080E090E0F9
:101000000E94AF020E9467030E941B0465E070E02B
:1010100080E090E00E94AF020E94C5032FB7F894D1
:101020008091700190917101A0917201B091730152
:101030002FBF1BAA1AAA1DAA1CAA1FAA1EAABC015E
:10104000CD0164197509860997090E94AF0D8E01BB
:101050000F5F1F4F22E044E00E94290B7C010097A4
:1010600079F0FC0101900020E9F731978F01081B0E
:10107000190BB801CE01C2960E946D04811105C002
:10108000CE01C2960E94940407C01FAB0EABB701FD
:101090008AA99BA90E94220B1A8219821C821B8298
:1010A0001E821D8269E070E0CE0101960E946D04EF
:1010B000811105C0CE0101960E9494040AC089E006
:1010C00090E09E838D8361E271E089819A810E9424
:1010D000220B8EA99FA9EAA8FBA80D811E81E1140D
:1010E000F10409F47DC00097A9F0080F191FB80199
:1010F000CE0101960E946D04882309F471C02981F4
:101100003A818D819E81B701820F931F0E94220B2D
:101110001E830D834D815E8169817A818AE791E02A
:101120000E942C0186E191E00E94FB0389819A8153
:101130000E94B2098AA99BA90E94B2092FB7F8940C
:101140008091700190917101A0917201B091730131
:101150002FBF84199509A609B70981319742A105C6
:10116000B10508F4D7CE80E691E00E940D041092FC
:1011700076011092770110927801109279012DC0BA
:101180008E3D910509F0C6CE60E083E00E94230207
:1011900061E082E00E9423021092760110927701B2
:1011A000109278011092790164E670E080E090E09E
:1011B0000E94AF02AFCE83E491E00E940D0460E094
:1011C00083E00E94230260E082E00E94230264EF39
:1011D00071E080E090E00E94AF020E9419022ACEE6
:1011E000CE0101960E94940495CFA1E21A2EAA1B6B
:1011F000BB1BFD010DC0AA1FBB1FEE1FFF1FA217C7
:10120000B307E407F50720F0A21BB30BE40BF50BC3
:10121000661F771F881F991F1A9469F7609570954C
:10122000809590959B01AC01BD01CF010895EE0F13
:10123000FF1F0590F491E02D0994CF93DF93823046
:10124000910510F482E090E0E0913102F0913202D9
:1012500020E030E0C0E0D0E0309711F140815181D2
:1012600048175907C0F04817590761F482819381E4
:10127000209719F09B838A832BC09093320280932E
:10128000310226C02115310519F04217530718F411
:101290009A01BE01DF01EF010280F381E02DDCCF76
:1012A0002115310509F1281B390B2430310590F443
:1012B00012968D919C9113976115710521F0FB0198
:1012C0009383828304C09093320280933102FD01A4
:1012D000329644C0FD01E20FF31F81939193225097
:1012E00031092D933C933AC020912F023091300266
:1012F000232B41F4209102013091030130933002FD
:1013000020932F0220910001309101012115310518
:1013100041F42DB73EB74091040150910501241BC3
:10132000350BE0912F02F0913002E217F307A0F4A1
:101330002E1B3F0B2817390778F0AC014E5F5F4F2B
:101340002417350748F04E0F5F1F5093300240932B
:101350002F028193919302C0E0E0F0E0CF01DF9192
:10136000CF9108950F931F93CF93DF93009709F4C4
:101370008CC0FC01329713821282009131021091CD
:1013800032020115110581F420813181820F931FF2
:1013900020912F02309130022817390779F5F09308
:1013A0003002E0932F0271C0D80140E050E0AE1748
:1013B000BF0750F412962D913C911397AD01211562
:1013C000310509F1D901F3CF9D01DA01338322837D
:1013D00060817181860F971F8217930769F4EC0172
:1013E00028813981260F371F2E5F3F4F318320839D
:1013F0008A819B8193838283452B29F4F093320267
:10140000E093310242C01396FC93EE931297ED01E4
:10141000499159919E01240F351FE217F30771F48A
:1014200080819181840F951F029611969C938E93D3
:101430008281938113969C938E931297E0E0F0E063
:10144000D80112968D919C911397009719F0F8018D
:101450008C01F6CF8D919C9198012E5F3F4F820FAA
:10146000931F20912F02309130022817390769F419
:10147000309729F4109232021092310202C0138286
:1014800012821093300200932F02DF91CF911F91AF
:101490000F910895A0E0B0E0E0E5FAE00C94F00DC3
:1014A000EC01009721F4CB010E941D09B8C0FC019A
:1014B000E60FF71F9C0122503109E217F30708F4E9
:1014C000ACC0D9010D911C91119706171707B0F008
:1014D0000530110508F49FC0C801049786179707C7
:1014E00008F499C002501109061B170B01931193C0
:1014F0006D937C93CF010E94B2098DC05B01A01A4D
:10150000B10A4C01800E911EA0913102B0913202BD
:1015100040E050E0E12CF12C109709F44AC0A815E6
:10152000B905D1F56D907C901197630182E0C80EEA
:10153000D11CCA14DB0480F1A3014A195B096A01BA
:1015400082E0C80ED11C1296BC9012971396AC91F3
:10155000B5E0CB16D10440F0B282A383518340831F
:10156000D9016D937C930AC00E5F1F4FC301800F9A
:10157000911FF90191838083EB2DFA2FE114F1047F
:1015800031F0D7011396FC93EE93129744C0F09379
:101590003202E09331023FC08D919C911197481720
:1015A000590708F4AC017D0112960D90BC91A02D55
:1015B000B3CF80912F029091300288159905E1F404
:1015C00046175707C8F480910001909101010097D8
:1015D00041F48DB79EB74091040150910501841BE1
:1015E000950BE817F907C8F4F0933002E0932F0247
:1015F000F901718360830FC0CB010E941D097C013A
:10160000009759F0A801BE010E94190BCE010E945B
:10161000B209C70104C0CE0102C080E090E0CDB79E
:10162000DEB7EEE00C940C0E81E090E0F8940C94A0
:10163000230EFB01DC0102C001900D92415050408D
:10164000D8F70895FB01DC0101900D920020E1F72D
:101650000895EF920F931F93CF93DF93E80147FD17
:1016600002C034E001C034E1E42F440FFF0BF7FF68
:1016700003C0F195E195F109E32E022F2E2FAE0163
:101680000E94490BCE01DF91CF911F910F91EF90F6
:1016900008954F925F926F927F929F92AF92BF9206
:1016A000CF92DF92EF92FF920F931F93CF93DF932E
:1016B000CDB7DEB729970FB6F894DEBF0FBECDBF0A
:1016C0006A01122FB02E2BE3201720F0FF24F39491
:1016D000F00E02C0BCE3FB2E0F2D27E0AE014F5FE2
:1016E0005F4F0E94D70CAC018981982F997091307F
:1016F00031F0E1FC06C0E0FE06C090E205C09DE2CC
:1017000003C09BE201C090E0EE2DE07183FF3CC07E
:10171000911102C083E001C084E0811718F4212FE9
:10172000281B01C020E0E1110BC0F601822F30E23E
:10173000882319F031938150FBCFC20ED11C20E0D9
:10174000992329F0D6019C93F60131966F01C601C9
:101750000396E2FE0AC03EE4D6013C9341E41196B2
:101760004C93119712963C9306C03EE6F6013083E7
:1017700041E641833283FC01322F40E2332309F4F6
:1017800042C041933150FACF82FF44C0911102C050
:1017900083E001C084E0811718F4212F281B01C0C9
:1017A00020E0E1110BC0F601822F30E2882319F00E
:1017B00031938150FBCFC20ED11C20E0992329F038
:1017C000D6019C93F60131966F01C6010396E2FEA5
:1017D0000BC039E4D6013C933EE411963C9311973B
:1017E00036E412963C9307C039E6F60130833EE6B4
:1017F000318336E63283FC01322F40E2332319F085
:1018000041933150FBCFFC01E20FF11D10828EEFAE
:101810009FEFB7C0F1E0911101C0F0E06F2F70E0D1
:101820001416150624F49A012F5F3F4F02C021E0E1
:1018300030E0260F371FBB2029F06B2D70E06F5F63
:101840007F4F02C060E070E0260F371F612F70E00D
:10185000261737071CF4121B212F01C020E03E2D54
:10186000387159F4D601322F60E2332319F06D93A9
:101870003150FBCFC20ED11C20E0FF2331F0D60146
:101880009C93B6016F5F7F4F6B01E1110BC0F601B6
:10189000922F30E3992319F031939150FBCFC20E70
:1018A000D11C20E09F2D940F3A81782F7071A72EC4
:1018B00084FF03C0313309F49150191624F4993090
:1018C00018F098E001C091E0E42F852F57FF02C087
:1018D000E0E080E06E2F782FE0E0F0E0AEE29A2EBC
:1018E0003A01691A71082A01461A570A0B2D10E0AD
:1018F0001195019511096F3F8FEF780729F4D601F3
:101900009C92C60101966C014617570784F0661633
:1019100077066CF47F01E40CF51CA1E0B0E0AC0F9D
:10192000BD1FEA0EFB1ED7011196BC9002C090E3CA
:10193000B92E615071093196C60101967C0160177C
:10194000710724F0D601BC926C01D5CF64177507DE
:1019500041F4363320F4353321F4A11002C081E381
:10196000B82EF601B082F701822F90E2882319F099
:1019700091938150FBCFF701E20FF11D108280E0BF
:1019800090E029960FB6F894DEBF0FBECDBFDF9171
:10199000CF911F910F91FF90EF90DF90CF90BF906C
:1019A000AF909F907F906F905F904F9008952830F8
:1019B00008F027E03327DA01990F311D87FD916088
:1019C00000966105710539F432602E5F3D9330E376
:1019D0002A95E1F708959F3F30F080387105610541
:1019E00009F03C5F3C5F3D93913008F08068911DA9
:1019F000DF93CF931F930F93FF92EF92192F987F4E
:101A00009695E92F96959695E90FFF27EC5DFE4F89
:101A100099273327EE24FF24A701E70105900894B6
:101A2000079428F4360FE71EF81E491F511D660F54
:101A3000771F881F991F0694A1F70590079428F433
:101A4000E70EF81E491F561FC11D770F881F991FEB
:101A5000661F0694A1F70590079428F4F80E491F15
:101A6000561FC71FD11D880F991F661F771F069429
:101A7000A1F70590079420F4490F561FC71FD81FE0
:101A8000990F661F771F881F0694A9F784911095F8
:101A9000177041F0D695C79557954795F794E794F9
:101AA0001A95C1F7EAECF0E068941590159135911C
:101AB0006591959105907FE27395E118F10A430BCA
:101AC000560BC90BD009C0F7E10CF11E431F561F7E
:101AD000C91FD01D7EF4703311F48A95E6CFE894C7
:101AE000015030F0080F0AF40027021708F4202FE5
:101AF0002395022F7A3328F079E37D932A95E9F72D
:101B000010C07D932A9589F6069497956795379529
:101B100017951794E118F10A430B560BC90BD0091E
:101B200098F023957E9173957A3308F070E37C9357
:101B30002013B8F77E9170617D9330F0839571E347
:101B40007D9370E32A95E1F71124EF90FF900F91B8
:101B50001F91CF91DF91992787FD90950895E89483
:101B600009C097FB3EF490958095709561957F4FE5
:101B70008F4F9F4F9923A9F0F92F96E9BB27939593
:101B8000F695879577956795B795F111F8CFFAF4A3
:101B9000BB0F11F460FF1BC06F5F7F4F8F4F9F4FD4
:101BA00016C0882311F096E911C0772321F09EE832
:101BB000872F762F05C0662371F096E8862F70E098
:101BC00060E02AF09A95660F771F881FDAF7880F72
:101BD0009695879597F908952F923F924F925F922D
:101BE0006F927F928F929F92AF92BF92CF92DF922D
:101BF000EF92FF920F931F93CF93DF93CDB7DEB792
:101C0000CA1BDB0B0FB6F894DEBF0FBECDBF099425
:101C10002A88398848885F846E847D848C849B847C
:101C2000AA84B984C884DF80EE80FD800C811B818A
:101C3000AA81B981CE0FD11D0FB6F894DEBF0FBEB9
:0A1C4000CDBFED010895F894FFCF29
:101C4A0000003302800000000000B0012C0179017D
:101C5A0057016B01F7010D0A006973203A323030DF
:101C6A000074696D65206973203A006F6B3A202011
:101C7A00526164696F205472616E736D697373691E
:101C8A006F6E004572726F723A204E6F2052616415
:101C9A00696F205472616E736D697373696F6E0038
:0A1CAA006F666666666666660000F7
:00000001FF
