:100000000C9462000C948A000C948A000C948A0070
:100010000C948A000C948A000C948A000C948A0038
:100020000C948A000C948A000C948A000C948A0028
:100030000C948A000C948A000C948A000C948A0018
:100040000C94A5030C948A000C9473030C944D0338
:100050000C948A000C948A000C948A000C948A00F8
:100060000C948A000C948A000000000023002600F3
:10007000290000000008000201000003040700003E
:1000800000000000000000000000250028002B00F8
:1000900000000000240027002A00040404040404D3
:1000A0000404020202020202030303030303010227
:1000B00004081020408001020408102001020408F6
:1000C0001020EF0311241FBECFEFD8E0DEBFCDBF5D
:1000D00011E0A0E0B1E0E6EEFBE002C005900D9279
:1000E000A031B107D9F721E0A0E1B1E001C01D9234
:1000F000A13DB207E1F710E0C2E6D0E004C02197CD
:10010000FE010E94E605C136D107C9F70E943504F9
:100110000C94F1050C94000090E0FC01E255FF4FB7
:100120002491FC01E656FF4F8491882399F090E0DA
:10013000880F991FFC01E057FF4FA591B491FC0176
:10014000EA57FF4F859194918FB7F894EC91E22B89
:10015000EC938FBF0895CF92DF92EF92FF920F93AF
:100160001F93CF93DF936C017A018B01C0E0D0E045
:10017000CE15DF0589F0D8016D918D01D601ED9185
:10018000FC910190F081E02DC6010995892B11F4B5
:100190007E0102C02196ECCFC701DF91CF911F9164
:1001A0000F91FF90EF90DF90CF900895FC01918D1B
:1001B000828D981761F0828DDF01A80FB11D5D96C9
:1001C0008C91928D9F5F9F73928F90E008958FEF37
:1001D0009FEF0895FC01918D828D981731F0828DEB
:1001E000E80FF11D858D90E008958FEF9FEF089542
:1001F000FC01918D228D892F90E0805C9F4F821BA6
:1002000091098F73992708958CE191E00E94F8007D
:1002100021E0892B09F420E0822F0895FC01848DD0
:10022000DF01A80FB11DA35ABF4F2C91848D90E020
:1002300001968F739927848FA689B7892C93A089FB
:10024000B1898C9180648C93938D848D981306C0B2
:100250000288F389E02D80818F7D80830895EF925D
:10026000FF920F931F93CF93DF93EC0181E0888F70
:100270009B8D8C8D981305C0E889F989808185FD57
:1002800024C0F62E0B8D10E00F5F1F4F0F73112748
:10029000E02E8C8DE8120CC00FB607FCFACFE8896F
:1002A000F989808185FFF5CFCE010E940E01F1CF43
:1002B0008B8DFE01E80FF11DE35AFF4FF0820B8F8B
:1002C000EA89FB898081806207C0EE89FF896083AB
:1002D000E889F98980818064808381E090E0DF9102
:1002E000CF911F910F91FF90EF900895CF93DF93DF
:1002F000EC01888D8823C9F0EA89FB89808185FD1E
:1003000005C0A889B9898C9186FD0FC00FB607FC7E
:10031000F5CF808185FFF2CFA889B9898C9185FFBF
:10032000EDCFCE010E940E01E7CFDF91CF9108956E
:1003300080E090E0892B29F00E94040181110C9447
:1003400000000895833081F028F4813099F08230E4
:10035000A1F008958730A9F08830B9F08430D1F445
:10036000809180008F7D03C0809180008F77809383
:100370008000089584B58F7702C084B58F7D84BDD9
:1003800008958091B0008F7703C08091B0008F7D79
:100390008093B0000895CF93DF93282F30E0F901C8
:1003A000EE58FF4F8491F901E255FF4FD491F901C6
:1003B000E656FF4FC491CC2391F081110E94A20117
:1003C000EC2FF0E0EE0FFF1FE859FF4FA591B4911D
:1003D000EC91ED2381E090E021F480E002C080E028
:1003E00090E0DF91CF9108951F93CF93DF93282F53
:1003F00030E0F901EE58FF4F8491F901E255FF4FCB
:10040000D491F901E656FF4FC491CC23C9F0162FC1
:1004100081110E94A201EC2FF0E0EE0FFF1FEA57BE
:10042000FF4FA591B4918FB7F894111105C09C911D
:10043000ED2FE095E92302C0EC91ED2BEC938FBFFB
:10044000DF91CF911F9108953FB7F89480911501E6
:1004500090911601A0911701B091180126B5A89BA3
:1004600005C02F3F19F00196A11DB11D3FBFBA2F46
:10047000A92F982F8827820F911DA11DB11DBC01A6
:10048000CD0142E0660F771F881F991F4A95D1F76B
:1004900008958F929F92AF92BF92CF92DF92EF9288
:1004A000FF920E9424024B015C0185E0C82ED12CF2
:1004B000E12CF12C0E942402DC01CB01881999095E
:1004C000AA09BB09883E9340A105B10558F021E077
:1004D000C21AD108E108F10888EE880E83E0981E60
:1004E000A11CB11CC114D104E104F10419F7FF905F
:1004F000EF90DF90CF90BF90AF909F908F90089536
:100500008EBD00000DB407FEFDCF8EB508959CB5DD
:100510009F7D9CBD9CB5937F9CBD9CB59C7F9CBDE5
:100520009DB591609DBD682F8091BB010E94F40133
:100530008091CD019091CE018230910538F0880FE5
:10054000991F880F991F05970197F1F7089580E08B
:100550000C9487021F93CF93DF9300D0CDB7DEB703
:100560006A8389830E94A70289818F7180620E94B9
:100570008002182F6A81862F0E94800281E00E94EB
:100580008702812F0F900F90DF91CF911F910895D7
:100590001F93CF93DF931F92CDB7DEB789830E945D
:1005A000A70289810E948002182F81E00E948702A1
:1005B000812F0F90DF91CF911F910895CF93DF93FB
:1005C000C091C001DC2FC111D1E08091C101811126
:1005D00002C0CD1B01C0C0E00E94A70280EA0E94B9
:1005E0008002DD2321F080911A010E948002CC2339
:1005F00029F080E00E948002C150F9CF81E00E9482
:1006000087028091B9019091BA012091BB0130918C
:10061000BC018217930719F061E00E94F4018FEF8B
:100620000E94C8028073D9F38091B9019091BA01F8
:100630002091BB013091BC018217930719F060E053
:100640000E94F40160E787E00E94AA0284FF05C0CF
:1006500081EE0E94C80280E001C081E0DF91CF916D
:1006600008951F93CF93DF931F92CDB7DEB7898391
:100670000E94A70289818F710E9480028FEF0E94E1
:100680008002182F81E00E948702812F0F90DF9156
:10069000CF911F9108950E94EC051F920F920FB603
:1006A0000F9211242F933F934F935F936F937F93F8
:1006B0008F939F93AF93BF93EF93FF938CE191E060
:1006C0000E940E01FF91EF91BF91AF919F918F9189
:1006D0007F916F915F914F913F912F910F900FBE3E
:1006E0000F901F9018951F920F920FB60F92112422
:1006F0002F938F939F93EF93FF93E0912C01F091B1
:100700002D018081E0913201F091330182FD12C010
:100710009081809135018F5F8F7320913601821710
:1007200051F0E0913501F0E0E45EFE4F958F80934B
:10073000350101C08081FF91EF919F918F912F91A1
:100740000F900FBE0F901F9018951F920F920FB62B
:100750000F9211242F933F938F939F93AF93BF9347
:100760008091110190911201A0911301B091140197
:100770003091100123E0230F2D3720F40196A11DA5
:10078000B11D05C026E8230F0296A11DB11D2093BF
:1007900010018093110190931201A0931301B09363
:1007A00014018091150190911601A0911701B0914B
:1007B00018010196A11DB11D80931501909316019A
:1007C000A0931701B0931801BF91AF919F918F91A2
:1007D0003F912F910F900FBE0F901F901895ECE155
:1007E000F1E01382128288EE93E0A0E0B0E084830F
:1007F0009583A683B78384E091E09183808385EC21
:1008000090E09587848784EC90E09787868780ECDA
:1008100090E0918B808B81EC90E0938B828B82ECCB
:1008200090E0958B848B86EC90E0978B868B118E75
:10083000128E138E148EE9EBF1E089E090E0918343
:1008400080838AE090E093838283168280E28783AC
:10085000108685E0868785E090E0A0E0B0E0848B9C
:10086000958BA68BB78B11860895CF93DF93CDB769
:10087000DEB728970FB6F894DEBF0FBECDBF7894D1
:1008800084B5826084BD84B5816084BD85B5826095
:1008900085BD85B5816085BD80916E008160809346
:1008A0006E001092810080918100826080938100AF
:1008B00080918100816080938100809180008160BF
:1008C000809380008091B10084608093B10080911A
:1008D000B00081608093B00080917A008460809342
:1008E0007A0080917A00826080937A0080917A0009
:1008F000816080937A0080917A00806880937A008A
:100900001092C100E0912C01F0912D0182E08083D2
:10091000E0912801F09129011082E0912A01F091E3
:100920002B018FEC808310923401E0913001F09123
:10093000310186E08083E0912E01F0912F018081CA
:1009400080618083E0912E01F0912F018081886089
:100950008083E0912E01F0912F0180818068808357
:10096000E0912E01F0912F0180818F7D8083809115
:10097000B9019091BA012091BB013091BC0182175D
:10098000930711F00E948C008091BB019091BC01F3
:100990002091B9013091BA012817390711F00E944E
:1009A0008C001FB7F89480911901811124C0E4EAEA
:1009B000F0E08491E8EBF0E09491E82FF0E0EE0FA6
:1009C000FF1FE057FF4FA591B491EC91E92321F46B
:1009D00061E08AE00E94F4018AE00E948C008CB5FC
:1009E00080618CBD8CB580648CBD8DE00E948C00D4
:1009F0008BE00E948C00809119018F5F8093190118
:100A00001FBF8091B9019091BA012091BB01309133
:100A1000BC018217930719F060E00E94F40181E0A5
:100A20000E9487020E9449026CE080E00E94AA02B4
:100A30006FE584E00E94AA0286E00E943103877D70
:100A4000182F10628BE990E0A0E0B0E08093C9011C
:100A50009093CA01A093CB01B093CC01612F86E0A3
:100A60000E94AA0286E00E943103811709F4AAC0FD
:100A700086E00E94310386E00E94310345E550E0A4
:100A800060E070E04093C9015093CA016093CB01CC
:100A90007093CC01682F677D86E00E94AA0286E0F1
:100AA0000E9431030E94A70280E50E94800283E732
:100AB0000E94800281E00E94870260E08DE10E9436
:100AC000AA0260E08CE10E94AA021092C10160E7D4
:100AD00087E00E94AA026CE485E00E94AA0282EEEE
:100AE0000E94C80281EE0E94C80280E00E94310389
:100AF00081FD07C0682F626080E00E94AA020E9408
:100B0000490280E00E943103682F6E7F80E00E94DE
:100B1000AA0281EE898380EF8A838B8388EE8C839F
:100B20008D831E821F821886D090C7010E94A70263
:100B30008AE20E9480028E010F5F1F4F7801C02E53
:100B4000D00EDE1431F0F70181917F010E94800206
:100B5000F8CF81E00E948702F090C7010E94A702AF
:100B600080E30E948002FC0CF01631F0F8018191C4
:100B70008F010E948002F8CF81E00E94870260917D
:100B8000C00181E10E94AA020FE610E089E7E82E89
:100B9000F12C87E00E94CB01019731F410931B01E7
:100BA00000931A010E94DE0287E00E94CB01892B8C
:100BB00031F4F0921B01E0921A010E94DE020E94C1
:100BC0009801E7CF81E08093BF0152CFEE0FFF1F66
:100BD0000590F491E02D099481E090E0F8940C9454
:060BE000F105F894FFCFBF
:100BE600000000002F01AB00F800D600EA007601F5
:00000001FF
