:100000000C9466000C948E000C948E000C948E0060
:100010000C948E000C948E000C948E000C948E0028
:100020000C948E000C948E000C948E000C948E0018
:100030000C948E000C948E000C948E000C948E0008
:100040000C9436040C948E000C9404040C94DE037F
:100050000C948E000C948E000C948E000C948E00E8
:100060000C948E000C948E00000000080002010029
:100070000003040700000000000000001112131428
:1000800015160A0B0C0D0E0F0001020304050000EB
:100090000000250028002B0000000000240027009D
:1000A0002A000404040404040404020202020202FA
:1000B000030303030303010204081020408001022C
:1000C00004081020010204081020800411241FBE1F
:1000D000CFEFD8E0DEBFCDBF11E0A0E0B1E0E4E8B3
:1000E000F8E102C005900D92A636B107D9F722E0DB
:1000F000A6E6B1E001C01D92A535B207E1F710E018
:10010000C6E6D0E004C02197FE010E94AB09C536C7
:10011000D107C9F70E94C6040C94400C0C9400004F
:1001200090E0FC01EA54FF4F2491FC01EE55FF4F93
:100130008491882399F090E0880F991FFC01E8567C
:10014000FF4FA591B491FC01E257FF4F8591949127
:100150008FB7F894EC91E22BEC938FBF0895CF9278
:10016000DF92EF92FF920F931F93CF93DF936C0177
:100170007A018B01C0E0D0E0CE15DF0589F0D8010F
:100180006D918D01D601ED91FC910190F081E02DF2
:10019000C6010995892B11F47E0102C02196ECCF8E
:1001A000C701DF91CF911F910F91FF90EF90DF90EA
:1001B000CF900895FC01918D828D981761F0828D0A
:1001C000DF01A80FB11D5D968C91928D9F5F9F738B
:1001D000928F90E008958FEF9FEF0895FC01918D2D
:1001E000828D981731F0828DE80FF11D858D90E09A
:1001F00008958FEF9FEF0895FC01918D228D892F37
:1002000090E0805C9F4F821B91098F73992708951E
:100210008CE991E00E94FC0021E0892B09F420E0A8
:10022000822F0895FC01848DDF01A80FB11DA35A10
:10023000BF4F2C91848D90E001968F739927848F06
:10024000A689B7892C93A089B1898C9180648C93FD
:10025000938D848D981306C00288F389E02D8081E8
:100260008F7D80830895EF92FF920F931F93CF931A
:10027000DF93EC0181E0888F9B8D8C8D981305C0F6
:10028000E889F989808185FD24C0F62E0B8D10E068
:100290000F5F1F4F0F731127E02E8C8DE8120CC0DB
:1002A0000FB607FCFACFE889F989808185FFF5CF81
:1002B000CE010E941201F1CF8B8DFE01E80FF11DDE
:1002C000E35AFF4FF0820B8FEA89FB8980818062BD
:1002D00007C0EE89FF896083E889F989808180649D
:1002E000808381E090E0DF91CF911F910F91FF908B
:1002F000EF900895CF93DF93EC01888D8823C9F0A8
:10030000EA89FB89808185FD05C0A889B9898C911E
:1003100086FD0FC00FB607FCF5CF808185FFF2CFB9
:10032000A889B9898C9185FFEDCFCE010E94120179
:10033000E7CFDF91CF91089580E090E0892B29F0FD
:100340000E94080181110C940000089590E0FC01C6
:10035000E859FF4F3491FC01EA54FF4F2491FC010E
:10036000EE55FF4FE491EE2309F43BC0332339F1FE
:10037000333091F038F43130A9F0323001F584B5E2
:100380008F7D12C0373091F03830A1F03430B9F49D
:10039000809180008F7D03C0809180008F77809353
:1003A00080000DC084B58F7784BD09C08091B000F6
:1003B0008F7703C08091B0008F7D8093B000F0E014
:1003C000EE0FFF1FE257FF4FA591B4918FB7F8943E
:1003D000EC91611103C020952E2301C02E2B2C938C
:1003E0008FBF08953FB7F89480916B0190916C0195
:1003F000A0916D01B0916E0126B5A89B05C02F3F5D
:1004000019F00196A11DB11D3FBFBA2FA92F982F3A
:100410008827820F911DA11DB11DBC01CD0142E0B5
:10042000660F771F881F991F4A95D1F708958F92FD
:100430009F92AF92BF92CF92DF92EF92FF920E9473
:10044000F2014B015C0185E0C82ED12CE12CF12C8E
:100450000E94F201DC01CB0188199909AA09BB09A4
:10046000883E9340A105B10558F021E0C21AD10899
:10047000E108F10888EE880E83E0981EA11CB11CEB
:10048000C114D104E104F10419F7FF90EF90DF905B
:10049000CF90BF90AF909F908F9008952FB7F89412
:1004A00060916701709168018091690190916A0182
:1004B0002FBF08958EBD00000DB407FEFDCF8EB591
:1004C00008958F929F92AF92BF92CF92DF92EF9258
:1004D000FF926B017C0149015A010E944E02C11436
:1004E000D104E104F10471F00E944E02AB01BC01A1
:1004F0004C195D096E097F0981E084169506A606F0
:10050000B70608F080E0FF90EF90DF90CF90BF90AB
:10051000AF909F908F9008959CB59F7D9CBD9CB59A
:10052000937F9CBD9CB59C7F9CBD9DB591609DBDFE
:10053000682F80913B020E94A60180914D0290910C
:100540004E028230910538F0880F991F880F991F4D
:1005500005970197F1F7089580E00C948C021F93A2
:10056000CF93DF9300D0CDB7DEB76A8389830E9433
:10057000AC0289818F7180620E945A02182F6A81B1
:10058000862F0E945A0281E00E948C02812F0F90D8
:100590000F90DF91CF911F9108951F93CF93DF9319
:1005A0001F92CDB7DEB789830E94AC0289818F711B
:1005B0000E945A028FEF0E945A02182F81E00E9477
:1005C0008C02812F0F90DF91CF911F9108950F938F
:1005D0001F93CF938C0186E00E94CD02C82FC77D68
:1005E0000230110531F4C0628BE990E0A0E0B0E088
:1005F0000DC00130110529F085E590E0A0E0B0E0E4
:1006000005C0C86081E490E0A0E0B0E080934902BA
:1006100090934A02A0934B02B0934C026C2F86E059
:100620000E94AF0286E00E94CD0291E08C1390E020
:10063000892FCF911F910F91089580E00E94CD02E4
:1006400081FD07C0682F626080E00E94AF020C94B9
:1006500017020895CF930E94AC0281EE0E945A02C5
:10066000C82F81E00E948C028C2FCF910895EF92C9
:10067000FF920F931F93CF93DF9300D01F92CDB7BC
:10068000DEB7162F4A837B8389830E94AC0289815F
:100690008F7180620E945A02082FE12E7B81F72E13
:1006A0004A81140F1E1531F0F70181917F010E94DC
:1006B0005A02F8CF81E00E948C02802F0F900F9099
:1006C0000F90DF91CF911F910F91FF90EF900895C0
:1006D000CF93DF93009779F0FC0101900020E9F7B8
:1006E0003197AF01481B590BBC018CE991E00E9486
:1006F000AF00EC0102C0C0E0D0E042E050E067E1B2
:1007000071E08CE991E00E94AF008C0F9D1FDF919A
:10071000CF9108950E94A80BCF93DF93FC01248111
:100720003581232B69F0C081D181062E000C770B17
:10073000CE010E94B60B009719F08C1B9D0B02C0D6
:100740008FEF9FEFDF91CF9108950F931F93CF937A
:10075000DF93EC0188819981009729F02A813B8100
:100760002617370788F48B016F5F7F4F0E94DE0AE0
:10077000009761F0998388831B830A832C813D81D4
:10078000232B11F4FC01108281E001C080E0DF9195
:10079000CF911F910F910895CF93DF93EC01888142
:1007A0009981009711F00E94460A198218821D82D1
:1007B0001C821B821A82DF91CF9108951F920F92A3
:1007C0000FB60F9211242F933F934F935F936F9324
:1007D0007F938F939F93AF93BF93EF93FF938CE996
:1007E00091E00E941201FF91EF91BF91AF919F9113
:1007F0008F917F916F915F914F913F912F910F90CA
:100800000FBE0F901F9018951F920F920FB60F9268
:1008100011242F938F939F93EF93FF93E091AC015B
:10082000F091AD018081E091B201F091B30182FDC0
:1008300012C090818091B5018F5F8F732091B601B6
:10084000821751F0E091B501F0E0E456FE4F958F2C
:100850008093B50101C08081FF91EF919F918F91AD
:100860002F910F900FBE0F901F9018951F920F920F
:100870000FB60F9211242F933F938F939F93AF93B3
:10088000BF938091670190916801A0916901B09137
:100890006A013091660123E0230F2D3720F4019681
:1008A000A11DB11D05C026E8230F0296A11DB11D93
:1008B000209366018093670190936801A09369017A
:1008C000B0936A0180916B0190916C01A0916D01D0
:1008D000B0916E010196A11DB11D80936B019093A3
:1008E0006C01A0936D01B0936E01BF91AF919F9188
:1008F0008F913F912F910F900FBE0F901F901895E1
:10090000ECE9F1E01382128288EE93E0A0E0B0E01F
:1009100084839583A683B7838BE091E09183808362
:1009200085EC90E09587848784EC90E097878687B4
:1009300080EC90E0918B808B81EC90E0938B828BAC
:1009400082EC90E0958B848B86EC90E0978B868B85
:10095000118E128E138E148EE9E3F2E089E090E09E
:10096000918380838AE090E093838283168280E281
:100970008783108685E0868785E090E0A0E0B0E080
:10098000848B958BA68BB78B11860895CF93DF93BD
:10099000CDB7DEB7E0970FB6F894DEBF0FBECDBF80
:1009A000789484B5826084BD84B5816084BD85B54A
:1009B000826085BD85B5816085BD80916E00816056
:1009C00080936E00109281008091810082608093FC
:1009D00081008091810081608093810080918000FE
:1009E0008160809380008091B10084608093B10029
:1009F0008091B00081608093B00080917A00846023
:100A000080937A0080917A00826080937A0080914E
:100A10007A00816080937A0080917A008068809368
:100A20007A001092C100E091AC01F091AD0182E03A
:100A30008083E091A801F091A9011082E091AA01C0
:100A4000F091AB018FEC80831092B401E091B00182
:100A5000F091B10186E08083E091AE01F091AF01A9
:100A6000808180618083E091AE01F091AF0180814F
:100A700088608083E091AE01F091AF018081806851
:100A80008083E091AE01F091AF0180818F7D808302
:100A90008091390290913A0220913B0230913C02C0
:100AA0008217930711F00E94900080913B02909171
:100AB0003C022091390230913A022817390711F08F
:100AC0000E9490001FB7F89480916F01811124C09B
:100AD000ECEAF0E08491E0ECF0E09491E82FF0E0B3
:100AE000EE0FFF1FE856FF4FA591B491EC91E9235B
:100AF00021F461E08AE00E94A6018AE00E94900051
:100B00008CB580618CBD8CB580648CBD8DE00E94FD
:100B100090008BE00E94900080916F018F5F809326
:100B20006F011FBF8091390290913A0220913B02E0
:100B300030913C028217930719F060E00E94A601F1
:100B400081E00E948C020E9417026CE080E00E940B
:100B5000AF026FE584E00E94AF0282E090E00E9465
:100B6000E702882319F081E080933F0286E00E942B
:100B7000CD0280E090E00E94E7020E94AC0280E596
:100B80000E945A0283E70E945A0281E00E948C026E
:100B900060E08DE10E94AF0260E08CE10E94AF0254
:100BA0001092410260E787E00E94AF026CE485E0AA
:100BB0000E94AF020E94AC0282EE0E945A0281E0C3
:100BC0000E948C020E942A030E941D0380E00E9462
:100BD000CD02682F6E7F80E00E94AF0281EE8BA372
:100BE00080EF8CA38DA388EE8EA38FA318A619A6E1
:100BF0001AA6E3E8F0E0849140914702BE016D5DE2
:100C00007F4F0E943703EDE7F0E08491609140024E
:100C10000E94AF0282E00E94CD02E9E8F0E0E49198
:100C200061E070E001C0660FEA95EAF7682B82E0A8
:100C30000E94AF020E941D0380E00E94CD02682F37
:100C4000616080E00E94AF0260E787E00E94AF022F
:100C50008091390290913A0220913B0230913C02FE
:100C60008217930719F061E00E94A6018091420269
:100C7000882341F04091470262E472E08AE00E94DA
:100C8000370312C082E00E94CD02E8E8F0E0E49170
:100C900021E030E001C0220FEA95EAF72095622FAB
:100CA000682382E00E94AF028DE10E94CD0281FDA7
:100CB0000E942A0386E00E94CD02682F676086E0CA
:100CC0000E94AF0282E090E00E94E70283E00E946F
:100CD00090008EE00E9490008FE00E94900080E1E2
:100CE0000E94900081E10E94900082E10E949000A9
:100CF00083E10E94900082E00E94900083E00E94C5
:100D0000900084E00E94900087E00E949000CE0155
:100D100001967C0110910001112311F061E001C0E6
:100D200060E084E00E94A60181E0812780930001B9
:100D300087E10E94CD0280FDB9C261E086E00E9499
:100D4000A60160E087E00E94A60110929401109233
:100D500095011092960110929701109298011092AD
:100D6000990110929A0110929B0110914002133048
:100D700010F4012F01C003E080914102811102C0F3
:100D8000101B01C010E00E94AC0281E60E945A02D2
:100D900080E9C82E81E0D82E015038F08FEF0E94F4
:100DA0005A02F60181936F01F7CF112329F08FEFDB
:100DB0000E945A021150F9CF81E00E948C0260E734
:100DC00087E00E94AF026091900170919101809143
:100DD0009201909193011CA61BA61EA61DA618AAFF
:100DE0001FA62AE0A7010E94C80BF701019000206E
:100DF000E9F731978F010E191F09B801CE018B96C3
:100E00000E94A503811105C0CE018B960E94CC03E0
:100E100007C018AB0FA7B7018BA59CA50E94C10BFB
:100E20001A8219821C821B821E821D8263E170E07D
:100E3000C7010E94A503811104C0C7010E94CC0311
:100E40000AC083E190E09E838D836AE171E089812D
:100E50009A810E94C10B8FA598A9CBA4DCA40D8117
:100E60001E81C114D10409F472C20097A1F0080FC9
:100E7000191FB801C7010E94A503882309F467C29E
:100E800029813A818D819E81B601820F931F0E9434
:100E9000C10B1E830D834D815E8169817A818CE94E
:100EA00091E00E94AF0042E050E067E171E08CE920
:100EB00091E00E94AF0089819A810E94460A61E315
:100EC000CE018B960E948C03019689F061E08EE042
:100ED0000E94A6018EE291E00E94680310927001C8
:100EE0001092710110927201109273012EC08091C4
:100EF000700190917101A0917201B0917301892BE1
:100F00008A2B8B2B51F40E944E02609370017093D8
:100F10007101809372019093730185E391E00E94C7
:100F200068036091700170917101809172019091DC
:100F3000730128EE33E040E050E00E946102882314
:100F400021F060E08EE00E94A60162E3CE018B9664
:100F50000E948C03019651F0109274011092750159
:100F6000109276011092770161E027C080917401A0
:100F700090917501A0917601B0917701892B8A2B10
:100F80008B2B51F40E944E02609374017093750193
:100F9000809376019093770160917401709175014F
:100FA000809176019091770128EE33E040E050E0A7
:100FB0000E946102882321F060E08FE00E94A60178
:100FC00063E3CE018B960E948C03019651F0109240
:100FD00078011092790110927A0110927B0161E000
:100FE00027C08091780190917901A0917A01B09108
:100FF0007B01892B8A2B8B2B51F40E944E0260932C
:1010000078017093790180937A0190937B016091CC
:1010100078017091790180917A0190917B0128EE9D
:1010200033E040E050E00E946102882321F060E05C
:1010300080E10E94A60164E3CE018B960E948C039E
:10104000019651F010927C0110927D0110927E0168
:1010500010927F0161E027C080917C0190917D0119
:10106000A0917E01B0917F01892B8A2B8B2B51F4AB
:101070000E944E0260937C0170937D0180937E01FB
:1010800090937F0160917C0170917D0180917E0140
:1010900090917F0128EE33E040E050E00E94610231
:1010A000882321F060E081E10E94A60165E3CE0182
:1010B0008B960E948C03019651F010928001109241
:1010C0008101109282011092830161E027C080911A
:1010D000800190918101A0918201B0918301892BBF
:1010E0008A2B8B2B51F40E944E02609380017093E7
:1010F00081018093820190938301609180017091BE
:101100008101809182019091830128EE33E040E0DB
:1011100050E00E946102882321F060E082E10E9499
:10112000A60166E3CE018B960E948C03019651F0D6
:10113000109284011092850110928601109287010D
:1011400061E027C08091840190918501A091860182
:10115000B0918701892B8A2B8B2B51F40E944E0270
:101160006093840170938501809386019093870139
:101170006091840170918501809186019091870131
:1011800028EE33E040E050E00E946102882321F025
:1011900060E083E10E94A60167E3CE018B960E9486
:1011A0008C03019651F010928801109289011092DF
:1011B0008A0110928B0161E027C080918801909193
:1011C0008901A0918A01B0918B01892B8A2B8B2BED
:1011D00051F40E944E0260938801709389018093BC
:1011E0008A0190938B0160918801709189018091AF
:1011F0008A0190918B0128EE33E040E050E00E949C
:101200006102882321F060E082E00E94A60168E389
:10121000CE018B960E948C03019651F010928C01A6
:1012200010928D0110928E0110928F0161E027C003
:1012300080918C0190918D01A0918E01B0918F01D0
:10124000892B8A2B8B2B51F40E944E0260938C01C8
:1012500070938D0180938E0190938F0160918C012A
:1012600070918D0180918E0190918F0128EE33E075
:1012700040E050E00E946102882321F060E083E0BA
:101280000E94A601409190015091910160919201BC
:10129000709193018BA59CA5452B462B472B19F0EC
:1012A0000E94460A5ACD0E94460A4EC0809194017F
:1012B00090919501A0919601B0919701892B8A2B6D
:1012C0008B2B51F40E944E02609394017093950110
:1012D000809396019093970160919401709195018C
:1012E000809196019091970120EA3FE040E050E024
:1012F0000E946102882341F18AE391E00E94680321
:1013000061E087E00E94A60160E08EE00E94A601F5
:1013100060E08FE00E94A60160E080E10E94A601EB
:1013200060E081E10E94A60160E082E10E94A601E6
:1013300060E083E10E94A60160E082E00E94A601D5
:1013400060E083E00E94A6010E949C01E3CCC701FB
:101350000E94CC03A0CDEE0FFF1F0590F491E02D6D
:101360000994CF93DF938230910510F482E090E0EE
:10137000E0915302F091540220E030E0C0E0D0E070
:10138000309711F14081518148175907C0F0481733
:10139000590761F482819381209719F09B838A8396
:1013A0002BC0909354028093530226C0211531051F
:1013B00019F04217530718F49A01BE01DF01EF013B
:1013C0000280F381E02DDCCF2115310509F1281BC6
:1013D000390B2430310590F412968D919C9113971E
:1013E0006115710521F0FB019383828304C0909302
:1013F000540280935302FD01329644C0FD01E20F76
:10140000F31F81939193225031092D933C933AC05D
:101410002091510230915202232B41F4209103017B
:101420003091040130935202209351022091010126
:10143000309102012115310541F42DB73EB740919D
:10144000050150910601241B350BE0915102F091EA
:101450005202E217F307A0F42E1B3F0B281739079F
:1014600078F0AC014E5F5F4F2417350748F04E0F00
:101470005F1F50935202409351028193919302C097
:10148000E0E0F0E0CF01DF91CF9108950F931F933B
:10149000CF93DF93009709F48CC0FC01329713823D
:1014A000128200915302109154020115110581F42A
:1014B00020813181820F931F20915102309152027D
:1014C0002817390779F5F0935202E093510271C061
:1014D000D80140E050E0AE17BF0750F412962D91AE
:1014E0003C911397AD012115310509F1D901F3CFD5
:1014F0009D01DA013383228360817181860F971FFA
:101500008217930769F4EC0128813981260F371F70
:101510002E5F3F4F318320838A819B819383828317
:10152000452B29F4F0935402E093530242C01396E2
:10153000FC93EE931297ED01499159919E01240F6E
:10154000351FE217F30771F480819181840F951F95
:10155000029611969C938E938281938113969C930D
:101560008E931297E0E0F0E0D80112968D919C9155
:101570001397009719F0F8018C01F6CF8D919C918B
:1015800098012E5F3F4F820F931F2091510230919F
:1015900052022817390769F4309729F4109254023F
:1015A0001092530202C013821282109352020093CF
:1015B0005102DF91CF911F910F910895A0E0B0E00B
:1015C000E4EEFAE00C940D0CEC01009721F4CB0151
:1015D0000E94B109B8C0FC01E60FF71F9C01225020
:1015E0003109E217F30708F4ACC0D9010D911C9141
:1015F000119706171707B0F00530110508F49FC0C2
:10160000C80104978617970708F499C0025011097A
:10161000061B170B019311936D937C93CF010E94CE
:10162000460A8DC05B01A01AB10A4C01800E911EC2
:10163000A0915302B091540240E050E0E12CF12C13
:10164000109709F44AC0A815B905D1F56D907C90A2
:101650001197630182E0C80ED11CCA14DB0480F12B
:10166000A3014A195B096A0182E0C80ED11C1296D7
:10167000BC9012971396AC91B5E0CB16D10440F014
:10168000B282A38351834083D9016D937C930AC0B6
:101690000E5F1F4FC301800F911FF901918380835B
:1016A000EB2DFA2FE114F10431F0D7011396FC93DE
:1016B000EE93129744C0F0935402E09353023FC05C
:1016C0008D919C9111974817590708F4AC017D0141
:1016D00012960D90BC91A02DB3CF809151029091A4
:1016E000520288159905E1F446175707C8F480910E
:1016F000010190910201009741F48DB79EB740918E
:10170000050150910601841B950BE817F907C8F4F1
:10171000F0935202E0935102F901718360830FC08C
:10172000CB010E94B1097C01009759F0A801BE01CC
:101730000E94AD0BCE010E94460AC70104C0CE0133
:1017400002C080E090E0CDB7DEB7EEE00C94290C4B
:1017500081E090E0F8940C94400CFB01DC0102C0A5
:1017600001900D9241505040D8F70895FC018191AD
:10177000861721F08823D9F7992708953197CF014B
:101780000895FB01DC0101900D920020E1F708951E
:10179000BB272A3051F4992342F4BDE290958095FD
:1017A000709561957F4F8F4F9F4F0C94D80BBB273F
:1017B000FA01A62F6217710581059105330B30FBE5
:1017C00066F0AA27660F771F881F991FAA1FA21706
:1017D00010F0A21B63953850A9F7A05DAA3308F05A
:1017E000A95DA19336F7B111B1931082CA010C948F
:1017F000F90BDC01FC01672F71917723E1F7329738
:1018000004C07C916D9370836291AE17BF07C8F3DB
:1018100008952F923F924F925F926F927F928F9294
:101820009F92AF92BF92CF92DF92EF92FF920F936F
:101830001F93CF93DF93CDB7DEB7CA1BDB0B0FB679
:10184000F894DEBF0FBECDBF09942A883988488836
:101850005F846E847D848C849B84AA84B984C884CC
:10186000DF80EE80FD800C811B81AA81B981CE0FC3
:10187000D11D0FB6F894DEBF0FBECDBFED010895A8
:04188000F894FFCF0A
:1018840001000055028000000000003301AF00FC9D
:1018940000DA00EE007A010D0A0061736B6A686475
:1018A400616A6B6468616C6B646B6C6168006B6B20
:1018B4006B6B6B6B006E6F2031004572726F723A06
:1018C400204E6F20526164696F205472616E736D93
:1018D400697373696F6E2020206E6F20696F6F6F5C
:0618E4006F6F6F6F000042
:00000001FF
