:100000000C9462000C948A000C948A000C948A0070
:100010000C948A000C948A000C948A000C948A0038
:100020000C948A000C948A000C948A000C948A0028
:100030000C948A000C948A000C948A000C948A0018
:100040000C9495020C948A000C9463020C943D026B
:100050000C948A000C948A000C948A000C948A00F8
:100060000C948A000C948A000000000023002600F3
:10007000290000000000250028002B0000000000DF
:10008000240027002A0004040404040404040202D7
:100090000202020203030303030301020408102007
:1000A0004080010204081020010204081020000012
:1000B0000008000201000003040700000000000027
:1000C0000000630411241FBECFEFD8E0DEBFCDBF18
:1000D00011E0A0E0B1E0E0E2FEE002C005900D9288
:1000E000AA31B107D9F721E0AAE1B1E001C01D9220
:1000F000A83CB207E1F710E0C2E6D0E004C02197C7
:10010000FE010E949004C136D107C9F70E94DF02A8
:100110000C940E070C940000CF92DF92EF92FF92A6
:100120000F931F93CF93DF936C017A018B01C0E093
:10013000D0E0CE15DF0589F0D8016D918D01D60193
:10014000ED91FC910190F081E02DC6010995892B7C
:1001500011F47E0102C02196ECCFC701DF91CF914F
:100160001F910F91FF90EF90DF90CF900895FC01C9
:10017000918D828D981761F0828DDF01A80FB11DDE
:100180005D968C91928D9F5F9F73928F90E0089502
:100190008FEF9FEF0895FC01918D828D981731F0BC
:1001A000828DE80FF11D858D90E008958FEF9FEF10
:1001B0000895FC01918D228D892F90E0805C9F4FE6
:1001C000821B91098F739927089585E291E00E941F
:1001D000D90021E0892B09F420E0822F0895FC0149
:1001E000848DDF01A80FB11DA35ABF4F2C91848DC0
:1001F00090E001968F739927848FA689B7892C93F5
:10020000A089B1898C9180648C93938D848D98138F
:1002100006C00288F389E02D80818F7D8083089558
:10022000EF92FF920F931F93CF93DF93EC0181E046
:10023000888F9B8D8C8D981305C0E889F989808102
:1002400085FD24C0F62E0B8D10E00F5F1F4F0F733E
:100250001127E02E8C8DE8120CC00FB607FCFACFE8
:10026000E889F989808185FFF5CFCE010E94EF00F2
:10027000F1CF8B8DFE01E80FF11DE35AFF4FF082A5
:100280000B8FEA89FB898081806207C0EE89FF8934
:100290006083E889F98980818064808381E090E0CF
:1002A000DF91CF911F910F91FF90EF900895CF9321
:1002B000DF93EC01888D8823C9F0EA89FB8980816E
:1002C00085FD05C0A889B9898C9186FD0FC00FB640
:1002D00007FCF5CF808185FFF2CFA889B9898C9181
:1002E00085FFEDCFCE010E94EF00E7CFDF91CF91E8
:1002F000089580E090E0892B29F00E94E5008111AB
:100300000C9400000895833081F028F4813099F036
:100310008230A1F008958730A9F08830B9F0843098
:10032000D1F4809180008F7D03C0809180008F7711
:1003300080938000089584B58F7702C084B58F7D47
:1003400084BD08958091B0008F7703C08091B00084
:100350008F7D8093B00008951F93CF93DF93282F54
:1003600030E0F901E255FF4F8491F901E656FF4F65
:10037000D491F901EA57FF4FC491CC23C9F0162F4D
:1003800081110E948301EC2FF0E0EE0FFF1FEE5869
:10039000FF4FA591B4918FB7F894111105C09C91AE
:1003A000ED2FE095E92302C0EC91ED2BEC938FBF8C
:1003B000DF91CF911F9108953FB7F89480911F016D
:1003C00090912001A0912101B091220126B5A89B16
:1003D00005C02F3F19F00196A11DB11D3FBFBA2FD7
:1003E000A92F982F8827820F911DA11DB11DBC0137
:1003F000CD0142E0660F771F881F991F4A95D1F7FC
:1004000008958F929F92AF92BF92CF92DF92EF9218
:10041000FF926B017C010E94DC014B015C01C11465
:10042000D104E104F104F1F00E94DC01DC01CB0114
:1004300088199909AA09BB09883E9340A105B1050D
:1004400070F321E0C21AD108E108F10888EE880EA5
:1004500083E0981EA11CB11CC114D104E104F10475
:1004600019F7DDCFFF90EF90DF90CF90BF90AF9066
:100470009F908F9008950E948D061F920F920FB645
:100480000F9211242F933F934F935F936F937F931A
:100490008F939F93AF93BF93EF93FF9385E291E088
:1004A0000E94EF00FF91EF91BF91AF919F918F91CB
:1004B0007F916F915F914F913F912F910F900FBE60
:1004C0000F901F9018951F920F920FB60F92112444
:1004D0002F938F939F93EF93FF93E0913501F091CA
:1004E00036018081E0913B01F0913C0182FD12C018
:1004F000908180913E018F5F8F7320913F01821721
:1005000051F0E0913E01F0E0EB5DFE4F958F80935E
:100510003E0101C08081FF91EF919F918F912F91BA
:100520000F900FBE0F901F9018951F920F920FB64D
:100530000F9211242F933F938F939F93AF93BF9369
:1005400080911B0190911C01A0911D01B0911E0191
:1005500030911A0123E0230F2D3720F40196A11DBD
:10056000B11D05C026E8230F0296A11DB11D2093E1
:100570001A0180931B0190931C01A0931D01B0935D
:100580001E0180911F0190912001A0912101B09145
:1005900022010196A11DB11D80931F01909320019E
:1005A000A0932101B0932201BF91AF919F918F91B0
:1005B0003F912F910F900FBE0F901F901895CF93E2
:1005C000DF93CDB7DEB762970FB6F894DEBF0FBEEC
:1005D000CDBF789484B5826084BD84B5816084BDCC
:1005E00085B5826085BD85B5816085BD80916E00D1
:1005F000816080936E001092810080918100826002
:10060000809381008091810081608093810080913E
:1006100080008160809380008091B100846080932D
:10062000B1008091B00081608093B00080917A0029
:10063000846080937A0080917A00826080937A004F
:1006400080917A00816080937A0080917A0080683E
:1006500080937A001092C100E0913501F09136014B
:1006600082E08083E0913101F09132011082E091CB
:100670003301F09134018FEC808310923D01E091C1
:100680003901F0913A0186E08083E0913701F091E1
:100690003801808180618083E0913701F0913801D9
:1006A000808188608083E0913701F09138018081FA
:1006B00080688083E0913701F091380180818F7DDF
:1006C00080838E010F5F1F4F78EB472E70E0572E0F
:1006D000E4EA6E2EE0E07E2EF3EACF2EF0E0DF2E8D
:1006E000AFE8AA2EA0E0BA2EB7EB8B2EB0E09B2E7F
:1006F0004AE0B8018091C2019091C3010E94A20614
:10070000F80101900020E9F731977F01E01AF10A22
:10071000B7016F5F7F4F80E090E00E94C3051C012E
:10072000009731F0FC011082B8010E949B0602C0C4
:10073000E12CF12CA701B10185E291E00E948C002F
:1007400042E050E066E171E085E291E00E948C00B9
:10075000C1010E942B05F2018491F3013490E0E97C
:10076000F0E024902220A1F081110E948301E22D6B
:10077000F0E0EE0FFF1FE859FF4FA591B4918C9167
:10078000382291E080E009F490E0292E382E02C052
:10079000212C312C809123019091240128163906B7
:1007A000F1F062E370E080E090E00E940102211429
:1007B000310489F48091C2019091C3010596883873
:1007C00091052CF49093C3018093C20104C0109250
:1007D000C3011092C2013092240120922301809122
:1007E000C2019091C301F6014491F50124912223A5
:1007F00099F030E0220F331FF901E458FF4FA59123
:10080000B491F901EE58FF4F259134912FB7F89428
:100810003C91432B4C932FBF009711F460E004C030
:100820008F3F910529F461E089E00E94AC0142C04C
:10083000F40124912330F9F048F42130B9F022304A
:10084000A1F594B5906294BD88BD34C02730E9F01D
:10085000283019F1243049F520918000206220933E
:10086000800090938B0080938A0024C094B5906898
:1008700094BD87BD1FC02091800020682093800018
:10088000909389008093880015C09091B000906883
:100890009093B0008093B3000DC09091B00090622F
:1008A0009093B0008093B40005C0803891050CF09F
:1008B000BACFB4CF6EE170E080E090E00E94010218
:1008C0000E94790115CFE5E2F1E01382128288EEF1
:1008D00093E0A0E0B0E084839583A683B7838AE0A9
:1008E00091E09183808385EC90E09587848784EC08
:1008F00090E09787868780EC90E0918B808B81ECED
:1009000090E0938B828B82EC90E0958B848B86ECCD
:1009100090E0978B868B118E128E138E148E089515
:10092000EE0FFF1F0590F491E02D0994CF93DF9314
:100930008230910510F482E090E0E091C601F091E0
:10094000C70120E030E0C0E0D0E0309711F14081F5
:10095000518148175907C0F04817590761F482813F
:100960009381209719F09B838A832BC09093C701B2
:100970008093C60126C02115310519F0421753078F
:1009800018F49A01BE01DF01EF010280F381E02D2E
:10099000DCCF2115310509F1281B390B2430310535
:1009A00090F412968D919C9113976115710521F029
:1009B000FB019383828304C09093C7018093C60197
:1009C000FD01329644C0FD01E20FF31F8193919324
:1009D000225031092D933C933AC02091C4013091AB
:1009E000C501232B41F42091020130910301309382
:1009F000C5012093C401209100013091010121150E
:100A0000310541F42DB73EB74091040150910501E5
:100A1000241B350BE091C401F091C501E217F307E7
:100A2000A0F42E1B3F0B2817390778F0AC014E5F5E
:100A30005F4F2417350748F04E0F5F1F5093C501D5
:100A40004093C4018193919302C0E0E0F0E0CF01B4
:100A5000DF91CF9108950F931F93CF93DF9300976A
:100A600009F48CC0FC013297138212820091C601F6
:100A70001091C7010115110581F420813181820F88
:100A8000931F2091C4013091C5012817390779F5CA
:100A9000F093C501E093C40171C0D80140E050E07B
:100AA000AE17BF0750F412962D913C911397AD01EC
:100AB0002115310509F1D901F3CF9D01DA01338305
:100AC000228360817181860F971F8217930769F4D3
:100AD000EC0128813981260F371F2E5F3F4F31836C
:100AE00020838A819B8193838283452B29F4F09311
:100AF000C701E093C60142C01396FC93EE93129790
:100B0000ED01499159919E01240F351FE217F3071A
:100B100071F480819181840F951F029611969C93A8
:100B20008E938281938113969C938E931297E0E02B
:100B3000F0E0D80112968D919C911397009719F0CF
:100B4000F8018C01F6CF8D919C9198012E5F3F4F5B
:100B5000820F931F2091C4013091C50128173907D6
:100B600069F4309729F41092C7011092C60102C0AF
:100B7000138212821093C5010093C401DF91CF91BB
:100B80001F910F910895A0E0B0E0E9ECF5E00C941E
:100B9000DB06EC01009721F4CB010E949604B8C05B
:100BA000FC01E60FF71F9C0122503109E217F30701
:100BB00008F4ACC0D9010D911C91119706171707C5
:100BC000B0F00530110508F49FC0C80104978617DE
:100BD000970708F499C002501109061B170B0193DF
:100BE00011936D937C93CF010E942B058DC05B0107
:100BF000A01AB10A4C01800E911EA091C601B091BD
:100C0000C70140E050E0E12CF12C109709F44AC0F4
:100C1000A815B905D1F56D907C901197630182E01C
:100C2000C80ED11CCA14DB0480F1A3014A195B0968
:100C30006A0182E0C80ED11C1296BC9012971396DE
:100C4000AC91B5E0CB16D10440F0B282A3835183BE
:100C50004083D9016D937C930AC00E5F1F4FC3017F
:100C6000800F911FF90191838083EB2DFA2FE114FE
:100C7000F10431F0D7011396FC93EE93129744C020
:100C8000F093C701E093C6013FC08D919C911197ED
:100C90004817590708F4AC017D0112960D90BC91DC
:100CA000A02DB3CF8091C4019091C50188159905FD
:100CB000E1F446175707C8F48091000190910101B3
:100CC000009741F48DB79EB7409104015091050102
:100CD000841B950BE817F907C8F4F093C501E0935E
:100CE000C401F901718360830FC0CB010E94960497
:100CF0007C01009759F0A801BE010E949206CE0126
:100D00000E942B05C70104C0CE0102C080E090E024
:100D1000CDB7DEB7EEE00C94F70681E090E0F894F2
:100D20000C940E07FB01DC0102C001900D924150B2
:100D30005040D8F70895FB01DC0101900D9200208E
:100D4000E1F70895BB274A3031F4992322F4BDE23C
:100D5000909581959F4F0C94AE06BB27FB015527BC
:100D6000AA27880F991FAA1FA41710F0A41B839508
:100D70005051B9F7A05DAA3308F0A95DA19300977F
:100D800079F7B111B1931192CB010C94C706DC0134
:100D9000FC01672F71917723E1F7329704C07C91B2
:100DA0006D9370836291AE17BF07C8F308952F92B9
:100DB0003F924F925F926F927F928F929F92AF92EB
:100DC000BF92CF92DF92EF92FF920F931F93CF9338
:100DD000DF93CDB7DEB7CA1BDB0B0FB6F894DEBFCF
:100DE0000FBECDBF09942A88398848885F846E84F5
:100DF0007D848C849B84AA84B984C884DF80EE803F
:100E0000FD800C811B81AA81B981CE0FD11D0FB647
:100E1000F894DEBF0FBECDBFED010895F894FFCF6B
:100E20000000C80180000000000010018C00D90003
:0A0E3000B700CB0057010D0A0000C7
:00000001FF
