:100000000C9462000C9466030C943F030C948A00D9
:100010000C948A000C948A000C948A000C948A0038
:100020000C948A000C948A000C948A000C948A0028
:100030000C948A000C948A000C948A000C948A0018
:100040000C949D020C948A000C940D030C94E7020E
:100050000C948A000C948A000C948A000C948A00F8
:100060000C948A000C948A000000000023002600F3
:10007000290000000000240027002A0000000000E2
:10008000250028002B0004040404040404040202D4
:100090000202020203030303030301020408102007
:1000A0004080010204081020010204081020000012
:1000B0000008000201000003040700000000000027
:1000C0000000290411241FBECFEFD8E0DEBFCDBF52
:1000D00011E0A0E0B1E0EAE0F9E002C005900D9285
:1000E000AE31B107D9F721E0AEE1B1E001C01D9218
:1000F000A63CB207E1F710E0C2E6D0E004C02197C9
:10010000FE010E947804C136D107C9F70E948D0311
:100110000C9483040C940000CF93DF9390E0FC01D7
:10012000E656FF4F2491FC01EA57FF4F8491882344
:10013000C1F090E0880F991FFC01EE58FF4FC59168
:10014000D491FC01E458FF4FA591B4919FB7F89466
:100150008881E22FE0958E2388838C91E823EC93AD
:100160009FBFDF91CF910895CF92DF92EF92FF92E0
:100170000F931F93CF93DF936C017A018B01C0E043
:10018000D0E0CE15DF0589F0D8016D918D01D60143
:10019000ED91FC910190F081E02DC6010995892B2C
:1001A00011F47E0102C02196ECCFC701DF91CF91FF
:1001B0001F910F91FF90EF90DF90CF900895FC0179
:1001C000918D828D981761F0828DDF01A80FB11D8E
:1001D0005D968C91928D9F5F9F73928F90E00895B2
:1001E0008FEF9FEF0895FC01918D828D981731F06C
:1001F000828DE80FF11D858D90E008958FEF9FEFC0
:100200000895FC01918D228D892F90E0805C9F4F95
:10021000821B91098F739927089589E291E00E94CA
:10022000010121E0892B09F420E0822F0895FC01CF
:10023000848DDF01A80FB11DA35ABF4F2C91848D6F
:1002400090E001968F739927848FA689B7892C93A4
:10025000A089B1898C9180648C93938D848D98133F
:1002600006C00288F389E02D80818F7D8083089508
:10027000EF92FF920F931F93CF93DF93EC0181E0F6
:10028000888F9B8D8C8D981305C0E889F9898081B2
:1002900085FD24C0F62E0B8D10E00F5F1F4F0F73EE
:1002A0001127E02E8C8DE8120CC00FB607FCFACF98
:1002B000E889F989808185FFF5CFCE010E94170179
:1002C000F1CF8B8DFE01E80FF11DE35AFF4FF08255
:1002D0000B8FEA89FB898081806207C0EE89FF89E4
:1002E0006083E889F98980818064808381E090E07F
:1002F000DF91CF911F910F91FF90EF900895CF93D1
:10030000DF93EC01888D8823C9F0EA89FB8980811D
:1003100085FD05C0A889B9898C9186FD0FC00FB6EF
:1003200007FCF5CF808185FFF2CFA889B9898C9130
:1003300085FFEDCFCE010E941701E7CFDF91CF916E
:10034000089580E090E0892B29F00E940D01811131
:100350000C9400000895833081F028F4813099F0E6
:100360008230A1F008958730A9F08830B9F0843048
:10037000D1F4809180008F7D03C0809180008F77C1
:1003800080938000089584B58F7702C084B58F7DF7
:1003900084BD08958091B0008F7703C08091B00034
:1003A0008F7D8093B0000895CF93DF93282F30E0A6
:1003B000F901E255FF4F8491F901E656FF4FD491C0
:1003C000F901EA57FF4FC491CC2389F081110E94B3
:1003D000AB01EC2FF0E0EE0FFF1FE458FF4FA591AB
:1003E000B4918FB7F894EC91ED2BEC938FBFDF9124
:1003F000CF910895CF93DF93282F30E0F901E25594
:10040000FF4F8491F901E656FF4FD491F901EA5765
:10041000FF4FC491CC2391F081110E94AB01EC2FCE
:10042000F0E0EE0FFF1FE859FF4FA591B491EC915A
:10043000ED2381E090E021F480E002C080E090E0D4
:10044000DF91CF9108950895009769F0FC01019024
:100450000020E9F73197AF01481B590BBC0189E235
:1004600091E00C94B40080E090E008950E947E0436
:10047000CF92DF92EF92FF920F931F93CF93DF9370
:10048000CDB7DEB7A1970FB6F894DEBF0FBECDBFD4
:10049000F89482E00E94FA01019731F484E00E940E
:1004A000FA01892B31F40BC084E00E94FA01892BF8
:1004B00031F480911E0190911F01019605C0809139
:1004C0001E0190911F01019790931F0180931E01BF
:1004D00020911E0130911F0140E050E019A28E01D1
:1004E0000F5D1F4F8AE0C82ED12CE12CF12CCA01E0
:1004F000B901A70196010E945604605DF80162935C
:100500008F01211531054105510589F7CF010E9461
:10051000240284E191E00E9424027894A1960FB60F
:10052000F894DEBF0FBECDBFDF91CF911F910F9129
:10053000FF90EF90DF90CF9008951F920F920FB62B
:100540000F9211242F933F938F939F93AF93BF9359
:100550008091250190912601A0912701B091280159
:100560003091240123E0230F2D3720F40196A11DA3
:10057000B11D05C026E8230F0296A11DB11D2093D1
:1005800024018093250190932601A0932701B09325
:1005900028018091200190912101A0912201B09128
:1005A00023010196A11DB11D80932001909321018B
:1005B000A0932201B0932301BF91AF919F918F919E
:1005C0003F912F910F900FBE0F901F9018951F9283
:1005D0000F920FB60F9211242F933F934F935F9377
:1005E0006F937F938F939F93AF93BF93EF93FF93FB
:1005F00089E291E00E941701FF91EF91BF91AF91C5
:100600009F918F917F916F915F914F913F912F912A
:100610000F900FBE0F901F9018951F920F920FB65C
:100620000F9211242F938F939F93EF93FF93E09159
:100630003901F0913A018081E0913F01F091400150
:1006400082FD12C09081809142018F5F8F73209153
:100650004301821751F0E0914201F0E0E75DFE4F67
:10066000958F8093420101C08081FF91EF919F910E
:100670008F912F910F900FBE0F901F9018951F9282
:100680000F920FB60F9211242F933F934F935F93C6
:100690006F937F938F939F93AF93BF93EF93FF934A
:1006A000E0910201F09103010995FF91EF91BF9153
:1006B000AF919F918F917F916F915F914F913F91FA
:1006C0002F910F900FBE0F901F9018951F920F92B1
:1006D0000FB60F9211242F933F934F935F936F9315
:1006E0007F938F939F93AF93BF93EF93FF93E0918B
:1006F0000001F09101010995FF91EF91BF91AF9138
:100700009F918F917F916F915F914F913F912F9129
:100710000F900FBE0F901F901895789484B582604B
:1007200084BD84B5816084BD85B5826085BD85B595
:10073000816085BD80916E00816080936E00109213
:10074000810080918100826080938100809181008E
:10075000816080938100809180008160809380001F
:100760008091B10084608093B1008091B00081607D
:100770008093B00080917A00846080937A008091A9
:100780007A00826080937A0080917A008160809301
:100790007A0080917A00806880937A001092C1007C
:1007A00082E00E948C0082E00E94D40184E00E94DA
:1007B0008C0084E00E94D40188E392E090930101D0
:1007C00080930001809169008C7F81608093690033
:1007D000E89AE0913901F0913A0182E08083E0915A
:1007E0003501F09136011082E0913701F091380126
:1007F0008FEC808310924101E0913D01F0913E0128
:1008000086E08083E0913B01F0913C018081806132
:100810008083E0913B01F0913C018081886080837E
:10082000E0913B01F0913C01808180688083E09100
:100830003B01F0913C0180818F7D808387E191E0D5
:100840000E94240284E191E00E9424020E94A101FE
:10085000FDCFE9E2F1E01382128288EE93E0A0E09E
:10086000B0E084839583A683B78388E091E0918389
:10087000808385EC90E09587848784EC90E097876F
:10088000868780EC90E0918B808B81EC90E0938B5D
:10089000828B82EC90E0958B848B86EC90E0978B3A
:1008A000868B118E128E138E148E0895A1E21A2E4D
:1008B000AA1BBB1BFD010DC0AA1FBB1FEE1FFF1F04
:1008C000A217B307E407F50720F0A21BB30BE40B54
:1008D000F50B661F771F881F991F1A9469F760959B
:1008E0007095809590959B01AC01BD01CF01089555
:1008F000EE0FFF1F0590F491E02D099481E090E048
:0A090000F8940C948304F894FFCFE0
:10090A0023022302000000003801B4000101DF00C5
:0E091A00F3007F010D0A007374617274000017
:00000001FF
