:100000000C947B080C947D120C9456120C94A3084B
:100010000C94A3080C94A3080C94A3080C94A308B4
:100020000C94A3080C94A3080C94A3080C94A308A4
:100030000C94A3080C94A3080C94A3080C94A30894
:100040000C940C120C94A3080C941D110C94F71032
:100050000C94A3080C94A3080C94A3080C94A30874
:100060000C94A3080C94A3080000000024002700AF
:100070002A001112131415160A0B0C0D0E0F000096
:100080000000000000000000000000000000000070
:100090000000008080808080808080C0C0C0C0C0A0
:1000A000C0C0C0C0C0C0C0C0C0C0C0C0C0C0C0C050
:1000B000C0C0C0C0C0808080808080808000000080
:1000C0000000000000000000000000000000000030
:1000D000000000003030707878787C3C3C3C1E1E7C
:1000E0001E1E0F0F0F0F0707078787878383C3C362
:1000F000C3C3C3C3C3C3C3C1C1C1C1C1C1C1C1C1E2
:10010000C1C3C3C3C3C3C3C3C3C3838387878707B1
:1001100007070F0F0F0F1E1E1E1E3C3C3C7C7878FD
:100120007870303000000000000000000000000087
:10013000000000040C0E1E1E1E0F0F0F0F07078776
:10014000878383C3C3C3C3C3C1C1C1E1E1E1E1E1AB
:10015000E1E1E1E1E1C1C1C1C3C3C3C3C38383879B
:100160008707070F0F0F0F1E1E1E0E0C0400000046
:10017000000000000000000000000000000000007F
:10018000000000000000000000000000000000006F
:100190000000010103030703030303030181C1C13D
:1001A000E1E1E1E1E1E1E1E1C1C181010303030337
:1001B000030703030101000000000000000000002D
:1001C000000000000000000000000000000000002F
:1001D000000000000000000000000000000000001F
:1001E000000000000000000000000000000000000F
:1001F000000307070F0F0F0F0F0F0F0F0707030065
:1002000000000000000000000000000000000000EE
:1002100000000000000000000000000000000000DE
:1002200000006870646060986460E46864DC303486
:10023000B00C10740000340000000000000000004A
:1002400000000000000000000000000000000000AE
:10025000000000000000000000000000000000009E
:10026000000000000000000000000000000000008E
:10027000000000000000000000000000000000007E
:10028000000000000000000000000000000000006E
:10029000000000000000000000000000000000005E
:1002A00000008080808080C0C0C0C0C0C0C0C0C00E
:1002B000C0C0C0C0C0C0C0C0C0C0C0C0C0C0C0C03E
:1002C000C0C0C0808080808000000000000000006E
:1002D000000000000000000000000000000000001E
:1002E000000000000000000000000000040C0E1ED2
:1002F0001E1E0F0F0F0F070787878383C3C3C3C358
:10030000C3C1C1C1E1E1E1E1E1E1E1E1E1E1C1C19B
:10031000C1C3C3C3C3C38383878707070F0F0F0FEF
:100320001E1E1E0E0C040000000000000000000055
:1003300000000000000000000000000000000000BD
:10034000000000000000000000000001010303079E
:1003500003030303030181C1C1E1E1E1E1E1E1E163
:10036000E1C1C1810103030303030703030101008A
:10037000000000000000000000000000000000007D
:10038000000000000000000000000000000000006D
:10039000000000000000000000000000000000005D
:1003A000000000000000000000000307070F0F0F0F
:1003B0000F0F0F0F0F0707030000000000000000E1
:1003C000000000000000000000000000000000002D
:1003D000000000000000000000000000000000001D
:1003E000000000000000000000000000000000000D
:1003F00000000000000000000000000000000000FD
:1004000000000000000000000000000000000000EC
:1004100000000000000000000000000000000000DC
:1004200000000000000000000000000000000000CC
:1004300000000000000000000000000000000000BC
:1004400000000000000000000000000000000000AC
:10045000000000000000000000000000000000009C
:10046000000000000000000000000000000000008C
:10047000000000000000000000000000000000007C
:10048000000000000000000000000000000000006C
:10049000000000000000000000000000000000005C
:1004A000000000000000000000000000000000004C
:1004B0000080808080C0C0C0C0C0C0C0C0E0E0E09C
:1004C000E0E0E0E0E0E0E0C0C0C0C0C0C0C0C0808C
:1004D000808080000000000000000000000000009C
:1004E000000000000000000000000000000000000C
:1004F00000000000000000000000000000000000FC
:10050000000000000101030307030303030301814B
:10051000C1C1E1E1E1E1E1E1E1E1C1C18101030347
:1005200003030307030301010000000000000000B3
:1005300000000000000000000000000000000000BB
:1005400000000000000000000000000000000000AB
:10055000000000000000000000000000000000009B
:100560000000000307070F0F0F0F0F0F0F0F0707F4
:100570000300000000000000000000000000000078
:10058000000000000000000000000000000000006B
:10059000000000000000000000000000000000005B
:1005A0000400000800000800000000000000000037
:1005B000000000000000000000000000000000003B
:1005C000000000000000000000000000000000002B
:1005D000000000000000000000000000000000001B
:1005E000000000000000000000000000000000000B
:1005F00000000000000000000000000000000000FB
:1006000000000000000000000000000000000000EA
:1006100000000000000000000000000000000000DA
:1006200000000000000000000000000000000000CA
:1006300000000000000000000000000000000000BA
:1006400000000000000000000000000000000000AA
:10065000000000000000000000000000000000009A
:10066000000000000000000000000000000000008A
:10067000000000000000000000000000000000007A
:10068000000000000000000000000000000000006A
:10069000000000000000000000000000000000005A
:1006A000000000000000000000000000000000004A
:1006B000000000000000000000000000000000003A
:1006C000000000000000000080C0C0E0E0E0E0E0CA
:1006D000E0E0E0C0C080000000000000000000007A
:1006E000000000000000000000000000000000000A
:1006F00000000000000000000000000000000000FA
:1007000000000000000000000000000000000000E9
:100710000000000000000000000000000307070FB9
:100720000F0F0F0F0F0F0F0707030000000000004F
:1007300000000000000000000000000000000000B9
:100740000000000000000000000000000000200089
:10075000000C00000800000000000400000400007D
:10076000000000010203040500000008000201006F
:100770000003040700000000000000000E182D0D0B
:100780000000000000000000000000000000000069
:100790001038383838383838381000000000000079
:1007A0000000000000000000000000000000000049
:1007B0000000000000000000000000000000000039
:1007C000000000000000000000000040E0E04000E9
:1007D00000000000000002060E0E0E0E0E0E0602B5
:1007E0000000000010383838383838383810000029
:1007F000000080C0E0E0E0E0E0E0C080000000FC3D
:10080000FAF60E0E0E0E0E0EF6FAFC0000EFC7837F
:1008100000000000000083C7EF00007FBFDFE0E0C2
:10082000E0E0E0E0DFBF7F0000000000000000002B
:100830000000F0F8FC0000000000000000000000D4
:1008400083C7EF00000000000000000000001F3F11
:100850007F00000002060E0E0E0E0E0EF6FAFC00D1
:1008600000E0D0B83838383838383B170F00007FF0
:10087000BFDFE0E0E0E0E0E0C08000000000020652
:100880000E0E0E0E0E0EF6FAFC0000001038383870
:1008900038383838BBD7EF00000080C0E0E0E0E037
:1008A000E0E0DFBF7F0000FCF8F000000000000087
:1008B000F0F8FC00000F173B383838383838BBD711
:1008C000EF00000000000000000000001F3F7F005C
:1008D00000FCFAF60E0E0E0E0E0E06020000000FC1
:1008E000173B383838383838B8D0E000000080C0BE
:1008F000E0E0E0E0E0E0DFBF7F0000FCFAF60E0E93
:100900000E0E0E0E0602000000EFD7BB3838383846
:100910003838B8D0E000007FBFDFE0E0E0E0E0E0A2
:10092000DFBF7F00000002060E0E0E0E0E0EF6FA5E
:10093000FC000000000000000000000083C7EF0082
:10094000000000000000000000001F3F7F0000FCCE
:10095000FAF60E0E0E0E0E0EF6FAFC0000EFD7BBE6
:10096000383838383838BBD7EF00007FBFDFE0E0D9
:10097000E0E0E0E0DFBF7F0000FCFAF60E0E0E0EB6
:100980000E0EF6FAFC00000F173B383838383838AE
:10099000BBD7EF00000080C0E0E0E0E0E0E0DFBFB8
:1009A0007F000C102D0D0000008080808080800072
:1009B0000000000001030303030303010000000023
:1009C000000000000000000000000000000000C067
:1009D000C00000000000000002868686868686022F
:1009E0000000000081C3C3C3C3C3C381000000FC77
:1009F0007A0606060606067AFC00007EBCC0C0C069
:100A0000C0C0C0BC7E0000000000000000000078F4
:100A1000FC000000000000000000003C7E00000020
:100A2000028686868686867AFC00007EBDC3C3C3A6
:100A3000C3C3C38100000000028686868686867A4C
:100A4000FC00000081C3C3C3C3C3C3BD7E0000FC60
:100A50007880808080808078FC00000001030303A0
:100A60000303033D7E0000FC7A8686868686860226
:100A70000000000081C3C3C3C3C3C3BD7E0000FC2C
:100A80007A868686868686020000007EBDC3C3C342
:100A9000C3C3C3BD7E000000020606060606067A32
:100AA000FC000000000000000000003C7E0000FC94
:100AB0007A8686868686867AFC00007EBDC3C3C39E
:100AC000C3C3C3BD7E0000FC7A8686868686867A8E
:100AD000FC00000081C3C3C3C3C3C3BD7E000608BE
:100AE000205F0000000000000000002F0000000058
:100AF0000700070000147F147F1400242A7F2A12A5
:100B00000023130864620036495522500000050393
:100B1000000000001C224100000041221C000014C3
:100B2000083E08140008083E0808000000A0600005
:100B30000008080808080000606000000020100895
:100B40000402003E5149453E0000427F4000004201
:100B500061514946002141454B31001814127F1064
:100B6000002745454539003C4A4949300001710993
:100B7000050300364949493600064949291E000047
:100B800036360000000056360000000814224100EE
:100B9000001414141414000041221408000201511E
:100BA000090600324959513E007C1211127C007F27
:100BB00049494936003E41414122007F4141221CC2
:100BC000007F49494941007F09090901003E414927
:100BD000497A007F0808087F0000417F410000201B
:100BE00040413F01007F08142241007F40404040C7
:100BF000007F020C027F007F0408107F003E41410D
:100C0000413E007F09090906003E4151215E007FF7
:100C1000091929460046494949310001017F01016E
:100C2000003F4040403F001F2040201F003F403811
:100C3000403F006314081463000708700807006150
:100C40005149454300007F414100AA55AA55AA5584
:100C5000000041417F0000040201020400404040C6
:100C60004040000003050000002054545478007FE9
:100C70004844443800384444442000384444487FC1
:100C800000385454541800087E0901020018A4A426
:100C9000A47C007F080404780000447D40000040EC
:100CA00080847D00007F102844000000417F4000C8
:100CB000007C04180478007C08040478003844445C
:100CC000443800FC242424180018242418FC007C38
:100CD0000804040800485454542000043F444020B1
:100CE000003C4040207C001C2040201C003C403048
:100CF000403C004428102844001CA0A0A07C0044D4
:100D000064544C440000107C8200000000FF00008E
:100D10000000827C100000000609090600000000A7
:100D2000230026002900010204081020408001024F
:100D30000408102001020408102000000000250013
:100D400028002B0004040404040404040202020228
:100D500002020303030303030000000000000080FD
:100D6000C0C0E0E00000FCFC0000E0E0C0C080008B
:100D700000000000000000000080F8FE1F070301D3
:100D8000000000003F3F000000000103073FFEF8A5
:100D900080000000000000001F7FF8E080000000DD
:100DA00000000000000000000080E0F87F1F00004D
:100DB00000000000000000000001030307060E060B
:100DC0000E0E060E060703030000000000000000E0
:100DD000000000000000000000F000000000000023
:100DE0000000000000000000000000000000000003
:100DF0000000000182241008040002020202020026
:100E00000408182482010000000000000000000017
:100E1000000002020202000F2040800000000000DB
:100E20000000000080C0200F00020202020000004B
:100E300000000000000000000004020100000100AA
:100E400002027A0202000100000102040000000018
:100E500000000000282030784030282030783030E2
:100E6000280000000000000000000000000000005A
:100E70000000E00000000000000000000000000092
:100E80000000000000000000000000089090607E5C
:100E90004081810206FF06028181407E6090908839
:100EA000000000000000000000000000000080487A
:100EB0004830F01008080507FF0705080810F03053
:100EC000484888000000000000000000000000000A
:100ED00000000000000300000402033F03020400BE
:100EE00000030000000000000000000000000000FF
:100EF00000000000000000000000005EBCE2613F56
:100F0000DD83C29C7E20A3FD1F419DC3217FFCA2E7
:100F1000401E5F01E3BD3E6082DC237D9FC1421C19
:100F2000FEA0E1BF5D0380DE3C62BEE0025CDF81CB
:100F3000633D7C22C09E1D43A1FF4618FAA4277979
:100F40009BC584DA3866E5BB5907DB856739BAE4A7
:100F500006581947A5FB7826C49A653BD987045AD9
:100F6000B8E6A7F91B45C6987A24F8A6441A99C78B
:100F7000257B3A6486D85B05E7B98CD2306EEDB339
:100F8000510F4E10F2AC2F7193CD114FADF3702E67
:100F9000CC92D38D6F31B2EC0E50AFF1134DCE9099
:100FA000722C6D33D18F0C52B0EE326C8ED0530D4B
:100FB000EFB1F0AE4C1291CF2D73CA947628ABF5F9
:100FC00017490856B4EA6937D58B5709EBB5366827
:100FD0008AD495CB2977F4AA4816E9B7550B88D659
:100FE000346A2B7597C94A14F6A8742AC896154B0B
:100FF000A9F7B6E80A54D7896B3500407A10F35A3E
:1010000000A0724E18090010A5D4E80000E8764848
:10101000170000E40B54020000CA9A3B000000E1F4
:10102000F505000080969800000040420F00000087
:10103000A08601000000102700000000E803000067
:1010400000006400000000000A0000000000010031
:10105000000000002C76D888DC674F0823DFC1DF52
:10106000AE59E1B1B796E5E3E453C63AE651997655
:1010700096E8E6C28426EB898C9B62ED407C6FFC8F
:10108000EFBC9C9F40F2BAA56FA5F490055A2AF7D1
:101090005C936B6CF9676DC11BFCE0E40D47FEF5DA
:1010A00020E6B500D0ED902E030094357705008042
:1010B000841E080000204E0A000000C80C333333A1
:1010C000330F986E12831141EF8D2114893BE65541
:1010D00016CFFEE6DB18D1844B381BF77C1D901D24
:1010E000A4BBE424203284725E228100C9F124EC86
:1010F000A1E53D27F61C11241FBECFEFD8E0DEBFCF
:10110000CDBF11E0A0E0B1E0E0EBFAE402C0059051
:101110000D92A23BB107D9F724E0A2EBB1E001C0E8
:101120001D92AE3BB207E1F718E0CBE7D8E004C070
:101130002197FE010E945C1ECA37D107C9F70E94A1
:10114000CA160C9456250C94000084359105F8F4C9
:1011500060337105E0F49B0143E0369527954A958D
:10116000E1F744E5429FF001439FF00D11248E0FFB
:101170009F1FFC01E757FD4F6770772781E090E0E4
:1011800001C0880F6A95EAF7908D892B808F0895AA
:101190008435910500F560337105E8F49B0143E067
:1011A000369527954A95E1F744E5429FF001439F24
:1011B000F00D11248E0F9F1FFC01E757FD4F677044
:1011C000772781E090E001C0880F6A95EAF7809563
:1011D000908D8923808F08952F923F924F925F9236
:1011E0006F927F928F929F92AF92BF92CF92DF9237
:1011F000EF92FF920F931F93CF93DF93CDB7DEB79C
:1012000028970FB6F894DEBF0FBECDBF78876F83E7
:101210001A01FC0101900020E9F731979F01281B7A
:10122000390B3C832B836F30774281F440919C02D1
:101230006B817C81469F9001479F300D112444E5CE
:1012400050E0DA01A21BB30BB887AF832F8138853A
:101250002E303742B1F440919C026B817C81469FD5
:101260009001479F300D112444E550E0421B530B81
:1012700057FF02C04F5F5F4F9A013595279538871A
:101280002F839E838D83C12CD12C2B813C81C21650
:10129000D3060CF0F4C090919C029C9D80019D9D12
:1012A000100D11242F813885020F131FAD81BE81CF
:1012B0002D91BE83AD8380919D02582F577030E0F1
:1012C00040919E0251116EC0869586958695241B8D
:1012D0003109989FC0011124289FA001299F500D1A
:1012E000389F500D11249A012C5F3F4F3A83298378
:1012F0004101A12CB12C80919D0286958695869501
:1013000090E0A816B9060CF0B6C049805A803801A2
:1013100080919C0290E09301201B310B2817390724
:10132000D4F5E12CF12C80919C028A9DF0018B9DDB
:10133000F00D1124E40DF51D80919A0290919B020D
:10134000E80FF91FE491F0E00E2C02C0F595E79547
:101350000A94E2F78091A002B701680D791DE0FFC1
:1013600003C0811103C006C0811104C0C3010E94E3
:10137000C80803C0C3010E94A5083FEFE31AF30A9F
:1013800048E0E416F10479F66FEF661A760A7FEF0B
:10139000471A570ABDCF8FEFA81AB80A98E0890EEE
:1013A000911CA9CF241B3109989FC001112443E04F
:1013B000959587954A95E1F7289F5001299FB00C94
:1013C000389FB00C1124A4E0AA0EB11CE0919A023F
:1013D000F0919B02EA0DFB1DE4914E2E512C380139
:1013E00057E0852E912C80919C0290E09301201B68
:1013F000310B281739070CF03EC0710180919D0216
:1014000090E09701221933092817390784F52091B4
:10141000A002C201082C02C0959587950A94E2F7B4
:10142000B70180FF04C0C301211104C006C0C3017D
:10143000211103C00E94C80802C00E94A508B1E0A3
:101440008B1A910897FE0FC0EFEFAE1ABE0AE0911B
:101450009A02F0919B02EA0DFB1DE4914E2E512C55
:1014600087E0882E912CFFEFEF1AFF0AC7CF2FEFEE
:10147000621A720AB8CF3FEFC31AD30A06CF289672
:101480000FB6F894DEBF0FBECDBFDF91CF911F9195
:101490000F91FF90EF90DF90CF90BF90AF909F9013
:1014A0008F907F906F905F904F903F902F90089516
:1014B0008F929F92AF92BF92CF92DF92EF92FF9264
:1014C0000F931F93CF93DF93CDB7DEB75B014A0134
:1014D000CDB6DEB6FC010481158198012F5F3F4F28
:1014E0004DB75EB7421B530B0FB6F8945EBF0FBEED
:1014F0004DBFEDB7FEB731967F01232B81F03097BA
:1015000071F00115110551F0FC0160817181A80194
:10151000C7010E941B21F701E00FF11F1082A401F7
:10152000B501C7010E94EC080FB6F894DEBE0FBEED
:10153000CDBEDF91CF911F910F91FF90EF90DF9083
:10154000CF90BF90AF909F908F900895A9E8B2E0A0
:1015500052969C938E935197FC01249153962C9311
:1015600053973196E4915496EC935497FC0132963C
:10157000E4915596EC935597FC01339684915696D9
:101580008C93569757961C920895AF92BF92CF9224
:10159000DF92EF92FF920F931F93CF93DF938B0114
:1015A000BC0180917B0290917C020E94FA1240E083
:1015B0006EEB80917B0290917C020E94B812E80150
:1015C000680189E0C80ED11CA0907B02B0907C021B
:1015D00088E0E82EF12C01E010E0C5010E942713FD
:1015E0008111102B000F81E0E81AF108B1F719936F
:1015F000CC15DD0549F780917B0290917C020E9419
:101600004B1391E0813009F090E0892FDF91CF9169
:101610001F910F91FF90EF90DF90CF90BF90AF9010
:1016200008950F931F93CF93DF93CDB7DEB729971C
:101630000FB6F894DEBF0FBECDBFFC012081203174
:1016400061F18C0180917B0290917C020E944B138E
:10165000882309F1BE016F5F7F4FC8010E94C50A50
:101660008823C9F068E0CE0101960E94AB129985EB
:10167000891311C08D818F3361F020F48F3159F4BB
:1016800089E00CC08F3519F08F3739F004C08BE03A
:1016900005C08AE003C080E001C08CE029960FB647
:1016A000F894DEBF0FBECDBFDF91CF911F910F9198
:1016B000089590919702E0919102F0919202208119
:1016C000422F50E0292F30E02095309524233523F8
:1016D0002083E0918D02F0918E02909195022081FD
:1016E00061110BC0422F50E0292F30E0209530953A
:1016F00024233523208348E003C0922B9083FBCF23
:10170000E0918B02F0918C0290919402208187FFEE
:1017100003C0922B908309C0622F70E0292F30E024
:1017200020953095262337232083880F90919302AC
:10173000E0918902F0918A022081622F70E0292FC6
:1017400030E02095309526233723208300009091A8
:101750009302E0918902F0918A022081922B90837A
:10176000415071F680919702E0919102F0919202BE
:101770009081892B80830895CF93DF938091990482
:10178000811112C060E080E40E94590B60E080E8A3
:101790000E94590BC1EAD2E061E089910E94590B85
:1017A00084E0C939D807C1F7DF91CF910895CF936D
:1017B000DF939CB59F7D9CBD9CB5937F9CBD9CB5E4
:1017C0009C7F9CBD9DB591609DBDCEE5D2E0682F0C
:1017D0008A810E944F118C899D89DF91CF910C9451
:1017E000BB1181E00C94D70B80E00C94D70B1F93B6
:1017F000CF93DF9300D0CDB7DEB76A8389830E9491
:10180000F40B89818F7180620E94A412182F6A8163
:10181000862F0E94A4120E94F10B812F0F900F902F
:10182000DF91CF911F910895CF93DF931F92CDB792
:10183000DEB789830E94F40B89818F710E94A41204
:101840008FEF0E94A41289830E94F10B89810F906F
:10185000DF91CF910895EF92FF920F931F93CF9353
:10186000DF9300D01F92CDB7DEB7162F4A837B835C
:1018700089830E94F40B89818F7180620E94A41277
:10188000082FE12E7B81F72E4A81140F1E1531F0AF
:10189000F70181917F010E94A412F8CF0E94F10B01
:1018A000802F0F900F900F90DF91CF911F910F918C
:1018B000FF90EF90089580E00E94140C81FD0BC012
:1018C000682F626080E00E94F70B65E070E080E0C6
:1018D00090E00C94C6110895CF93DF931F92CDB77B
:1018E000DEB70E94F40B81EE0E94A41289830E944D
:1018F000F10B89810F90DF91CF91089520915E02C5
:1019000030915F02409160025091610224173507C7
:1019100021F0682F822F0C944F1108950F931F937D
:10192000CF93DF931F92CDB7DEB790916502092F59
:10193000911101E080916602811103C0192F101BE3
:1019400001C010E00E94F40B80EA0E94A412002360
:1019500021F08091BF010E94A412112329F080E0A0
:101960000E94A4121150F9CF0E94F10B81E00E9455
:101970007E0C0E94F40B8FEF0E94A41289830E94B8
:10198000F10B89818073A9F380E00E947E0C60E7EF
:1019900087E00E94F70B84FF04C00E946C0C80E07B
:1019A00001C081E00F90DF91CF911F910F910895B9
:1019B0002F923F924F925F926F927F928F929F925F
:1019C000AF92BF92CF92DF92EF92FF920F931F934D
:1019D000CF93DF936C014A0159017B01C0E0D0E055
:1019E000C017D1070CF040C0CE01D7FD079623E009
:1019F000959587952A95E1F78A9D20018B9D500C3E
:101A00009A9D500C1124CE0168E070E00E94121ED5
:101A100022242394312C02C0220C331C8A95E2F735
:101A200036014C185D08C3018C199D098A159B0568
:101A3000B4F4F201E60DF71DE80DF91DE491F0E0B4
:101A4000E221F321B701C301EF2B19F00E94A50891
:101A500002C00E94C8088FEF681A780AE4CF219666
:101A60008FEFE81AF80ABCCFDF91CF911F910F9149
:101A7000FF90EF90DF90CF90BF90AF909F908F90AE
:101A80007F906F905F904F903F902F9008950097B8
:101A900069F0FC0101900020E9F73197AF01481B84
:101AA000590BBC0181EC91E00C943A1580E090E078
:101AB0000895CF93DF930E94470DEC0185E491E0F8
:101AC0000E94470D8C0F9D1FDF91CF9108958F923B
:101AD0009F92AF92BF920F931F93CF93DF93CDB797
:101AE000DEB7A1970FB6F894DEBF0FBECDBF19A227
:101AF000423008F44AE08E010F5D1F4F842E912C76
:101B0000A12CB12CA50194010E94261EE62FB9013B
:101B1000CA0101501109EA3014F4E05D01C0E95C2A
:101B2000D801EC93232B242B252B61F7C8010E94AD
:101B3000470DA1960FB6F894DEBF0FBECDBFDF9163
:101B4000CF911F910F91BF90AF909F908F9008956C
:101B50008F929F92AF92BF92CF92DF92EF92FF92BD
:101B6000CF93DF936B017C019B01AC010E940A1FA4
:101B7000882319F085EA91E027C046015701E894CF
:101B8000B7F82FEF3FEF4FE75FE7C501B4010E94C1
:101B90000A1F81110DC02FEF3FEF4FE75FE7C5012F
:101BA000B4010E94E52318161CF489EA91E00CC0E8
:101BB0002FEF3FEF4FE75FE4C701B6010E94051F1B
:101BC000181674F48DEA91E0DF91CF91FF90EF90B9
:101BD000DF90CF90BF90AF909F908F900C94470D67
:101BE0002FEF3FEF4FE75FECC701B6010E94E523FF
:101BF00087FDE8CF20E030E0A901C701B6010E94CF
:101C0000E52387FF11C0E091C101F091C20101906D
:101C1000F081E02D6DE281EC91E00995EC01F7FA9D
:101C2000F094F7F8F09402C0C0E0D0E02AE037ED7D
:101C300043EA5BE3C701B6010E94631E4B015C01EE
:101C40000E94D61E6B017C010E94EA239B01AC011D
:101C5000C501B4010E94621E4B015C014AE0C7014C
:101C6000B6010E94670DC80FD91F82E691E00E945D
:101C7000470DC80FD91F20E030E040E251E4C50114
:101C8000B4010E944B244B015C010E94D61E6B01E3
:101C9000E12CF12C4AE0C701B6010E94670DC80F84
:101CA000D91FC701B6010E94EA239B01AC01C501FF
:101CB000B4010E94621E20E030E040E251E40E9444
:101CC0004B240E94D61E80E090E04AE00E94670DFF
:101CD0008C0F9D1FDF91CF91FF90EF90DF90CF9001
:101CE000BF90AF909F908F900895FC01918D828D51
:101CF000981761F0828DDF01A80FB11D5D968C9160
:101D0000928D9F5F9F73928F90E008958FEF9FEF6A
:101D10000895FC01918D828D981731F0828DE80F26
:101D2000F11D858D90E008958FEF9FEF0895FC01E0
:101D3000918D228D892F90E0805C9F4F821B9109AD
:101D40008F739927089581EC91E00E94970E21E00E
:101D5000892B09F420E0822F0895FC01848DDF0196
:101D6000A80FB11DA35ABF4F2C91848D90E001960E
:101D70008F739927848FA689B7892C93A089B189FD
:101D80008C9180648C93938D848D981306C0028807
:101D9000F389E02D80818F7D80830895EF92FF92FB
:101DA0000F931F93CF93DF93EC0181E0888F9B8D7E
:101DB0008C8D981305C0E889F989808185FD24C040
:101DC000F62E0B8D10E00F5F1F4F0F731127E02EC3
:101DD0008C8DE8120CC00FB607FCFACFE889F989A0
:101DE000808185FFF5CFCE010E94AD0EF1CF8B8DA6
:101DF000FE01E80FF11DE35AFF4FF0820B8FEA89D5
:101E0000FB898081806207C0EE89FF896083E88951
:101E1000F98980818064808381E090E0DF91CF91B7
:101E20001F910F91FF90EF900895CF93DF93EC01F6
:101E3000888D8823C9F0EA89FB89808185FD05C0EA
:101E4000A889B9898C9186FD0FC00FB607FCF5CF24
:101E5000808185FFF2CFA889B9898C9185FFEDCF6C
:101E6000CE010E94AD0EE7CFDF91CF91089580E0C3
:101E700090E0892B29F00E94A30E81110C940000A0
:101E80000895833081F028F4813099F08230A1F0F8
:101E900008958730A9F08830B9F08430D1F480916A
:101EA00080008F7D03C0809180008F7780938000B9
:101EB000089584B58F7702C084B58F7D84BD089561
:101EC0008091B0008F7703C08091B0008F7D8093A8
:101ED000B00008953FB7F8948091B6049091B7048C
:101EE000A091B804B091B90426B5A89B05C02F3FB6
:101EF00019F00196A11DB11D3FBFBA2FA92F982F30
:101F00008827820F911DA11DB11DBC01CD0142E0AA
:101F1000660F771F881F991F4A95D1F70895089576
:101F2000FC0190810180F281E02D892F809560FF76
:101F300012C0F8942281822382838181892B81833C
:101F4000A3E2B0E01197F1F78281982B9283789405
:101F500087ED90E011C0F8942281822382838181F1
:101F6000892B8183AFEFB0E01197F1F78281982B35
:101F7000928378948FE090E00197F1F708950895A7
:101F80008F929F92AF92BF92CF92DF92EF92FF9289
:101F90000F931F93CF93DF93CDB7DEB727970FB67D
:101FA000F894DEBF0FBECDBF6091B2010091B401C5
:101FB0001091B501C8016F830E9409256F816817D0
:101FC00019F0C8010E94112580900501909006012A
:101FD000A0900701B0900801C501B4010E94CF1E76
:101FE0006B017C01072E000C880B990B0E94EC23DF
:101FF0009B01AC01C501B4010E94621EAA24A394F6
:1020000020E030E0A9010E94051F18160CF0A12C59
:102010000091B4011091B5010E5F1F4FC8010E94DD
:102020000925C81621F06C2DC8010E941125809148
:10203000B4019091B5016A2D04960E94112586E2A3
:10204000E82EF12C00E010E0B801C7010E94C8089A
:102050000F5F1F4F04311105B9F78FEFE81AF80A27
:1020600084E5E816F10471F782EA99E00E94A60A75
:10207000409105015091060160910701709108019E
:1020800021E0CE0101960E949A1642E050E06CE1F8
:1020900070E0CE0101960E94580ACE0101960E947E
:1020A00095168CE797E00E94A60A4091BA015091DC
:1020B000BB016091BC017091BD0121E0CE01019690
:1020C0000E949A1644E150E061E070E0CE01019672
:1020D0000E94580ACE0101960E9495168EED9AE054
:1020E0000E94A60A0E94BC0B27960FB6F894DEBF8A
:1020F0000FBECDBFDF91CF911F910F91FF90EF9059
:10210000DF90CF90BF90AF909F908F900895F894FC
:1021100089B18C708093B0048091B0048C3021F42C
:102120008091AF04811109C08091B004883019F406
:1021300081E08093AD04789408958091AE048F5F20
:102140008093AE041092AF041092AD0420E030E012
:1021500040E05FE360910501709106018091070105
:10216000909108010E94631E60930501709306011F
:1021700080930701909308010E94C00FDCCFF89470
:1021800089B18C708093B0048091B0048C3021F4BC
:102190008091AD04811109C08091B004843019F49C
:1021A00081E08093AF04789408958091AE048150CB
:1021B0008093AE041092AF041092AD0420E030E0A2
:1021C00040E05FE360910501709106018091070195
:1021D000909108010E94621E6093050170930601B0
:1021E00080930701909308010E94C00FDCCF1F92DB
:1021F0000F920FB60F9211242F933F934F935F933B
:102200006F937F938F939F93AF93BF93EF93FF93BE
:1022100081EC91E00E94AD0EFF91EF91BF91AF91E3
:102220009F918F917F916F915F914F913F912F91EE
:102230000F900FBE0F901F9018951F920F920FB620
:102240000F9211242F938F939F93EF93FF93E0911D
:10225000D101F091D2018081E091D701F091D801B4
:1022600082FD12C090818091DA018F5F8F7320917F
:10227000DB01821751F0E091DA01F0E0EF53FE4FFD
:10228000958F8093DA0101C08081FF91EF919F913A
:102290008F912F910F900FBE0F901F9018951F9345
:1022A000CF93DF93282F30E0F901E859F84F84915C
:1022B000F901EA5DF24FD491F901EC5BF24FC49160
:1022C000CC23C9F0162F81110E94410FEC2FF0E0B2
:1022D000EE0FFF1FE65CF24FA591B4918FB7F89413
:1022E000111105C09C91ED2FE095E92302C0EC91FE
:1022F000ED2BEC938FBFDF91CF911F910895CF937A
:10230000DF9390E0FC01EA5DF24F2491FC01EC5B6D
:10231000F24F8491882361F190E0880F991FFC01AE
:10232000E859FF4FC591D491FC01E65CF24FA591AD
:10233000B491611109C09FB7F894888120958223D8
:102340008883EC912E230BC0623061F49FB7F89420
:102350003881822F809583238883EC912E2B2C93B8
:102360009FBF06C08FB7F894E8812E2B28838FBFBC
:10237000DF91CF9108958230910538F0880F991F31
:10238000880F991F05970197F1F708958F929F92F3
:10239000AF92BF92CF92DF92EF92FF926B017C01DE
:1023A0000E946A0F4B015C01C114D104E104F104E5
:1023B000F1F00E946A0FDC01CB0188199909AA0982
:1023C000BB09883E9340A105B10570F321E0C21A14
:1023D000D108E108F10888EE880E83E0981EA11C60
:1023E000B11CC114D104E104F10419F7DDCFFF9051
:1023F000EF90DF90CF90BF90AF909F908F90089517
:102400002FB7F8946091B2047091B3048091B40432
:102410009091B5042FBF08951F920F920FB60F929F
:1024200011242F933F938F939F93AF93BF938091EA
:10243000B2049091B304A091B404B091B50430916A
:10244000B10423E0230F2D3720F40196A11DB11D07
:1024500005C026E8230F0296A11DB11D2093B104EB
:102460008093B2049093B304A093B404B093B504E2
:102470008091B6049091B704A091B804B091B904CA
:102480000196A11DB11D8093B6049093B704A0934B
:10249000B804B093B904BF91AF919F918F913F91D0
:1024A0002F910F900FBE0F901F9018951F920F92B3
:1024B0000FB60F9211242F933F934F935F936F9317
:1024C0007F938F939F93AF93BF93EF93FF93E0918D
:1024D0000201F09103010995FF91EF91BF91AF9136
:1024E0009F918F917F916F915F914F913F912F912C
:1024F0000F900FBE0F901F9018951F920F920FB65E
:102500000F9211242F933F934F935F936F937F9379
:102510008F939F93AF93BF93EF93FF93E09100014D
:10252000F09101010995FF91EF91BF91AF919F91BA
:102530008F917F916F915F914F913F912F910F906C
:102540000FBE0F901F9018958EBD00000DB407FEB2
:10255000FDCF8EB50895DC01E0E0615038F08D913B
:10256000E827F0E0E650F14FE491F7CF8E2F089581
:10257000CF92DF92EF92FF920F931F93CF93DF934F
:102580001F92CDB7DEB76C01E62E08E010E0FF2405
:10259000F39461E08F2D8E2109F460E0C601498338
:1025A0000E94900FFF0C015011094981011511057E
:1025B00081F7411115C0F894D6011196ED91FC9167
:1025C000129791818C918095892381831196ED9149
:1025D000FC91129792818C918095892382837894C3
:1025E0000F90DF91CF911F910F91FF90EF90DF90AF
:1025F000CF900895CF92DF92EF92FF920F931F93A7
:10260000CF93DF931F92CDB7DEB78C01F62E40E05B
:1026100065E579830E94B812CF2C7981D72E760197
:1026200088E0E80EF11CF60161916F0140E0C801FD
:102630000E94B812CE14DF04B1F70F90DF91CF9152
:102640001F910F91FF90EF90DF90CF900895FC01C4
:1026500090810180F281E02DF8948181892B818322
:102660002281892F809528232283A7E0B0E011974B
:10267000F1F7218182238183A3E2B0E01197F1F782
:1026800080817894EFECF0E03197F1F7982381E0C6
:1026900009F480E00895FC0190810180F281E02D31
:1026A000F8948181292F20958223818378948DE766
:1026B00043E050E0815021F1DA011197F1F73081C8
:1026C0003923C1F3F8948281822382838181892B0B
:1026D00081837894ABE7B7E01197F1F7F8948181A3
:1026E00028232183A3E1B1E01197F1F7808198239A
:1026F00081E009F080E07894E3E6F6E03197F1F7C5
:102700000895AF92BF92CF92DF92EF92FF920F9314
:102710001F93CF93DF931F92CDB7DEB75C01E62EF8
:10272000D72EFC01858581115DC0C5010E944B1328
:10273000811105C0F5011386158614866BC040E033
:1027400060EFC5010E94B81201E0F12CC12C11E02C
:10275000C5010E942713682FC50169830E942713B2
:102760006981613019F48130B9F433C04F2D50E0E4
:1027700068131BC0F5018385181730F4E40FF51FAB
:102780008381802349F402C0181731F060E01930CA
:1027900058F4F501148708C0F501EF0DF11D838190
:1027A000802B838361E009C0C12EF501E40FF51F82
:1027B0009381802F809589238383C5010E94900F88
:1027C0001F5F000F11F4F39401E0F7E0FF1508F02C
:1027D000BFCF113438F0F501C386C11015C081E0B8
:1027E000858712C0F50113861586148680E0D50111
:1027F0001396EE2DFD2D9501255F3F4F9D919193F1
:10280000A217B307D9F706C0F5018381882351F3D6
:1028100081E0EDCF0F90DF91CF911F910F91FF904D
:10282000EF90DF90CF90BF90AF9008958F929F92DE
:10283000AF92BF92CF92DF92EF92FF920F931F93CE
:10284000CF93DF936B017C0180900501909006018E
:10285000A0900701B0900801E7E7F7E08491E5E375
:10286000FDE0D491E3E5FDE0C491CC23A1F081111A
:102870000E94410FEC2FF0E0EE0FFF1FE45EF24FDD
:10288000A591B491EC91ED2391E080E009F490E002
:10289000C92FD82F02C0C0E0D0E08091AB04909146
:1028A000AC04C817D90729F162E370E080E090E03A
:1028B0000E94C6112097C9F48091B2019091B30192
:1028C000019663E070E00E94121E9093B301809322
:1028D000B2010E94C00F0E9400126093B601709373
:1028E000B7018093B8019093B901D093AC04C09321
:1028F000AB048091B2019091B301009709F04CC0F4
:1029000003E210E023E230E041E65EE064E170E0E3
:1029100088E390E00E94D80C0E94BC0BA5019401B2
:10292000C701B6010E94621E6B017C012AE939E9E8
:1029300049E95EEB0E94E52318163CF061E081E175
:102940000E944F118FE690E076C02AE939E949E903
:102950005EE3C701B6010E94051F1816D4F48EED80
:1029600090E09093C0018093BF010E948E0C60E0C4
:102970003DC02AE939E949E95EE3C501B4010E9495
:10298000621E9B01AC01C701B6010E94E52387FDD1
:10299000E6CF80EF90E04FC081309105B1F503E2C2
:1029A00010E023E230E048EC5DE064E170E088E3B1
:1029B00090E00E94D80C0E94BC0B2AE939E949E951
:1029C0005EE3C501B4010E94631E9B01AC01C70117
:1029D000B6010E94051F181664F68FE690E09093EA
:1029E000C0018093BF010E948E0C61E081E1DF9104
:1029F000CF911F910F91FF90EF90DF90CF90BF90FC
:102A0000AF909F908F900C944F11029731F50EE18B
:102A100010E02EE130E048E55DE064E170E088E33D
:102A200090E00E94D80C0E94BC0B60E081E10E9403
:102A30004F118EED90E09093C0018093BF01DF9124
:102A4000CF911F910F91FF90EF90DF90CF90BF90AB
:102A5000AF909F908F900C948E0CDF91CF911F912F
:102A60000F91FF90EF90DF90CF90BF90AF909F902D
:102A70008F900895CF92DF92EF92FF920F931F9362
:102A8000CF93DF936C017A018B01C0E0D0E0CE15CB
:102A9000DF0589F0D8016D918D01D601ED91FC9192
:102AA0000190F081E02DC6010995892B11F47E017A
:102AB00002C02196ECCFC701DF91CF911F910F91FA
:102AC000FF90EF90DF90CF9008950E940621CF9362
:102AD000DF93CDB7DEB761970FB6F894DEBF0FBEB8
:102AE000CDBFE0917B02F0917C021386158614869F
:102AF000DF011B96CF0103961E92A817B907E1F7D5
:102B0000BE01665F7F4FCF010E948113882341F091
:102B100067E0CE010A960E94AB129989891729F0C5
:102B200060E070E08EEF92EC59C080917B02909152
:102B30007C020E944B138823F1F1BE016F5F7F4F2F
:102B4000CE010A960E94C50A8823A9F168E0CE0149
:102B500001960E94AB12998589132DC0698148E0C6
:102B6000649FB00111248A81282F30E0322F222760
:102B7000330F330F330F262B372B8A858031C9F45F
:102B8000688570E08F81AB01481B5109CA01969599
:102B9000982F8827979587950E94121E605171097A
:102BA000207F53E0220F331F5A95E1F7620F731F06
:102BB00004C0B90102C060E874EE613854EE7507D4
:102BC0000CF4AECF072E000C880B990B0E94EC235F
:102BD00020E030E040E05CE30E944B2461960FB6B9
:102BE000F894DEBF0FBECDBFDF91CF910895CF9295
:102BF000DF92EF92FF92CF93DF936C01990FEE0873
:102C0000FF08F7FE1AC0E091C101F091C2010190E6
:102C1000F081E02D6DE281EC91E00995EC016627F1
:102C20007727CB016C197D098E099F094AE00E9424
:102C3000670D7C01EC0EFD1E06C04AE0C701B6011F
:102C40000E94670D7C0185E491E00E94470D8E0D86
:102C50009F1DDF91CF91FF90EF90DF90CF9008956F
:102C60000F931F93CF93DF93EC0188819981009795
:102C700029F02A813B812617370788F48B016F5F83
:102C80007F4F0E943C20009761F0998388831B83CB
:102C90000A832C813D81232B11F4FC01108281E0F9
:102CA00001C080E0DF91CF911F910F910895CF93E4
:102CB000DF93EC0188819981009711F00E94A41F95
:102CC000198218821D821C821B821A82DF91CF9189
:102CD0000895EF92FF920F931F93CF93DF938C0190
:102CE0007B016115710569F0FB0101900020E9F796
:102CF0003197EF01C61BD70BBE010E943016811120
:102D000004C0C8010E94571608C0F801D583C483C7
:102D1000B701808191810E941421C801DF91CF9178
:102D20001F910F91FF90EF900895FC018081918198
:102D30000C94A41FEF92FF920F931F93CF93DF93F6
:102D4000CDB7DEB7A1970FB6F894DEBF0FBECDBFEB
:102D50007C01CB01BA01F701118210821382128229
:102D60001582148242E0420F8E010F5F1F4F0E94B6
:102D70002A21BC01C7010E946916A1960FB6F894DA
:102D8000DEBF0FBECDBFDF91CF911F910F91FF909E
:102D9000EF900895CF93DF93CDB7DEB7A8970FB626
:102DA000F894DEBF0FBECDBF789484B5826084BD39
:102DB00084B5816084BD85B5826085BD85B581603F
:102DC00085BD80916E00816080936E0010928100BD
:102DD0008091810082608093810080918100816078
:102DE0008093810080918000816080938000809139
:102DF000B10084608093B1008091B00081608093C5
:102E0000B00080917A00846080937A0080917A008B
:102E1000826080937A0080917A00816080937A004A
:102E200080917A00806880937A001092C10062E0FD
:102E300082E00E947F1162E083E00E947F118FEBAD
:102E400090E190930101809300018091690083607B
:102E500080936900E89A87E890E19093030180935A
:102E60000201809169008C6080936900E99A81EC8D
:102E700091E00E94150FE091D301F091D40180817F
:102E80008F7E8083E091D301F091D4018081877F90
:102E90008083E091D301F091D40180818F7780838A
:102EA000E091D301F091D40180818F7D8083809166
:102EB000DB018093DA0180915E0290915F022091A4
:102EC0006002309161028217930719F061E00E945D
:102ED0007F11809160029091610220915E02309199
:102EE0005F022817390719F061E00E947F111FB7B0
:102EF000F8948091BE01811127C0EEE4FDE0849139
:102F0000E0E3FDE09491E82FF0E0EE0FFF1FE859B9
:102F1000FF4FA591B491EC91E92321F461E08AE09F
:102F20000E944F1161E08AE00E947F118CB58061A0
:102F30008CBD8CB580648CBD61E08DE00E947F11FA
:102F400061E08BE00E947F118091BE018F5F8093D2
:102F5000BE011FBF80E00E947E0C81E00E94D70B63
:102F600065E070E080E090E00E94C6116CE080E0D7
:102F70000E94F70B6FE584E00E94F70B86E00E9449
:102F8000140C877D182F10628BE990E0A0E0B0E070
:102F900080936E0290936F02A0937002B0937102BF
:102FA000612F86E00E94F70B86E00E94140C8117C7
:102FB00009F4E7C286E00E94140C86E00E94140C1B
:102FC00045E550E060E070E040936E0250936F0280
:102FD0006093700270937102682F677D86E00E9493
:102FE000F70B86E00E94140C0E94F40B80E50E940F
:102FF000A41283E70E94A4120E94F10B60E08DE10D
:103000000E94F70B60E08CE10E94F70B10926602C1
:1030100060E787E00E94F70B6CE485E00E94F70B05
:103020000E94F40B82EE0E94A4120E94F10B0E94F7
:103030006C0C0E945B0C80E00E94140C682F6E7F69
:1030400080E00E94F70B51EEF52EFB8E10EF1C8FE7
:103050001D8F08EE0E8F0F8F18A219A21AA2409191
:103060006C02BE01655E7F4F8AE00E942B0C40918E
:103070006C02BE01655E7F4F80E10E942B0C609167
:10308000650281E10E94F70BFB8A1C8B1D8B0E8B66
:1030900088EA8F8B188E198E1A8EE9E7F0E08491FA
:1030A00040916C02BE016D5E7F4F0E942B0CE3E7E6
:1030B000F0E08491609165020E94F70B82E00E942B
:1030C000140CE3E6F7E0E49161E070E001C0660F04
:1030D000EA95EAF7682B82E00E94F70B809195024F
:1030E000E0918D02F0918E029081892B80838091F6
:1030F0009402E0918B02F0918C029081892B808365
:1031000080919302E0918902F0918A029081892B4B
:10311000808380919702E0919102F09192029081D8
:10312000892B808390919602E0918F02F09190021A
:103130008081282F30E0892F90E080959095822320
:10314000932380836AE070E080E090E00E94C611E3
:1031500080919602E0918F02F09190029081892BEC
:10316000808360E081E20E94590B60E086EC0E945F
:10317000590B60E086E00E94590B60E083E10E94F9
:10318000590B60E080E20E94590B60E080E40E94ED
:10319000590B60E080E80E94590B60E08CE00E94CF
:1031A000590BE1EAF2E0119224E0E939F207D9F78C
:1031B0000E94BC0B10929B0210929A0210929904EA
:1031C00086E490E090939B0480939A048EED9AE0BD
:1031D0000E94A60A62E08FE00E947F1161E081E117
:1031E0000E947F11E0917B02F0917C02138615868C
:1031F0001486DF011B9633961E92AE17BF07E1F7C8
:1032000010927A0211E0BE016F5F7F4F80917B02C6
:1032100090917C020E948113882309F44AC067E0E0
:10322000CE0101960E94AB1298858913ECCF809154
:103230007602811127C080917B0290917C020E94CE
:103240004B13BE016F5F7F4F80917B0290917C0298
:103250000E94FA1240E064EB80917B0290917C0224
:103260000E94B81280917B0290917C020E942713E9
:10327000082F80917B0290917C020E944B130023C7
:1032800009F483C100917702CE0101960E94110BCF
:10329000801718F48091770204C0CE0101960E9435
:1032A000110B8093770280917A028F5F80937A026C
:1032B000AACFC090B401D090B50186010E5F1F4F18
:1032C0001093B5010093B401011534E0130729F4FC
:1032D0001092B5011092B40124C0E12CF12CC70169
:1032E0000E940925811154C18FEFE81AF80AE114F0
:1032F000E4E0FE06A1F76091B201C8010E94112529
:10330000609105017091060180910701909108017B
:103310000E94D61E8091B4019091B50102960E9440
:1033200011258CE797E00E94A60A1CA21BA21EA2F0
:103330001DA218A61FA21982BE016F5F7F4FCE018A
:1033400083960E94691644E150E061E070E0CE018E
:1033500083960E94580ACE0183960E9495162DED01
:10336000222E312CEE24E394F12CCC24CA9443E099
:10337000D42E85E291E00E94590D3092C001209236
:10338000BF010E948E0C65E070E080E090E00E943A
:10339000C6110E945B0C80E00E94140C682F6160D3
:1033A00080E00E94F70B60E787E00E94F70B81E066
:1033B0000E947E0C80916702882341F040916C024C
:1033C00067E672E08AE00E942B0C10C082E00E9447
:1033D000140CE2E6F7E09491B70101C0660F9A95EC
:1033E000EAF76095682382E00E94F70B8DE10E9466
:1033F000140C81FFC2C00E946C0CBFC087E10E9408
:10340000140C80FFF9C088E991E00E94590D8114E5
:103410009104A104B10421F40E9400124B015C014B
:103420000E940012681979098A099B090E94EA23FF
:10343000AB01BC0122E0CE0183960E949A161A824B
:1034400019821C821B821E821D8269E070E0CE01FF
:1034500001960E943016811131C2CE0101960E9460
:1034600057168FA198A56BA07CA00D811E816114B9
:10347000710409F443C2009709F02BC24D815E81AB
:1034800069817A8181EC91E00E943A1585E491E0AE
:103490000E94470DCE0101960E949516CE0183969B
:1034A0000E9495160E940012DC01CB01881999092F
:1034B000AA09BB0981319742A105B10508F49ECF45
:1034C00080E79FE60E94F7158AE0A82EB12C0AE259
:1034D00010E024E530E049EA55E060E070E080E08B
:1034E00090E00E94D80C0E94BC0B64E670E080E083
:1034F00090E00E94C61124E530E040EF53E060E028
:1035000070E080E090E00E94D80C0E94BC0B64E662
:1035100070E080E090E00E94C61124E530E047E3CF
:1035200052E060E070E080E090E00E94D80C0E94E1
:10353000BC0B64E670E080E090E00E94C61124E5D8
:1035400030E04EE750E060E070E080E090E00E9404
:10355000D80C0E94BC0B64E670E080E090E00E9412
:10356000C611E1EAF2E0119224E0E939F207D9F755
:1035700031E0A31AB10809F0AACF812C912C540193
:103580003DCF81E08093640215CD109376027ACE10
:10359000C8010E94092590E09093B3018093B20185
:1035A000C60104960E940925682F70E080E090E033
:1035B0000E94EA234B015C016093050170930601B0
:1035C0008093070190930801C60106960E94092581
:1035D000882309F4A6CE20E030E040E05FE3C50197
:1035E000B4010E94631E60930501709306018093ED
:1035F00007019093080195CE1091650201E0111129
:1036000001C000E080916602811102C0101B01C060
:1036100010E00E94F40B81E60E94A412002329F01E
:103620008FEF0E94A4128093BF01112329F08FEF26
:103630000E94A4121150F9CF0E94F10B60E787E0BD
:103640000E94F70B8091BF019091C0010E94F71575
:1036500065E070E080E090E00E94C61180E00E948A
:103660007E0C80916E0290916F020E94BB118DE1E1
:103670000E94140C81FF08C080916E0290916F022D
:103680000E94BB110E946C0C80E00E94140C682FF9
:103690006E7F80E00E94F70B82E00E94140CE2E64D
:1036A000F7E09491970101C0220F9A95EAF7682FED
:1036B000622B82E00E94F70B80917B0290917C024A
:1036C0000E944B1340E06CEC80917B0290917C0255
:1036D0000E94B8124091760264E480917B0290913E
:1036E0007C020E94B812809178028823A9F0E091B0
:1036F0007702E950E33040F4F0E0EE0FFF1FE15FA6
:10370000FE4F6081718102C06EEE72E0072E000CE8
:10371000880B990B0E94C6110E9467154B015C0132
:103720000E94CF1EDC01CB018C011CA21BA21EA299
:103730001DA218A61FA24AE0BE016F5F7F4F0E9424
:103740004A21BE016F5F7F4FCE0183960E946916AA
:103750004FA158A56BA17CA181EC91E00E943A1584
:10376000CE0183960E94951601381F4F09F485C03B
:1037700088E491E00E94470D84E691E00E94470DA5
:1037800089E691E00E94470D0E9467150E94A80DEE
:1037900089E691E00E94470DC501B4010E94A80D81
:1037A0008EED9AE00E94A60A42E050E065E070E0EB
:1037B00087E891E00E94EC0882EA99E00E94A60A5C
:1037C0004091050150910601609107017091080137
:1037D00021E0CE0101960E949A1642E050E06CE191
:1037E00070E0CE0101960E94580ACE0101960E9417
:1037F00095168EED9AE00E94A60A8CE797E00E944B
:10380000A60A21E0B501A401CE0101960E949A16F4
:1038100044E150E061E070E0CE0101960E94580A58
:10382000CE0101960E9495168092BA019092BB013A
:10383000A092BC01B092BD010E94BC0BC501B401B5
:103840000E9416140E9400122B013C011FEF0E94DF
:103850000012DC01CB0184199509A609B709209152
:10386000040180319742A105B10508F04CC0211137
:103870004DC081E08093040118C08EED9AE00E9453
:10388000A60A44E150E064E070E08BE891E00E9419
:10389000EC0860E081E10E944F110E94BC0B68EED1
:1038A00073E080E090E00E94C6113092C001209247
:1038B000BF010E948E0C0E94370F5BCD89E090E023
:1038C0009E838D836BE371E089819A810E9414212C
:1038D000C8CD080F191FB801CE0101960E943016FD
:1038E000882361F029813A818D819E81B301820F05
:1038F000931F0E9414211E830D83C0CDCE0101961B
:103900000E945716BBCD2111D0CFB3CF0E94001219
:103910002091B6013091B7014091B8015091B901A1
:10392000DC01CB01821B930BA40BB50B883B9B40A6
:10393000A105B10528F4C501B4010E94161487CF72
:103940008FE991E00E94590D61E085E00E947F11AE
:10395000EDE6F7E08491833051F480918000806837
:1039600080938000D0928900C092880008C0843083
:10397000E8F4813079F484B5806884BD17BD0E9475
:1039800000126093B6017093B7018093B8019093D1
:10399000B901D1CF823029F484B5806284BD18BDCD
:1039A000EECF61E085E00E944F11E9CF873041F40E
:1039B0008091B00080688093B0001093B300DFCF97
:1039C000883041F48091B00080628093B000109301
:1039D000B400D5CF843029F7809180008062809335
:1039E0008000D0928B00C0928A00C9CF1092C4018F
:1039F0001092C30188EE93E0A0E0B0E08093C5018F
:103A00009093C601A093C701B093C80189E191E0EA
:103A10009093C2018093C10185EC90E09093CE0118
:103A20008093CD0184EC90E09093D0018093CF01FE
:103A300080EC90E09093D2018093D10181EC90E0F2
:103A40009093D4018093D30182EC90E09093D601BF
:103A50008093D50186EC90E09093D8018093D701B4
:103A60001092DA011092DB011092DC011092DD015C
:103A7000EAE4FDE0E491F0E0EE0FFF1FE65CF24FB8
:103A80008591949190938A0280938902ECE2FDE003
:103A9000E491E0939302EBE4FDE0E491F0E0EE0FBB
:103AA000FF1FE65CF24F8591949190938C02809376
:103AB0008B02EDE2FDE0E491E0939402E7E5FDE0A6
:103AC000E491F0E0EE0FFF1FE65CF24F85919491D8
:103AD00090938E0280938D02E9E3FDE0E491E09300
:103AE0009502E8E4FDE0E491F0E0EE0FFF1FE65CF4
:103AF000F24F859194919093900280938F02EAE225
:103B0000FDE0E491E0939602E5E4FDE0E491F0E06D
:103B1000EE0FFF1FE65CF24F859194919093920215
:103B200080939102E7E2FDE0E491E093970261E087
:103B300086E00E947F1161E087E00E947F1161E0D2
:103B400083E10E947F1161E084E00E947F1161E0C7
:103B500081E00E947F1186E08093980284E0809348
:103B6000990260E088E00E947F11EEE2FDE0E491BE
:103B7000E0939C04ECE4FDE0E491F0E0EE0FFF1F25
:103B8000E45EF24F8591949190939E0480939D04FE
:103B90001092A7041092A9041092A804E7EAF4E096
:103BA000129284E0EF39F807D9F78FEB9FE09093FA
:103BB0008802809387028CE994E090937C02809342
:103BC0007B0210927A021092760289E0809377024B
:103BD00081E0809378028093790289E090E090936D
:103BE0005F0280935E028AE090E09093610280938E
:103BF00060021092640280E2809365021092660275
:103C000085E080936C0285E090E0A0E0B0E08093D6
:103C1000720290937302A0937402B0937502109293
:103C20006702089597FB072E16F4009407D077FDDE
:103C300009D00E94481E07FC05D03EF4909581955E
:103C40009F4F0895709561957F4F0895A1E21A2EB8
:103C5000AA1BBB1BFD010DC0AA1FBB1FEE1FFF1F30
:103C6000A217B307E407F50720F0A21BB30BE40B80
:103C7000F50B661F771F881F991F1A9469F76095C7
:103C80007095809590959B01AC01BD01CF01089581
:103C9000AA1BBB1B51E107C0AA1FBB1FA617B70772
:103CA00010F0A61BB70B881F991F5A95A9F780958E
:103CB0009095BC01CD010895EE0FFF1F0590F49182
:103CC000E02D09945058BB27AA270E947A1E0C9415
:103CD000CF240E94C12438F00E94C82420F039F477
:103CE0009F3F19F426F40C94BE240EF4E095E7FBF4
:103CF0000C94B824E92F0E94E02458F3BA17620705
:103D000073078407950720F079F4A6F50C94022533
:103D10000EF4E0950B2EBA2FA02D0B01B9019001E6
:103D20000C01CA01A0011124FF27591B99F0593F2A
:103D300050F4503E68F11A16F040A22F232F342F72
:103D40004427585FF3CF469537952795A795F040C0
:103D50005395C9F77EF41F16BA0B620B730B840BD5
:103D6000BAF09150A1F0FF0FBB1F661F771F881F8D
:103D7000C2F70EC0BA0F621F731F841F48F48795E5
:103D800077956795B795F7959E3F08F0B0CF9395D7
:103D9000880F08F09927EE0F9795879508950E9450
:103DA000D61E6894B1110C94032508950E94E8244E
:103DB00088F09F5798F0B92F9927B751B0F0E1F0EC
:103DC000660F771F881F991F1AF0BA95C9F714C09C
:103DD000B13091F00E940225B1E008950C940225C3
:103DE000672F782F8827B85F39F0B93FCCF38695D5
:103DF00077956795B395D9F73EF490958095709532
:103E000061957F4F8F4F9F4F08950E94272408F49C
:103E10008FEF08950E942724880B990B0895CF9364
:103E2000DF938230910510F482E090E0E091BC04D1
:103E3000F091BD0420E030E0C0E0D0E0309711F117
:103E40004081518148175907C0F04817590761F45C
:103E500082819381209719F09B838A832BC0909352
:103E6000BD048093BC0426C02115310519F042170A
:103E7000530718F49A01BE01DF01EF010280F381BC
:103E8000E02DDCCF2115310509F1281B390B243039
:103E9000310590F412968D919C91139761157105DF
:103EA00021F0FB019383828304C09093BD0480932F
:103EB000BC04FD01329644C0FD01E20FF31F819363
:103EC0009193225031092D933C933AC02091BA042A
:103ED0003091BB04232B41F420910B0130910C0154
:103EE0003093BB042093BA042091090130910A0158
:103EF0002115310541F42DB73EB740910D01509188
:103F00000E01241B350BE091BA04F091BB04E217BB
:103F1000F307A0F42E1B3F0B2817390778F0AC01EC
:103F20004E5F5F4F2417350748F04E0F5F1F5093C9
:103F3000BB044093BA048193919302C0E0E0F0E0A7
:103F4000CF01DF91CF9108950F931F93CF93DF930C
:103F5000009709F48CC0FC01329713821282009101
:103F6000BC041091BD040115110581F4208131813B
:103F7000820F931F2091BA043091BB042817390790
:103F800079F5F093BB04E093BA0471C0D80140E026
:103F900050E0AE17BF0750F412962D913C91139745
:103FA000AD012115310509F1D901F3CF9D01DA01E8
:103FB0003383228360817181860F971F8217930755
:103FC00069F4EC0128813981260F371F2E5F3F4F9E
:103FD000318320838A819B8193838283452B29F4BB
:103FE000F093BD04E093BC0442C01396FC93EE939F
:103FF0001297ED01499159919E01240F351FE21747
:10400000F30771F480819181840F951F02961196B8
:104010009C938E938281938113969C938E93129797
:10402000E0E0F0E0D80112968D919C9113970097F3
:1040300019F0F8018C01F6CF8D919C9198012E5FBB
:104040003F4F820F931F2091BA043091BB04281771
:10405000390769F4309729F41092BD041092BC041A
:1040600002C0138212821093BB040093BA04DF9142
:10407000CF911F910F910895A0E0B0E0E2E4F0E24B
:104080000C942325EC01009721F4CB010E940F1F13
:10409000B8C0FC01E60FF71F9C0122503109E2175E
:1040A000F30708F4ACC0D9010D911C9111970617C4
:1040B0001707B0F00530110508F49FC0C801049738
:1040C0008617970708F499C002501109061B170BB1
:1040D000019311936D937C93CF010E94A41F8DC017
:1040E0005B01A01AB10A4C01800E911EA091BC0484
:1040F000B091BD0440E050E0E12CF12C109709F4A0
:104100004AC0A815B905D1F56D907C90119763014F
:1041100082E0C80ED11CCA14DB0480F1A3014A1945
:104120005B096A0182E0C80ED11C1296BC901297FE
:104130001396AC91B5E0CB16D10440F0B282A383C4
:1041400051834083D9016D937C930AC00E5F1F4F4A
:10415000C301800F911FF90191838083EB2DFA2F0A
:10416000E114F10431F0D7011396FC93EE9312970A
:1041700044C0F093BD04E093BC043FC08D919C917A
:1041800011974817590708F4AC017D0112960D905C
:10419000BC91A02DB3CF8091BA049091BB04881537
:1041A0009905E1F446175707C8F4809109019091E9
:1041B0000A01009741F48DB79EB740910D015091CF
:1041C0000E01841B950BE817F907C8F4F093BB04A4
:1041D000E093BA04F901718360830FC0CB010E94A0
:1041E0000F1F7C01009759F0A801BE010E940B210E
:1041F000CE010E94A41FC70104C0CE0102C080E00E
:1042000090E0CDB7DEB7EEE00C943F2581E090E082
:10421000F8940C945625FB01DC0102C001900D922C
:1042200041505040D8F70895FB01DC0101900D92F8
:104230000020E1F70895FB01DC014150504048F0B7
:1042400001900D920020C9F701C01D9241505040CD
:10425000E0F70895EF920F931F93CF93DF93E80158
:1042600047FD02C034E001C034E1E42F440FFF0BEE
:10427000F7FF03C0F195E195F109E32E022F2E2FF0
:10428000AE010E946F21CE01DF91CF911F910F915E
:10429000EF900895BB274A3031F4992322F4BDE210
:1042A000909581959F4F0C945621BB27FB01552774
:1042B000AA27880F991FAA1FA41710F0A41B839583
:1042C0005051B9F7A05DAA3308F0A95DA1930097FA
:1042D00079F7B111B1931192CB010C94D5234F9280
:1042E0005F926F927F929F92AF92BF92CF92DF9236
:1042F000EF92FF920F931F93CF93DF93CDB7DEB76B
:1043000029970FB6F894DEBF0FBECDBF6A01122FFA
:10431000B02E2BE3201720F0FF24F394F00E02C000
:10432000BCE3FB2E0F2D27E0AE014F5F5F4F0E94D5
:10433000FD22AC018981982F9970913031F0E1FC18
:1043400006C0E0FE06C090E205C09DE203C09BE20D
:1043500001C090E0EE2DE07183FF3CC0911102C0DE
:1043600083E001C084E0811718F4212F281B01C0CD
:1043700020E0E1110BC0F601822F30E2882319F012
:1043800031938150FBCFC20ED11C20E0992329F03C
:10439000D6019C93F60131966F01C6010396E2FEA9
:1043A0000AC03EE4D6013C9341E411964C93119728
:1043B00012963C9306C03EE6F601308341E6418307
:1043C0003283FC01322F40E2332309F442C041938F
:1043D0003150FACF82FF44C0911102C083E001C086
:1043E00084E0811718F4212F281B01C020E0E1117F
:1043F0000BC0F601822F30E2882319F031938150EF
:10440000FBCFC20ED11C20E0992329F0D6019C934A
:10441000F60131966F01C6010396E2FE0BC039E446
:10442000D6013C933EE411963C93119736E41296E4
:104430003C9307C039E6F60130833EE6318336E629
:104440003283FC01322F40E2332319F04193315083
:10445000FBCFFC01E20FF11D10828EEF9FEFB7C082
:10446000F1E0911101C0F0E06F2F70E01416150615
:1044700024F49A012F5F3F4F02C021E030E0260F65
:10448000371FBB2029F06B2D70E06F5F7F4F02C09C
:1044900060E070E0260F371F612F70E026173707A6
:1044A0001CF4121B212F01C020E03E2D387159F45D
:1044B000D601322F60E2332319F06D933150FBCFD8
:1044C000C20ED11C20E0FF2331F0D6019C93B6012F
:1044D0006F5F7F4F6B01E1110BC0F601922F30E34C
:1044E000992319F031939150FBCFC20ED11C20E0DB
:1044F0009F2D940F3A81782F7071A72E84FF03C0EF
:10450000313309F49150191624F4993018F098E0D9
:1045100001C091E0E42F852F57FF02C0E0E080E06A
:104520006E2F782FE0E0F0E0AEE29A2E3A01691AA1
:1045300071082A01461A570A0B2D10E011950195B2
:1045400011096F3F8FEF780729F4D6019C92C601BD
:1045500001966C014617570784F0661677066CF4CF
:104560007F01E40CF51CA1E0B0E0AC0FBD1FEA0E2A
:10457000FB1ED7011196BC9002C090E3B92E61508A
:1045800071093196C60101967C016017710724F00C
:10459000D601BC926C01D5CF6417750741F4363350
:1045A00020F4353321F4A11002C081E3B82EF601C6
:1045B000B082F701822F90E2882319F09193815005
:1045C000FBCFF701E20FF11D108280E090E0299609
:1045D0000FB6F894DEBF0FBECDBFDF91CF911F9114
:1045E0000F91FF90EF90DF90CF90BF90AF909F9092
:1045F0007F906F905F904F900895283008F027E0EB
:104600003327DA01990F311D87FD9160009661050E
:10461000710539F432602E5F3D9330E32A95E1F75E
:1046200008959F3F30F080387105610509F03C5FC7
:104630003C5F3D93913008F08068911DDF93CF93EC
:104640001F930F93FF92EF92192F987F9695E92F62
:1046500096959695E90FFF27EC5AFF4E9927332739
:10466000EE24FF24A701E70105900894079428F49D
:10467000360FE71EF81E491F511D660F771F881F52
:10468000991F0694A1F70590079428F4E70EF81EE9
:10469000491F561FC11D770F881F991F661F06945B
:1046A000A1F70590079428F4F80E491F561FC71F5D
:1046B000D11D880F991F661F771F0694A1F70590DB
:1046C000079420F4490F561FC71FD81F990F661F64
:1046D000771F881F0694A9F784911095177041F0F1
:1046E000D695C79557954795F794E7941A95C1F7CE
:1046F000EAEFFFE0689415901591359165919591D9
:1047000005907FE27395E118F10A430B560BC90B34
:10471000D009C0F7E10CF11E431F561FC91FD01D61
:104720007EF4703311F48A95E6CFE894015030F0AE
:10473000080F0AF40027021708F4202F2395022FF0
:104740007A3328F079E37D932A95E9F710C07D93B9
:104750002A9589F606949795679537951795179436
:10476000E118F10A430B560BC90BD00998F02395B9
:104770007E9173957A3308F070E37C932013B8F739
:104780007E9170617D9330F0839571E37D9370E34A
:104790002A95E1F71124EF90FF900F911F91CF918F
:1047A000DF91992787FD90950895DC01FC01672F23
:1047B00071917723E1F7329704C07C916D937083F8
:1047C0006291AE17BF07C8F308950E94272408F42A
:1047D00081E00895E89409C097FB3EF49095809598
:1047E000709561957F4F8F4F9F4F9923A9F0F92FB7
:1047F00096E9BB279395F695879577956795B79535
:10480000F111F8CFFAF4BB0F11F460FF1BC06F5F1A
:104810007F4F8F4F9F4F16C0882311F096E911C02C
:10482000772321F09EE8872F762F05C0662371F04D
:1048300096E8862F70E060E02AF09A95660F771F61
:10484000881FDAF7880F9695879597F90895990F3D
:104850000008550FAA0BE0E8FEEF16161706E8074A
:10486000F907C0F012161306E407F50798F0621B6B
:10487000730B840B950B39F40A2661F0232B242B40
:10488000252B21F408950A2609F4A140A6958FEF5F
:10489000811D811D08950E945E240C94CF240E94E6
:1048A000C12438F00E94C82420F0952311F00C9404
:1048B000B8240C94BE2411240C9403250E94E024F7
:1048C00070F3959FC1F3950F50E0551F629FF00163
:1048D000729FBB27F00DB11D639FAA27F00DB11D7C
:1048E000AA1F649F6627B00DA11D661F829F222705
:1048F000B00DA11D621F739FB00DA11D621F839F8C
:10490000A00D611D221F749F3327A00D611D231F61
:10491000849F600D211D822F762F6A2F11249F57AF
:1049200050409AF0F1F088234AF0EE0FFF1FBB1FB2
:10493000661F771F881F91505040A9F79E3F510571
:1049400080F00C94B8240C9403255F3FE4F3983E68
:10495000D4F3869577956795B795F795E7959F5F1B
:10496000C1F7FE2B880F911D9695879597F90895AD
:1049700097F99F6780E870E060E008959FEF80EC12
:10498000089500240A9416161706180609060895B5
:1049900000240A9412161306140605060895092E1B
:1049A0000394000C11F4882352F0BB0F40F4BF2B8A
:1049B00011F460FF04C06F5F7F4F8F4F9F4F0895CA
:1049C00057FD9058440F551F59F05F3F71F04795C0
:1049D000880F97FB991F61F09F3F79F087950895A5
:1049E000121613061406551FF2CF4695F1DF08C0C4
:1049F000161617061806991FF1CF869571056105E1
:104A000008940895E894BB2766277727CB0197F988
:104A10000895F999FECF92BD81BDF89A992780B586
:104A20000895262FF999FECF1FBA92BD81BD20BDF2
:104A30000FB6F894FA9AF99A0FBE019608952F923C
:104A40003F924F925F926F927F928F929F92AF921E
:104A5000BF92CF92DF92EF92FF920F931F93CF936B
:104A6000DF93CDB7DEB7CA1BDB0B0FB6F894DEBF02
:104A70000FBECDBF09942A88398848885F846E8428
:104A80007D848C849B84AA84B984C884DF80EE8072
:104A9000FD800C811B81AA81B981CE0FD11D0FB67B
:104AA000F894DEBF0FBECDBFED010895F894FFCF9F
:104AB0008F0F8F0F010000A4410000BE0480005E34
:104AC00000BC00770100000000CE0E3A15970E756D
:104AD0000E890E150F7777777777777777777777F0
:104AE000777777777777206E72660074696D6520C7
:104AF0006973203A000D0A00205265717565737460
:104B0000696E672074656D70657261747572657326
:104B10002E2E2E00444F4E450054656D7065726117
:104B20007475726520666F722044657669636520CE
:104B3000312069733A2000536574004572726F72B8
:104B40002053656E736F72006E6F206E7266006622
:104B5000696E6973006E616E00696E66006F7666DD
:024B6000000053
:00000001FF
