:100000000C946E040C9496040C9496040C94960430
:100010000C9496040C9496040C9496040C949604F8
:100020000C9496040C9496040C9496040C949604E8
:100030000C9496040C9496040C9496040C949604D8
:100040000C94710C0C9496040C94640B0C943E0B61
:100050000C9496040C9496040C9496040C949604B8
:100060000C9496040C94960400000080C0E0E0F02C
:10007000F8F8F87C7C7CFCFEFEFE7E3E3E3EFEFEFA
:10008000FEFE7C7C7CF8F8F8F0F0E0C08000000018
:10009000007CFFFFFFFFFFFF830100107CFEFFFFDE
:1000A000FFFFE0C0C0C0FFFFFFFFFEFC3800010300
:1000B000FFFFFFFFFFFFFE00000001070F0F1F3FC4
:1000C0003F7E7C7CF8F8F1F1F3F3F3F3F3F3F3F311
:1000D000F1F1F8F87C7C7E3F3F1F1F0F0703000003
:1000E0000000000000000000000000202020242C60
:1000F0003C3870F8DC8EC6C00000C0C68EDCF870DC
:10010000383C2C242020200000000000001010109B
:1001100093FFFE7C1010547C7D7DBBBB9393FFFF4F
:100120007C7CFFFF9393BBBB7D7D7C5410107CFED9
:10013000FF93101010000000010100080808486833
:1001400079391D3F77E3C707000007C7E3773F1DF5
:100150003979684808080800010100000000000023
:100160000000000000808080004858D0A0E0D873D4
:10017000673C38141C101F1F101C1C10382E3378BD
:1001800068A0B0D8480880808080001018181072CD
:10019000B5B5B5FFFF8100000000000000000000C1
:1001A00000000000000000000000C3FFBDD5551096
:1001B000181800000101010100121A090D171BCEC9
:1001C000643C0C283808F8F80838280838E4CC1EB5
:1001D00016070B1A12010101010000000000000CBB
:1001E000102D0D00000080808080808000000000C5
:1001F00000010303030303030100000000000000EB
:10020000000000000000000000000000C0C000006E
:1002100000000000000286868686868602000000B6
:100220000081C3C3C3C3C3C381000000FC7A0606B8
:10023000060606067AFC00007EBCC0C0C0C0C0C076
:10024000BC7E0000000000000000000078FC000000
:1002500000000000000000003C7E000000028686D6
:10026000868686867AFC00007EBDC3C3C3C3C3C333
:100270008100000000028686868686867AFC000061
:100280000081C3C3C3C3C3C3BD7E0000FC788080AC
:100290008080808078FC00000001030303030303D7
:1002A0003D7E0000FC7A86868686868602000000F7
:1002B0000081C3C3C3C3C3C3BD7E0000FC7A86866E
:1002C00086868686020000007EBDC3C3C3C3C3C347
:1002D000BD7E000000020606060606067AFC000047
:1002E00000000000000000003C7E0000FC7A8686D2
:1002F000868686867AFC00007EBDC3C3C3C3C3C3A3
:10030000BD7E0000FC7A8686868686867AFC0000A2
:100310000081C3C3C3C3C3C3BD7E000E182D0D002F
:1003200000000000000000000000000000000010BD
:1003300038383838383838381000000000000000ED
:1003400000000000000000000000000000000000AD
:10035000000000000000000000000000000000009D
:100360000000000000000000000040E0E04000004D
:10037000000000000002060E0E0E0E0E0E06020019
:10038000000000103838383838383838100000008D
:100390000080C0E0E0E0E0E0E0C080000000FCFAA7
:1003A000F60E0E0E0E0E0EF6FAFC0000EFC78300DE
:1003B000000000000083C7EF00007FBFDFE0E0E047
:1003C000E0E0E0DFBF7F0000000000000000000070
:1003D00000F0F8FC000000000000000000000083B6
:1003E000C7EF00000000000000000000001F3F7F7A
:1003F00000000002060E0E0E0E0E0EF6FAFC0000B5
:10040000E0D0B83838383838383B170F00007FBF95
:10041000DFE0E0E0E0E0E0C0800000000002060E67
:100420000E0E0E0E0EF6FAFC0000001038383838AA
:10043000383838BBD7EF00000080C0E0E0E0E0E0F3
:10044000E0DFBF7F0000FCF8F0000000000000F0DB
:10045000F8FC00000F173B383838383838BBD7EF76
:1004600000000000000000000000001F3F7F0000AF
:10047000FCFAF60E0E0E0E0E0E06020000000F170E
:100480003B383838383838B8D0E000000080C0E059
:10049000E0E0E0E0E0DFBF7F0000FCFAF60E0E0EC9
:1004A0000E0E0E0602000000EFD7BB383838383881
:1004B00038B8D0E000007FBFDFE0E0E0E0E0E0DF60
:1004C000BF7F00000002060E0E0E0E0E0EF6FAFCA6
:1004D000000000000000000000000083C7EF0000E3
:1004E0000000000000000000001F3F7F0000FCFA39
:1004F000F60E0E0E0E0E0EF6FAFC0000EFD7BB380D
:100500003838383838BBD7EF00007FBFDFE0E0E095
:10051000E0E0E0DFBF7F0000FCFAF60E0E0E0E0EEC
:100520000EF6FAFC00000F173B383838383838BB65
:10053000D7EF00000080C0E0E0E0E0E0E0DFBF7F58
:10054000000608205F0000000000000000002F00EF
:100550000000000700070000147F147F1400242A05
:100560007F2A120023130864620036495522500086
:10057000000503000000001C224100000041221C75
:10058000000014083E08140008083E080800000097
:10059000A060000008080808080000606000000073
:1005A0002010080402003E5149453E0000427F40B1
:1005B00000004261514946002141454B3100181469
:1005C000127F10002745454539003C4A4949300013
:1005D0000171090503003649494936000649492990
:1005E0001E000036360000000056360000000814D9
:1005F00022410000141414141400004122140800B5
:10060000020151090600324959513E007C12111273
:100610007C007F49494936003E41414122007F41EB
:1006200041221C007F49494941007F090909010015
:100630003E4149497A007F0808087F0000417F4118
:1006400000002040413F01007F08142241007F400C
:10065000404040007F020C027F007F0408107F00B2
:100660003E4141413E007F09090906003E415121BA
:100670005E007F09192946004649494931000101B8
:100680007F0101003F4040403F001F2040201F00ED
:100690003F4038403F0063140814630007087008A7
:1006A0000700615149454300007F414100AA55AA16
:1006B00055AA55000041417F0000040201020400D8
:1006C00040404040400000030500000020545454C6
:1006D00078007F484444380038444444200038447B
:1006E00044487F00385454541800087E0901020021
:1006F00018A4A4A47C007F080404780000447D4072
:1007000000004080847D00007F10284400000041EC
:100710007F4000007C04180478007C080404780002
:10072000384444443800FC24242418001824241895
:10073000FC007C0804040800485454542000043F82
:10074000444020003C4040207C001C2040201C00F5
:100750003C4030403C004428102844001CA0A0A08D
:100760007C004464544C440000107C820000000073
:10077000FF00000000827C1000000006090906004E
:100780000000002300260029000102040810204078
:10079000800102040810200102040810200000005B
:1007A00000250028002B00040404040404040402AF
:1007B0000202020202030303030303005EBCE261C0
:1007C0003FDD83C29C7E20A3FD1F419DC3217FFC92
:1007D000A2401E5F01E3BD3E6082DC237D9FC142DB
:1007E0001CFEA0E1BF5D0380DE3C62BEE0025CDF78
:1007F00081633D7C22C09E1D43A1FF4618FAA427B9
:10080000799BC584DA3866E5BB5907DB856739BA59
:10081000E406581947A5FB7826C49A653BD9870496
:100820005AB8E6A7F91B45C6987A24F8A6441A993F
:10083000C7257B3A6486D85B05E7B98CD2306EED6C
:10084000B3510F4E10F2AC2F7193CD114FADF37029
:100850002ECC92D38D6F31B2EC0E50AFF1134DCE42
:1008600090722C6D33D18F0C52B0EE326C8ED0530F
:100870000DEFB1F0AE4C1291CF2D73CA947628AB28
:10088000F517490856B4EA6937D58B5709EBB536E1
:10089000688AD495CB2977F4AA4816E9B7550B880E
:1008A000D6346A2B7597C94A14F6A8742AC89615C7
:1008B0004BA9F7B6E80A54D7896B3500000000242D
:1008C0000027002A000000000800020100000304C5
:1008D00007000000000000000000E91711241FBEFF
:1008E000CFEFD8E0DEBFCDBF12E0A0E0B1E0E0E79F
:1008F000FBE302C005900D92A233B107D9F725E0C2
:10090000A2E3B2E001C01D92AF35B207E1F714E0F7
:10091000CEE6D4E004C02197FE010E940919CD362D
:10092000D107C9F70E94BD100C94B61D0C940000AD
:1009300084359105F8F460337105E0F49B0143E0E0
:10094000369527954A95E1F744E5429FF001439F8C
:10095000F00D11248E0F9F1FFC01EF5CFC4F6770A0
:10096000772781E090E001C0880F6A95EAF7908DC3
:10097000892B808F0895CF92DF92EF92FF920F9391
:100980001F93CF93DF938435910598F460337105FD
:1009900080F46A017B018C01C0E0D0E0CC15DD055C
:1009A00044F4BE016E0D7F1DC8010E94980421967B
:1009B000F5CFDF91CF911F910F91FF90EF90DF90D6
:1009C000CF9008958435910528F56033710510F5B1
:1009D000FB01E770FF2721E001C0220FEA95EAF74B
:1009E00033E0759567953A95E1F734E5369FF00168
:1009F000379FF00D11248E0F9F1FFC01E75BFC4F0A
:100A000080E090E0841795072CF43081322B3193ED
:100A10000196F8CF0895AF92BF92CF92DF92EF92F6
:100A2000FF920F931F93CF93DF938B01BC018091B3
:100A30002303909124030E940A0D40E06EEB809105
:100A40002303909124030E94C80CE801680189E007
:100A5000C80ED11CA0902303B090240388E0E82E98
:100A6000F12C01E010E0C5010E94370D8111102B1F
:100A7000000F81E0E81AF108B1F71993CC15DD05F4
:100A800049F780912303909124030E945B0D91E02C
:100A9000813009F090E0892FDF91CF911F910F9164
:100AA000FF90EF90DF90CF90BF90AF900895E1E876
:100AB000F2E0A089B18982E08C93A485B5851C926F
:100AC000A685B7858FEC8C93108EA489B58986E0B6
:100AD0008C93A289B3898C9180618C93A289B3890C
:100AE0008C9188608C93A289B3898C9180688C9357
:100AF0000288F389E02D80818F7D808308950F9394
:100B00001F93CF93DF93CDB7DEB729970FB6F89435
:100B1000DEBF0FBECDBFFC012081203161F18C0111
:100B200080912303909124030E945B0D882309F197
:100B3000BE016F5F7F4FC8010E940B058823C9F07B
:100B400068E0CE0101960E94BB0C9985891311C003
:100B50008D818F3361F020F48F3159F489E00CC01E
:100B60008F3519F08F3739F004C08BE005C08AE06B
:100B700003C080E001C08CE029960FB6F894DEBF78
:100B80000FBECDBFDF91CF911F910F910895A1E3CB
:100B9000B3E052969C938E935197FC012491539607
:100BA0002C9353973196E4915496EC935497FC010F
:100BB0003296E4915596EC935597FC0133968491C7
:100BC00056968C93569757961C92089590913F0392
:100BD000E0913903F0913A032081422F50E0292F10
:100BE00030E020953095242335232083E091350390
:100BF000F091360390913D03208161110BC0422F8B
:100C000050E0292F30E02095309524233523208390
:100C100048E003C0922B9083FBCFE0913303F09127
:100C2000340390913C03208187FF03C0922B908373
:100C300009C0622F70E0292F30E0209530952623DF
:100C400037232083880F90913B03E0913103F0918B
:100C500032032081622F70E0292F30E020953095FB
:100C6000262337232083000090913B03E09131033A
:100C7000F09132032081922B9083415071F6809144
:100C80003F03E0913903F0913A039081892B8083EF
:100C90000895CF93DF9380914105811112C060E0E8
:100CA00080E40E94E60560E080E80E94E605C9E471
:100CB000D3E061E089910E94E60585E0C134D80760
:100CC000C1F7DF91CF910895E9E4F3E0119285E057
:100CD000E134F807D9F708958435910500F56033BC
:100CE0007105E8F49B0143E0369527954A95E1F7B5
:100CF00044E5429FF001439FF00D11248E0F9F1F8A
:100D0000FC01EF5CFC4F6770772781E090E001C049
:100D1000880F6A95EAF78095908D8923808F0895D2
:100D20007F928F929F92AF92BF92CF92DF92EF927B
:100D3000FF920F931F93CF93DF937C01C4E1D0E028
:100D400068E2762ECC24C394D12CCE0144979C012A
:100D500043E0359527954A95E1F7729E8001739E91
:100D6000100D112487709927560102C0AA0CBB1CD4
:100D70008A95E2F75DE2852E912C0D521109F8015A
:100D8000E80DF91DEE0DFF1DE491F0E0EA21FB21D5
:100D9000BE01C401EF2B19F00E94980402C00E940A
:100DA0006C068FEF881A980A85E58816910439F742
:100DB0002196CD32D10549F6DF91CF911F910F9148
:100DC000FF90EF90DF90CF90BF90AF909F908F906B
:100DD0007F900895CF93DF93CDB7DEB761970FB6BD
:100DE000F894DEBF0FBECDBFE0912303F091240342
:100DF000138615861486DF011B96CF0103961E927B
:100E0000A817B907E1F7BE01665F7F4FCF010E94C7
:100E1000910D882341F067E0CE010A960E94BB0C39
:100E20009989891729F060E070E08EEF92EC59C043
:100E300080912303909124030E945B0D8823F1F19C
:100E4000BE016F5F7F4FCE010A960E940B0588237B
:100E5000A9F168E0CE0101960E94BB0C9985891327
:100E60002DC0698148E0649FB00111248A81282F38
:100E700030E0322F2227330F330F330F262B372B3F
:100E80008A858031C9F4688570E08F81AB01481B89
:100E90005109CA019695982F8827979587950E94A2
:100EA000E11860517109207F53E0220F331F5A95DA
:100EB000E1F7620F731F04C0B90102C060E874EE6D
:100EC000613854EE75070CF4AECF072E000C880B7A
:100ED000990B0E94401C20E030E040E05CE30E945F
:100EE0009F1C61960FB6F894DEBF0FBECDBFDF9199
:100EF000CF91089580912303909124030E945B0D6C
:100F000040E06CEC80912303909124030E94C80C74
:100F100040911E0364E480912303909124030E9476
:100F2000C80C809120038823A9F0E0911F03E950A9
:100F3000E33040F4F0E0EE0FFF1FE45FFE4F60810E
:100F4000718102C06EEE72E0072E000C880B990BC7
:100F50000C942B0C0895CF93DF93FC0144815581B1
:100F60006081718181E892E00E94C80EEC0161E32A
:100F700071E081E892E00E945F108C0F9D1FDF916D
:100F8000CF9108952F923F924F925F926F927F92EE
:100F90008F929F92AF92BF92CF92DF92EF92FF9289
:100FA0000F931F93CF93DF93CDB7DEB728970FB67C
:100FB000F894DEBF0FBECDBF78876F831A01FC01A6
:100FC00001900020E9F731979F01281B390B3C83E2
:100FD0002B836F30774281F4409144036B817C8195
:100FE000469F9001479F300D112444E550E0DA01FF
:100FF000A21BB30BB887AF832F8138852E303742C1
:10100000B1F4409144036B817C81469F9001479FDE
:10101000300D112444E550E0421B530B57FF02C032
:101020004F5F5F4F9A013595279538872F839E83B1
:101030008D83C12CD12C2B813C81C216D3060CF0A0
:10104000F4C0909144039C9D80019D9D100D11243E
:101050002F813885020F131FAD81BE812D91BE8374
:10106000AD8380914503582F577030E0409146037F
:1010700051116EC0869586958695241B3109989FDF
:10108000C0011124289FA001299F500D389F500DA9
:1010900011249A012C5F3F4F3A8329834101A12CEF
:1010A000B12C8091450386958695869590E0A8168B
:1010B000B9060CF0B6C049805A80380180914403CB
:1010C00090E09301201B310B28173907D4F5E12C50
:1010D000F12C809144038A9DF0018B9DF00D112429
:1010E000E40DF51D8091420390914303E80FF91F31
:1010F000E491F0E00E2C02C0F595E7950A94E2F732
:1011000080914803B701680D791DE0FF03C081118C
:1011100003C006C0811104C0C3010E946C0603C055
:10112000C3010E9498043FEFE31AF30A48E0E41673
:10113000F10479F66FEF661A760A7FEF471A570ABD
:10114000BDCF8FEFA81AB80A98E0890E911CA9CFDD
:10115000241B3109989FC001112443E09595879580
:101160004A95E1F7289F5001299FB00C389FB00C99
:101170001124A4E0AA0EB11CE0914203F0914303B4
:10118000EA0DFB1DE4914E2E512C380157E0852EBF
:10119000912C8091440390E09301201B310B281780
:1011A00039070CF03EC071018091450390E0970132
:1011B000221933092817390784F520914803C20101
:1011C000082C02C0959587950A94E2F7B70180FF35
:1011D00004C0C301211104C006C0C301211103C012
:1011E0000E946C0602C00E949804B1E08B1A91081C
:1011F00097FE0FC0EFEFAE1ABE0AE0914203F091E6
:101200004303EA0DFB1DE4914E2E512C87E0882EFE
:10121000912CFFEFEF1AFF0AC7CF2FEF621A720A65
:10122000B8CF3FEFC31AD30A06CF28960FB6F8946B
:10123000DEBF0FBECDBFDF91CF911F910F91FF9009
:10124000EF90DF90CF90BF90AF909F908F907F9066
:101250006F905F904F903F902F9008958F929F9244
:10126000AF92BF92CF92DF92EF92FF920F931F93B4
:10127000CF93DF93CDB7DEB75B014A01CDB6DEB6C3
:10128000FC010481158198012F5F3F4F4DB75EB778
:10129000421B530B0FB6F8945EBF0FBE4DBFEDB7A8
:1012A000FEB731967F01232B81F0309771F0011545
:1012B000110551F0FC0160817181A801C7010E94F4
:1012C000C81BF701E00FF11F1082A401B501C7018F
:1012D0000E94C2070FB6F894DEBE0FBECDBEDF91EE
:1012E000CF911F910F91FF90EF90DF90CF90BF9023
:1012F000AF909F908F900895CF93DF93BC0181E8CA
:1013000092E00E945F10EC0161E371E081E892E0FD
:101310000E945F108C0F9D1FDF91CF910895CF9297
:10132000DF92EF92FF920F931F93CF93DF93EC0125
:101330008B01681779072CF4982F8D2FEB01092F5B
:10134000182F7801EC1AFD0A85E0E816F1040CF478
:1013500042C06E018FEFC81AD80AB60181E090E052
:101360000E949804B60182E590E00E94980468010A
:1013700081E0C81AD108B60181E090E00E9498048B
:10138000B60182E590E00E94980440E550E0BE017D
:1013900082E090E00E94E20440E550E0B80182E083
:1013A00090E00E94E2048701035011092296A801EF
:1013B000BE0180E090E00E94BB04A801BE0183E56D
:1013C00090E0DF91CF911F910F91FF90EF90DF9010
:1013D000CF900C94BB04DF91CF911F910F91FF90A0
:1013E000EF90DF90CF900895FC01918D828D98173A
:1013F00061F0828DDF01A80FB11D5D968C91928DF9
:101400009F5F9F73928F90E008958FEF9FEF0895F5
:10141000FC01918D828D981731F0828DE80FF11DBE
:10142000858D90E008958FEF9FEF0895FC01918DD9
:10143000228D892F90E0805C9F4F821B91098F73D2
:101440009927089581E892E00E94160A21E0892BED
:1014500009F420E0822F0895FC01848DDF01A80F9C
:10146000B11DA35ABF4F2C91848D90E001968F73CC
:101470009927848FA689B7892C93A089B1898C91EB
:1014800080648C93938D848D981306C00288F389B1
:10149000E02D80818F7D80830895EF92FF920F93DE
:1014A0001F93CF93DF93EC0181E0888F9B8D8C8D10
:1014B000981305C0E889F989808185FD24C0F62E3E
:1014C0000B8D10E00F5F1F4F0F731127E02E8C8DD7
:1014D000E8120CC00FB607FCFACFE889F9898081C1
:1014E00085FFF5CFCE010E942C0AF1CF8B8DFE0136
:1014F000E80FF11DE35AFF4FF0820B8FEA89FB8959
:101500008081806207C0EE89FF896083E889F9895C
:1015100080818064808381E090E0DF91CF911F9192
:101520000F91FF90EF900895CF93DF93EC01888D9A
:101530008823C9F0EA89FB89808185FD05C0A889D7
:10154000B9898C9186FD0FC00FB607FCF5CF80815D
:1015500085FFF2CFA889B9898C9185FFEDCFCE01A7
:101560000E942C0AE7CFDF91CF91089580E090E0B0
:10157000892B29F00E94220A81110C940000089501
:10158000833081F028F4813099F08230A1F0089501
:101590008730A9F08830B9F08430D1F48091800090
:1015A0008F7D03C0809180008F77809380000895A5
:1015B00084B58F7702C084B58F7D84BD08958091F6
:1015C000B0008F7703C08091B0008F7D8093B00012
:1015D00008953FB7F8948091570590915805A091D0
:1015E0005905B0915A0526B5A89B05C02F3F19F0A3
:1015F0000196A11DB11D3FBFBA2FA92F982F882793
:10160000820F911DA11DB11DBC01CD0142E0660FED
:10161000771F881F991F4A95D1F70895FC01908183
:101620000180F281E02D892F809560FF12C0F8942F
:101630002281822382838181892B8183A3E2B0E08E
:101640001197F1F78281982B9283789487ED90E03F
:1016500011C0F8942281822382838181892B818326
:10166000AFEFB0E01197F1F78281982B92837894D5
:101670008FE090E00197F1F7089508951F920F927F
:101680000FB60F9211242F933F934F935F936F9355
:101690007F938F939F93AF93BF93EF93FF9381E8D3
:1016A00092E00E942C0AFF91EF91BF91AF919F9120
:1016B0008F917F916F915F914F913F912F910F90FB
:1016C0000FBE0F901F9018951F920F920FB60F929A
:1016D00011242F938F939F93EF93FF93E0919102A7
:1016E000F09192028081E0919702F091980282FD40
:1016F00012C0908180919A028F5F8F7320919B021C
:10170000821751F0E0919A02F0E0EF57FD4F958F6C
:1017100080939A0201C08081FF91EF919F918F91F8
:101720002F910F900FBE0F901F901895CF93DF93BE
:10173000282F30E0F901EB53F74F8491F901E75777
:10174000F84FD491F901E955F84FC491CC2391F0A9
:1017500081110E94C00AEC2FF0E0EE0FFF1FE1584C
:10176000F84FA591B491EC91ED2381E090E021F444
:1017700080E002C080E090E0DF91CF9108951F9358
:10178000CF93DF93282F30E0F901EB53F74F84918B
:10179000F901E757F84FD491F901E955F84FC49191
:1017A000CC23C9F0162F81110E94C00AEC2FF0E063
:1017B000EE0FFF1FE356F84FA591B4918FB7F89441
:1017C000111105C09C91ED2FE095E92302C0EC9129
:1017D000ED2BEC938FBFDF91CF911F910895CF93A5
:1017E000DF9390E0FC01E757F84F2491FC01E955A5
:1017F000F84F8491882361F190E0880F991FFC01D4
:10180000E554F74FC591D491FC01E356F84FA591EB
:10181000B491611109C09FB7F89488812095822303
:101820008883EC912E230BC0623061F49FB7F8944B
:101830003881822F809583238883EC912E2B2C93E3
:101840009FBF06C08FB7F894E8812E2B28838FBFE7
:10185000DF91CF9108958F929F92AF92BF92CF92D6
:10186000DF92EF92FF926B017C010E94E90A4B012B
:101870005C01C114D104E104F104F1F00E94E90A11
:10188000DC01CB0188199909AA09BB09883E93405C
:10189000A105B10570F321E0C21AD108E108F108F1
:1018A00088EE880E83E0981EA11CB11CC114D104DF
:1018B000E104F10419F7DDCFFF90EF90DF90CF90B6
:1018C000BF90AF909F908F9008952FB7F89460913C
:1018D00053057091540580915505909156052FBF81
:1018E00008951F920F920FB60F9211242F933F93DA
:1018F0008F939F93AF93BF9380915305909154051D
:10190000A0915505B09156053091520523E0230F63
:101910002D3720F40196A11DB11D05C026E8230F27
:101920000296A11DB11D20935205809353059093FB
:101930005405A0935505B093560580915705909195
:101940005805A0915905B0915A050196A11DB11DE8
:101950008093570590935805A0935905B0935A0565
:10196000BF91AF919F918F913F912F910F900FBE9B
:101970000F901F901895DC01E0E0615038F08D91D8
:10198000E827F0E0E554F84FE491F7CF8E2F089563
:10199000CF92DF92EF92FF920F931F93CF93DF933B
:1019A0001F92CDB7DEB76C01E62E08E010E0FF24F1
:1019B000F39461E08F2D8E2109F460E0C601498324
:1019C0000E940E0BFF0C01501109498101151105F0
:1019D00081F7411115C0F894D6011196ED91FC9153
:1019E000129791818C918095892381831196ED9135
:1019F000FC91129792818C918095892382837894AF
:101A00000F90DF91CF911F910F91FF90EF90DF909A
:101A1000CF900895CF92DF92EF92FF920F931F9392
:101A2000CF93DF931F92CDB7DEB78C01F62E40E047
:101A300065E579830E94C80CCF2C7981D72E760179
:101A400088E0E80EF11CF60161916F0140E0C801E9
:101A50000E94C80CCE14DF04B1F70F90DF91CF9134
:101A60001F910F91FF90EF90DF90CF900895FC01B0
:101A700090810180F281E02DF8948181892B81830E
:101A80002281892F809528232283A7E0B0E0119737
:101A9000F1F7218182238183A3E2B0E01197F1F76E
:101AA00080817894EFECF0E03197F1F7982381E0B2
:101AB00009F480E00895FC0190810180F281E02D1D
:101AC000F8948181292F20958223818378948DE752
:101AD00043E050E0815021F1DA011197F1F73081B4
:101AE0003923C1F3F8948281822382838181892BF7
:101AF00081837894ABE7B7E01197F1F7F89481818F
:101B000028232183A3E1B1E01197F1F78081982385
:101B100081E009F080E07894E3E6F6E03197F1F7B0
:101B20000895AF92BF92CF92DF92EF92FF920F9300
:101B30001F93CF93DF931F92CDB7DEB75C01E62EE4
:101B4000D72EFC01858581115DC0C5010E945B0D0A
:101B5000811105C0F5011386158614866BC040E01F
:101B600060EFC5010E94C80C01E0F12CC12C11E00E
:101B7000C5010E94370D682FC50169830E94370D8A
:101B80006981613019F48130B9F433C04F2D50E0D0
:101B900068131BC0F5018385181730F4E40FF51F97
:101BA0008381802349F402C0181731F060E01930B6
:101BB00058F4F501148708C0F501EF0DF11D83817C
:101BC000802B838361E009C0C12EF501E40FF51F6E
:101BD0009381802F809589238383C5010E940E0BFA
:101BE0001F5F000F11F4F39401E0F7E0FF1508F018
:101BF000BFCF113438F0F501C386C11015C081E0A4
:101C0000858712C0F50113861586148680E0D501FC
:101C10001396EE2DFD2D9501255F3F4F9D919193DC
:101C2000A217B307D9F706C0F5018381882351F3C2
:101C300081E0EDCF0F90DF91CF911F910F91FF9039
:101C4000EF90DF90CF90BF90AF900895CF92DF924A
:101C5000EF92FF920F931F93CF93DF93CDB7DEB731
:101C6000A7970FB6F894DEBF0FBECDBF0E94650CDC
:101C70006B017C018091320290913302A091340279
:101C8000B0913502A7019601281B390B4A0B5B0B5B
:101C9000CA01B9011BA21AA21DA21CA21FA21EA248
:101CA0002AE08E010F5F1F4FA8010E94ED1BF80173
:101CB00001900020E9F73197AF01401B510BB801AB
:101CC000CE0182960E94EC0F66E272E0C8010E948B
:101CD0004A10BE016E5D7F4FC8010E94BA0F0E947C
:101CE000AB07C8010E940D10CE0182960E940D1014
:101CF0008091320290913302A0913402B09135026A
:101D0000C81AD90AEA0AFB0A81E030ECC31634ED9E
:101D1000D30631E0E306F10408F480E0A7960FB69D
:101D2000F894DEBF0FBECDBFDF91CF911F910F9111
:101D3000FF90EF90DF90CF9008958435910538F5AE
:101D40006033710520F5FB01E770FF2721E030E0EB
:101D500001C0220FEA95EAF7209533E07595679563
:101D60003A95E1F734E5369FF001379FF00D1124E5
:101D70008E0F9F1FFC01E75BFC4F80E090E0841713
:101D800095072CF43081322331930196F8CF0895D2
:101D9000CF92DF92EF92FF920F931F93CF93DF9337
:101DA0006C017A018B01C0E0D0E0CE15DF0589F02F
:101DB000D8016D918D01D601ED91FC910190F081DA
:101DC000E02DC6010995892B11F47E0102C02196F0
:101DD000ECCFC701DF91CF911F910F91FF90EF9052
:101DE000DF90CF900895CF92DF92EF92FF920F9302
:101DF0001F93CF93DF938435910598F46033710579
:101E000080F46A017B018C01C0E0D0E0CC15DD05D7
:101E100044F4BE016E0D7F1DC8010E946C06219620
:101E2000F5CFDF91CF911F910F91FF90EF90DF9051
:101E3000CF9008950E94B31B0F931F93CF93DF930E
:101E4000EC0188819981009729F02A813B8126172E
:101E5000370788F48B016F5F7F4F0E94E91A009764
:101E600061F0998388831B830A832C813D81232B16
:101E700011F4FC01108281E001C080E0DF91CF917C
:101E80001F910F910895CF92DF92EF92FF920F93DF
:101E90001F93CF93DF93EC018B01681779072CF424
:101EA000982F8D2FEB01092F182F7801EC1AFD0ABE
:101EB00085E0E816F1040CF442C06E018FEFC81AF9
:101EC000D80AB60181E090E00E946C06B60182E576
:101ED00090E00E946C06680181E0C81AD108B60142
:101EE00081E090E00E946C06B60182E590E00E94DD
:101EF0006C0640E550E0BE0182E090E00E949D0E3D
:101F000040E550E0B80182E090E00E949D0E87011C
:101F1000035011092296A801BE0180E090E00E94C2
:101F2000F30EA801BE0183E590E0DF91CF911F91F0
:101F30000F91FF90EF90DF90CF900C94F30EDF9114
:101F4000CF911F910F91FF90EF90DF90CF90089568
:101F5000CF93DF93EC0188819981009711F00E9463
:101F6000511A198218821D821C821B821A82DF91EB
:101F7000CF910895EF92FF920F931F93CF93DF932A
:101F8000EC01FB0184819581E080F1800C811D8151
:101F9000E114F104B1F00097B9F0080F191FB8016E
:101FA000CE010E941C0F882361F0288139818C8129
:101FB0009D81B701820F931F0E94C11B1D830C835B
:101FC00003C0CE010E94A80FCE01DF91CF911F91D7
:101FD0000F91FF90EF900895EF92FF920F931F9350
:101FE000CF93DF93EC017B018A01BA010E941C0FA1
:101FF000811104C0CE010E94A80F07C01D830C836D
:10200000B701888199810E94C11BCE01DF91CF91D8
:102010001F910F91FF90EF900895FC0180819181B5
:102020000C94511AEF92FF920F931F93CF93DF936B
:10203000CDB7DEB762970FB6F894DEBF0FBECDBF47
:102040008C01CB01F8011182108213821282158259
:10205000148250E09E012F5F3F4F7901B9010E9429
:10206000D71BF70101900020E9F73197AF014E1916
:102070005F09B701C8010E94EC0F62960FB6F89491
:10208000DEBF0FBECDBFDF91CF911F910F91FF90AB
:10209000EF900895FC011182108213821282158242
:1020A00014826115710551F0FB0101900020E9F7E0
:1020B0003197AF01461B570B0C94EC0F0895611537
:1020C000710579F0FB0101900020E9F73197AF012C
:1020D000461B570BDC01ED91FC910280F381E02D52
:1020E000099480E090E008954F925F926F927F9202
:1020F000EF92FF920F931F93CF93DF93CDB7DEB78D
:10210000A1970FB6F894DEBF0FBECDBF7C01FA01D8
:10211000CB0119A2223008F42AE08E010F5D1F4F77
:10212000422E512C612C712CBF01A30192010E94FF
:102130005D1DF901CA01015011096A3014F4605D96
:1021400001C0695CD8016C93232B242B252B61F7EC
:10215000B801C7010E945F10A1960FB6F894DEBFC8
:102160000FBECDBFDF91CF911F910F91FF90EF90E8
:102170007F906F905F904F900895CF93DF93CDB78E
:10218000DEB72E970FB6F894DEBF0FBECDBF7894A2
:1021900084B5826084BD84B5816084BD85B582606C
:1021A00085BD85B5816085BD80916E00816080931D
:1021B0006E00109281008091810082608093810086
:1021C0008091810081608093810080918000816096
:1021D000809380008091B10084608093B1008091F1
:1021E000B00081608093B00080917A008460809319
:1021F0007A0080917A00826080937A0080917A00E0
:10220000816080937A0080917A00806880937A0060
:102210001092C1001092690210926A0210926B0231
:1022200010926C021092370210923802109239020A
:1022300010923A0260ED77E080E090E00E942B0C73
:1022400081E892E090936802809367020E945705AC
:102250000E94650C009137021091380220913902DA
:1022600030913A02DC01CB01801B910BA20BB30B26
:10227000C297A105B10538F463E070E080E090E01A
:102280000E942B0CE5CF0E94650C6093370270937F
:1022900038028093390290933A0262E271E08091B1
:1022A0006702909168020E945F106AE070E080E02F
:1022B00090E00E942B0C81E080933B020E94570526
:1022C00080913D03E0913503F09136039081892B95
:1022D000808380913C03E0913303F091340390813B
:1022E000892B808380913B03E0913103F09132038D
:1022F0009081892B808380913F03E0913903F09195
:102300003A039081892B808390913E03E0913703BB
:10231000F09138038081282F30E0892F90E080955C
:1023200090958223932380836AE070E080E090E0C0
:102330000E942B0C80913E03E0913703F09138030B
:102340009081892B808360E081E20E94E60560E055
:1023500086EC0E94E60560E086E00E94E60560E00B
:1023600083E10E94E60560E080E20E94E60560E00D
:1023700080E40E94E60560E080E80E94E60560E0F7
:102380008CE00E94E6050E9464060E9449061092B5
:102390004303109242031092410586E490E090932B
:1023A00043058093420581E495E00E94C70560E003
:1023B00088E00E94EF0B60E089E00E94EF0B60E094
:1023C0008AE00E94EF0B60E08DE00E94EF0B61E07D
:1023D0008CE00E94EF0BE0912303F091240313861D
:1023E00015861486DF011B9633961E92AE17BF0723
:1023F000E1F71092220311E0BE016F5F7F4F8091E1
:102400002303909124030E94910D882309F44AC06C
:1024100067E0CE0101960E94BB0C98858913ECCF32
:1024200080911E03811127C0809123039091240382
:102430000E945B0DBE016F5F7F4F809123039091DF
:1024400024030E940A0D40E064EB809123039091E5
:1024500024030E94C80C80912303909124030E94BE
:10246000370D082F80912303909124030E945B0D68
:10247000002309F4ABC500911F03CE0101960E9411
:102480007F05801718F480911F0304C0CE010196C8
:102490000E947F0580931F03809122038F5F8093AA
:1024A0002203AACF22242394312C64E371E081E833
:1024B00092E00E945F100E947A0780E591E00E94FE
:1024C0007C090E94EA060E947C194B015C018B0189
:1024D00065E571E081E892E00E945F100E94EA06E3
:1024E0006B017C019B01AC010E94B719882319F094
:1024F00063E771E01AC026013701E89477F82FEFFF
:102500003FEF4FE75FE7C301B2010E94B7198111A6
:1025100011C02FEF3FEF4FE75FE7C301B2010E9409
:10252000391C18163CF467E771E081E892E00E94DC
:102530005F1084C02FEF3FEF4FE75FE4C701B601A4
:102540000E94B21918161CF46BE771E0EECF2FEF62
:102550003FEF4FE75FECC701B6010E94391C87FDD2
:10256000F3CF20E030E0A901C701B6010E94391C79
:1025700087FF0FC0E0918102F09182020190F0810B
:10258000E02D6DE281E892E00995F7FAF094F7F812
:10259000F0942AE037ED43EA5BE3C701B6010E94FD
:1025A00010192B013C010E9483196B017C010E94D0
:1025B0003E1C9B01AC01C301B2010E940F192B010B
:1025C0003C012AE0B701A60181E892E00E94741064
:1025D0006EE471E081E892E00E945F1020E030E05C
:1025E00040E251E4C301B2010E949F1C6B017C01D7
:1025F0000E9483192B01612C712C2AE0B301A201E6
:1026000081E892E00E947410C301B2010E943E1C56
:102610009B01AC01C701B6010E940F1920E030E018
:1026200040E251E40E949F1C0E948319AB0160E0CC
:1026300070E02AE081E892E00E94741065E571E0A4
:1026400081E892E00E945F106401092C000CEE0802
:10265000FF08F7FE14C0E0918102F0918202019020
:10266000F081E02D6DE281E892E00995442755273D
:10267000BA014C195D096E097F092AE003C02AE0FE
:10268000B701A60181E892E00E94741081E495E010
:102690000E94C70542E050E062E070E08FE791E001
:1026A0000E94C20760910401709105014AE0CE01C9
:1026B00001960E94121042E050E06FE070E0CE01FF
:1026C00001960E942E09CE0101960E940D1042E053
:1026D00050E067E370E082E891E00E94C2076091F9
:1026E0000201709103014AE0CE0101960E9412108E
:1026F00042E050E061E470E0CE0101960E942E09B4
:10270000CE0101960E940D108BE193E00E94C70557
:102710004AE0B401CE0101960E94121044E150E05B
:1027200062E070E0CE0101960E942E09CE01019672
:102730000E940D100E9449068DE00E94960B7C01BC
:1027400080916F0290917002E816F906B1F06AE08C
:1027500070E080E090E00E942B0CE114F10449F459
:1027600080916D0290916E02019690936E0280931B
:102770006D02F0927002E0926F0260916D027091B2
:102780006E024AE0CE0101960E94121065E871E0E7
:10279000CE0109960E944A10BE016F5F7F4FCE01A5
:1027A00009960E94BA0F0E94AB07CE0109960E94BB
:1027B0000D10CE0101960E940D1080916D02909136
:1027C0006E028230910558F582E691E00E949006F3
:1027D0000E9449068091040190910501081719078C
:1027E00014F461E018C0E0900201F09003010E15AE
:1027F0001F050CF448C068E873E180E090E00E9497
:102800002B0C0E947A070E94EA060E947C196E1522
:102810007F05CCF160E08CE00E94BF0B34C08230B9
:10282000910521F585EE90E00E9490060E944906F0
:1028300080910201909103018017910794F2E0903A
:102840000401F09005010E151F05ECF468E873E132
:1028500080E090E00E942B0C0E947A070E94EA061A
:102860000E947C196E157F0574F4D4CF039739F458
:1028700088E690E00E9490060E94490604C01092EB
:102880006E0210926D0289E00E94960B8C0190936B
:10289000800280937F0280917D0290917E020817D2
:1028A000190709F490C36AE070E080E090E00E94AC
:1028B0002B0C012B09F07FC36BE871E081E892E0FB
:1028C0000E945F1000917B0210917C020F5F1F4FEE
:1028D00010937C0200937B020E94650C609332028D
:1028E0007093330280933402909335024AE0B8012A
:1028F000CE0101960E941210CE0101960E94AB07F4
:10290000CE0101960E940D1030920101209200012B
:102910006EE971E081E892E00E945F100E94640617
:1029200081E495E00E94C70542E050E06EE077E266
:1029300089EA91E00E94C2074FE050E06EE077E242
:1029400087EB91E00E94C2074EE150E06EE077E233
:1029500084EC91E00E94C2076DE070E080E090E0BE
:102960000E948F090E944906C12CD12C01E010E081
:102970008091000190910101892B09F41CC3809181
:102980007B0290917C02019709F008C188E00E94C7
:10299000960B90937A02809379020E94260E8823E8
:1029A00049F010927C0210927B0210920101109269
:1029B000000101C3E0907902F0907A0280917702E1
:1029C00090917802E816F90609F446C06AE070E0D2
:1029D00080E090E00E942B0CE114F104A9F50F5F58
:1029E0001F4F0430110589F002301105F9F0033052
:1029F000110551F56CE170E08DE090E00E94430F0D
:102A00006BE270E08CE190E01BC06BE270E08CE167
:102A100090E00E94430F6DE070E080E090E00E9443
:102A20008F090E94490601E010E00EC06DE070E0E1
:102A300080E090E00E94430F6CE170E08DE090E058
:102A40000E948F090E944906F0927802E092770274
:102A500089EC91E00E947C098AE00E94960B7C013F
:102A60009093760280937502809173029091740224
:102A7000E816F90609F443C06AE070E080E090E0EF
:102A80000E942B0CE114F104B1F50150110919F168
:102A90000230110589F003301105E9F0013011050C
:102AA00051F56CE170E08DE090E00E94430F6DE025
:102AB00070E080E090E00AC06BE270E08CE190E0B2
:102AC0000E94430F6CE170E08DE090E00E948F095E
:102AD0000E94490610C06DE070E08EEF9FEF0E94EB
:102AE000430F6BE270E08CE190E00E948F090E943E
:102AF000490603E010E0F0927402E09273024AE0AB
:102B0000B801CE0101960E94121062ED71E0CE0173
:102B100009960E944A10BE016F5F7F4FCE01099651
:102B20000E94BA0F0E94AB07CE0109960E940D10B9
:102B3000CE0101960E940D1089E00E94960B7C0147
:102B40009093800280937F028C159D0539F16AE095
:102B500070E080E090E00E942B0CEF28D9F48CED1F
:102B600091E00E947C0960917B0270917C026F5F12
:102B70007F4F70937C0260937B024AE0CE01019606
:102B80000E941210CE0101960E94AB07CE01019661
:102B90000E940D10C0907F02D090800280917B0235
:102BA00090917C02029709F0E3CE0E946406A12C6A
:102BB000B12C0E94260E882329F010927C021092DC
:102BC0007B02E9C18AEE91E00E947C094AE0B801EB
:102BD000CE0101960E941210CE0101960E94AB0711
:102BE000CE0101960E940D101093720200937102A3
:102BF00084EF91E00E947C096091710270917202F1
:102C00004AE0CE0101960E941210CE0101960E9468
:102C1000AB07CE0101960E940D1080917102909138
:102C200072020197029708F07BC18FEF91E00E943A
:102C30007C0988E00E94960B90937A028093790237
:102C400080917102909172020297A9F481E495E05B
:102C50000E94C70544E050E06EE077E28BEB91E024
:102C60000E94C2078FED91E00E94C70560910401A8
:102C70007091050114C081E495E00E94C70544E00D
:102C800050E06EE077E28DEA91E00E94C2078BE1AE
:102C900093E00E94C70560910201709103014AE030
:102CA000CE0101960E94121044E150E06EE077E2FE
:102CB000CE0101960E942E09CE0101960E940D10B0
:102CC0000E944906E0907902F0907A0280917702A2
:102CD00090917802E816F90609F460C06AE070E0A5
:102CE00080E090E00E942B0CEF2809F04FC089E0B3
:102CF00092E00E947C098091710290917202823070
:102D00009105B9F4E0900401F090050181E0E81626
:102D1000F10441F081E0E81AF108F0920501E09237
:102D200004011CC068EB7BE080E090E00E942B0C6B
:102D30002DC0019759F5E0900201F090030181E068
:102D4000E81AF10880910401909105010296E816B5
:102D5000F90641F3F0920301E09202018BE193E066
:102D60000E94C7054AE0B701CE0101960E941210E9
:102D700044E150E06EE077E2CE0101960E942E0918
:102D8000CE0101960E940D100E94490680917902A1
:102D900090917A0290937802809377028AE00E9461
:102DA000960B9093760280937502809171029091B8
:102DB00072020297A9F481E495E00E94C70544E0FD
:102DC00050E06EE077E28BEB91E00E94C2078BE16E
:102DD00093E00E94C705609104017091050114C041
:102DE00081E495E00E94C70544E050E06EE077E2A0
:102DF0008DEA91E00E94C2078BE193E00E94C70533
:102E000060910201709103014AE0CE0101960E9497
:102E1000121044E150E06EE077E2CE0101960E948C
:102E20002E09CE0101960E940D100E944906E090E5
:102E30007502F09076028091730290917402E81608
:102E4000F90609F45CC06AE070E080E090E00E945E
:102E50002B0CEF2809F04BC0809171029091720207
:102E600082309105D9F4E0900401F09005018FEFD4
:102E7000E81AF80A80910201909103010297E8167E
:102E8000F90629F0F0920501E092040118C068EB00
:102E90007BE080E090E00E942B0C29C0019739F57F
:102EA000E0900201F090030187E7E816F1047CF757
:102EB0008FEFE81AF80AF0920301E09202018BE129
:102EC00093E00E94C7054AE0B701CE0101960E9437
:102ED000121044E150E06EE077E2CE0101960E94CC
:102EE0002E09CE0101960E940D100E944906809184
:102EF000750290917602909374028093730264EF4E
:102F000071E080E090E00E942B0C87E192E00E944B
:102F10007C0964EF71E080E090E00E942B0C04C01B
:102F2000109272021092710289E00E94960B7C014D
:102F30009093800280937F028A159B0509F439CE15
:102F40006AE070E080E090E00E942B0CEF2871F5C1
:102F500060917B0270917C026F5F7F4F70937C0267
:102F600060937B024AE0CE0101960E941210CE01CE
:102F700001960E94AB07CE0101960E940D10809130
:102F80007B0290917C02039789F410927C0210924C
:102F90007B020E94640610920101109200016BE115
:102FA00072E081E892E00E945F10E2CCA0907F0284
:102FB000B0908002FECD80917F029091800290932C
:102FC0007E0280937D020E94B60A6FCA10931E0390
:102FD00052CA109284021092830288EE93E0A0E01D
:102FE000B0E08093850290938602A0938702B0930D
:102FF000880286E191E0909382028093810285ECC1
:1030000090E090938E0280938D0284EC90E09093F8
:10301000900280938F0280EC90E0909392028093D4
:10302000910281EC90E0909394028093930282EC61
:1030300090E0909396028093950286EC90E09093B6
:1030400098028093970210929A0210929B0210921B
:103050009C0210929D02EEEAF7E0E491F0E0EE0FA0
:10306000FF1FE356F84F859194919093320380931C
:103070003103E0E9F7E0E491E0933B03EDEAF7E0A8
:10308000E491F0E0EE0FFF1FE356F84F8591949125
:103090009093340380933303EFE8F7E0E491E093F7
:1030A0003C03ECEAF7E0E491F0E0EE0FFF1FE3569B
:1030B000F84F859194919093360380933503EEE811
:1030C000F7E0E491E0933D03EAEAF7E0E491F0E011
:1030D000EE0FFF1FE356F84F8591949190933803BC
:1030E00080933703ECE8F7E0E491E0933E03EBEAEA
:1030F000F7E0E491F0E0EE0FFF1FE356F84F859103
:10310000949190933A0380933903EDE8F7E0E491CA
:10311000E0933F0361E087E00E94EF0B61E086E00F
:103120000E94EF0B61E085E00E94EF0B61E083E01D
:103130000E94EF0B61E084E00E94EF0B87E0809338
:10314000400383E08093410360E08BE00E94EF0B3B
:10315000E4E9F7E0E491E0934405E2EBF7E0E49181
:10316000F0E0EE0FFF1FE158F84F85919491909396
:1031700046058093450510924F0510925105109217
:103180005005EFE4F5E0129285E0E734F807D9F74F
:103190008DE39BE09093300380932F0384E495E0CC
:1031A00090932403809323031092220310921E0312
:1031B00089E080931F0381E08093200380932103A3
:1031C000089597FB072E16F4009407D077FD09D0D9
:1031D0000E94F51807FC05D03EF4909581959F4F0D
:1031E0000895709561957F4F0895AA1BBB1B51E10F
:1031F00007C0AA1FBB1FA617B70710F0A61BB70B67
:10320000881F991F5A95A9F780959095BC01CD010B
:103210000895EE0FFF1F0590F491E02D099450588A
:10322000BB27AA270E9427190C94231D0E94151D55
:1032300038F00E941C1D20F039F49F3F19F426F449
:103240000C94121D0EF4E095E7FB0C940C1DE92F75
:103250000E94341D58F3BA17620773078407950755
:1032600020F079F4A6F50C94561D0EF4E0950B2E83
:10327000BA2FA02D0B01B90190010C01CA01A001C8
:103280001124FF27591B99F0593F50F4503E68F123
:103290001A16F040A22F232F342F4427585FF3CF64
:1032A000469537952795A795F0405395C9F77EF435
:1032B0001F16BA0B620B730B840BBAF09150A1F07E
:1032C000FF0FBB1F661F771F881FC2F70EC0BA0F04
:1032D000621F731F841F48F4879577956795B7958C
:1032E000F7959E3F08F0B0CF9395880F08F0992787
:1032F000EE0F9795879508950E9483196894B111F0
:103300000C94571D08950E943C1D88F09F5798F01B
:10331000B92F9927B751B0F0E1F0660F771F881FDA
:10332000991F1AF0BA95C9F714C0B13091F00E94F4
:10333000561DB1E008950C94561D672F782F8827ED
:10334000B85F39F0B93FCCF3869577956795B3951B
:10335000D9F73EF490958095709561957F4F8F4F8A
:103360009F4F08950E947B1C08F48FEF08950E94E0
:103370007B1C880B990B0895CF93DF9382309105C6
:1033800010F482E090E0E0915D05F0915E0520E0B0
:1033900030E0C0E0D0E0309711F140815181481712
:1033A0005907C0F04817590761F48281938120972B
:1033B00019F09B838A832BC090935E0580935D05F3
:1033C00026C02115310519F04217530718F49A0148
:1033D000BE01DF01EF010280F381E02DDCCF21157A
:1033E000310509F1281B390B2430310590F4129670
:1033F0008D919C9113976115710521F0FB019383C9
:10340000828304C090935E0580935D05FD01329632
:1034100044C0FD01E20FF31F8193919322503109C3
:103420002D933C933AC020915B0530915C05232B92
:1034300041F4209108013091090130935C052093FB
:103440005B0520910601309107012115310541F4FA
:103450002DB73EB740910A0150910B01241B350B4B
:10346000E0915B05F0915C05E217F307A0F42E1BD9
:103470003F0B2817390778F0AC014E5F5F4F2417D8
:10348000350748F04E0F5F1F50935C0540935B0576
:103490008193919302C0E0E0F0E0CF01DF91CF9102
:1034A00008950F931F93CF93DF93009709F48CC077
:1034B000FC0132971382128200915D0510915E0526
:1034C0000115110581F420813181820F931F209114
:1034D0005B0530915C052817390779F5F0935C0599
:1034E000E0935B0571C0D80140E050E0AE17BF0724
:1034F00050F412962D913C911397AD012115310591
:1035000009F1D901F3CF9D01DA0133832283608170
:103510007181860F971F8217930769F4EC01288148
:103520003981260F371F2E5F3F4F318320838A81D9
:103530009B8193838283452B29F4F0935E05E0936E
:103540005D0542C01396FC93EE931297ED014991ED
:1035500059919E01240F351FE217F30771F4808102
:103560009181840F951F029611969C938E93828170
:10357000938113969C938E931297E0E0F0E0D8012C
:1035800012968D919C911397009719F0F8018C0178
:10359000F6CF8D919C9198012E5F3F4F820F931F24
:1035A00020915B0530915C052817390769F4309745
:1035B00029F410925E0510925D0502C013821282FA
:1035C00010935C0500935B05DF91CF911F910F91E4
:1035D0000895A0E0B0E0EFEEFAE10C94831DEC0159
:1035E000009721F4CB010E94BC19B8C0FC01E60F82
:1035F000F71F9C0122503109E217F30708F4ACC011
:10360000D9010D911C91119706171707B0F00530DD
:10361000110508F49FC0C80104978617970708F49E
:1036200099C002501109061B170B019311936D935A
:103630007C93CF010E94511A8DC05B01A01AB10A80
:103640004C01800E911EA0915D05B0915E0540E099
:1036500050E0E12CF12C109709F44AC0A815B905E7
:10366000D1F56D907C901197630182E0C80ED11C5A
:10367000CA14DB0480F1A3014A195B096A0182E0E4
:10368000C80ED11C1296BC9012971396AC91B5E05F
:10369000CB16D10440F0B282A38351834083D90179
:1036A0006D937C930AC00E5F1F4FC301800F911F63
:1036B000F90191838083EB2DFA2FE114F10431F0AD
:1036C000D7011396FC93EE93129744C0F0935E05D6
:1036D000E0935D053FC08D919C9111974817590764
:1036E00008F4AC017D0112960D90BC91A02DB3CFD2
:1036F00080915B0590915C0588159905E1F446176A
:103700005707C8F48091060190910701009741F492
:103710008DB79EB740910A0150910B01841B950B08
:10372000E817F907C8F4F0935C05E0935B05F9012D
:10373000718360830FC0CB010E94BC197C0100978C
:1037400059F0A801BE010E94B81BCE010E94511A77
:10375000C70104C0CE0102C080E090E0CDB7DEB763
:10376000EEE00C949F1D81E090E0F8940C94B61D5F
:10377000FB01DC0102C001900D9241505040D8F78E
:103780000895FB01DC0101900D920020E1F70895FE
:10379000FB01DC014150504048F001900D920020A7
:1037A000C9F701C01D9241505040E0F708954532DD
:1037B000510520F4423010F00C94E21BFB01108202
:1037C000CB010895BB274A3031F4992322F4BDE29E
:1037D000909581959F4F0C94101CBB27FA01A62F42
:1037E0006217710581059105330B30FB66F0AA273E
:1037F000660F771F881F991FAA1FA21710F0A21B20
:1038000063953850A9F7A05DAA3308F0A95DA1938C
:1038100036F7B111B1931082CA010C94291CBB2751
:10382000FB015527AA27880F991FAA1FA41710F07C
:10383000A41B83955051B9F7A05DAA3308F0A95D88
:10384000A193009779F7B111B1931192CB010C9428
:10385000291CDC01FC01672F71917723E1F7329776
:1038600004C07C916D9370836291AE17BF07C8F35B
:1038700008950E947B1C08F481E00895E89409C033
:1038800097FB3EF490958095709561957F4F8F4F93
:103890009F4F9923A9F0F92F96E9BB279395F695A9
:1038A000879577956795B795F111F8CFFAF4BB0F27
:1038B00011F460FF1BC06F5F7F4F8F4F9F4F16C08B
:1038C000882311F096E911C0772321F09EE8872F15
:1038D000762F05C0662371F096E8862F70E060E0D1
:1038E0002AF09A95660F771F881FDAF7880F96954A
:1038F000879597F90895990F0008550FAA0BE0E8EE
:10390000FEEF16161706E807F907C0F012161306A1
:10391000E407F50798F0621B730B840B950B39F4E1
:103920000A2661F0232B242B252B21F408950A2647
:1039300009F4A140A6958FEF811D811D08950E9475
:10394000B21C0C94231D0E94151D38F00E941C1DF2
:1039500020F0952311F00C940C1D0C94121D1124D1
:103960000C94571D0E94341D70F3959FC1F3950F61
:1039700050E0551F629FF001729FBB27F00DB11DF3
:10398000639FAA27F00DB11DAA1F649F6627B00D83
:10399000A11D661F829F2227B00DA11D621F739F6C
:1039A000B00DA11D621F839FA00D611D221F749F7A
:1039B0003327A00D611D231F849F600D211D822FC1
:1039C000762F6A2F11249F5750409AF0F1F08823E8
:1039D0004AF0EE0FFF1FBB1F661F771F881F915015
:1039E0005040A9F79E3F510580F00C940C1D0C949B
:1039F000571D5F3FE4F3983ED4F38695779567951E
:103A0000B795F795E7959F5FC1F7FE2B880F911D3E
:103A10009695879597F9089597F99F6780E870E0E4
:103A200060E008959FEF80EC089500240A94161634
:103A3000170618060906089500240A94121613069C
:103A4000140605060895092E0394000C11F488232A
:103A500052F0BB0F40F4BF2B11F460FF04C06F5F46
:103A60007F4F8F4F9F4F089557FD9058440F551F1C
:103A700059F05F3F71F04795880F97FB991F61F0F0
:103A80009F3F79F087950895121613061406551F67
:103A9000F2CF4695F1DF08C0161617061806991FD3
:103AA000F1CF86957105610508940895E894BB27C8
:103AB00066277727CB0197F90895A1E21A2EAA1B52
:103AC000BB1BFD010DC0AA1FBB1FEE1FFF1FA217CE
:103AD000B307E407F50720F0A21BB30BE40BF50BCB
:103AE000661F771F881F991F1A9469F76095709554
:103AF000809590959B01AC01BD01CF0108952F9257
:103B00003F924F925F926F927F928F929F92AF926D
:103B1000BF92CF92DF92EF92FF920F931F93CF93BA
:103B2000DF93CDB7DEB7CA1BDB0B0FB6F894DEBF51
:103B30000FBECDBF09942A88398848885F846E8477
:103B40007D848C849B84AA84B984C884DF80EE80C1
:103B5000FD800C811B81AA81B981CE0FD11D0FB6CA
:103B6000F894DEBF0FBECDBFED010895F894FFCFEE
:103B7000010029001A0000005F0580005E00BC0003
:103B80007701000000004D0AC80E160AF409080A61
:103B9000940A564D4450565F317C315F564D445027
:103BA000560D0A002052657175657374696E672041
:103BB00074656D7065726174757265732E2E2E005A
:103BC000444F4E450054656D706572617475726541
:103BD00020666F72204465766963652031206973C1
:103BE0003A20006E616E00696E66006F7666004C6A
:103BF0003A00483A006D6F64653D007768696C650E
:103C0000206673737373696E697368656400737497
:103C1000617274206D656E75005365742048696724
:103C2000682054656D7000536574204C6F77205484
:103C3000656D7000457869740072756E2065646406
:103C40003A0072756E20646F776E3A006368656340
:103C50006B20636F756E74657200736574206D659B
:103C60006E753A007365745374617475733A0073BA
:103C70006574206973206368006C6F772069732016
:103C8000616374697665006C6F77007768696C654D
:103C900020657869740074696D65206B6E6F773A82
:023CA000000022
:00000001FF
