:100000000C947B080C94A3080C94A3080C94A308EC
:100010000C94A3080C94A3080C94A3080C94A308B4
:100020000C94A3080C94A3080C94A3080C94A308A4
:100030000C94A3080C94A3080C94A3080C94A30894
:100040000C946D110C94A3080C9455100C942F1063
:100050000C94A3080C94A3080C94A3080C94A30874
:100060000C94A3080C94A3080000000024002700AF
:100070002A001112131415160A0B0C0D0E0F000096
:100080000000000000000000000000000000000070
:100090000000008080808080808080C0C0C0C0C0A0
:1000A000C0C0C0C0C0C0C0C0C0C0C0C0C0C0C0C050
:1000B000C0C0C0C0C0808080808080808000000080
:1000C0000000000000000000000000000000000030
:1000D000000000003030707878787C3C3C3C1E1E7C
:1000E0001E1E0F0F0F0F0707078787878383C3C362
:1000F000C3C3C3C3C3C3C3C1C1C1C1C1C1C1C1C1E2
:10010000C1C3C3C3C3C3C3C3C3C3838387878707B1
:1001100007070F0F0F0F1E1E1E1E3C3C3C7C7878FD
:100120007870303000000000000000000000000087
:10013000000000040C0E1E1E1E0F0F0F0F07078776
:10014000878383C3C3C3C3C3C1C1C1E1E1E1E1E1AB
:10015000E1E1E1E1E1C1C1C1C3C3C3C3C38383879B
:100160008707070F0F0F0F1E1E1E0E0C0400000046
:10017000000000000000000000000000000000007F
:10018000000000000000000000000000000000006F
:100190000000010103030703030303030181C1C13D
:1001A000E1E1E1E1E1E1E1E1C1C181010303030337
:1001B000030703030101000000000000000000002D
:1001C000000000000000000000000000000000002F
:1001D000000000000000000000000000000000001F
:1001E000000000000000000000000000000000000F
:1001F000000307070F0F0F0F0F0F0F0F0707030065
:1002000000000000000000000000000000000000EE
:1002100000000000000000000000000000000000DE
:1002200000006870646060986460E46864DC303486
:10023000B00C10740000340000000000000000004A
:1002400000000000000000000000000000000000AE
:10025000000000000000000000000000000000009E
:10026000000000000000000000000000000000008E
:10027000000000000000000000000000000000007E
:10028000000000000000000000000000000000006E
:10029000000000000000000000000000000000005E
:1002A00000008080808080C0C0C0C0C0C0C0C0C00E
:1002B000C0C0C0C0C0C0C0C0C0C0C0C0C0C0C0C03E
:1002C000C0C0C0808080808000000000000000006E
:1002D000000000000000000000000000000000001E
:1002E000000000000000000000000000040C0E1ED2
:1002F0001E1E0F0F0F0F070787878383C3C3C3C358
:10030000C3C1C1C1E1E1E1E1E1E1E1E1E1E1C1C19B
:10031000C1C3C3C3C3C38383878707070F0F0F0FEF
:100320001E1E1E0E0C040000000000000000000055
:1003300000000000000000000000000000000000BD
:10034000000000000000000000000001010303079E
:1003500003030303030181C1C1E1E1E1E1E1E1E163
:10036000E1C1C1810103030303030703030101008A
:10037000000000000000000000000000000000007D
:10038000000000000000000000000000000000006D
:10039000000000000000000000000000000000005D
:1003A000000000000000000000000307070F0F0F0F
:1003B0000F0F0F0F0F0707030000000000000000E1
:1003C000000000000000000000000000000000002D
:1003D000000000000000000000000000000000001D
:1003E000000000000000000000000000000000000D
:1003F00000000000000000000000000000000000FD
:1004000000000000000000000000000000000000EC
:1004100000000000000000000000000000000000DC
:1004200000000000000000000000000000000000CC
:1004300000000000000000000000000000000000BC
:1004400000000000000000000000000000000000AC
:10045000000000000000000000000000000000009C
:10046000000000000000000000000000000000008C
:10047000000000000000000000000000000000007C
:10048000000000000000000000000000000000006C
:10049000000000000000000000000000000000005C
:1004A000000000000000000000000000000000004C
:1004B0000080808080C0C0C0C0C0C0C0C0E0E0E09C
:1004C000E0E0E0E0E0E0E0C0C0C0C0C0C0C0C0808C
:1004D000808080000000000000000000000000009C
:1004E000000000000000000000000000000000000C
:1004F00000000000000000000000000000000000FC
:10050000000000000101030307030303030301814B
:10051000C1C1E1E1E1E1E1E1E1E1C1C18101030347
:1005200003030307030301010000000000000000B3
:1005300000000000000000000000000000000000BB
:1005400000000000000000000000000000000000AB
:10055000000000000000000000000000000000009B
:100560000000000307070F0F0F0F0F0F0F0F0707F4
:100570000300000000000000000000000000000078
:10058000000000000000000000000000000000006B
:10059000000000000000000000000000000000005B
:1005A0000400000800000800000000000000000037
:1005B000000000000000000000000000000000003B
:1005C000000000000000000000000000000000002B
:1005D000000000000000000000000000000000001B
:1005E000000000000000000000000000000000000B
:1005F00000000000000000000000000000000000FB
:1006000000000000000000000000000000000000EA
:1006100000000000000000000000000000000000DA
:1006200000000000000000000000000000000000CA
:1006300000000000000000000000000000000000BA
:1006400000000000000000000000000000000000AA
:10065000000000000000000000000000000000009A
:10066000000000000000000000000000000000008A
:10067000000000000000000000000000000000007A
:10068000000000000000000000000000000000006A
:10069000000000000000000000000000000000005A
:1006A000000000000000000000000000000000004A
:1006B000000000000000000000000000000000003A
:1006C000000000000000000080C0C0E0E0E0E0E0CA
:1006D000E0E0E0C0C080000000000000000000007A
:1006E000000000000000000000000000000000000A
:1006F00000000000000000000000000000000000FA
:1007000000000000000000000000000000000000E9
:100710000000000000000000000000000307070FB9
:100720000F0F0F0F0F0F0F0707030000000000004F
:1007300000000000000000000000000000000000B9
:100740000000000000000000000000000000200089
:10075000000C00000800000000000400000400007D
:1007600000000001020304050E182D0D000000001A
:1007700000000000000000000000000010383838C1
:100780003838383838100000000000000000000041
:100790000000000000000000000000000000000059
:1007A0000000000000000000000000000000000049
:1007B0000000000000000040E0E0400000000000F9
:1007C000000002060E0E0E0E0E0E060200000000C5
:1007D000103838383838383838100000000080C0F9
:1007E000E0E0E0E0E0E0C080000000FCFAF60E0E81
:1007F0000E0E0E0EF6FAFC0000EFC783000000009C
:10080000000083C7EF00007FBFDFE0E0E0E0E0E052
:10081000DFBF7F0000000000000000000000F0F8D3
:10082000FC000000000000000000000083C7EF0093
:10083000000000000000000000001F3F7F000000DB
:1008400002060E0E0E0E0E0EF6FAFC0000E0D0B8F8
:100850003838383838383B170F00007FBFDFE0E00A
:10086000E0E0E0E0C0800000000002060E0E0E0E88
:100870000E0EF6FAFC0000001038383838383838D8
:10088000BBD7EF00000080C0E0E0E0E0E0E0DFBFC9
:100890007F0000FCF8F0000000000000F0F8FC0011
:1008A000000F173B383838383838BBD7EF00000016
:1008B00000000000000000001F3F7F0000FCFAF66F
:1008C0000E0E0E0E0E0E06020000000F173B3838FB
:1008D00038383838B8D0E000000080C0E0E0E0E010
:1008E000E0E0DFBF7F0000FCFAF60E0E0E0E0E0EEB
:1008F0000602000000EFD7BB383838383838B8D097
:10090000E000007FBFDFE0E0E0E0E0E0DFBF7F008D
:10091000000002060E0E0E0E0E0EF6FAFC0000008F
:10092000000000000000000083C7EF00000000008E
:100930000000000000001F3F7F0000FCFAF60E0ED2
:100940000E0E0E0EF6FAFC0000EFD7BB3838383822
:100950003838BBD7EF00007FBFDFE0E0E0E0E0E049
:10096000DFBF7F0000FCFAF60E0E0E0E0E0EF6FA3A
:10097000FC00000F173B383838383838BBD7EF0049
:10098000000080C0E0E0E0E0E0E0DFBF7F000C10AE
:100990002D0D00000080808080808000000000001D
:1009A0000103030303030301000000000000000033
:1009B0000000000000000000000000C0C0000000B7
:1009C00000000000028686868686860200000000FF
:1009D00081C3C3C3C3C3C381000000FC7A060606FB
:1009E0000606067AFC00007EBCC0C0C0C0C0C0BC09
:1009F0007E0000000000000000000078FC00000005
:100A0000000000000000003C7E0000000286868698
:100A10008686867AFC00007EBDC3C3C3C3C3C38180
:100A200000000000028686868686867AFC0000002A
:100A300081C3C3C3C3C3C3BD7E0000FC7880808074
:100A400080808078FC000000010303030303033D62
:100A50007E0000FC7A86868686868602000000007C
:100A600081C3C3C3C3C3C3BD7E0000FC7A86868630
:100A7000868686020000007EBDC3C3C3C3C3C3BD58
:100A80007E000000020606060606067AFC0000004C
:100A9000000000000000003C7E0000FC7A86868694
:100AA0008686867AFC00007EBDC3C3C3C3C3C3BDB4
:100AB0007E0000FC7A8686868686867AFC000000A8
:100AC00081C3C3C3C3C3C3BD7E000608205F00004B
:100AD000000000000000002F0000000007000700D9
:100AE00000147F147F1400242A7F2A120023130885
:100AF00064620036495522500000050300000000E2
:100B00001C224100000041221C000014083E081471
:100B10000008083E0808000000A06000000808085F
:100B20000808000060600000002010080402003E79
:100B30005149453E0000427F400000426151494614
:100B4000002141454B31001814127F100027454504
:100B50004539003C4A494930000171090503003616
:100B60004949493600064949291E00003636000029
:100B7000000056360000000814224100001414142E
:100B80001414000041221408000201510906003229
:100B90004959513E007C1211127C007F4949493667
:100BA000003E41414122007F4141221C007F4949D2
:100BB0004941007F09090901003E4149497A007F06
:100BC0000808087F0000417F4100002040413F01AC
:100BD000007F08142241007F40404040007F020C0B
:100BE000027F007F0408107F003E4141413E007FAC
:100BF00009090906003E4151215E007F0919294675
:100C00000046494949310001017F0101003F404050
:100C1000403F001F2040201F003F4038403F0063FE
:100C20001408146300070870080700615149454320
:100C300000007F414100AA55AA55AA550000414134
:100C40007F000004020102040040404040400000D8
:100C500003050000002054545478007F4844443871
:100C600000384444442000384444487F00385454F9
:100C7000541800087E0901020018A4A4A47C007F77
:100C8000080404780000447D4000004080847D001A
:100C9000007F102844000000417F4000007C0418C1
:100CA0000478007C0804047800384444443800FC8C
:100CB000242424180018242418FC007C08040408A8
:100CC00000485454542000043F444020003C40401D
:100CD000207C001C2040201C003C4030403C004454
:100CE00028102844001CA0A0A07C004464544C445C
:100CF0000000107C8200000000FF00000000827CE9
:100D000010000000060909060000000800020100AA
:100D100000030407000000000000000000000000C5
:100D2000230026002900010204081020408001024F
:100D30000408102001020408102000000000250013
:100D400028002B0004040404040404040202020228
:100D500002020303030303030000000000000080FD
:100D6000C0C0E0E00000FCFC0000E0E0C0C080008B
:100D700000000000000000000080F8FE1F070301D3
:100D8000000000003F3F000000000103073FFEF8A5
:100D900080000000000000001F7FF8E080000000DD
:100DA00000000000000000000080E0F87F1F00004D
:100DB00000000000000000000001030307060E060B
:100DC0000E0E060E060703030000000000000000E0
:100DD000000000000000000000F000000000000023
:100DE0000000000000000000000000000000000003
:100DF0000000000182241008040002020202020026
:100E00000408182482010000000000000000000017
:100E1000000002020202000F2040800000000000DB
:100E20000000000080C0200F00020202020000004B
:100E300000000000000000000004020100000100AA
:100E400002027A0202000100000102040000000018
:100E500000000000282030784030282030783030E2
:100E6000280000000000000000000000000000005A
:100E70000000E00000000000000000000000000092
:100E80000000000000000000000000089090607E5C
:100E90004081810206FF06028181407E6090908839
:100EA000000000000000000000000000000080487A
:100EB0004830F01008080507FF0705080810F03053
:100EC000484888000000000000000000000000000A
:100ED00000000000000300000402033F03020400BE
:100EE00000030000000000000000000000000000FF
:100EF00000000000000000000000005EBCE2613F56
:100F0000DD83C29C7E20A3FD1F419DC3217FFCA2E7
:100F1000401E5F01E3BD3E6082DC237D9FC1421C19
:100F2000FEA0E1BF5D0380DE3C62BEE0025CDF81CB
:100F3000633D7C22C09E1D43A1FF4618FAA4277979
:100F40009BC584DA3866E5BB5907DB856739BAE4A7
:100F500006581947A5FB7826C49A653BD987045AD9
:100F6000B8E6A7F91B45C6987A24F8A6441A99C78B
:100F7000257B3A6486D85B05E7B98CD2306EEDB339
:100F8000510F4E10F2AC2F7193CD114FADF3702E67
:100F9000CC92D38D6F31B2EC0E50AFF1134DCE9099
:100FA000722C6D33D18F0C52B0EE326C8ED0530D4B
:100FB000EFB1F0AE4C1291CF2D73CA947628ABF5F9
:100FC00017490856B4EA6937D58B5709EBB5366827
:100FD0008AD495CB2977F4AA4816E9B7550B88D659
:100FE000346A2B7597C94A14F6A8742AC896154B0B
:100FF000A9F7B6E80A54D7896B3500407A10F35A3E
:1010000000A0724E18090010A5D4E80000E8764848
:10101000170000E40B54020000CA9A3B000000E1F4
:10102000F505000080969800000040420F00000087
:10103000A08601000000102700000000E803000067
:1010400000006400000000000A0000000000010031
:10105000000000002C76D888DC674F0823DFC1DF52
:10106000AE59E1B1B796E5E3E453C63AE651997655
:1010700096E8E6C28426EB898C9B62ED407C6FFC8F
:10108000EFBC9C9F40F2BAA56FA5F490055A2AF7D1
:101090005C936B6CF9676DC11BFCE0E40D47FEF5DA
:1010A00020E6B500D0ED902E030094357705008042
:1010B000841E080000204E0A000000C80C333333A1
:1010C000330F986E12831141EF8D2114893BE65541
:1010D00016CFFEE6DB18D1844B381BF77C1D901D24
:1010E000A4BBE424203284725E228100C9F124EC86
:1010F000A1E53D27F51C11241FBECFEFD8E0DEBFD0
:10110000CDBF11E0A0E0B1E0EEEAFAE402C0059044
:101110000D92A43BB107D9F724E0A4EBB1E001C0E4
:101120001D92AF3BB207E1F718E0CBE7D8E004C06F
:101130002197FE010E945B1ECA37D107C9F70E94A2
:1011400078160C9455250C94000084359105F8F41C
:1011500060337105E0F49B0143E0369527954A958D
:10116000E1F744E5429FF001439FF00D11248E0FFB
:101170009F1FFC01E157FD4F6770772781E090E0EA
:1011800001C0880F6A95EAF7908D892B808F0895AA
:101190008435910500F560337105E8F49B0143E067
:1011A000369527954A95E1F744E5429FF001439F24
:1011B000F00D11248E0F9F1FFC01E157FD4F67704A
:1011C000772781E090E001C0880F6A95EAF7809563
:1011D000908D8923808F08952F923F924F925F9236
:1011E0006F927F928F929F92AF92BF92CF92DF9237
:1011F000EF92FF920F931F93CF93DF93CDB7DEB79C
:1012000028970FB6F894DEBF0FBECDBF78876F83E7
:101210001A01FC0101900020E9F731979F01281B7A
:10122000390B3C832B836F30774281F44091A202CB
:101230006B817C81469F9001479F300D112444E5CE
:1012400050E0DA01A21BB30BB887AF832F8138853A
:101250002E303742B1F44091A2026B817C81469FCF
:101260009001479F300D112444E550E0421B530B81
:1012700057FF02C04F5F5F4F9A013595279538871A
:101280002F839E838D83C12CD12C2B813C81C21650
:10129000D3060CF0F4C09091A2029C9D80019D9D0C
:1012A000100D11242F813885020F131FAD81BE81CF
:1012B0002D91BE83AD838091A302582F577030E0EB
:1012C0004091A40251116EC0869586958695241B87
:1012D0003109989FC0011124289FA001299F500D1A
:1012E000389F500D11249A012C5F3F4F3A83298378
:1012F0004101A12CB12C8091A302869586958695FB
:1013000090E0A816B9060CF0B6C049805A803801A2
:101310008091A20290E09301201B310B281739071E
:10132000D4F5E12CF12C8091A2028A9DF0018B9DD5
:10133000F00D1124E40DF51D8091A0029091A10201
:10134000E80FF91FE491F0E00E2C02C0F595E79547
:101350000A94E2F78091A602B701680D791DE0FFBB
:1013600003C0811103C006C0811104C0C3010E94E3
:10137000C80803C0C3010E94A5083FEFE31AF30A9F
:1013800048E0E416F10479F66FEF661A760A7FEF0B
:10139000471A570ABDCF8FEFA81AB80A98E0890EEE
:1013A000911CA9CF241B3109989FC001112443E04F
:1013B000959587954A95E1F7289F5001299FB00C94
:1013C000389FB00C1124A4E0AA0EB11CE091A00239
:1013D000F091A102EA0DFB1DE4914E2E512C380133
:1013E00057E0852E912C8091A20290E09301201B62
:1013F000310B281739070CF03EC071018091A30210
:1014000090E09701221933092817390784F52091B4
:10141000A602C201082C02C0959587950A94E2F7AE
:10142000B70180FF04C0C301211104C006C0C3017D
:10143000211103C00E94C80802C00E94A508B1E0A3
:101440008B1A910897FE0FC0EFEFAE1ABE0AE0911B
:10145000A002F091A102EA0DFB1DE4914E2E512C49
:1014600087E0882E912CFFEFEF1AFF0AC7CF2FEFEE
:10147000621A720AB8CF3FEFC31AD30A06CF289672
:101480000FB6F894DEBF0FBECDBFDF91CF911F9195
:101490000F91FF90EF90DF90CF90BF90AF909F9013
:1014A0008F907F906F905F904F903F902F90089516
:1014B0008F929F92AF92BF92CF92DF92EF92FF9264
:1014C0000F931F93CF93DF93CDB7DEB75B014A0134
:1014D000CDB6DEB6FC010481158198012F5F3F4F28
:1014E0004DB75EB7421B530B0FB6F8945EBF0FBEED
:1014F0004DBFEDB7FEB731967F01232B81F03097BA
:1015000071F00115110551F0FC0160817181A80194
:10151000C7010E941A21F701E00FF11F1082A401F8
:10152000B501C7010E94EC080FB6F894DEBE0FBEED
:10153000CDBEDF91CF911F910F91FF90EF90DF9083
:10154000CF90BF90AF909F908F900895AFE8B2E09A
:1015500052969C938E935197FC01249153962C9311
:1015600053973196E4915496EC935497FC0132963C
:10157000E4915596EC935597FC01339684915696D9
:101580008C93569757961C920895AF92BF92CF9224
:10159000DF92EF92FF920F931F93CF93DF938B0114
:1015A000BC0180918102909182020E940D1240E064
:1015B0006EEB80918102909182020E94CB11E80132
:1015C000680189E0C80ED11CA0908102B09082020F
:1015D00088E0E82EF12C01E010E0C5010E943A12EB
:1015E0008111102B000F81E0E81AF108B1F719936F
:1015F000CC15DD0549F780918102909182020E940D
:101600005E1291E0813009F090E0892FDF91CF9157
:101610001F910F91FF90EF90DF90CF90BF90AF9010
:1016200008950F931F93CF93DF93CDB7DEB729971C
:101630000FB6F894DEBF0FBECDBFFC012081203174
:1016400061F18C0180918102909182020E945E1270
:10165000882309F1BE016F5F7F4FC8010E94C50A50
:101660008823C9F068E0CE0101960E94BE119985D9
:10167000891311C08D818F3361F020F48F3159F4BB
:1016800089E00CC08F3519F08F3739F004C08BE03A
:1016900005C08AE003C080E001C08CE029960FB647
:1016A000F894DEBF0FBECDBFDF91CF911F910F9198
:1016B0000895CF93C82F61E00E94E010EC2FF0E076
:1016C000E85FF24FE491E33019F150F4E130D1F0EA
:1016D000E230E1F584B5806284BD8FEF88BD3BC008
:1016E000E73011F1E83049F1E43081F58091800074
:1016F0008062809380008FEF93E090938B008093C3
:101700008A0029C084B5806884BD8FEF87BD23C05F
:10171000809180008068809380008FEF93E09093A9
:1017200089008093880017C08091B0008068809302
:10173000B0008FEF8093B3000EC08091B000806244
:101740008093B0008FEF8093B40005C061E08C2FD0
:10175000CF910C94B010CF91089590919D02E0919B
:101760009702F09198022081422F50E0292F30E01B
:1017700020953095242335232083E0919302F09126
:10178000940290919B02208161110BC0422F50E086
:10179000292F30E02095309524233523208348E0FD
:1017A00003C0922B9083FBCFE0919102F0919202C3
:1017B00090919A02208187FF03C0922B908309C0E9
:1017C000622F70E0292F30E02095309526233723B3
:1017D0002083880F90919902E0918F02F0919002FE
:1017E0002081622F70E0292F30E02095309526234C
:1017F00037232083000090919902E0918F02F091AD
:1018000090022081922B9083415071F680919D022D
:10181000E0919702F09198029081892B808308953E
:10182000CF93DF9380919F04811112C060E080E428
:101830000E94AD0B60E080E80E94AD0BC7EAD2E0E9
:1018400061E089910E94AD0B84E0CF39D807C1F7E0
:10185000DF91CF910895CF93DF939CB59F7D9CBD81
:101860009CB5937F9CBD9CB59C7F9CBD9DB59160B4
:101870009DBDC4E6D2E0682F8A810E94B0108C8999
:101880009D89DF91CF910C941C1181E00C942B0C5D
:1018900080E00C942B0C1F93CF93DF9300D0CDB737
:1018A000DEB76A8389830E94480C89818F718062C8
:1018B0000E94B711182F6A81862F0E94B7110E94CB
:1018C000450C812F0F900F90DF91CF911F910895BC
:1018D000CF93DF931F92CDB7DEB789830E94480C68
:1018E00089818F710E94B7118FEF0E94B711898390
:1018F0000E94450C89810F90DF91CF910895EF925E
:10190000FF920F931F93CF93DF9300D01F92CDB719
:10191000DEB7162F4A837B8389830E94480C898116
:101920008F7180620E94B711082FE12E7B81F72E04
:101930004A81140F1E1531F0F70181917F010E9439
:10194000B711F8CF0E94450C802F0F900F900F9089
:10195000DF91CF911F910F91FF90EF90089580E05C
:101960000E94680C81FD0BC0682F626080E00E94BD
:101970004B0C65E070E080E090E00C942711089536
:10198000CF93DF931F92CDB7DEB70E94480C81EE54
:101990000E94B71189830E94450C89810F90DF91C5
:1019A000CF910895209164023091650240916602C2
:1019B000509167022417350721F0682F822F0C946D
:1019C000B0100895009769F0FC0101900020E9F73C
:1019D0003197AF01481B590BBC0187EC91E00C9487
:1019E000E81480E090E00895CF93DF930E94E20C2A
:1019F000EC018BE291E00E94E20C8C0F9D1FDF91C5
:101A0000CF9108958F929F92AF92BF920F931F93A1
:101A1000CF93DF93CDB7DEB7A1970FB6F894DEBFB3
:101A20000FBECDBF19A2423008F44AE08E010F5D0F
:101A30001F4F842E912CA12CB12CA50194010E9442
:101A4000251EE62FB901CA0101501109EA3014F42C
:101A5000E05D01C0E95CD801EC93232B242B252BFE
:101A600061F7C8010E94E20CA1960FB6F894DEBFA0
:101A70000FBECDBFDF91CF911F910F91BF90AF905F
:101A80009F908F9008950F931F93CF93DF931F9292
:101A9000CDB7DEB790916B02092F911101E08091D3
:101AA0006C02811103C0192F101B01C010E00E94AD
:101AB000480C80EA0E94B711002321F08091C501F3
:101AC0000E94B711112329F080E00E94B711115034
:101AD000F9CF0E94450C81E00E94D20C0E94480C74
:101AE0008FEF0E94B71189830E94450C8981807312
:101AF000A9F380E00E94D20C60E787E00E944B0CC3
:101B000084FF04C00E94C00C80E001C081E00F90FF
:101B1000DF91CF911F910F9108952F923F924F9295
:101B20005F926F927F928F929F92AF92BF92CF926D
:101B3000DF92EF92FF920F931F93CF93DF936C018D
:101B40004A0159017B01C0E0D0E0C017D1070CF079
:101B500040C0CE01D7FD079623E0959587952A953D
:101B6000E1F78A9D20018B9D500C9A9D500C112409
:101B7000CE0168E070E00E94111E22242394312CD3
:101B800002C0220C331C8A95E2F736014C185D081E
:101B9000C3018C199D098A159B05B4F4F201E60D69
:101BA000F71DE80DF91DE491F0E0E221F321B70102
:101BB000C301EF2B19F00E94A50802C00E94C808BB
:101BC0008FEF681A780AE4CF21968FEFE81AF80AA7
:101BD000BCCFDF91CF911F910F91FF90EF90DF90DD
:101BE000CF90BF90AF909F908F907F906F905F90BD
:101BF0004F903F902F9008958F929F92AF92BF92F7
:101C0000CF92DF92EF92FF92CF93DF936B017C0133
:101C10009B01AC010E94091F882319F084E891E020
:101C200027C046015701E894B7F82FEF3FEF4FE781
:101C30005FE7C501B4010E94091F81110DC02FEF9C
:101C40003FEF4FE75FE7C501B4010E94E423181698
:101C50001CF488E891E00CC02FEF3FEF4FE75FE402
:101C6000C701B6010E94041F181674F48CE891E0B5
:101C7000DF91CF91FF90EF90DF90CF90BF90AF902A
:101C80009F908F900C94E20C2FEF3FEF4FE75FECAB
:101C9000C701B6010E94E42387FDE8CF20E030E0D1
:101CA000A901C701B6010E94E42387FF11C0E0919A
:101CB000C701F091C8010190F081E02D6DE287EC41
:101CC00091E00995EC01F7FAF094F7F8F09402C06E
:101CD000C0E0D0E02AE037ED43EA5BE3C701B6019C
:101CE0000E94621E4B015C010E94D51E6B017C01AB
:101CF0000E94E9239B01AC01C501B4010E94611E51
:101D00004B015C014AE0C701B6010E94020DC80FF9
:101D1000D91F88E491E00E94E20CC80FD91F20E08F
:101D200030E040E251E4C501B4010E944A244B0175
:101D30005C010E94D51E6B01E12CF12C4AE0C70129
:101D4000B6010E94020DC80FD91FC701B6010E943B
:101D5000E9239B01AC01C501B4010E94611E20E092
:101D600030E040E251E40E944A240E94D51E80E007
:101D700090E04AE00E94020D8C0F9D1FDF91CF91F1
:101D8000FF90EF90DF90CF90BF90AF909F908F909B
:101D90000895FC01918D828D981761F0828DDF018D
:101DA000A80FB11D5D968C91928D9F5F9F73928F4E
:101DB00090E008958FEF9FEF0895FC01918D828D43
:101DC000981731F0828DE80FF11D858D90E0089510
:101DD0008FEF9FEF0895FC01918D228D892F90E068
:101DE000805C9F4F821B91098F739927089587EC20
:101DF00091E00E94EB0E21E0892B09F420E0822F74
:101E00000895FC01848DDF01A80FB11DA35ABF4FB7
:101E10002C91848D90E001968F739927848FA689E9
:101E2000B7892C93A089B1898C9180648C93938D10
:101E3000848D981306C00288F389E02D80818F7D00
:101E400080830895EF92FF920F931F93CF93DF93B8
:101E5000EC0181E0888F9B8D8C8D981305C0E889FB
:101E6000F989808185FD24C0F62E0B8D10E00F5F6F
:101E70001F4F0F731127E02E8C8DE8120CC00FB688
:101E800007FCFACFE889F989808185FFF5CFCE017B
:101E90000E94010FF1CF8B8DFE01E80FF11DE35A77
:101EA000FF4FF0820B8FEA89FB898081806207C037
:101EB000EE89FF896083E889F98980818064808365
:101EC00081E090E0DF91CF911F910F91FF90EF9013
:101ED0000895CF93DF93EC01888D8823C9F0EA89B8
:101EE000FB89808185FD05C0A889B9898C9186FD13
:101EF0000FC00FB607FCF5CF808185FFF2CFA88910
:101F0000B9898C9185FFEDCFCE010E94010FE7CFFB
:101F1000DF91CF91089580E090E0892B29F00E9415
:101F2000F70E81110C9400000895833081F028F49D
:101F3000813099F08230A1F008958730A9F088307F
:101F4000B9F08430D1F4809180008F7D03C08091FE
:101F500080008F7780938000089584B58F7702C0CA
:101F600084B58F7D84BD08958091B0008F7703C0C4
:101F70008091B0008F7D8093B00008953FB7F894B2
:101F80008091B7049091B804A091B904B091BA04BB
:101F900026B5A89B05C02F3F19F00196A11DB11DC4
:101FA0003FBFBA2FA92F982F8827820F911DA11DFF
:101FB000B11DBC01CD0142E0660F771F881F991F3C
:101FC0004A95D1F70895FC0190810180F281E02DBE
:101FD000892F809560FF12C0F8942281822382832A
:101FE0008181892B8183A3E2B0E01197F1F782818F
:101FF000982B9283789487ED90E011C0F894228119
:10200000822382838181892B8183AFEFB0E0119796
:10201000F1F78281982B928378948FE090E001977A
:10202000F1F7089508950F931F93CF93DF931F92B5
:10203000CDB7DEB78C0169830E94082569816817D6
:1020400041F0C8010F90DF91CF911F910F910C9437
:1020500010250F90DF91CF911F910F9108951F923E
:102060000F920FB60F9211242F933F934F935F93CC
:102070006F937F938F939F93AF93BF93EF93FF9350
:1020800087EC91E00E94010FFF91EF91BF91AF911A
:102090009F918F917F916F915F914F913F912F9180
:1020A0000F900FBE0F901F9018951F920F920FB6B2
:1020B0000F9211242F938F939F93EF93FF93E091AF
:1020C000D701F091D8018081E091DD01F091DE012E
:1020D00082FD12C090818091E0018F5F8F7320910B
:1020E000E101821751F0E091E001F0E0E953FE4F89
:1020F000958F8093E00101C08081FF91EF919F91C6
:102100008F912F910F900FBE0F901F901895CF9326
:10211000DF93282F30E0F901E85FF24F8491F90155
:10212000EA5DF24FD491F901EC5BF24FC491CC23FC
:1021300091F081110E94950FEC2FF0E0EE0FFF1F40
:10214000E45EF24FA591B491EC91ED2381E090E033
:1021500021F480E002C080E090E0DF91CF9108950B
:102160001F93CF93DF93282F30E0F901E85FF24F00
:102170008491F901EA5DF24FD491F901EC5BF24FE1
:10218000C491CC23C9F0162F81110E94950FEC2F1A
:10219000F0E0EE0FFF1FE65CF24FA591B4918FB710
:1021A000F894111105C09C91ED2FE095E92302C030
:1021B000EC91ED2BEC938FBFDF91CF911F910895A0
:1021C000CF93DF9390E0FC01EA5DF24F2491FC0194
:1021D000EC5BF24F8491882361F190E0880F991FA6
:1021E000FC01E859FF4FC591D491FC01E65CF24F28
:1021F000A591B491611109C09FB7F8948881209589
:1022000082238883EC912E230BC0623061F49FB748
:10221000F8943881822F809583238883EC912E2B2C
:102220002C939FBF06C08FB7F894E8812E2B28838C
:102230008FBFDF91CF9108958230910538F0880FDC
:10224000991F880F991F05970197F1F708958F92AD
:102250009F92AF92BF92CF92DF92EF92FF926B016B
:102260007C010E94BE0F4B015C01C114D104E1044A
:10227000F104F1F00E94BE0FDC01CB01881999092D
:10228000AA09BB09883E9340A105B10570F321E07E
:10229000C21AD108E108F10888EE880E83E0981E82
:1022A000A11CB11CC114D104E104F10419F7DDCF64
:1022B000FF90EF90DF90CF90BF90AF909F908F9066
:1022C00008952FB7F8946091B3047091B40480918D
:1022D000B5049091B6042FBF08951F920F920FB6C8
:1022E0000F9211242F933F938F939F93AF93BF939C
:1022F0008091B3049091B404A091B504B091B60458
:102300003091B20423E0230F2D3720F40196A11D54
:10231000B11D05C026E8230F0296A11DB11D209313
:10232000B2048093B3049093B404A093B504B09323
:10233000B6048091B7049091B804A091B904B0910B
:10234000BA040196A11DB11D8093B7049093B804FF
:10235000A093B904B093BA04BF91AF919F918F91AC
:102360003F912F910F900FBE0F901F9018958EBD2B
:1023700000000DB407FEFDCF8EB50895DC01E0E04E
:10238000615038F08D91E827F0E0E650F14FE4918C
:10239000F7CF8E2F0895CF92DF92EF92FF920F9397
:1023A0001F93CF93DF931F92CDB7DEB76C01E62E5C
:1023B00008E010E0FF24F39461E08F2D8E2109F4F2
:1023C00060E0C60149830E94E30FFF0C0150110930
:1023D00049810115110581F7411115C0F894D60105
:1023E0001196ED91FC91129791818C9180958923A2
:1023F00081831196ED91FC91129792818C91809539
:102400008923828378940F90DF91CF911F910F9150
:10241000FF90EF90DF90CF900895CF92DF92EF92F0
:10242000FF920F931F93CF93DF931F92CDB7DEB729
:102430008C01F62E40E065E579830E94CB11CF2C0C
:102440007981D72E760188E0E80EF11CF6016191C2
:102450006F0140E0C8010E94CB11CE14DF04B1F738
:102460000F90DF91CF911F910F91FF90EF90DF9030
:10247000CF900895FC0190810180F281E02DF894C5
:102480008181892B81832281892F80952823228332
:10249000A7E0B0E01197F1F7218182238183A3E2C5
:1024A000B0E01197F1F780817894EFECF0E031978C
:1024B000F1F7982381E009F480E00895FC01908110
:1024C0000180F281E02DF8948181292F20958223CB
:1024D000818378948DE743E050E0815021F1DA0167
:1024E0001197F1F730813923C1F3F8948281822367
:1024F00082838181892B81837894ABE7B7E0119740
:10250000F1F7F894818128232183A3E1B1E01197A9
:10251000F1F78081982381E009F080E07894E3E688
:10252000F6E03197F1F70895AF92BF92CF92DF9224
:10253000EF92FF920F931F93CF93DF931F92CDB72C
:10254000DEB75C01E62ED72EFC01858581115DC0CA
:10255000C5010E945E12811105C0F5011386158622
:1025600014866BC040E060EFC5010E94CB1101E012
:10257000F12CC12C11E0C5010E943A12682FC5014F
:1025800069830E943A126981613019F48130B9F48B
:1025900033C04F2D50E068131BC0F5018385181719
:1025A00030F4E40FF51F8381802349F402C018172B
:1025B00031F060E0193058F4F501148708C0F501D6
:1025C000EF0DF11D8381802B838361E009C0C12E53
:1025D000F501E40FF51F9381802F80958923838374
:1025E000C5010E94E30F1F5F000F11F4F39401E097
:1025F000F7E0FF1508F0BFCF113438F0F501C386BE
:10260000C11015C081E0858712C0F50113861586BB
:10261000148680E0D5011396EE2DFD2D9501255FE2
:102620003F4F9D919193A217B307D9F706C0F501CB
:102630008381882351F381E0EDCF0F90DF91CF911B
:102640001F910F91FF90EF90DF90CF90BF90AF90D0
:1026500008958F929F92AF92BF92CF92DF92EF92A6
:10266000FF920F931F93CF93DF9300D000D000D041
:10267000CDB7DEB76091B4018091B6019091B701FA
:102680000E9413108090010190900201A09003011C
:10269000B0900401C501B4010E94CE1E6B017C0103
:1026A0008091B6019091B7016C2D02960E94131093
:1026B000B601DD0C880B990B0E94EB239B01AC014A
:1026C000C501B4010E94611E11E020E030E0A901C3
:1026D0000E94041F18160CF010E08091B601909132
:1026E000B701612F04960E94102586E2E82EF12C96
:1026F00000E010E0B801C7010E94C8080F5F1F4F3B
:1027000004311105B9F78FEFE81AF80A84E5E816E5
:10271000F10471F780E991E00E94F40C00E010E010
:10272000C8010E940825882359F0682F70E080E0D6
:1027300090E04AE00E94020D8BE291E00E94E20CE0
:102740000E5F1F4F011584E0180751F780E991E0F3
:102750000E94F40C8EE899E00E94A60A40910101C3
:1027600050910201609103017091040121E0CE01BA
:1027700001960E94481642E050E06CE170E0CE0104
:1027800001960E94580ACE0101960E9443168AECD7
:102790009AE00E94A60A0E94100C26960FB6F894A2
:1027A000DEBF0FBECDBFDF91CF911F910F91FF9084
:1027B000EF90DF90CF90BF90AF909F908F90089553
:1027C0008F929F92AF92BF92CF92DF92EF92FF9241
:1027D0000F931F93CF93DF936B017C0180900101D6
:1027E00090900201A0900301B09004018FE00E943C
:1027F0008710EC018091B0049091B104C817D907FB
:1028000009F162E370E080E090E00E9427112097D8
:10281000A9F48091B4019091B50101969093B5010E
:102820008093B4010E9429130E9461116093B80142
:102830007093B9018093BA019093BB01D093B10416
:10284000C093B0048091B4019091B501823091059C
:1028500008F04CC003E210E023E230E041E65EE025
:1028600064E170E088E390E00E948D0D0E94100CFE
:10287000A5019401C701B6010E94611E6B017C0194
:102880002AE939E949E95EEB0E94E42318163CF095
:1028900061E082E00E94B0108FE690E076C02AE905
:1028A00039E949E95EE3C701B6010E94041F181621
:1028B000D4F48EED90E09093C6018093C5010E9400
:1028C000430D60E03DC02AE939E949E95EE3C5010D
:1028D000B4010E94611E9B01AC01C701B6010E94B8
:1028E000E42387FDE6CF80EF90E04FC08230910572
:1028F000B1F503E210E023E230E048EC5DE064E192
:1029000070E088E390E00E948D0D0E94100C2AE98F
:1029100039E949E95EE3C501B4010E94621E9B01E9
:10292000AC01C701B6010E94041F181664F68FE6B9
:1029300090E09093C6018093C5010E94430D61E031
:1029400082E0DF91CF911F910F91FF90EF90DF9088
:10295000CF90BF90AF909F908F900C94B010039742
:1029600031F50EE110E02EE130E048E55DE064E194
:1029700070E088E390E00E948D0D0E94100C60E0F2
:1029800082E00E94B0108EED90E09093C60180939B
:10299000C501DF91CF911F910F91FF90EF90DF90D4
:1029A000CF90BF90AF909F908F900C94430D10925A
:1029B000B5011092B401DF91CF911F910F91FF905B
:1029C000EF90DF90CF90BF90AF909F908F90089541
:1029D000CF92DF92EF92FF920F931F93CF93DF93EB
:1029E0006C017A018B01C0E0D0E0CE15DF0589F0E3
:1029F000D8016D918D01D601ED91FC910190F0818E
:102A0000E02DC6010995892B11F47E0102C02196A3
:102A1000ECCFC701DF91CF911F910F91FF90EF9005
:102A2000DF90CF9008950E940521CF93DF93CDB71B
:102A3000DEB761970FB6F894DEBF0FBECDBFE09151
:102A40008102F0918202138615861486DF011B969F
:102A5000CF0103961E92A817B907E1F7BE01665F82
:102A60007F4FCF010E949412882341F067E0CE018E
:102A70000A960E94BE119989891729F060E070E0DA
:102A80008EEF92EC59C080918102909182020E9457
:102A90005E128823F1F1BE016F5F7F4FCE010A966F
:102AA0000E94C50A8823A9F168E0CE0101960E9420
:102AB000BE11998589132DC0698148E0649FB001DA
:102AC00011248A81282F30E0322F2227330F330F31
:102AD000330F262B372B8A858031C9F4688570E047
:102AE0008F81AB01481B5109CA019695982F882701
:102AF000979587950E94111E60517109207F53E0C0
:102B0000220F331F5A95E1F7620F731F04C0B901FA
:102B100002C060E874EE613854EE75070CF4AECF75
:102B2000072E000C880B990B0E94EB2320E030E06D
:102B300040E05CE30E944A2461960FB6F894DEBF41
:102B40000FBECDBFDF91CF910895CF92DF92EF926C
:102B5000FF92CF93DF936C01990FEE08FF08F7FE09
:102B60001AC0E091C701F091C8010190F081E02DF9
:102B70006DE287EC91E00995EC0166277727CB01A0
:102B80006C197D098E099F094AE00E94020D7C01A3
:102B9000EC0EFD1E06C04AE0C701B6010E94020D00
:102BA0007C018BE291E00E94E20C8E0D9F1DDF9173
:102BB000CF91FF90EF90DF90CF9008950F931F93E8
:102BC000CF93DF93EC0188819981009729F02A81C6
:102BD0003B812617370788F48B016F5F7F4F0E9478
:102BE0003B20009761F0998388831B830A832C81A3
:102BF0003D81232B11F4FC01108281E001C080E0B3
:102C0000DF91CF911F910F910895CF93DF93EC0146
:102C100088819981009711F00E94A31F1982188260
:102C20001D821C821B821A82DF91CF910895EF9240
:102C3000FF920F931F93CF93DF938C017B0161155C
:102C4000710569F0FB0101900020E9F73197EF0170
:102C5000C61BD70BBE010E94DE15811104C0C8013E
:102C60000E94051608C0F801D583C483B70180818E
:102C700091810E941321C801DF91CF911F910F9183
:102C8000FF90EF900895FC01808191810C94A31F27
:102C9000EF92FF920F931F93CF93DF93CDB7DEB7E1
:102CA000A1970FB6F894DEBF0FBECDBF7C01CB015C
:102CB000BA01F701118210821382128215821482E6
:102CC00042E0420F8E010F5F1F4F0E942921BC017D
:102CD000C7010E941716A1960FB6F894DEBF0FBE6B
:102CE000CDBFDF91CF911F910F91FF90EF9008958D
:102CF000CF93DF93CDB7DEB7AC970FB6F894DEBFB6
:102D00000FBECDBF789484B5826084BD84B58160E8
:102D100084BD85B5826085BD85B5816085BD8091A6
:102D20006E00816080936E0010928100809181001E
:102D30008260809381008091810081608093810016
:102D4000809180008160809380008091B1008460D8
:102D50008093B1008091B00081608093B000809139
:102D60007A00846080937A0080917A0082608093F8
:102D70007A0080917A00816080937A0080917A0055
:102D8000806880937A001092C100E091D701F091A1
:102D9000D80182E08083E091D301F091D4011082C8
:102DA000E091D501F091D6018FEC80831092DF0184
:102DB000E091DB01F091DC0186E08083E091D901B4
:102DC000F091DA01808180618083E091D901F091F6
:102DD000DA01808188608083E091D901F091DA0185
:102DE000808180688083E091D901F091DA0180814F
:102DF0008F7D8083809164029091650220916602AC
:102E0000309167028217930719F061E00E94E01089
:102E10008091660290916702209164023091650270
:102E20002817390719F061E00E94E0101FB7F894E5
:102E30008091BC01811127C0EEE4FDE08491E0E3C4
:102E4000FDE09491E82FF0E0EE0FFF1FE859FF4FEF
:102E5000A591B491EC91E92321F461E08AE00E940C
:102E6000B01061E08AE00E94E0108CB580618CBDFA
:102E70008CB580648CBD61E08DE00E94E01061E063
:102E80008BE00E94E0108091BC018F5F8093BC01B9
:102E90001FBF80E00E94D20C81E00E942B0C65E0F5
:102EA00070E080E090E00E9427116CE080E00E94DA
:102EB0004B0C6FE584E00E944B0C86E00E94680C8E
:102EC000877D182F10628BE990E0A0E0B0E080933E
:102ED000740290937502A0937602B0937702612FEB
:102EE00086E00E944B0C86E00E94680C811709F472
:102EF000EEC286E00E94680C86E00E94680C45E500
:102F000050E060E070E0409374025093750260936B
:102F1000760270937702682F677D86E00E944B0CE3
:102F200086E00E94680C0E94480C80E50E94B71160
:102F300083E70E94B7110E94450C60E08DE10E947A
:102F40004B0C60E08CE10E944B0C10926C0260E72D
:102F500087E00E944B0C6CE485E00E944B0C0E94C1
:102F6000480C82EE0E94B7110E94450C0E94C00CD2
:102F70000E94AF0C80E00E94680C682F6E7F80E09A
:102F80000E944B0C51EEF52EFB8E10EF1C8F1D8F07
:102F900008EE0E8F0F8F18A219A21AA2409172028A
:102FA000BE01655E7F4F8AE00E947F0C40917202F5
:102FB000BE01655E7F4F80E10E947F0C60916B02D5
:102FC00081E10E944B0CFB8A1C8B1D8B0E8B88EAC7
:102FD0008F8B188E198E1A8EE9E7F0E0849140915C
:102FE0007202BE016D5E7F4F0E947F0CE3E7F0E04E
:102FF000849160916B020E944B0C82E00E94680CED
:10300000E3E6F7E0E49161E070E001C0660FEA9565
:10301000EAF7682B82E00E944B0C80919B02E091C2
:103020009302F09194029081892B808380919A027F
:10303000E0919102F09192029081892B808380919E
:103040009902E0918F02F09190029081892B808308
:1030500080919D02E0919702F09198029081892BD6
:10306000808390919C02E0919502F091960280817C
:10307000282F30E0892F90E080959095822393232C
:1030800080836AE070E080E090E00E9427118091E8
:103090009C02E0919502F09196029081892B8083A9
:1030A00060E081E20E94AD0B60E086EC0E94AD0B17
:1030B00060E086E00E94AD0B60E083E10E94AD0B12
:1030C00060E080E20E94AD0B60E080E40E94AD0B06
:1030D00060E080E80E94AD0B60E08CE00E94AD0BE8
:1030E000E7EAF2E0119224E0EF39F207D9F70E9403
:1030F000100C1092A1021092A00210929F0486E47C
:1031000090E09093A1048093A0048AEC9AE00E943E
:10311000A60A60E08EE00E94E01060E080E10E947C
:10312000E01062E08FE00E94E01061E082E00E9427
:10313000E01061E08FE00E94E0108FE00E94590BE8
:10314000E0918102F0918202138615861486DF01D8
:103150001B9633961E92AE17BF07E1F710928002BE
:1031600011E0BE016F5F7F4F8091810290918202DA
:103170000E949412882309F44AC067E0CE010196A8
:103180000E94BE1198858913ECCF80917C02811139
:1031900027C080918102909182020E945E12BE013E
:1031A0006F5F7F4F80918102909182020E940D1289
:1031B00040E064EB80918102909182020E94CB11E9
:1031C00080918102909182020E943A12082F809190
:1031D0008102909182020E945E12002309F47BC159
:1031E00000917D02CE0101960E94110B801718F408
:1031F00080917D0204C0CE0101960E94110B809344
:103200007D02809180028F5F80938002AACFA09080
:10321000B601B090B701750132E0E30EF11CF092F7
:10322000B701E092B601E11444E0F40629F41092EB
:10323000B7011092B60124C0C12CD12CC6010E9446
:10324000082581114BC15FEFC51AD50AC11484E06E
:10325000D806A1F76091B401C7010E9410256091C2
:1032600001017091020180910301909104010E947B
:10327000D51E8091B6019091B70102960E9410254B
:1032800088E697E00E94A60A1CA21BA21EA21DA20D
:1032900018A61FA21982BE016F5F7F4FCE018396D1
:1032A0000E94171644E150E061E070E0CE01839681
:1032B0000E94580ACE0183960E9443162DED822E5D
:1032C000912C32E6232E37E0332EAA24A394B12C7E
:1032D0009092C6018092C5010E94430D65E070E0A6
:1032E00080E090E00E9427110E94AF0C80E00E94D5
:1032F000680C682F616080E00E944B0C60E787E0FB
:103300000E944B0C81E00E94D20C80916D028823B8
:1033100041F0409172026DE672E08AE00E947F0CFB
:103320000FC082E00E94680CF1019491B50101C0C8
:10333000660F9A95EAF76095682382E00E944B0C2D
:103340008DE10E94680C81FFBEC00E94C00CBBC012
:1033500087E10E94680C80FFF5C0411451046104AC
:10336000710421F40E9461112B013C010E94611142
:1033700064197509860997090E94E923AB01BC010C
:1033800022E0CE0183960E9448161A8219821C827E
:103390001B821E821D8269E070E0CE0101960E94B0
:1033A000DE1581112DC2CE0101960E9405168FA156
:1033B00098A5CBA0DCA0ED80FE80C114D10409F457
:1033C0003FC2009709F027C24D815E8169817A81F1
:1033D00087EC91E00E94E8148BE291E00E94E20CFD
:1033E000CE0101960E944316CE0183960E94431699
:1033F0000E946111DC01CB0184199509A609B70966
:1034000081319742A105B10508F4A2CF80E79FE67C
:103410000E94A5158AE0E82EF12C0AE210E024E5CE
:1034200030E049EA55E060E070E080E090E00E9422
:103430008D0D0E94100C64E670E080E090E00E9428
:10344000271124E530E040EF53E060E070E080E0D9
:1034500090E00E948D0D0E94100C64E670E080E008
:1034600090E00E94271124E530E047E352E060E05D
:1034700070E080E090E00E948D0D0E94100C64E6E8
:1034800070E080E090E00E94271124E530E04EE7F4
:1034900050E060E070E080E090E00E948D0D0E94BE
:1034A000100C64E670E080E090E00E942711E7EAEB
:1034B000F2E0119224E0EF39F207D9F731E0E31A94
:1034C000F10809F0AACF412C512C320141CF81E003
:1034D00080936A020ECD10937C0282CEC7010E94B7
:1034E000082590E09093B5018093B401C50104963E
:1034F0000E940825682F70E080E090E00E94E92398
:103500006B017C01609301017093020180930301C0
:1035100090930401C50106960E940825882309F4AA
:10352000AFCE20E030E040E05FE3C701B6010E948B
:10353000621E6093010170930201809303019093D6
:1035400004019ECEF0906B0211E0F11001C010E07A
:1035500080916C02811102C0F11A01C0F12C0E940D
:10356000480C81E60E94B711112329F08FEF0E94C9
:10357000B7118093C501FF2029F08FEF0E94B7118A
:10358000FA94F9CF0E94450C60E787E00E944B0C4B
:103590008091C5019091C6010E94A51565E070E07B
:1035A00080E090E00E94271180E00E94D20C809180
:1035B0007402909175020E941C118DE10E94680CAA
:1035C00081FF08C080917402909175020E941C11C5
:1035D0000E94C00C80E00E94680C682F6E7F80E023
:1035E0000E944B0C82E00E94680CF10194919501BD
:1035F00001C0220F9A95EAF7682F622B82E00E94A1
:103600004B0C80918102909182020E945E1240E0F8
:103610006CEC80918102909182020E94CB114091CA
:103620007C0264E480918102909182020E94CB111D
:1036300080917E028823A9F0E0917D02E950E33079
:1036400040F4F0E0EE0FFF1FE55FFE4F60817181F7
:1036500002C06EEE72E0072E000C880B990B0E94E0
:1036600027110E9415156B017C010E94CE1EDC0102
:10367000CB018C011CA21BA21EA21DA218A61FA278
:103680004AE0BE016F5F7F4F0E944921BE016F5F1C
:103690007F4FCE0183960E9417164FA158A56BA1AC
:1036A0007CA187EC91E00E94E814CE0183960E94F1
:1036B000431601381F4F09F482C08EE291E00E9448
:1036C000E20C8AE491E00E94E20C8FE491E00E9417
:1036D000E20C0E9415150E94FC0D8FE491E00E94FF
:1036E000E20CC701B6010E94FC0D8AEC9AE00E9430
:1036F000A60A42E050E065E070E08DE691E00E94AD
:10370000EC088EE899E00E94A60A409101015091D0
:103710000201609103017091040121E0CE01019644
:103720000E94481642E050E06CE170E0CE01019644
:103730000E94580ACE0101960E9443168AEC9AE034
:103740000E94A60A88E697E00E94A60A21E0B70137
:10375000A601CE0101960E94481644E150E061E0C6
:1037600070E0CE0101960E94580ACE0101960E9497
:1037700043160E94100CC701B6010E94E0130E947C
:10378000611169A77AA78BA79CA70E946111DC0130
:10379000CB0129A53AA54BA55CA5821B930BA40BD5
:1037A000B50B2091000188389341A105B10508F0BF
:1037B0004CC021114DC081E08093000118C08AECFB
:1037C0009AE00E94A60A44E150E064E070E081E7DC
:1037D00091E00E94EC0860E082E00E94B0100E943C
:1037E000100C68EE73E080E090E00E942711909248
:1037F000C6018092C5010E94430D0E948B0F68CDC7
:1038000089E090E09E838D8361E271E089819A81F5
:103810000E941321CCCDE80EF91EB701CE0101960E
:103820000E94DE15882361F029813A818D819E8175
:10383000B601820F931F0E941321FE82ED82C4CD38
:10384000CE0101960E940516BFCD2111D0CFB3CF76
:103850000E9461110091B8011091B9012091BA0143
:103860003091BB01DC01CB01801B910BA20BB30B90
:10387000883B9B40A105B10508F0A5C0C701B60172
:103880000E94E0138EE00E9487103C019093C001DB
:103890008093BF018091BD019091BE0168167906A9
:1038A00009F444C06AE070E080E090E00E942711D3
:1038B0006728A1F50E9461116093B8017093B90166
:1038C0008093BA019093BB01409001015090020196
:1038D000609003017090040120E030E040E85FE375
:1038E000C301B2010E94611E20E030E040E252ECD0
:1038F0000E94041F87FD12C020E030E040E05FE33B
:10390000C301B2010E94611E609301017093020124
:1039100080930301909304010E9429138091BF01B9
:103920009091C0019093BE018093BD0180E10E94FF
:1039300087103C019093C4018093C3018091C10121
:103940009091C2016816790609F41FCF6AE070E011
:1039500080E090E00E9427110E9461116093B801FD
:103960007093B9018093BA019093BB01672811F558
:1039700020E030E040E05FE36091010170910201DE
:1039800080910301909104010E94621E2B013C0171
:1039900020E030E040EF52E40E94E42387FF0AC0B9
:1039A0004092010150920201609203017092040161
:1039B0000E9429138091C3019091C4019093C20188
:1039C0008093C101E2CE8EE791E00E94F40C81E188
:1039D0000E94590B0E9461116093B8017093B90164
:1039E0008093BA019093BB0149CF1092CA01109203
:1039F000C90188EE93E0A0E0B0E08093CB01909302
:103A0000CC01A093CD01B093CE0185E191E09093DC
:103A1000C8018093C70185EC90E09093D401809316
:103A2000D30184EC90E09093D6018093D50180EC93
:103A300090E09093D8018093D70181EC90E090932F
:103A4000DA018093D90182EC90E09093DC018093BD
:103A5000DB0186EC90E09093DE018093DD01109213
:103A6000E0011092E1011092E2011092E301ECE416
:103A7000FDE0E491F0E0EE0FFF1FE65CF24F859170
:103A800094919093900280938F02EEE2FDE0E49196
:103A9000E0939902EBE4FDE0E491F0E0EE0FFF1F0C
:103AA000E65CF24F859194919093920280939102FB
:103AB000EDE2FDE0E491E0939A02EAE4FDE0E491B6
:103AC000F0E0EE0FFF1FE65CF24F8591949190932A
:103AD000940280939302ECE2FDE0E491E0939B0278
:103AE000E8E4FDE0E491F0E0EE0FFF1FE65CF24F4A
:103AF000859194919093960280939502EAE2FDE07D
:103B0000E491E0939C02E9E4FDE0E491F0E0EE0F43
:103B1000FF1FE65CF24F85919491909398028093F9
:103B20009702EBE2FDE0E491E0939D0261E088E022
:103B30000E94E01061E087E00E94E01061E086E012
:103B40000E94E01061E084E00E94E01061E085E006
:103B50000E94E01088E080939E0284E080939F02A0
:103B600060E083E00E94E010E9E2FDE0E491E09390
:103B7000A204E7E4FDE0E491F0E0EE0FFF1FE45E55
:103B8000F24F859194919093A4048093A304109292
:103B9000AD041092AF041092AE04EDEAF4E012927C
:103BA00084E0E53AF807D9F782E190E190938E023C
:103BB00080938D0282EA94E0909382028093810246
:103BC0001092800210927C0289E080937D0281E055
:103BD00080937E0280937F0289E090E0909365025B
:103BE000809364028AE090E090936702809366027B
:103BF00010926A0280E280936B0210926C0285E060
:103C00008093720285E090E0A0E0B0E080937802BB
:103C100090937902A0937A02B0937B0210926D0286
:103C2000089597FB072E16F4009407D077FD09D06E
:103C30000E94471E07FC05D03EF4909581959F4F4A
:103C40000895709561957F4F0895A1E21A2EAA1BE1
:103C5000BB1BFD010DC0AA1FBB1FEE1FFF1FA2173C
:103C6000B307E407F50720F0A21BB30BE40BF50B39
:103C7000661F771F881F991F1A9469F760957095C2
:103C8000809590959B01AC01BD01CF010895AA1BC1
:103C9000BB1B51E107C0AA1FBB1FA617B70710F037
:103CA000A61BB70B881F991F5A95A9F78095909569
:103CB000BC01CD010895EE0FFF1F0590F491E02D9A
:103CC00009945058BB27AA270E94791E0C94CE2431
:103CD0000E94C02438F00E94C72420F039F49F3F8E
:103CE00019F426F40C94BD240EF4E095E7FB0C9433
:103CF000B724E92F0E94DF2458F3BA17620773072D
:103D00008407950720F079F4A6F50C9401250EF4AC
:103D1000E0950B2EBA2FA02D0B01B90190010C01DB
:103D2000CA01A0011124FF27591B99F0593F50F4F3
:103D3000503E68F11A16F040A22F232F342F44274B
:103D4000585FF3CF469537952795A795F040539543
:103D5000C9F77EF41F16BA0B620B730B840BBAF013
:103D60009150A1F0FF0FBB1F661F771F881FC2F77E
:103D70000EC0BA0F621F731F841F48F48795779592
:103D80006795B795F7959E3F08F0B0CF9395880F4C
:103D900008F09927EE0F9795879508950E94D51EF4
:103DA0006894B1110C94022508950E94E72488F0CC
:103DB0009F5798F0B92F9927B751B0F0E1F0660FEF
:103DC000771F881F991F1AF0BA95C9F714C0B13030
:103DD00091F00E940125B1E008950C940125672F10
:103DE000782F8827B85F39F0B93FCCF3869577955F
:103DF0006795B395D9F73EF4909580957095619548
:103E00007F4F8F4F9F4F08950E94262408F48FEF15
:103E100008950E942624880B990B0895CF93DF9371
:103E20008230910510F482E090E0E091BD04F091C1
:103E3000BE0420E030E0C0E0D0E0309711F14081D6
:103E4000518148175907C0F04817590761F482811A
:103E50009381209719F09B838A832BC09093BE0493
:103E60008093BD0426C02115310519F04217530770
:103E700018F49A01BE01DF01EF010280F381E02D09
:103E8000DCCF2115310509F1281B390B2430310510
:103E900090F412968D919C9113976115710521F004
:103EA000FB019383828304C09093BE048093BD047E
:103EB000FD01329644C0FD01E20FF31F81939193FF
:103EC000225031092D933C933AC02091BB0430918C
:103ED000BC04232B41F42091070130910801309359
:103EE000BC042093BB0420910501309106012115EB
:103EF000310541F42DB73EB74091090150910A01B7
:103F0000241B350BE091BB04F091BC04E217F307CE
:103F1000A0F42E1B3F0B2817390778F0AC014E5F39
:103F20005F4F2417350748F04E0F5F1F5093BC04B6
:103F30004093BB048193919302C0E0E0F0E0CF0195
:103F4000DF91CF9108950F931F93CF93DF93009745
:103F500009F48CC0FC013297138212820091BD04D7
:103F60001091BE040115110581F420813181820F69
:103F7000931F2091BB043091BC042817390779F5B1
:103F8000F093BC04E093BB0471C0D80140E050E062
:103F9000AE17BF0750F412962D913C911397AD01C7
:103FA0002115310509F1D901F3CF9D01DA013383E0
:103FB000228360817181860F971F8217930769F4AE
:103FC000EC0128813981260F371F2E5F3F4F318347
:103FD00020838A819B8193838283452B29F4F093EC
:103FE000BE04E093BD0442C01396FC93EE93129777
:103FF000ED01499159919E01240F351FE217F307F6
:1040000071F480819181840F951F029611969C9383
:104010008E938281938113969C938E931297E0E006
:10402000F0E0D80112968D919C911397009719F0AA
:10403000F8018C01F6CF8D919C9198012E5F3F4F36
:10404000820F931F2091BB043091BC0428173907BD
:1040500069F4309729F41092BE041092BD0402C096
:10406000138212821093BC040093BB04DF91CF91A2
:104070001F910F910895A0E0B0E0E1E4F0E20C940C
:104080002225EC01009721F4CB010E940E1FB8C03D
:10409000FC01E60FF71F9C0122503109E217F307DC
:1040A00008F4ACC0D9010D911C91119706171707A0
:1040B000B0F00530110508F49FC0C80104978617B9
:1040C000970708F499C002501109061B170B0193BA
:1040D00011936D937C93CF010E94A31F8DC05B0150
:1040E000A01AB10A4C01800E911EA091BD04B0919E
:1040F000BE0440E050E0E12CF12C109709F44AC0D6
:10410000A815B905D1F56D907C901197630182E0F7
:10411000C80ED11CCA14DB0480F1A3014A195B0943
:104120006A0182E0C80ED11C1296BC9012971396B9
:10413000AC91B5E0CB16D10440F0B282A383518399
:104140004083D9016D937C930AC00E5F1F4FC3015A
:10415000800F911FF90191838083EB2DFA2FE114D9
:10416000F10431F0D7011396FC93EE93129744C0FB
:10417000F093BE04E093BD043FC08D919C911197D4
:104180004817590708F4AC017D0112960D90BC91B7
:10419000A02DB3CF8091BB049091BC0488159905E4
:1041A000E1F446175707C8F4809105019091060184
:1041B000009741F48DB79EB74091090150910A01D3
:1041C000841B950BE817F907C8F4F093BC04E0933F
:1041D000BB04F901718360830FC0CB010E940E1FE5
:1041E0007C01009759F0A801BE010E940A21CE016E
:1041F0000E94A31FC70104C0CE0102C080E090E06E
:10420000CDB7DEB7EEE00C943E2581E090E0F89467
:104210000C945525FB01DC0102C001900D92415028
:104220005040D8F70895FB01DC0101900D92002069
:10423000E1F70895FB01DC014150504048F0019046
:104240000D920020C9F701C01D9241505040E0F787
:104250000895EF920F931F93CF93DF93E80147FDEB
:1042600002C034E001C034E1E42F440FFF0BF7FF3C
:1042700003C0F195E195F109E32E022F2E2FAE0137
:104280000E946E21CE01DF91CF911F910F91EF908F
:104290000895BB274A3031F4992322F4BDE290956A
:1042A00081959F4F0C945521BB27FB015527AA27C9
:1042B000880F991FAA1FA41710F0A41B83955051B3
:1042C000B9F7A05DAA3308F0A95DA193009779F72B
:1042D000B111B1931192CB010C94D4234F925F9200
:1042E0006F927F929F92AF92BF92CF92DF92EF92A6
:1042F000FF920F931F93CF93DF93CDB7DEB729972C
:104300000FB6F894DEBF0FBECDBF6A01122FB02EDC
:104310002BE3201720F0FF24F394F00E02C0BCE33F
:10432000FB2E0F2D27E0AE014F5F5F4F0E94FC2256
:10433000AC018981982F9970913031F0E1FC06C071
:10434000E0FE06C090E205C09DE203C09BE201C012
:1043500090E0EE2DE07183FF3CC0911102C083E03C
:1043600001C084E0811718F4212F281B01C020E030
:10437000E1110BC0F601822F30E2882319F031934E
:104380008150FBCFC20ED11C20E0992329F0D60129
:104390009C93F60131966F01C6010396E2FE0AC0B6
:1043A0003EE4D6013C9341E411964C93119712964A
:1043B0003C9306C03EE6F601308341E641833283FA
:1043C000FC01322F40E2332309F442C041933150C3
:1043D000FACF82FF44C0911102C083E001C084E0A3
:1043E000811718F4212F281B01C020E0E1110BC018
:1043F000F601822F30E2882319F031938150FBCFF0
:10440000C20ED11C20E0992329F0D6019C93F6011D
:1044100031966F01C6010396E2FE0BC039E4D60166
:104420003C933EE411963C93119736E412963C93EC
:1044300007C039E6F60130833EE6318336E6328343
:10444000FC01322F40E2332319F041933150FBCF6E
:10445000FC01E20FF11D10828EEF9FEFB7C0F1E07B
:10446000911101C0F0E06F2F70E01416150624F4CE
:104470009A012F5F3F4F02C021E030E0260F371F27
:10448000BB2029F06B2D70E06F5F7F4F02C060E0B2
:1044900070E0260F371F612F70E0261737071CF4D6
:1044A000121B212F01C020E03E2D387159F4D60196
:1044B000322F60E2332319F06D933150FBCFC20EDF
:1044C000D11C20E0FF2331F0D6019C93B6016F5F31
:1044D0007F4F6B01E1110BC0F601922F30E399235E
:1044E00019F031939150FBCFC20ED11C20E09F2DCB
:1044F000940F3A81782F7071A72E84FF03C0313357
:1045000009F49150191624F4993018F098E001C07C
:1045100091E0E42F852F57FF02C0E0E080E06E2F8E
:10452000782FE0E0F0E0AEE29A2E3A01691A7108C5
:104530002A01461A570A0B2D10E011950195110911
:104540006F3F8FEF780729F4D6019C92C601019640
:104550006C014617570784F0661677066CF47F01E6
:10456000E40CF51CA1E0B0E0AC0FBD1FEA0EFB1E91
:10457000D7011196BC9002C090E3B92E6150710929
:104580003196C60101967C016017710724F0D601AF
:10459000BC926C01D5CF6417750741F4363320F413
:1045A000353321F4A11002C081E3B82EF601B082A8
:1045B000F701822F90E2882319F091938150FBCF6D
:1045C000F701E20FF11D108280E090E029960FB60E
:1045D000F894DEBF0FBECDBFDF91CF911F910F9139
:1045E000FF90EF90DF90CF90BF90AF909F907F9023
:1045F0006F905F904F900895283008F027E03327A0
:10460000DA01990F311D87FD9160009661057105F2
:1046100039F432602E5F3D9330E32A95E1F7089537
:104620009F3F30F080387105610509F03C5F3C5FC9
:104630003D93913008F08068911DDF93CF931F93D5
:104640000F93FF92EF92192F987F9695E92F9695E9
:104650009695E90FFF27EC5AFF4E99273327EE2452
:10466000FF24A701E70105900894079428F4360F6A
:10467000E71EF81E491F511D660F771F881F991FDF
:104680000694A1F70590079428F4E70EF81E491F39
:10469000561FC11D770F881F991F661F0694A1F72B
:1046A0000590079428F4F80E491F561FC71FD11D07
:1046B000880F991F661F771F0694A1F7059007942E
:1046C00020F4490F561FC71FD81F990F661F771F69
:1046D000881F0694A9F784911095177041F0D6951C
:1046E000C79557954795F794E7941A95C1F7EAEF60
:1046F000FFE068941590159135916591959105901D
:104700007FE27395E118F10A430B560BC90BD009F0
:10471000C0F7E10CF11E431F561FC91FD01D7EF4C8
:10472000703311F48A95E6CFE894015030F0080F09
:104730000AF40027021708F4202F2395022F7A335A
:1047400028F079E37D932A95E9F710C07D932A95A7
:1047500089F6069497956795379517951794E118FC
:10476000F10A430B560BC90BD00998F023957E91A3
:1047700073957A3308F070E37C932013B8F77E9139
:1047800070617D9330F0839571E37D9370E32A959A
:10479000E1F71124EF90FF900F911F91CF91DF91DE
:1047A000992787FD90950895DC01FC01672F719191
:1047B0007723E1F7329704C07C916D937083629107
:1047C000AE17BF07C8F308950E94262408F481E0BD
:1047D0000895E89409C097FB3EF4909580957095F4
:1047E00061957F4F8F4F9F4F9923A9F0F92F96E93D
:1047F000BB279395F695879577956795B795F111B2
:10480000F8CFFAF4BB0F11F460FF1BC06F5F7F4F4E
:104810008F4F9F4F16C0882311F096E911C0772360
:1048200021F09EE8872F762F05C0662371F096E869
:10483000862F70E060E02AF09A95660F771F881F38
:10484000DAF7880F9695879597F90895990F0008DC
:10485000550FAA0BE0E8FEEF16161706E807F90752
:10486000C0F012161306E407F50798F0621B730BED
:10487000840B950B39F40A2661F0232B242B252B6E
:1048800021F408950A2609F4A140A6958FEF811D11
:10489000811D08950E945D240C94CE240E94C024A2
:1048A00038F00E94C72420F0952311F00C94B7240F
:1048B0000C94BD2411240C9402250E94DF2470F373
:1048C000959FC1F3950F50E0551F629FF001729FB5
:1048D000BB27F00DB11D639FAA27F00DB11DAA1FC4
:1048E000649F6627B00DA11D661F829F2227B00D11
:1048F000A11D621F739FB00DA11D621F839FA00D9C
:10490000611D221F749F3327A00D611D231F849FEB
:10491000600D211D822F762F6A2F11249F57504042
:104920009AF0F1F088234AF0EE0FFF1FBB1F661FBD
:10493000771F881F91505040A9F79E3F510580F086
:104940000C94B7240C9402255F3FE4F3983ED4F313
:10495000869577956795B795F795E7959F5FC1F72A
:10496000FE2B880F911D9695879597F9089597F9D5
:104970009F6780E870E060E008959FEF80EC089505
:1049800000240A941616170618060906089500242E
:104990000A9412161306140605060895092E0394A8
:1049A000000C11F4882352F0BB0F40F4BF2B11F41C
:1049B00060FF04C06F5F7F4F8F4F9F4F089557FD7B
:1049C0009058440F551F59F05F3F71F04795880F7D
:1049D00097FB991F61F09F3F79F087950895121614
:1049E00013061406551FF2CF4695F1DF08C01616C0
:1049F00017061806991FF1CF869571056105089471
:104A00000895E894BB2766277727CB0197F9089587
:104A1000F999FECF92BD81BDF89A992780B5089586
:104A2000262FF999FECF1FBA92BD81BD20BD0FB6CA
:104A3000F894FA9AF99A0FBE019608952F923F9230
:104A40004F925F926F927F928F929F92AF92BF929E
:104A5000CF92DF92EF92FF920F931F93CF93DF934A
:104A6000CDB7DEB7CA1BDB0B0FB6F894DEBF0FBEA7
:104A7000CDBF09942A88398848885F846E847D84F4
:104A80008C849B84AA84B984C884DF80EE80FD80F6
:104A90000C811B81AA81B981CE0FD11D0FB6F8946C
:0E4AA000DEBF0FBECDBFED010895F894FFCF2D
:104AAE00010000A4410000BF0480005E00BC00773E
:104ABE000100000000220FE814EB0EC90EDD0E6996
:104ACE000F74696D65206973203A000D0A0020523B
:104ADE00657175657374696E672074656D70657246
:104AEE006174757265732E2E2E00444F4E45005420
:104AFE00656D706572617475726520666F722044A3
:104B0E00657669636520312069733A2000536574B8
:104B1E00004572726F722053656E736F7200666914
:104B2E006E6973006E616E00696E66006F76660068
:104B3E006161616161616161616161616161616157
:104B4E006161616161616161616161616161616147
:044B5E006161000091
:00000001FF
