:100000000C94FE000C9426010C9426010C9401051E
:100010000C9401050C9401050C9426010C94260106
:100020000C9426010C9426010C9426010C942601B4
:100030000C9426010C9426010C9426010C942601A4
:100040000C94B7040C9426010C94B7030C94910300
:100050000C9426010C9426010C9426010C94260184
:100060000C9426010C9426010000000024002700B7
:100070002A0000000008000201000003040700003D
:1000800000000000000000000000250028002B00F8
:1000900000000000230026002900040404040404D6
:1000A0000404020202020202030303030303010227
:1000B00004081020408001020408102001020408F6
:1000C00010204E414E494E495459494E46CDCCCC54
:1000D0003D0AD7233C17B7D13877CC2B329595E61C
:1000E000241FB14F0A000020410000C84200401CFC
:1000F0004620BCBE4CCA1B0E5AAEC59D7400407A49
:1001000010F35A00A0724E18090010A5D4E80000A0
:10011000E87648170000E40B54020000CA9A3B003E
:100120000000E1F505000080969800000040420FB5
:10013000000000A08601000000102700000000E879
:1001400003000000006400000000000A000000003E
:10015000000100000000002C76D888DC674F0823DF
:10016000DFC1DFAE59E1B1B796E5E3E453C63AE645
:1001700051997696E8E6C28426EB898C9B62ED4025
:100180007C6FFCEFBC9C9F40F2BAA56FA5F4900574
:100190005A2AF75C936B6CF9676DC11BFCE0E40DA8
:1001A00047FEF520E6B500D0ED902E03009435779C
:1001B000050080841E080000204E0A000000C80CC4
:1001C000333333330F986E12831141EF8D2114892D
:1001D0003BE65516CFFEE6DB18D1844B381BF77C87
:1001E0001D901DA4BBE424203284725E228100C9CC
:1001F000F124ECA1E53D2700CC0F9C0F11241FBE7C
:10020000CFEFD8E0DEBFCDBF13E0A0E0B1E0E4EA7D
:10021000F2E302C005900D92A63AB107D9F725E0A6
:10022000A6EAB3E001C01D92A431B207E1F710E0E5
:10023000CDEFD0E004C02197FE010E94FD10CC3F1D
:10024000D107C9F70E943D0D0C9445190C9400008C
:100250000895CF92DF92EF92FF920F931F93CF9367
:10026000DF936C017A018B01C0E0D0E0CE15DF0591
:1002700089F0D8016D918D01D601ED91FC9101902D
:10028000F081E02DC6010995892B11F47E0102C091
:100290002196ECCFC701DF91CF911F910F91FF9075
:1002A000EF90DF90CF900895FC01918D828D98178B
:1002B00061F0828DDF01A80FB11D5D968C91928D4A
:1002C0009F5F9F73928F90E008958FEF9FEF089547
:1002D000FC01918D828D981731F0828DE80FF11D10
:1002E000858D90E008958FEF9FEF0895FC01918D2B
:1002F000228D892F90E0805C9F4F821B91098F7324
:100300009927089584E394E00E94760121E0892BE7
:1003100009F420E0822F0895FC01848DDF01A80FED
:10032000B11DA35ABF4F2C91848D90E001968F731D
:100330009927848FA689B7892C93A089B1898C913C
:1003400080648C93938D848D981306C00288F38902
:10035000E02D80818F7D80830895EF92FF920F932F
:100360001F93CF93DF93EC0181E0888F9B8D8C8D61
:10037000981305C0E889F989808185FD24C0F62E8F
:100380000B8D10E00F5F1F4F0F731127E02E8C8D28
:10039000E8120CC00FB607FCFACFE889F989808112
:1003A00085FFF5CFCE010E948C01F1CF8B8DFE0130
:1003B000E80FF11DE35AFF4FF0820B8FEA89FB89AA
:1003C0008081806207C0EE89FF896083E889F989AE
:1003D00080818064808381E090E0DF91CF911F91E4
:1003E0000F91FF90EF900895CF93DF93EC01888DEC
:1003F0008823C9F0EA89FB89808185FD05C0A88929
:10040000B9898C9186FD0FC00FB607FCF5CF8081AE
:1004100085FFF2CFA889B9898C9185FFEDCFCE01F8
:100420000E948C01E7CFDF91CF91089580E090E0AA
:10043000892B29F00E94820181110C9400000895FB
:100440003FB7F89480912B0490912C04A0912D0437
:10045000B0912E0426B5A89B05C02F3F19F0019638
:10046000A11DB11D3FBFBA2FA92F982F8827820F3A
:10047000911DA11DB11DBC01CD0142E0660F771F8A
:10048000881F991F4A95D1F7089520913104309122
:1004900032042817390771F490912F0480913004A9
:1004A000981741F0E0912F04F0E0EA55FC4F80816D
:1004B00090E008958FEF9FEF089508951F93CF93D5
:1004C000DF93DC015C962D913C915D972115310500
:1004D00039F481E090E013969C938E9312973DC07F
:1004E0005196ED91FC91529750969C915097892F7F
:1004F00080951FB75E964C915E9741FB772770F908
:1005000041FD6095F8944081772311F0492B01C09B
:1005100048234083E9012197F1F748E0508160FFCB
:1005200002C0592B01C058235083E9012197F1F7EC
:100530006695415099F7772321F090818923808334
:1005400003C08081982B90831FBF5C968D919C91F6
:100550005D970197F1F721E030E0C901DF91CF917C
:100560001F910895209131043091320428173907E2
:1005700071F48091300420912F0490E080589F4FB7
:10058000821B910960E870E00E949410089580E059
:1005900090E00895209131043091320428173907F2
:1005A000B9F490912F0480913004981789F0E0916C
:1005B0002F04F0E0EA55FC4F808120912F0430E0B9
:1005C0002F5F3F4F2F77332720932F0490E008951C
:1005D0008FEF9FEF08950E9471130F931F93CF9396
:1005E000DF93EC0188819981009729F02A813B8172
:1005F0002617370788F48B016F5F7F4F0E94A71281
:10060000009761F0998388831B830A832C813D8145
:10061000232B11F4FC01108281E001C080E0DF9106
:10062000CF911F910F910895CF93DF93EC018881B3
:100630009981009711F00E940F12198218821D8271
:100640001C821B821A82DF91CF910895FC01808168
:1006500091810C940F12FC0111821082138212827C
:10066000158214820C947E09FC011182108213827F
:100670001282158214826115710551F0FB010190FF
:100680000020E9F73197AF01461B570B0C949A08ED
:1006900008956115710579F0FB0101900020E9F7DB
:1006A0003197AF01461B570BDC01ED91FC910280A5
:1006B000F381E02D099480E090E008950F931F935B
:1006C000CF93DF93EC010E9449038C0162E372E057
:1006D000CE010E944903800F911FDF91CF911F919E
:1006E0000F9108950F931F93CF93DF93EC01E8814F
:1006F000F981DB0114964D915C9115976D917C9178
:100700000280F381E02D09958C0162E372E0CE0155
:100710000E944903800F911FDF91CF911F910F918C
:1007200008951F920F920FB60F9211242F933F93AB
:100730004F935F936F937F938F939F93AF93BF93E9
:10074000EF93FF9384E394E00E948C01FF91EF917B
:10075000BF91AF919F918F917F916F915F914F91D9
:100760003F912F910F900FBE0F901F9018951F92E1
:100770000F920FB60F9211242F938F939F93EF93A5
:10078000FF93E0914404F09145048081E0914A0494
:10079000F0914B0482FD12C0908180914D048F5FD7
:1007A0008F7320914E04821751F0E0914D04F0E0D8
:1007B000EC5CFB4F958F80934D0401C08081FF91CD
:1007C000EF919F918F912F910F900FBE0F901F90DF
:1007D000189590E0FC01EE58FF4F3491FC01E25572
:1007E000FF4F2491FC01E656FF4FE491EE2309F4FC
:1007F0003BC0332339F1333091F038F43130A9F074
:10080000323001F584B58F7D12C0373091F0383029
:10081000A1F03430B9F4809180008F7D03C08091C5
:1008200080008F77809380000DC084B58F7784BD62
:1008300009C08091B0008F7703C08091B0008F7D98
:100840008093B000F0E0EE0FFF1FEA57FF4FA59135
:10085000B4918FB7F894EC91611103C020952E23C9
:1008600001C02E2B2C938FBF0895CF93DF9390E080
:10087000FC01E255FF4F2491FC01E656FF4F8491A5
:10088000882361F190E0880F991FFC01E859FF4F20
:10089000C591D491FC01EA57FF4FA591B491611124
:1008A00009C09FB7F8948881209582238883EC91B2
:1008B0002E230BC0623061F49FB7F8943881822FE9
:1008C000809583238883EC912E2B2C939FBF06C0A9
:1008D0008FB7F894E8812E2B28838FBFDF91CF91BB
:1008E00008958F929F92AF92BF92CF92DF92EF9234
:1008F000FF926B017C010E9420024B015C01C1143C
:10090000D104E104F104F1F00E942002DC01CB01EA
:1009100088199909AA09BB09883E9340A105B10528
:1009200070F321E0C21AD108E108F10888EE880EC0
:1009300083E0981EA11CB11CC114D104E104F10490
:1009400019F7DDCFFF90EF90DF90CF90BF90AF9081
:100950009F908F9008952FB7F8946091270470911D
:1009600028048091290490912A042FBF08951F9292
:100970000F920FB60F9211242F933F938F939F9353
:10098000AF93BF938091270490912804A0912904EC
:10099000B0912A043091260423E0230F2D3720F450
:1009A0000196A11DB11D05C026E8230F0296A11DC9
:1009B000B11D209326048093270490932804A093CC
:1009C0002904B0932A0480912B0490912C04A091C7
:1009D0002D04B0912E040196A11DB11D80932B040E
:1009E00090932C04A0932D04B0932E04BF91AF914B
:1009F0009F918F913F912F910F900FBE0F901F905D
:100A000018951F920F920FB60F9211242F933F93B8
:100A10004F935F936F937F938F939F93AF93BF9306
:100A2000EF93FF93E0913104F0913204309709F491
:100A300051C0968DA685B785858591FF04C09C9190
:100A4000892329F447C09C91892309F043C0A389D5
:100A5000B4899C918589809589238C93868997890F
:100A60000197F1F7608D718DA685B785558538E0C2
:100A700020E0CB010197F1F7822F90E095958795C3
:100A8000282F4C91452309F02068315091F7868D2D
:100A900081FD20958091300490E001968F77992711
:100AA00030912F04381749F0A0913004B0E0AA55D6
:100AB000BC4F2C938093300403C0868D8160868F59
:100AC000828D938D0197F1F7A389B4899C918589D3
:100AD000892B8C93FF91EF91BF91AF919F918F9153
:100AE0007F916F915F914F913F912F910F900FBE2A
:100AF0000F901F9018958F929F92AF92BF92CF92B6
:100B0000DF92EF92FF920F931F93CF93DF93CDB7B6
:100B1000DEB7AD970FB6F894DEBF0FBECDBF6C0148
:100B20007B01042F10E0980140E050E0CE01889650
:100B30000E94D208A80160E070E0C7010E9403088B
:100B4000D7018D919C91009719F00E94E51303C085
:100B500060E070E0CB0120E030E040E752E40E942A
:100B600003114B015C011BA21AA21DA21CA21FA211
:100B70001EA28E010F5F1F4F26E048E00E94C513A2
:100B8000BC01CE0182960E94BB0860EC72E0C801F5
:100B90000E943403BE016E5D7F4FC8010E944E0863
:100BA000BC0184E394E00E947203C8010E94260302
:100BB00020E030E0A901C501B4010E9475111816AA
:100BC00024F481E08093330402C0109233048EA198
:100BD0009FA1892B79F0EAA1FBA1309759F0808180
:100BE000803341F441E050E060E070E0CE01829655
:100BF0000E940308BE01685D7F4FCE0101960E94EE
:100C00002B03BE016E5D7F4FCE0101960E944E0800
:100C1000BC01C7010E947E09CE0101960E942603F5
:100C2000F70184819581892B79F00190F081E02D85
:100C3000309751F08081803339F441E050E060E03A
:100C400070E0C7010E94030865EC72E0CE010196D6
:100C50000E943403B701CE0101960E944E08BC01E8
:100C600084E394E00E947203CE0101960E94260361
:100C7000D60111961C921E9213961C921E921297E8
:100C800015961C921E921497B701C6010E94610826
:100C9000CE0182960E942603CE0188960E942603EA
:100CA000C601AD960FB6F894DEBF0FBECDBFDF9183
:100CB000CF911F910F91FF90EF90DF90CF90BF9059
:100CC000AF909F908F9008950F931F93CF93DF93D2
:100CD00000D000D000D0CDB7DEB78C01CE01019698
:100CE0000E942B0340E050E0BE016F5F7F4FC801C0
:100CF0000E941809CE0101960E94260347E050E0A9
:100D000060E070E0C8010E940308F8016481758109
:100D10006150710941E050E0C8010E940308C80118
:100D200026960FB6F894DEBF0FBECDBFDF91CF91F0
:100D30001F910F9108950F931F930E94AB0460932E
:100D4000F7047093F8048093F9049093FA04E09107
:100D5000EF04F091F0040680F781E02D8FEE94E02F
:100D6000099597FF1FC00E94AB040091F7041091F2
:100D7000F8042091F9043091FA04DC01CB01801BC6
:100D8000910BA20BB30B0091F3041091F40420918A
:100D9000F5043091F60480179107A207B307B8F263
:100DA0008FEF9FEF1F910F910895CF93DF93FC0179
:100DB00024813581232B71F0FB01DC01CD91DC9185
:100DC00060817181CE010E94AB13009719F08C1BDA
:100DD0009D0B02C08FEF9FEFDF91CF910895FB0134
:100DE00044815581FC01248135812417350778F031
:100DF00080819181009759F0FB01608171816115BB
:100E0000710529F00E948E1321E0892B09F020E062
:100E1000822F0895EF92FF920F931F93CF93DF934A
:100E2000FC01248135816115710511F480E019C040
:100E300041155105A9F07B01EC018A01020F131F36
:100E4000B8010E94ED02882389F3288139818C81C1
:100E50009D81B701820F931F0E9487131D830C830E
:100E600081E0DF91CF911F910F91FF90EF90089556
:100E70009B01AC0110920A05109209051092080519
:100E800010920705109206051092050560E079E0C2
:100E90008DE390E00E94A810F9012430310518F08C
:100EA000C901039702C081E090E090930C05809304
:100EB0000B059091FB04963108F075C0B901769549
:100EC00067956431710518F06351710902C061E0E2
:100ED00070E07093060560930505369720F0B90120
:100EE0006550710902C061E070E07093080560937D
:100EF0000705B901660F771F260F371F369527950F
:100F0000369527952D30310518F02C50310902C047
:100F100021E030E030930A05209309052091680014
:100F2000983050F031E09E3008F430E081E001C0AC
:100F3000880F3A95EAF701C084E0822B809368001D
:100F4000983038F09E3040F0963148F020E030E0A4
:100F500008C02DE630E005C02BE630E002C02CE6EC
:100F600030E03093030520930205983030F481E09F
:100F700001C0880F9A95EAF70EC0292F30E09E3005
:100F800018F42850310902C02E50310981E001C007
:100F9000880F2A95EAF78093040580910B059091BC
:100FA0000C050197F1F78091090590910A05892BAD
:100FB00049F1E0913104F091320484E0EF3EF8070A
:100FC00009F1309739F0A389B4899C91858980957E
:100FD00089238C9380910D058E7F80930D0510924F
:100FE000300410922F048FEE94E09093320480939B
:100FF0003104E0910205F091030590818091040590
:10100000892B80830895CF93DF93DC011496ED91B3
:10101000FC9115976E177F0728F54115510511F1C1
:101020009F01261B370B4217530708F49A01DB0177
:10103000EC0188819981E21BF30BFD83EC83AF0106
:10104000461B570B260F371FBC01620F731F8A0FF9
:101050009B1F0E949C13E881F9818C819D81E80F80
:10106000F91F1082DF91CF910895CF93DF93EC01A8
:101070006115710561F0FB0101900020E9F73197DE
:10108000AF01461B570B0E940A07811103C0CE0116
:101090000E941403CE01DF91CF910895CF93DF9387
:1010A000EC01FB0144815581608171810E940A0736
:1010B000811103C0CE010E941403CE01DF91CF91B4
:1010C00008950F931F93CF93DF938C01EB01FC01E5
:1010D000808191810097B1F06881798161157105F6
:1010E00079F0428153812C813D814217530740F0B2
:1010F0000E9487138C819D81F8019583848313C09E
:101100000E940F1288819981F801918380838A81DE
:101110009B81938382838C819D81958384831982B3
:1011200018821B821A821D821C82DF91CF911F912F
:101130000F910895EF92FF920F931F93CF93DF9338
:10114000EC017B018A01BA010E94ED02811104C009
:10115000CE010E94140307C01D830C83B701888150
:1011600099810E948713CE01DF91CF911F910F913A
:10117000FF90EF900895CF93DF93EC016115710517
:1011800059F0FB0101900020E9F73197AF01461BB0
:10119000570B0E949A0802C00E941403CE01DF91EF
:1011A000CF910895BF92CF92DF92EF92FF920F936B
:1011B0001F93CF93DF937C016B018A01E901241710
:1011C000350720F4812F8901C42FD82F64E372E002
:1011D000C7010E943403D60114968D919C911597F6
:1011E00008171907D0F48C179D0708F4EC01D601F5
:1011F000ED91FC911197EC0FFD1FB08010824D9185
:101200005C91BA01600F711FC7010E94BB08D60133
:10121000ED91FC91EC0FFD1FB082C701DF91CF91E2
:101220001F910F91FF90EF90DF90CF90BF900895A6
:101230006F927F928F929F92AF92BF92CF92DF92E6
:10124000EF92FF920F931F93CF93DF938C016A016C
:10125000EB01AC80BD80C5010197E0E0F0E02FEF2D
:101260003FEF40E050E0A0E0B0E09E2E8F2E8E17C2
:101270009F0764F1CA16DB062CF1EF0121967E016F
:10128000EA15FB0560F4EB01688079806114710454
:1012900031F0E301CE0FDF1FC881CC3231F0E81707
:1012A000F90719F0922E832E09C01196A9014F5FFC
:1012B0005F4FE817F90711F49E2C8F2CF701292DA9
:1012C000382DD3CFC8010E94D20808C0CA16DB0649
:1012D000CCF364E372E0C8010E943403C801DF91DB
:1012E000CF911F910F91FF90EF90DF90CF90BF9023
:1012F000AF909F908F907F906F900895CF93DF93E2
:10130000EC01FB018617970761F06081718161151F
:10131000710529F0448155810E949A0802C00E94FB
:101320001403CE01DF91CF910895CF92DF92EF9217
:10133000FF920F931F93CF93DF93CDB7DEB7C254C5
:10134000D1090FB6F894DEBF0FBECDBF8C016B0183
:1013500064E372E0CE01CD960E94340364E372E050
:10136000CE01C7960E94340364E372E0CE01C196B9
:101370000E943403B8018FEE94E00E9472030E9431
:10138000AB0410E00D2C000CEE08FF08C60ED71EB3
:10139000E81EF91E0E94AB046C157D058E059F05A5
:1013A00008F04FC38FEE94E00E94B202892B91F3B4
:1013B00064E372E0CE0101960E9434030E949B0612
:1013C00097FD0FC08A30910561F08F83188641E048
:1013D00050E0BE01695F7F4FCE0101960E940A076F
:1013E000EDCFBE016F5F7F4FCE01CD960E946108A9
:1013F000CE0101960E9426036AED72E0CE010196AD
:101400000E943403BE016F5F7F4FCE01CD960E94D4
:10141000EF06082FCE0101960E942603002309F44F
:10142000A3C0BE01635C7F4FCE0149960E942B038F
:10143000BE01675E7F4FCE0107960E942B0342E0FC
:1014400050E0BE01695F7F4FCE0101960E941809EE
:1014500042E0BE016F5F7F4FCE0143960E947B0545
:10146000CE0101960E942603CE0107960E94260314
:10147000BE01675E7F4FCE0107960E942B0344E0BA
:1014800050E0BE01695F7F4FCE0101960E941809AE
:1014900043E0BE016F5F7F4FCE010D960E947B053A
:1014A000CE0101960E942603CE0107960E942603D4
:1014B00061EE72E0CE0101960E943403BE016D5EC2
:1014C0007F4FCE0101960E944E086BEE72E00E94A3
:1014D0003508BE01635F7F4F0E944E08BC0184E364
:1014E00094E00E947203CE0101960E94260380912F
:1014F0003304882369F1BE016D5E7F4F8DED94E06A
:101500000E947E09BE01635F7F4F83EE94E00E94DC
:101510007E09BE01675E7F4FCE0107960E942B03B6
:1015200041E050E0BE01695F7F4FCE0101960E940D
:101530001809BE016F5F7F4F87ED94E00E9461083C
:10154000CE0101960E942603CE0107960E94260333
:10155000CE010D960E942603CE0143960E942603DB
:10156000CE0149960E942603113009F046C2BE0101
:10157000635C7F4FCE0185960E942B03BE01695CA0
:101580007F4FCE018B960E942B036DEE72E0CE0151
:1015900001960E943403BE01655D7F4FCE01019626
:1015A0000E944E08BC0184E394E00E947203CE01C5
:1015B00001960E94260362EF72E0CE0101960E941E
:1015C0003403BE016B5D7F4FCE0101960E944E0831
:1015D000BC0184E394E00E947203CE0101960E9454
:1015E0002603BE01655D7F4FCE0107960E942B0347
:1015F000BE01695F7F4FCE0101960E9464066AEFCB
:1016000072E0CE010D960E943403BE016F5F7F4FE2
:10161000CE010D960E944E0861E073E00E943508ED
:101620006DED74E00E944E086BEE72E00E9435088A
:1016300063EE74E00E944E08BC0184E394E00E94D3
:101640007203CE010D960E942603CE0101960E94E0
:101650002603CE0107960E9426030DA11EA10115A7
:101660001105B1F46BE073E0CE0101960E943403E2
:10167000BE016F5F7F4FCE0185960E94D5068C011B
:10168000CE0101960E9426030F3F1F4F71F413C134
:10169000F8018081882331F3082E000C990B0E94F9
:1016A0007613F80181938F01F3CF8091330488235F
:1016B00009F4C5C0BE01655D7F4FCE0143960E940F
:1016C0002B03BE016D5E7F4FCE010D960E94640616
:1016D0006DED74E0CE014F960E942B036BEE72E02D
:1016E000CE014F960E94350863EE74E00E944E08CA
:1016F000BC01CE0149960E942B0364E173E0CE0148
:1017000001960E94340368E873E1CE0101960E94BD
:101710009509CE0101960E94260364EF71E080E0F6
:1017200090E00E9471046EE173E0CE0107960E9482
:101730003403BE01635F7F4FCE0107960E944E08BF
:10174000BC01CE0101960E942B0360ED77E0CE0133
:1017500001960E949509CE0101960E942603CE01B2
:1017600007960E94260364E670E080E090E00E9405
:101770007104BE01675E7F4FCE0101960E942B036C
:1017800060ED77E0CE0101960E949509CE010196A9
:101790000E94260368EC70E080E090E00E947104F3
:1017A000E091EF04F091F0040190F081E02D6AE106
:1017B0008FEE94E0099562E372E08FEE94E00E9470
:1017C000490364E670E080E090E00E94710464E305
:1017D00072E0CE0101960E94340368EE73E0CE0100
:1017E00001960E949509CE0101960E94260364E6A7
:1017F00070E080E090E00E94710467E273E084E3AF
:1018000094E00E945E0368E373E084E394E00E9446
:101810005E0360ED77E080E090E00E947104CE010D
:1018200049960E942603CE014F960E942603CE01C0
:101830000D960E942603CE0143960E942603BE0108
:10184000655D7F4FCE0107960E942B03BE01695F45
:101850007F4FCE0101960E9464066AEF72E0CE01CE
:101860000D960E943403BE016F5F7F4FCE010D962F
:101870000E944E0861E073E00E9435086DED74E04F
:101880000E944E086BEE72E00E94350863EE74E031
:101890000E944E08BC0184E394E00E947203CE01D2
:1018A0000D960E942603CE0101960E942603CE01CA
:1018B00007960E9426036CE473E0CE0101960E9415
:1018C0003403BE016F5F7F4FCE0185960E94D5061F
:1018D0008C01CE0101960E9426030F3F1F4F49F055
:1018E00063E573E084E394E00E945E0381E080930B
:1018F00000016DE673E0CE0101960E943403BE0143
:101900006F5F7F4FCE0185960E94D5068C01CE0178
:1019100001960E9426030F3F1F4F41F065E773E0D9
:1019200084E394E00E945E03109200016CE873E08F
:10193000CE0101960E943403BE016F5F7F4FCE013E
:1019400085960E94D5060196B1F063E973E0CE0159
:1019500007960E943403BE01695F7F4FCE018596D2
:101960000E94D50611E0019609F410E0CE01079619
:101970000E94260301C010E0CE0101960E942603BA
:10198000112321F061E08EE00E94E90368E973E031
:10199000CE0101960E943403BE016F5F7F4FCE01DE
:1019A00085960E94D5068C01CE0101960E942603E1
:1019B0000F3F1F4FC9F063E973E0CE0101960E940B
:1019C0003403BE016F5F7F4FCE0185960E94D5061E
:1019D0008C01CE0101960E9426030F3F1F4F21F07C
:1019E00060E08EE00E94E903CE018B960E94260300
:1019F000CE0185960E94260310E060EA73E0CE01D6
:101A000001960E943403BE016F5F7F4FCE01CD96D9
:101A10000E94EF06082FCE0101960E9426030023A4
:101A200041F0BE01635C7F4FCE01C7960E947E09E4
:101A30001F5FBE01635C7F4F84E394E00E947203EA
:101A4000B1CCCE01C1960E942603CE01C7960E945A
:101A50002603CE01CD960E942603CE5BDF4F0FB644
:101A6000F894DEBF0FBECDBFDF91CF911F910F91D4
:101A7000FF90EF90DF90CF900895CF93DF93CDB795
:101A8000DEB768970FB6F894DEBF0FBECDBF78946F
:101A900084B5826084BD84B5816084BD85B5826073
:101AA00085BD85B5816085BD80916E008160809324
:101AB0006E0010928100809181008260809381008D
:101AC000809181008160809381008091800081609D
:101AD000809380008091B10084608093B1008091F8
:101AE000B00081608093B00080917A008460809320
:101AF0007A0080917A00826080937A0080917A00E7
:101B0000816080937A0080917A00806880937A0067
:101B10001092C100E0914404F091450482E080837A
:101B2000E0914004F09141041082E0914204F09170
:101B3000430480E1808310924C04E0914804F091CA
:101B4000490486E08083E0914604F0914704808157
:101B500080618083E0914604F09147048081886031
:101B60008083E0914604F0914704808180688083FF
:101B7000E0914604F091470480818F7D808360E08E
:101B800072EC81E090E00E9438071092330461E02B
:101B900082E00E94E90368E873E180E090E00E943F
:101BA000710460E082E00E94E90364EF71E080E08C
:101BB00090E00E94710469E271E0CE0101960E94FA
:101BC000340368E873E1CE0101960E949509CE01C5
:101BD00001960E94260369E271E0CE0101960E94FF
:101BE000340368E873E1CE0101960E949509CE01A5
:101BF00001960E94260361E08EE00E94350461E0B8
:101C00008EE00E94350460E08EE00E94E90360E807
:101C100075E280E090E00E94380765E371E084E3BC
:101C200094E00E945E0362E471E0CE0101960E949E
:101C3000340368EB7BE0CE0101960E949509CE014A
:101C400001960E94260302E010E06BE471E0CE01F1
:101C500001960E94340368EE73E0CE0101960E9463
:101C60009509CE0101960E94260366E571E08FEE8C
:101C700094E00E945E030130110519F001E010E0CC
:101C8000E4CF6FE571E084E394E00E945E0369E9CC
:101C900071E084E394E00E945E036FE571E084E309
:101CA00094E00E945E036BE471E0CE0101960E9415
:101CB000340368EE73E0CE0101960E949509CE01CF
:101CC00001960E94260366E571E08FEE94E00E9483
:101CD0005E0380913304882311F061E001C060E06D
:101CE0008EE00E94E90363ED71E0CE0101960E944F
:101CF000340360ED77E0CE0101960E949509CE0194
:101D000001960E9426036FED71E0CE0101960E94BC
:101D1000340360E177E2CE0101960E949509CE017D
:101D200001960E94260368EE71E0CE0101960E94A2
:101D3000340360E177E2CE0101960E949509CE015D
:101D400001960E94260380910001882309F4F1C0C6
:101D500080913304882309F4ECC063EE74E0CE0173
:101D600043960E942B036DED74E0CE010D960E9408
:101D70002B0360ED77E080E090E00E94710461EF5A
:101D800071E0CE0101960E943403BE01635F7F4F74
:101D9000CE0101960E944E086FEF71E00E94350857
:101DA000BE016D5E7F4F0E944E08BC0184E394E04B
:101DB0000E947203CE0101960E94260361E072E048
:101DC000CE0101960E94340368EB7BE0CE010196C0
:101DD0000E949509CE0101960E9426036CE072E0F4
:101DE000CE0101960E94340368EE73E0CE010196A5
:101DF0000E949509CE0101960E94260369E172E0D6
:101E0000CE0101960E94340368EE73E0CE01019684
:101E10000E949509CE0101960E94260365E372E0B7
:101E2000CE0101960E94340368EE73E0CE01019664
:101E30000E949509CE0101960E94260364E472E097
:101E4000CE0101960E94340368EB7BE0CE0101963F
:101E50000E949509CE0101960E94260367E672E072
:101E6000CE0101960E94340368E873E1CE01019629
:101E70000E949509CE0101960E94260362E772E056
:101E8000CE0101960E94340368EE73E0CE01019604
:101E90000E949509CE0101960E94260363E872E034
:101EA000CE0107960E94340367ED74E0CE010796D9
:101EB0000E944E0861EB72E00E943508BE01635F2C
:101EC0007F4F0E944E0865EB72E00E943508BE010C
:101ED0006D5E7F4F0E944E0869EB72E00E943508EC
:101EE00061ED74E00E944E0862E372E00E943508E2
:101EF000BC01CE0101960E942B0364E670E0CE0186
:101F000001960E949509CE0101960E942603CE01FA
:101F100007960E94260368E57BE180E090E00E943E
:101F20007104CE010D960E942603CE0143960E94B5
:101F300026030E941602B7CE81ED94E00E9426038C
:101F400087ED94E00E94260383EE94E00E9426032E
:101F50008DED94E00E94260389EE94E00E94260312
:101F60008DE191E09093F0048093EF04809131042F
:101F7000909132048F5E944071F4E0910205F091EB
:101F800003059081809104058095892380831092B8
:101F900032041092310408951092370410923604DE
:101FA00088EE93E0A0E0B0E0809338049093390489
:101FB000A0933A04B0933B042DE031E03093350414
:101FC0002093340425EC30E0309341042093400406
:101FD00024EC30E0309343042093420420EC30E0C2
:101FE000309345042093440421EC30E030934704BF
:101FF0002093460422EC30E03093490420934804B7
:1020000026EC30E030934B0420934A0410924D04A8
:1020100010924E0410924F04109250041092F20449
:102020001092F1048093F3049093F404A093F504C8
:10203000B093F6048DE191E09093F0048093EF0467
:1020400010920605109205051092080510920705DA
:1020500010920A051092090510920C0510920B05BA
:1020600060910D056E7F6D7F60930D0566956170C3
:1020700081E0682789E00E94E90361E089E00E942D
:102080003504E7EBF0E0E491E093FF04E3EAF0E0ED
:10209000E491F0E0EE0FFF1FEA57FF4F8591949116
:1020A000909301058093000560E088E00E9435046C
:1020B00080910D0581FD04C061E088E00E94E90384
:1020C00088E08093FB04E6EBF0E0E491E093FC040D
:1020D000E2EAF0E0E491F0E0EE0FFF1FE057FF4F7F
:1020E000859194919093FE048093FD0464E372E0E3
:1020F00089EE94E00E94340364E372E08DED94E095
:102100000E94340364E372E083EE94E00E9434039F
:1021100064E372E087ED94E00E9434036AEC72E0BD
:1021200081ED94E00C94340397FB072E16F4009491
:1021300007D077FD09D00E94C71007FC05D03EF4F8
:10214000909581959F4F0895709561957F4F089563
:10215000052E97FB1EF400940E94BF1057FD07D078
:102160000E94DB1007FC03D04EF40C94BF10509576
:102170004095309521953F4F4F4F5F4F0895909573
:102180008095709561957F4F8F4F9F4F0895AA1B43
:10219000BB1B51E107C0AA1FBB1FA617B70710F052
:1021A000A61BB70B881F991F5A95A9F78095909584
:1021B000BC01CD010895A1E21A2EAA1BBB1BFD0193
:1021C0000DC0AA1FBB1FEE1FFF1FA217B307E40716
:1021D000F50720F0A21BB30BE40BF50B661F771F6E
:1021E000881F991F1A9469F760957095809590954E
:1021F0009B01AC01BD01CF010895EE0FFF1F0590BB
:10220000F491E02D09940E9417110C94BA180E94C1
:10221000B31858F00E94AC1840F029F45F3F29F041
:102220000C94A31851110C94EE180C94A9180E9448
:10223000CB1868F39923B1F3552391F3951B550BF4
:10224000BB27AA2762177307840738F09F5F5F4F89
:10225000220F331F441FAA1FA9F335D00E2E3AF0C8
:10226000E0E832D091505040E695001CCAF72BD0E0
:10227000FE2F29D0660F771F881FBB1F2617370731
:102280004807AB07B0E809F0BB0B802DBF01FF2763
:1022900093585F4F3AF09E3F510578F00C94A31885
:1022A0000C94EE185F3FE4F3983ED4F3869577954F
:1022B0006795B795F7959F5FC9F7880F911D96951C
:1022C000879597F90895E1E0660F771F881FBB1F78
:1022D000621773078407BA0720F0621B730B840B25
:1022E000BA0BEE1F88F7E09508950E940F1808F4C6
:1022F0008FEF0895CF93DF938230910510F482E041
:1023000090E0E0911005F091110520E030E0C0E090
:10231000D0E0309711F14081518148175907C0F042
:102320004817590761F482819381209719F09B83A4
:102330008A832BC0909311058093100526C0211528
:10234000310519F04217530718F49A01BE01DF0155
:10235000EF010280F381E02DDCCF2115310509F179
:10236000281B390B2430310590F412968D919C91E5
:1023700013976115710521F0FB019383828304C0DB
:102380009093110580931005FD01329644C0FD0124
:10239000E20FF31F81939193225031092D933C93C7
:1023A0003AC020910E0530910F05232B41F4209166
:1023B00003013091040130930F0520930E05209105
:1023C0000101309102012115310541F42DB73EB7CD
:1023D0004091050150910601241B350BE0910E053B
:1023E000F0910F05E217F307A0F42E1B3F0B2817FF
:1023F000390778F0AC014E5F5F4F2417350748F07E
:102400004E0F5F1F50930F0540930E0581939193DC
:1024100002C0E0E0F0E0CF01DF91CF9108950F938B
:102420001F93CF93DF93009709F48CC0FC01329780
:1024300013821282009110051091110501151105EA
:1024400081F420813181820F931F20910E053091FC
:102450000F052817390779F5F0930F05E0930E055E
:1024600071C0D80140E050E0AE17BF0750F412969B
:102470002D913C911397AD012115310509F1D90139
:10248000F3CF9D01DA013383228360817181860F4E
:10249000971F8217930769F4EC0128813981260F71
:1024A000371F2E5F3F4F318320838A819B81938327
:1024B0008283452B29F4F0931105E093100542C067
:1024C0001396FC93EE931297ED01499159919E0159
:1024D000240F351FE217F30771F480819181840F77
:1024E000951F029611969C938E93828193811396E9
:1024F0009C938E931297E0E0F0E0D80112968D91B4
:102500009C911397009719F0F8018C01F6CF8D91EB
:102510009C9198012E5F3F4F820F931F20910E05D3
:1025200030910F052817390769F4309729F4109274
:1025300011051092100502C01382128210930F052C
:1025400000930E05DF91CF911F910F910895A0E0A8
:10255000B0E0EDEAF2E10C940319EC01009721F4EC
:10256000CB010E947A11B8C0FC01E60FF71F9C0155
:1025700022503109E217F30708F4ACC0D9010D91DC
:102580001C91119706171707B0F00530110508F4D4
:102590009FC0C80104978617970708F499C0025096
:1025A0001109061B170B019311936D937C93CF01B7
:1025B0000E940F128DC05B01A01AB10A4C01800E5F
:1025C000911EA0911005B091110540E050E0E12C62
:1025D000F12C109709F44AC0A815B905D1F56D90F2
:1025E0007C901197630182E0C80ED11CCA14DB04F1
:1025F00080F1A3014A195B096A0182E0C80ED11C6F
:102600001296BC9012971396AC91B5E0CB16D104FC
:1026100040F0B282A38351834083D9016D937C93B0
:102620000AC00E5F1F4FC301800F911FF9019183F4
:102630008083EB2DFA2FE114F10431F0D7011396CA
:10264000FC93EE93129744C0F0931105E0931005AC
:102650003FC08D919C9111974817590708F4AC0120
:102660007D0112960D90BC91A02DB3CF80910E05E7
:1026700090910F0588159905E1F446175707C8F49E
:102680008091010190910201009741F48DB79EB7AE
:102690004091050150910601841B950BE817F9073D
:1026A000C8F4F0930F05E0930E05F9017183608380
:1026B0000FC0CB010E947A117C01009759F0A8014C
:1026C000BE010E947E13CE010E940F12C70104C0FA
:1026D000CE0102C080E090E0CDB7DEB7EEE00C9412
:1026E0001F1981E090E0F8940C9445199111089518
:1026F00081548A5108F4805E855A0895FB01DC01FB
:1027000002C001900D9241505040D8F70895FB014E
:10271000DC0101900D920020E1F70895FB01DC013E
:102720004150504030F08D910190801919F40020F3
:10273000B9F7881B990B0895FB01DC01415050400B
:1027400048F001900D920020C9F701C01D92415040
:102750005040E0F70895FB0151915523A9F0BF01C6
:10276000DC014D9145174111E1F759F4CD0101907C
:10277000002049F04D9140154111C9F3FB01411171
:10278000EFCF81E090E001970895EF920F931F93B0
:10279000CF93DF93E80147FD02C034E001C034E18C
:1027A000E42F440FFF0BF7FF03C0F195E195F1090A
:1027B000E32E022F2E2FAE010E94E913CE01DF91EE
:1027C000CF911F910F91EF900895662777270C9472
:1027D00077154F925F926F927F929F92AF92BF92C6
:1027E000CF92DF92EF92FF920F931F93CF93DF93DD
:1027F000CDB7DEB729970FB6F894DEBF0FBECDBFB9
:102800006A01122FB02E2BE3201720F0FF24F3943F
:10281000F00E02C0BCE3FB2E0F2D27E0AE014F5F90
:102820005F4F0E94D416AC018981982F9970913026
:1028300031F0E1FC06C0E0FE06C090E205C09DE27A
:1028400003C09BE201C090E0EE2DE07183FF3CC02D
:10285000911102C083E001C084E0811718F4212F98
:10286000281B01C020E0E1110BC0F601822F30E2ED
:10287000882319F031938150FBCFC20ED11C20E088
:10288000992329F0D6019C93F60131966F01C60178
:102890000396E2FE0AC03EE4D6013C9341E4119661
:1028A0004C93119712963C9306C03EE6F601308396
:1028B00041E641833283FC01322F40E2332309F4A5
:1028C00042C041933150FACF82FF44C0911102C0FF
:1028D00083E001C084E0811718F4212F281B01C078
:1028E00020E0E1110BC0F601822F30E2882319F0BD
:1028F00031938150FBCFC20ED11C20E0992329F0E7
:10290000D6019C93F60131966F01C6010396E2FE53
:102910000BC039E4D6013C933EE411963C931197E9
:1029200036E412963C9307C039E6F60130833EE662
:10293000318336E63283FC01322F40E2332319F033
:1029400041933150FBCFFC01E20FF11D10828EEF5D
:102950009FEFB7C0F1E0911101C0F0E06F2F70E080
:102960001416150624F49A012F5F3F4F02C021E090
:1029700030E0260F371FBB2029F06B2D70E06F5F12
:102980007F4F02C060E070E0260F371F612F70E0BC
:10299000261737071CF4121B212F01C020E03E2D03
:1029A000387159F4D601322F60E2332319F06D9358
:1029B0003150FBCFC20ED11C20E0FF2331F0D601F5
:1029C0009C93B6016F5F7F4F6B01E1110BC0F60165
:1029D000922F30E3992319F031939150FBCFC20E1F
:1029E000D11C20E09F2D940F3A81782F7071A72E73
:1029F00084FF03C0313309F49150191624F499303F
:102A000018F098E001C091E0E42F852F57FF02C035
:102A1000E0E080E06E2F782FE0E0F0E0AEE29A2E6A
:102A20003A01691A71082A01461A570A0B2D10E05B
:102A30001195019511096F3F8FEF780729F4D601A1
:102A40009C92C60101966C014617570784F06616E2
:102A500077066CF47F01E40CF51CA1E0B0E0AC0F4C
:102A6000BD1FEA0EFB1ED7011196BC9002C090E379
:102A7000B92E615071093196C60101967C0160172B
:102A8000710724F0D601BC926C01D5CF641775078D
:102A900041F4363320F4353321F4A11002C081E330
:102AA000B82EF601B082F701822F90E2882319F048
:102AB00091938150FBCFF701E20FF11D108280E06E
:102AC00090E029960FB6F894DEBF0FBECDBFDF9120
:102AD000CF911F910F91FF90EF90DF90CF90BF901B
:102AE000AF909F907F906F905F904F900895A0E07F
:102AF000B0E0EDE7F5E10C940319EC017B01611501
:102B0000710519F0DB018D939C938E010F5F1F4FB0
:102B10007880872D90E00E94AC17892B11F0E80196
:102B2000F4CFBDE27B1205C00F5F1F4F7980C1E07B
:102B300008C0EBE27E1204C08E010E5F1F4F798049
:102B4000C0E06801F1E0CF1AD10843E050E06AEC40
:102B500070E0C6010E94B517892BF1F4680122E0EC
:102B6000C20ED11C45E050E065EC70E0C6010E9449
:102B7000B517892B21F4680187E0C80ED11CE11438
:102B8000F10419F0D701CD92DC92C111FFC060E0D1
:102B900070E080E89FE703C143E050E062EC70E042
:102BA000C6010E94B517892B51F4E114F10409F410
:102BB000F2C00E5F1F4FF70111830083ECC0680164
:102BC00060E070E0CB0100E010E0F601D0EDD70D41
:102BD000DA3058F52C2F2260622E2C2F2870C2FF7D
:102BE00005C0211128C00F5F1F4F25C0222311F0FF
:102BF00001501109A5E0B0E09B01AC010E94F4185E
:102C00004B015C01880C991CAA1CBB1CC501B401BA
:102C10006D0F711D811D911D6839A9E97A078A0719
:102C2000A9E19A0740F0C66005C0DE3F51F4C3FD3C
:102C300044C0C8606C2EBFEFCB1ADB0A7080C62D73
:102C4000C4CF2D2F2F7D2531C1F540814D3211F498
:102C5000C06106C04B3221F0319621E030E006C061
:102C60003296D60111964C9122E030E0A0EDA40FEF
:102C7000AA3018F0E21BF30B20C040E050E04038CF
:102C8000BCE05B075CF49A01220F331F220F331F55
:102C9000420F531F440F551F4A0F511D3196DF013C
:102CA00011972C91A0EDA20FAA3048F3C4FF03C0E6
:102CB000519541955109040F151FC1FF07C0E1143B
:102CC000F10421F03197D701ED93FC930E94D217C4
:102CD000C370C33019F06B017C0106C06B017C012D
:102CE000F7FAF094F7F8F09420E030E0A901C7017A
:102CF000B6010E94CD17882309F445C017FF06C00E
:102D0000119501951109C1EED0E002C0C9EFD0E0E4
:102D10005E01B8E1AB1AB1084601BE2DAF2D90E2BD
:102D2000E92EF12C0E151F0584F0FE012591359139
:102D300045915491B4018B2F9A2F0E9433184B0167
:102D4000B82FA92F0E191F09EDCF2497F594E794FA
:102D5000CA15DB0539F76401EB2EFA2E8E2D880F8C
:102D60008F2D881F8F3F49F020E030E0A901C70177
:102D7000B6010E94CD17811106C082E290E09093C7
:102D8000130580931205C701B60109C060E070E029
:102D900080E89FEF04C060E070E080EC9FE7CDB773
:102DA000DEB7EEE00C941F19283008F027E0332737
:102DB000DA01990F311D87FD91600096610571055B
:102DC00039F432602E5F3D9330E32A95E1F70895A0
:102DD0009F3F30F080387105610509F03C5F3C5F32
:102DE0003D93913008F08068911DDF93CF931F933E
:102DF0000F93FF92EF92192F987F9695E92F969552
:102E00009695E90FFF27E95AFE4F99273327EE24BD
:102E1000FF24A701E70105900894079428F4360FD2
:102E2000E71EF81E491F511D660F771F881F991F47
:102E30000694A1F70590079428F4E70EF81E491FA1
:102E4000561FC11D770F881F991F661F0694A1F793
:102E50000590079428F4F80E491F561FC71FD11D6F
:102E6000880F991F661F771F0694A1F70590079496
:102E700020F4490F561FC71FD81F990F661F771FD1
:102E8000881F0694A9F784911095177041F0D69584
:102E9000C79557954795F794E7941A95C1F7EDEFC5
:102EA000F0E0689415901591359165919591059094
:102EB0007FE27395E118F10A430B560BC90BD00959
:102EC000C0F7E10CF11E431F561FC91FD01D7EF431
:102ED000703311F48A95E6CFE894015030F0080F72
:102EE0000AF40027021708F4202F2395022F7A33C3
:102EF00028F079E37D932A95E9F710C07D932A9510
:102F000089F6069497956795379517951794E11864
:102F1000F10A430B560BC90BD00998F023957E910B
:102F200073957A3308F070E37C932013B8F77E91A1
:102F300070617D9330F0839571E37D9370E32A9502
:102F4000E1F71124EF90FF900F911F91CF91DF9146
:102F5000992787FD9095089591110C94A0188032BF
:102F600019F089508550C8F70895FB01DC014150E4
:102F7000504088F08D9181341CF08B350CF4805ECC
:102F8000659161341CF06B350CF4605E861B611139
:102F900071F3990B0895881BFCCF0E940F1808F459
:102FA00081E00895E89409C097FB3EF490958095E0
:102FB000709561957F4F8F4F9F4F9923A9F0F92FFF
:102FC00096E9BB279395F695879577956795B7957D
:102FD000F111F8CFFAF4BB0F11F460FF1BC06F5F63
:102FE0007F4F8F4F9F4F16C0882311F096E911C075
:102FF000772321F09EE8872F762F05C0662371F096
:1030000096E8862F70E060E02AF09A95660F771FA9
:10301000881FDAF7880F9695879597F90895990F85
:103020000008550FAA0BE0E8FEEF16161706E80792
:10303000F907C0F012161306E407F50798F0621BB3
:10304000730B840B950B39F40A2661F0232B242B88
:10305000252B21F408950A2609F4A140A6958FEFA7
:10306000811D811D08950E9446180C94BA180E9473
:10307000AC1838F00E94B31820F0952311F00C948E
:10308000A3180C94A91811240C94EE180E94CB18C4
:1030900070F3959FC1F3950F50E0551F629FF001AB
:1030A000729FBB27F00DB11D639FAA27F00DB11DC4
:1030B000AA1F649F6627B00DA11D661F829F22274D
:1030C000B00DA11D621F739FB00DA11D621F839FD4
:1030D000A00D611D221F749F3327A00D611D231FAA
:1030E000849F600D211D822F762F6A2F11249F57F8
:1030F00050409AF0F1F088234AF0EE0FFF1FBB1FFB
:10310000661F771F881F91505040A9F79E3F5105B9
:1031100080F00C94A3180C94EE185F3FE4F3983EF3
:10312000D4F3869577956795B795F795E7959F5F63
:10313000C1F7FE2B880F911D9695879597F90895F5
:1031400099278827089597F99F6780E870E060E0E5
:1031500008959FEF80EC089500240A941616170630
:1031600018060906089500240A9412161306140678
:1031700005060895092E0394000C11F4882352F0DB
:10318000BB0F40F4BF2B11F460FF04C06F5F7F4F93
:103190008F4F9F4F089557FD9058440F551F59F07A
:1031A0005F3F71F04795880F97FB991F61F09F3F34
:1031B00079F087950895121613061406551FF2CF5D
:1031C0004695F1DF08C0161617061806991FF1CFAD
:1031D00086957105610508940895E894BB276627D4
:1031E0007727CB0197F908950E943619A59F900D76
:1031F000B49F900DA49F800D911D112408952F92CE
:103200003F924F925F926F927F928F929F92AF9276
:10321000BF92CF92DF92EF92FF920F931F93CF93C3
:10322000DF93CDB7DEB7CA1BDB0B0FB6F894DEBF5A
:103230000FBECDBF09942A88398848885F846E8480
:103240007D848C849B84AA84B984C884DF80EE80CA
:10325000FD800C811B81AA81B981CE0FD11D0FB6D3
:10326000F894DEBF0FBECDBFED010895A29FB0015F
:10327000B39FC001A39F700D811D1124911DB29FAA
:10328000700D811D1124911D089510E0CDEFD0E047
:1032900004C0FE010E94FD102196CE3FD107C9F760
:0432A000F894FFCFD0
:1032A400010000140580000E0000000000AD01299B
:1032B40001760154016801F401000000005E022956
:1032C40001B202CA0245025D0241542B4950523DEB
:1032D4003936303000413720506F776572204F4EB9
:1032E400210041542B4750533D300041542B47504B
:1032F4005352443D310041542B4750533D31002A31
:103304002A2A2A2A2A2A2A2A2A2A2A2A2A2A2A2A19
:103314002A2A2A2A2A2A2A2A2A2A2A2A2A2A2A2A09
:103324002A2A2A2A2A2A2A2A2A2A2A2A2A2A2A2AF9
:103334002A2A2A2A2A2A2A2A002A2A496620646F43
:103344006E607420646973706C61792027475053F0
:1033540020706F736974696F6E696E672E2E2E2EDE
:10336400272C706C65617365207265626F6F742EB3
:103374002A2A0041542B434D47463D310D0A004152
:10338400542B4353510D0A0041542B47534E0D0AFD
:10339400007463702073656E646464646464002FF5
:1033A4000041542B435245473F0D0A0041542B43DF
:1033B400474154543D310D0A0041542B4347444383
:1033C4004F4E543D312C224950222C22434D4E4520
:1033D40054220D0A0041542B43474143543D312CA0
:1033E400310D0A0041542B43495053544152543D2A
:1033F40022544350222C22746F646F7A692E6972AE
:10340400222C38300D0A0041542B43494653520DA7
:103414000A0041542B43495053454E443D32303009
:103424000D0A0047455420687474703A2F2F746F46
:10343400646F7A692E69722F6170692F6770732FB8
:10344400476574477073446174613F74696D653D89
:1034540000266C3D0026613D0026696D65693D00CE
:103464006F6F6F6F00747474740038363735363785
:10347400303231333431333131002B4750535244DD
:1034840000706F736974696F6E3D002C00696E661D
:103494006F006D657373616765006E756D6265724B
:1034A40000706F73696F74696F6E00706F73697405
:1034B400696F6E0041542B434D47463D31004154E2
:1034C4002B434D47533D004D45535341536765735B
:1034D400656E74676767670079797979797979793D
:1034E40079797979797979797979790067707273E9
:1034F4006F6E0067707273206F4E4E4E4E4E4E4E7E
:103504004E4E4E4E4E4E4E4E4E4E4E4E00677072C6
:10351400736F66660067707273206F464646464650
:103524004646464646464646464646006C6F636BEC
:103534006F6E0031333732006C6F636B6F666600F9
:063544002B434D54000072
:00000001FF
