:100000000C9497060C94BF060C94BF060C94BF0684
:100010000C94BF060C94BF060C94BF060C94BF064C
:100020000C94BF060C94BF060C94BF060C94BF063C
:100030000C94BF060C94BF060C94BF060C94BF062C
:100040000C94A6100C94BF060C94860F0C94600FB1
:100050000C94BF060C94BF060C94BF060C94BF060C
:100060000C94BF060C94BF0600000000003E5B4FDE
:100070005B3E3E6B4F6B3E1C3E7C3E1C183C7E3C08
:10008000181C577D571C1C5E7F5E1C00183C180016
:10009000FFE7C3E7FF0018241800FFE7DBE7FF30A6
:1000A000483A060E2629792926407F050507407F14
:1000B00005253F5A3CE73C5A7F3E1C1C08081C1C87
:1000C0003E7F14227F22145F5F005F5F06097F017D
:1000D0007F006689956A606060606094A2FFA29468
:1000E00008047E040810207E201008082A1C080836
:1000F0001C2A08081E101010100C1E0C1E0C303884
:100100003E3830060E3E0E06000000000000005F84
:1001100000000007000700147F147F14242A7F2AA0
:100120001223130864623649562050000807030062
:10013000001C2241000041221C002A1C7F1C2A08AE
:10014000083E080800807030000808080808000011
:1001500060600020100804023E5149453E00427F85
:10016000400072494949462141494D331814127FD4
:100170001027454545393C4A494931412111090774
:100180003649494936464949291E000014000000F5
:1001900040340000000814224114141414140041C7
:1001A00022140802015909063E415D594E7C121184
:1001B000127C7F494949363E414141227F414141BC
:1001C0003E7F494949417F090909013E4141517337
:1001D0007F0808087F00417F41002040413F017FA8
:1001E000081422417F404040407F021C027F7F0470
:1001F00008107F3E4141413E7F090909063E4151B9
:10020000215E7F09192946264949493203017F01A8
:10021000033F4040403F1F2040201F3F4038403FA9
:10022000631408146303047804036159494D4300BF
:100230007F4141410204081020004141417F0402F6
:10024000010204404040404000030708002054548D
:1002500078407F284444383844444428384444286B
:100260007F385454541800087E090218A4A49C78BE
:100270007F0804047800447D40002040403D007F1A
:100280001028440000417F40007C047804787C08FA
:100290000404783844444438FC18242418182424CE
:1002A00018FC7C08040408485454542404043F44B3
:1002B000243C4040207C1C2040201C3C4030403CE2
:1002C00044281028444C9090907C4464544C440042
:1002D00008364100000077000000413608000201A6
:1002E0000204023C2623263C1EA1A161123A404092
:1002F000207A385454555921555579412154547810
:1003000041215554784020545579400C1E527212A8
:100310003955555559395454545939555454580030
:1003200000457C410002457D420001457C40F029AA
:100330002429F0F0282528F07C54554500205454F9
:100340007C547C0A097F493249494932324848483D
:1003500032324A4848303A4141217A3A4240207884
:10036000009DA0A07D39444444393D4040403D3C7F
:1003700024FF2424487E4943662B2FFC2F2BFF09A2
:1003800029F620C0887E0903205454794100004496
:100390007D413048484A32384040227A007A0A0A81
:1003A000727D0D19317D2629292F282629292926F4
:1003B00030484D4020380808080808080808382F39
:1003C00010C8ACBA2F102834FA00007B00000814C3
:1003D0002A142222142A1408AA005500AAAA55AAEF
:1003E00055AA000000FF00101010FF00141414FFA5
:1003F000001010FF00FF1010F010F0141414FC0097
:100400001414F700FF0000FF00FF1414F404FC14A0
:100410001417101F10101F101F1414141F00101099
:1004200010F0000000001F101010101F101010100E
:10043000F010000000FF101010101010101010FF2E
:1004400010000000FF140000FF00FF00001F101745
:100450000000FC04F414141710171414F404F4002E
:1004600000FF00F714141414141414F700F71414F4
:1004700014171410101F101F141414F4141010F07B
:1004800010F000001F101F0000001F14000000FCEF
:10049000140000F010F01010FF10FF141414FF14DB
:1004A0001010101F00000000F010FFFFFFFFFFF012
:1004B000F0F0F0F0FFFFFF0000000000FFFF0F0F63
:1004C0000F0F0F38444438447C2A2A3E147E02021F
:1004D0000606027E027E0263554941633844443C6D
:1004E00004407E201E2006027E020299A5E7A599FF
:1004F0001C2A492A1C4C7201724C304A4D4D303036
:1005000048784830BC625A463D3E494949007E0120
:1005100001017E2A2A2A2A2A44445F444440514A3F
:10052000444040444A51400000FF0103E080FF0086
:100530000008086B6B083612362436060F090F06C2
:10054000000018180000001010003040FF010100EA
:100550001F01011E00191D1712003C3C3C3C00000D
:10056000000000000000000000000000000000008B
:10057000000000FFFF0F00000400620800080800F0
:1005800003000C01030B5A020306090303171004AE
:1005900003002305030017060309630703090C087A
:1005A000030C100903322210001600110001011281
:1005B00000000013000100000130030101370203B5
:1005C00001000D800200610201B0C1FFFF32000195
:1005D0000000010200000103003010090001000CBE
:1005E000000000900000800F0000001002000011C9
:1005F00002EF001202000013028F0100050000014B
:1006000005000002055F000104010004040000FF72
:10061000FF320007000001FFFF320000020000016E
:1006200002000000000000000000000000000000C8
:10063000000100A4000100FFFF0A0060000027087D
:100640000008083000140231001537320004063368
:1006500000160E34001122350000153600078537CC
:100660000007143800031439002000900015001012
:1006700000100411003702290046002A0046000736
:100680000000001200890113000011FFFF96001204
:1006900000B901010000010200000203003010094E
:1006A0000001000A0000000D0000000E00300050A4
:1006B0000000005100EF005200000053003F0161B4
:1006C0000001006A0000008000000081000000823C
:1006D000005F009200000193000107FFFF50000738
:1006E0000000010100FF322800C0021010C10141CA
:1006F000C50400228040360168B00100B102B0118B
:10070000B40102B60302023BB701C63A0155F70431
:10071000A9512C821100FF9629000100FF32280008
:10072000C0020D0DC1024300C20100C50400480013
:1007300048B40100B60300023BE00F0F312B0C0E52
:10074000084EF1370710030E0900E10F000E1403E5
:10075000110731C148080F0C31360F200036010A4D
:100760003A01551100FF3229000100FF321100FF4C
:1007700014D003074218D103000710D2020102C0AF
:1007800005103B000211C50108C80C0032364506B1
:1007900016377577540C0036010A3A01552A0400C1
:1007A00000013F2B04000001E01100FF782900FF49
:1007B000190100FF322800F603010100CF03008178
:1007C00030ED0464031281E803851078CB05392CE1
:1007D000003402F70120EA020000B102001BB4015C
:1007E00000C00121C10111C5023F3CC701B536015E
:1007F00048F20100260101E00F0F26240B0E0954D8
:10080000A8460C17090F0700E10F00191B04100779
:100810002A473903060630380F1100FF9629003A9F
:1008200001550100FF322800F603090103B0014021
:10083000B40100C00123C10110C5022B2BC701C0A8
:10084000360188B102001BB701071100FF9629008D
:100850003A01550100FF322800B6030A2227110091
:10086000FF9629003A0155010028001100FF64B0ED
:100870000100C10410100202C00600350000010290
:10088000C50104D2020104CA0100EA018036014810
:100890003A01552A04000000EF2B040000018F30BC
:1008A000040000018F2900E500F07801000001023A
:1008B00000000203003010040000000500000008E2
:1008C000000702090000000A0000000C0000000DF3
:1008D0000000000F000000100000001100070012CF
:1008E0000000001300000007000100FFFFC8001017
:1008F00000901611002702FFFF320012000D00FFCA
:10090000FF32001300001229000A002B000D00FF27
:10091000FF32002000000021000000300000003104
:1009200000040432000300350005043600080837CF
:1009300000070438000303390007073C0004053DA5
:10094000000808500000005100EF00520000005362
:10095000003F0160000027610001006A0000008084
:10096000000000810000008200000083000000847D
:1009700000000085000000900010009200000007B9
:10098000003301E5000080000001000100000102C9
:1009900000000703003010040000000800020209F4
:1009A0000000000A0000000C0000000D0000000F15
:1009B00000000010000000110007001200000013EA
:1009C000000000FFFF32001000B01711000700FF09
:1009D000FF0A0012003A01FFFF0A001300001A2963
:1009E000000C00FFFF0A0030000000310005053256
:1009F00000040035000600360007073700050138FF
:100A0000000200390007073C0004073D00070850BA
:100A10000000005100EF005200000053003F016051
:100A20000000A7610001006A000000210000002012
:100A300000000080000000810000008200000083B0
:100A4000000000840000008500000090001000926B
:100A5000000000930003009500100197000000982B
:100A600000000007007301FFFF320001001100FFCA
:100A7000643601803A0155B2050C0C003333B701DE
:100A800035BB012BC00104C20201FFC30111C40127
:100A900020C6010FD002A4A1E00ED000050E150D56
:100AA0003743470915121619E10ED000050D0C0643
:100AB0002D44400E1C1816192A04000000EF2B04C8
:100AC0000000013F2900FF0AFF000100F3000800B9
:100AD00000000100010000010200000703003010C7
:100AE00008000203090000001000000011000700C8
:100AF0001200000013000000FFFF32001000B014CD
:100B0000FFFF0A0011000700FFFF0A0012008E001D
:100B10001300000C29001500FFFF0A003000000040
:100B200031000701320000003500030236000204E4
:100B30003700000038000702390000003C000302C3
:100B40003D000304500000005100EF00520000007F
:100B500053003F01600000A76100010090002900E0
:100B600007003301FFFF3200150030009A0010002B
:100B70001100200010002834120002001300381069
:100B8000FFFF280012001200FFFF28001000203491
:100B900013004530FFFF4600300000003100020422
:100BA000320007033300040334000400350001045D
:100BB0003600070737000503380010063900100615
:100BC00001000001020000030300301008000808C3
:100BD0000A000800600000276100010090003E014B
:100BE0009200000193000001A0000030A30010005B
:100BF0000700010007002100070023000700330061
:100C000007003301000001000300A4A80C0000004D
:100C10000D000C080E00002B1E00B70001003F2B3A
:100C200002000004100000001100706005000000C8
:100C30000600000016001CEF170003000700330237
:100C40000B0000000F000000410000004200000007
:100C50004800000049003F014A0000004B0000002E
:100C6000440095EF4500000046003F0130000707B3
:100C7000310004023200040233000205340007058B
:100C80003500040236000402370002053A00020370
:100C90003B00020323000000240000002500008028
:100CA0004F0000004E00000011001A001200213118
:100CB00013006C001400494210000008FFFF0A00F6
:100CC00011001A01FFFF0A0011001A03FFFF0A00BA
:100CD00011001A07FFFF0A0011001A0FFFFF0A0098
:100CE00011003A0FFFFF1E00010028010200000161
:100CF0000300301007001210080003030B0000115E
:100D00000C0000000F000118150020000700120061
:100D1000FFFF280007001300070017003600EF0050
:100D20003700000038003F0139000000251611246B
:100D30001FBECFEFD8E0DEBFCDBF11E0A0E0B1E035
:100D4000E2EEF1E302C005900D92A837B107D9F7A2
:100D500022E0A8E7B1E001C01D92AD38B207E1F78B
:100D600016E0C7E9D6E004C02197FE010E94741680
:100D7000C639D107C9F70E9442120C94EF180C949F
:100D800000004398429885B1972F93708C7F892BF0
:100D900085B98BB17C7F8370782B7BB94198419A60
:100DA00085B1962F93708C7F892B85B98BB16C7F21
:100DB0008370682B6BB94198419A429A85B1952FFF
:100DC00093708C7F892B85B98BB15C7F8370582B96
:100DD0005BB94198419A85B1942F93708C7F892B90
:100DE00085B98BB14C7F8370482B4BB94198419AA0
:100DF000439A089508952F923F924F925F926F9277
:100E00007F928F929F92AF92BF92CF92DF92EF929A
:100E1000FF920F931F93CF93DF93CDB7DEB72D973C
:100E20000FB6F894DEBF0FBECDBFFC016A3069F487
:100E300024898685978538E0239F800D911D112494
:100E40009787868715861486E4C06D3009F4E1C063
:100E50009D878C8754895983828993899D838C834C
:100E6000A089B189BF83AE8386849784C484D584E6
:100E700080859185C816D906BCF0EC85FD8544892E
:100E8000242F30E084859585F6E04F9F800D911DDD
:100E90001124AC85BD851D969C938E931C97569608
:100EA0004C91411192C0B5C0EC85FD85828593853A
:100EB0008816990614F7F981AF2EB12CC60126E0E9
:100EC000F29F800D911D112418161906B4F6C50164
:100ED00023E0880F991F2A95E1F7880D991D1816B0
:100EE00019065CF655E0659FB001112416011A82BF
:100EF000CB018C199D0999878887D4011896BB87E7
:100F0000AA87BA81B53049F0E885F985E20DF31D6D
:100F1000E859FF4F24912B8301C01B822401340127
:100F20003B8130FF13C0AC85BD85ED91FC91B9814B
:100F3000B13031F40480F581E02D2E813F8119C05C
:100F40000684F785E02DEE80FF801EC0EC81FD81D8
:100F50002E813F81E217F307F1F0AC85BD85ED915D
:100F6000FC91B981B13059F40480F581E02D2C81D8
:100F70003D81A301B1018C859D8509950CC0068436
:100F8000F785E02DEC80FD8085019501A201B60179
:100F90008C859D850995EB81E695EB83FFEF6F1AB4
:100FA0007F0A4A0C5B1C2A853B856216730609F092
:100FB000B7CF3A813F5F3A835FEF251A350ACA0CF3
:100FC000DB1C363009F09DCF58CF4AEF4203B00109
:100FD000439F700D1124AC85BD8518964D915C9191
:100FE0001997460F571F481759079CF483E0220FA3
:100FF000331F8A95E1F71E968D919C911F97280FBC
:10100000391F1F963C932E931E971D961C921E927D
:101010001C9781E090E02D960FB6F894DEBF0FBECE
:10102000CDBFDF91CF911F910F91FF90EF90DF9097
:10103000CF90BF90AF909F908F907F906F905F9078
:101040004F903F902F900895EF92FF920F931F9330
:10105000DC01ED91FC9111971A960D911C911B9753
:1010600018962D913C9119970684F785E02D7B0108
:1010700040E050E060E070E009951F910F91FF9013
:10108000EF9008956F927F928F929F92AF92BF924E
:10109000CF92DF92EF92FF920F931F93CF93DF9344
:1010A0006C015A014801EB013B01620E731EC6152B
:1010B000D70574F4D601ED91FC910084F185E02D03
:1010C00087019401A501BE01C60109952196EFCFC4
:1010D000DF91CF911F910F91FF90EF90DF90CF9014
:1010E000BF90AF909F908F907F906F900895EF92F8
:1010F000FF920F931F93DC01ED91FC91260F371F98
:10110000215031090680F781E02D78018A01099587
:101110001F910F91FF90EF900895EF92FF920F9320
:101120001F937801DC01ED91FC91240F351F89019B
:10113000015011090680F781E02D9B0109951F914F
:101140000F91FF90EF9008956F927F928F929F92F0
:10115000AF92BF92CF92DF92EF92FF920F931F93C5
:10116000CF93DF93EC014B015A0169013801E8810B
:10117000F9810284F385E02D87010995E881F981E1
:10118000A501460D571D415051090284F385E02DFC
:101190009601B401CE010995E881F9810084F185B9
:1011A000E02D9301A501B401CE010995E881F981F3
:1011B000C80CD91CB601615071090084F185E02D7D
:1011C0009301A501CE010995DF91CF911F910F9158
:1011D000FF90EF90DF90CF90BF90AF909F908F9057
:1011E0007F906F9008952F923F924F925F926F92EF
:1011F0007F928F929F92AF92BF92CF92DF92EF92A7
:10120000FF920F931F93CF93DF9300D01F92CDB720
:10121000DEB74C017B836A836A015901170198018B
:10122000241B350B37FF03C0319521953109C501CA
:101230004A815B81841B950B97FF03C09195819533
:10124000910951E059838217930714F019820BC05A
:101250009A2D8B2D5801092F182F9A818B81DB82B3
:10126000CA82C92ED82E8A819B81A816B9065CF441
:101270009C2D8D2D6801092F182F9A818B81BB829F
:10128000AA82A92EB82E2501AA81BB814A1A5B0A1F
:1012900038016C187D0877FE03C071946194710861
:1012A000720157FE03C0BFEFEB1AFB0AF594E794F7
:1012B000C016D1061CF00FEF1FEF1FC001E010E0B9
:1012C0001CC0D401ED91FC91B9810480F581E02D21
:1012D0009101BB23C1F04A815B81B601C40109952C
:1012E000E618F708F7FE04C0C00ED11EE40CF51C8A
:1012F000EA81FB813196FB83EA834A815B81A416F4
:10130000B506FCF604C0A6016A817B81E7CF0F9089
:101310000F900F90DF91CF911F910F91FF90EF9061
:10132000DF90CF90BF90AF909F908F907F906F9005
:101330005F904F903F902F900895EF92FF920F9300
:101340001F93DC01ED91FC9111971A960D911C9160
:101350001B9718962D913C9119970684F785E02DDF
:101360007B0140E050E060E070E009951F910F9133
:10137000FF90EF900895EF92FF920F931F93DC017F
:10138000ED91FC910684F785E02D780101E010E0F5
:1013900009951F910F91FF90EF900895EF92FF92A2
:1013A0000F931F93DC01ED91FC910684F785E02DEE
:1013B0007801890121E030E009951F910F91FF909C
:1013C000EF900895409A40984098409833B189B181
:1013D000409A409A40984098409893B129B1409AD9
:1013E0002C7F9370292B90E08C7F3370832B982F68
:1013F0008827822B08954398429825B1392F33705E
:101400002C7F232B25B92BB19C7F2370922B9BB96A
:101410004198419A95B1282F23709C7F922B95B9C2
:101420009BB18C7F9370892B8BB94198419AFA01BB
:10143000460F842F8E1B181684F42191429A95B181
:10144000822F83709C7F982B95B98BB12C7F8370F2
:10145000822B8BB94198419AECCF439A0895FC01B5
:1014600037A520A9229521706227462F50E0528F80
:10147000418F30FF0CC0611103C080E290E002C0D8
:1014800081E290E040E050E060E00C94FB09FC0158
:101490002789308D2938F2E13F0779F0293065EB53
:1014A0003607D9F024353140E1F4440F551F440F7D
:1014B000551F436167E070E016C0FC01258D368D35
:1014C0003F7D662311F03062FC01368F258FFC01D1
:1014D000458D568D61E070E006C0426061E074E0C9
:1014E00002C061E670E00C94C1068F929F92AF92A9
:1014F000BF92CF92DF92EF92FF920F931F93CF9301
:10150000DF9300D000D0CDB7DEB77C015B016A016C
:10151000922E832EFC0197A5878D70A190FF19C094
:10152000B982AA823B832C83AE014F5F5F4F64E098
:1015300090E00E94FB09F70181A1D982CA821B8336
:101540000C83AE014F5F5F4F64E090E00E94FB09A7
:101550003EC0A501682FC7010E94C106F70161A125
:1015600072A1A601C7010E94C106F70187A585FFE8
:1015700011C0858980FF07C080E090E0902FC82AC5
:10158000D92A860107C080E090E0992DA82AB92ABF
:101590009A2C8B2CF70165A176A1A501C7010E94A9
:1015A000C106F70161A572A5A601C7010E94C10687
:1015B000F70167A170A5492D582DC7010E94C106EA
:1015C000F70163A574A5A801C7010E94C1060F9089
:1015D0000F900F900F90DF91CF911F910F91FF907F
:1015E000EF90DF90CF90BF90AF909F908F90089535
:1015F000AF92BF92CF92DF92EF92FF920F931F9321
:10160000CF93DF93EC0137FF05C0620F731F319555
:1016100021953109260F371F77FF02C060E070E087
:1016200088859985821793070CF49C016901C61A75
:10163000D70A17FF05C0400F511F119501951109D9
:10164000040F151F57FF02C040E050E08A859B85BC
:10165000801791070CF48C015801A41AB50A0150A7
:10166000110921503109CE010E94750A4398429810
:101670003BA18CA125B1982F93702C7F292B25B9E4
:101680009BB18C7F9370982B9BB94198419A95B1EF
:10169000832F83709C7F982B95B98BB13C7F83708F
:1016A000832B8BB94198419ACA14DB042CF49C2DEE
:1016B0008D2D6501A92EB82E429A9F2D93705F2D16
:1016C0005C7F4E2D43706E2D6C7F1A141B04E4F466
:1016D000960185B18C7F892B85B98BB18370852B61
:1016E0008BB94198419A85B18C7F842B85B98BB198
:1016F0008370862B8BB94198419A2150310949F763
:1017000081E0A81AB108E1CF439A8FA580FD0FC0F0
:101710000A851B8501501109288539852150310919
:1017200040E050E060E070E0CE010E94750ADF9179
:10173000CF911F910F91FF90EF90DF90CF90BF90CE
:10174000AF900895CF92DF92EF92FF920F931F9385
:10175000CF93DF9300D000D0CDB7DEB78C017A01F4
:10176000690177FD3FC057FD3DC0FC018085918533
:1017700068177907BCF5828593854817590794F552
:10178000F80127A5878D90A120FF19C079836A836E
:101790007B836C83AE014F5F5F4F64E090E00E94FB
:1017A000FB09F80181A1F982EA82FB82EC82AE0199
:1017B0004F5F5F4F64E090E00E94FB090CC0AB01FB
:1017C000BC01C8010E94C106F80161A172A1A70174
:1017D000C8010E94C106F80163A174A1A601C80155
:1017E0000E94C1060F900F900F900F90DF91CF9144
:1017F0001F910F91FF90EF90DF90CF900895EF929F
:10180000FF920F931F93CF93DF93CDB7DEB7279748
:101810000FB6F894DEBF0FBECDBF7C01FC01518D29
:10182000862F8370858B462F417060FF03C0268111
:10183000378103C0F70124813581F7013187208783
:10184000442319F02481358103C0F70126813781B3
:10185000F70133872287823041F0833041F08130B5
:1018600011F088E405C088E203C088E901C088EF70
:101870008F83F70127A530A930FF03C08F818058DF
:101880008F8331FF04C09F8180E489278F8333FFDA
:1018900004C09F8188E089278F83F7018789908D15
:1018A00020FF42C08638F4E99F07D9F0833629E14A
:1018B000920721F0813834E9930799F42F8127FFAB
:1018C00002C021602F832F8126FF02C022602F8358
:1018D0002F818336994111F08FE201C08FE382237B
:1018E0008F832AE230E0F70130A3278F8BE290E06C
:1018F00092A381A34CE250E054A343A336A325A3B3
:1019000030A727A392A781A794A783A7AE01495F19
:101910005F4F61E086E390E00E94FB098F8190E0D9
:10192000F701948F838F0BC12F818938F2E19F07D4
:1019300009F4ABC0893035EB9307B9F18435914098
:1019400009F05BC087E390E0F70196A385A386E3E7
:1019500090E090A787A389E390E092A781A788E30E
:1019600090E094A783A780E290E090A3878F81E224
:1019700090E092A381A382E290E094A383A3822FBC
:10198000022E000C990B8827990F881F9927982FF2
:101990008827990F26FD03C040E050E002C040E0D8
:1019A00051E08862482B592B5AC080E092E0F70141
:1019B00090A3878F81E092E092A381A382E092E0DE
:1019C00094A383A380E192E096A385A381E192E0B2
:1019D00090A787A382E192E092A781A783E192E09A
:1019E00094A783A727FD03C040E050E002C040E079
:1019F00050E8526660E074E027C080E290E0F701B2
:101A000090A3878F81E290E092A381A382E290E08D
:101A100094A383A380E590E096A385A381E590E05D
:101A200090A787A382E590E092A781A783E590E045
:101A300094A783A727FD03C040E050E002C040E028
:101A400050E8576260E670E0C7010E94C1068F81CE
:101A500086FD03C040E050E002C040E051E061E09C
:101A600070E0C7010E94C1068F8185FD03C040E080
:101A700050E002C048E050E083FD50614063F70150
:101A8000548F438F63E070E057C08EE490E0F7011D
:101A900090A3878F8FE490E092A381A382E290E0ED
:101AA00094A383A384E490E096A385A390A787A33F
:101AB00085E490E092A781A786E490E094A783A7AD
:101AC000442319F080ED28272F834F8147FD03C061
:101AD00060E070E002C060E070E546FD03C020E019
:101AE00030E002C020E032E045FD03C000E010E03D
:101AF00002C008E010E080E090E0952F9295990FE9
:101B0000907E862B972B822B932B43FD03C08F63F4
:101B1000916002C08F639960F701968F858FF701FE
:101B2000458D568D61E070E0C7010E94C106A80195
:101B30004067506661E170E0C7010E94C106F7018D
:101B4000858980FF1CC087A590A992FD18C0878D4C
:101B500090A121A132A130A3278F92A381A385A1B7
:101B600096A121A532A536A325A392A781A787A177
:101B700090A523A534A530A727A394A783A7F70191
:101B800002851385015011092085318521503109C5
:101B900040E050E060E070E0C7010E94750AF70184
:101BA0004681578127A58789908D20FF38C08732CD
:101BB0009349C1F4F70185898250823048F47A0153
:101BC000F0EBEF1AF1E0FF0AF7FE05C07A0103C05F
:101BD000E12CF12C02C040EB51E080EB91E0841B42
:101BE000950B04C0E12CF12C80E090E019821A8260
:101BF0005B834C839D838E83AE014F5F5F4F66E0B6
:101C000083E390E00E94FB09F982EA82AE014F5F14
:101C10005F4F62E087E390E00E94FB0945C089388E
:101C200022E1920761F1B0F48435914069F54150A9
:101C3000510961E370E0C7010E94C10640E050E035
:101C400062E370E0C7010E94C10640E050E063E338
:101C500070E027C0F701418D528D8338F7E79F0769
:101C6000B9F08930954B81F4426061E074E0C701BE
:101C70000E94C10640E050E064E074E012C040E021
:101C800050E061E470E00DC0F701418D528D42607B
:101C900061E670E0C7010E94C10640E050E06AE6DC
:101CA00070E0C7010E94C10627960FB6F894DEBF08
:101CB0000FBECDBFDF91CF911F910F91FF90EF909D
:101CC0000895FC01918D828D981761F0828DDF015E
:101CD000A80FB11D5D968C91928D9F5F9F73928F1F
:101CE00090E008958FEF9FEF0895FC01918D828D14
:101CF000981731F0828DE80FF11D858D90E00895E1
:101D00008FEF9FEF0895FC01918D228D892F90E038
:101D1000805C9F4F821B91098F73992708958AEBEE
:101D200091E00E94830E21E0892B09F420E0822FAC
:101D30000895FC01848DDF01A80FB11DA35ABF4F88
:101D40002C91848D90E001968F739927848FA689BA
:101D5000B7892C93A089B1898C9180648C93938DE1
:101D6000848D981306C00288F389E02D80818F7DD1
:101D700080830895EF92FF920F931F93CF93DF9389
:101D8000EC0181E0888F9B8D8C8D981305C0E889CC
:101D9000F989808185FD24C0F62E0B8D10E00F5F40
:101DA0001F4F0F731127E02E8C8DE8120CC00FB659
:101DB00007FCFACFE889F989808185FFF5CFCE014C
:101DC0000E94990EF1CF8B8DFE01E80FF11DE35AB1
:101DD000FF4FF0820B8FEA89FB898081806207C008
:101DE000EE89FF896083E889F98980818064808336
:101DF00081E090E0DF91CF911F910F91FF90EF90E4
:101E00000895CF93DF93EC01888D8823C9F0EA8988
:101E1000FB89808185FD05C0A889B9898C9186FDE3
:101E20000FC00FB607FCF5CF808185FFF2CFA889E0
:101E3000B9898C9185FFEDCFCE010E94990EE7CF35
:101E4000DF91CF91089580E090E0892B29F00E94E6
:101E50008F0E81110C94000008953FB7F894809183
:101E60007D0190917E01A0917F01B091800126B506
:101E7000A89B05C02F3F19F00196A11DB11D3FBFC2
:101E8000BA2FA92F982F8827820F911DA11DB11D50
:101E9000BC01CD0142E0660F771F881F991F4A954C
:101EA000D1F708952FB7F8946091790170917A0174
:101EB00080917B0190917C012FBF08950E94711841
:101EC0001F920F920FB60F9211242F933F934F93AF
:101ED0005F936F937F938F939F93AF93BF93EF9392
:101EE000FF938AEB91E00E94990EFF91EF91BF91D1
:101EF000AF919F918F917F916F915F914F913F91A2
:101F00002F910F900FBE0F901F9018951F920F9258
:101F10000FB60F9211242F938F939F93EF93FF93FC
:101F2000E091CA01F091CB018081E091D001F09164
:101F3000D10182FD12C090818091D3018F5F8F7398
:101F40002091D401821751F0E091D301F0E0E654E2
:101F5000FE4F958F8093D30101C08081FF91EF9157
:101F60009F918F912F910F900FBE0F901F901895FA
:101F70008F929F92AF92BF92CF92DF92EF92FF9299
:101F80006B017C010E942D0F4B015C01C114D10437
:101F9000E104F104F1F00E942D0FDC01CB0188195E
:101FA0009909AA09BB09883E9340A105B10570F3C0
:101FB00021E0C21AD108E108F10888EE880E83E01A
:101FC000981EA11CB11CC114D104E104F10419F73D
:101FD000DDCFFF90EF90DF90CF90BF90AF909F90BC
:101FE0008F9008950F931F93CF93DF93EC018B0194
:101FF000101611060CF04FC0FE0145915491249625
:10200000FE013297259134914F3F8FEF580731F4FD
:10201000B90180E090E00E94B80F3AC0439842981E
:1020200085B1952F93708C7F892B85B98BB1952FB6
:102030009C7F8370892B8BB94198419A85B1942FED
:1020400093708C7F892B85B98BB14C7F8370482B23
:102050004BB94198419A429A85B1932F93708C7FE6
:10206000892B85B98BB1932F9C7F8370892B8BB97A
:102070004198419A85B1922F93708C7F892B85B9B5
:102080009BB12C7F9370292B2BB94198419A439A8D
:1020900004501109ADCFDF91CF911F910F91089599
:1020A000BF92CF92DF92EF92FF920F931F93CF9345
:1020B000DF93CDB7DEB760970FB6F894DEBF0FBEE3
:1020C000CDBF8C017B018EEFC82EDD24DA941E1467
:1020D0001F0464F5F80184913196B4900E5F1F4F90
:1020E0008F3F29F0202FDE011196F80108C06B2DDB
:1020F00070E080E090E00E94B80FB12C11C09E2FDC
:10210000921B9B1520F494919D933196F8CF0B0D63
:10211000111DAE014F5F5F4F6B2D90E00E94FB09D8
:10212000C6018B199109E80EF91ED1CF60960FB642
:10213000F894DEBF0FBECDBFDF91CF911F910F91FD
:10214000FF90EF90DF90CF90BF9008951F920F9275
:102150000FB60F9211242F933F938F939F93AF93BA
:10216000BF938091790190917A01A0917B01B09108
:102170007C013091780123E0230F2D3720F4019664
:10218000A11DB11D05C026E8230F0296A11DB11D9A
:10219000209378018093790190937A01A0937B0139
:1021A000B0937C0180917D0190917E01A0917F018F
:1021B000B09180010196A11DB11D80937D01909386
:1021C0007E01A0937F01B0938001BF91AF919F9159
:1021D0008F913F912F910F900FBE0F901F901895E8
:1021E000CF92DF92EF92FF920F931F93CF93DF93E3
:1021F0006C017A018B01C0E0D0E0CE15DF0589F0DB
:10220000D8016D918D01D601ED91FC910190F08185
:10221000E02DC6010995892B11F47E0102C021969B
:10222000ECCFC701DF91CF911F910F91FF90EF90FD
:10223000DF90CF900895EAEBF1E0A089B18982E0C8
:102240008C93A485B5851C92A685B7858FEC8C935D
:10225000108EA489B58986E08C93A289B3898C916C
:1022600080618C93A289B3898C9188608C93A289B8
:10227000B3898C9180688C930288F389E02D8081EA
:102280008F7D808308950F931F93CF93DF9343989F
:10229000429825B1392F33702C7F232B25B92BB1D0
:1022A0009C7F2370922B9BB94198419A95B1282F1E
:1022B00023709C7F922B95B99BB18C7F9370892B57
:1022C0008BB94198419A84B18C7F84B98AB183706B
:1022D0008AB9429A0E94E209EC010E94E209AC012B
:1022E000409A439A84B1836084B98AB18C6F8AB969
:1022F000CE01A0E0B0E0DC019927882760E070E023
:102300008C019D01042B152B262B372BC901B801FD
:10231000DF91CF911F910F91089581E08093880202
:1023200084B1836084B98AB18C6F8AB9389A399A3A
:102330003A9A3B9A3C9A439A409A419A449A62E369
:1023400070E080E090E00E94B80F449864E670E08E
:1023500080E090E00E94B80F449A64E670E080E06C
:1023600090E00C94B80FCF93DF9300D0CDB7DEB7D9
:1023700020918802211106C089839A830E948D11C1
:102380009A8189814398429825B1392F33702C7FE7
:10239000232B25B92BB19C7F2370922B9BB941989D
:1023A000419A95B1282F23709C7F922B95B99BB1B0
:1023B0008C7F9370892B8BB94198419A84B18C7F23
:1023C00084B98AB183708AB9429A0E94E209409A1C
:1023D000439A24B1236024B92AB12C6F2AB90F90F3
:1023E0000F90DF91CF9108950F931F93CF93DF93B9
:1023F000EC0188819981009729F02A813B81261779
:10240000370788F48B016F5F7F4F0E94A7170097F3
:1024100061F0998388831B830A832C813D81232B60
:1024200011F4FC01108281E001C080E0DF91CF91C6
:102430001F910F910895CF93DF93EC0188819981CB
:10244000009711F00E940F17198218821D821C82BA
:102450001B821A82DF91CF9108956115710579F081
:10246000FB0101900020E9F73197AF01461B570BA4
:10247000DC01ED91FC910280F381E02D099480E074
:1024800090E00895CF93DF93CDB7DEB7A7970FB64F
:10249000F894DEBF0FBECDBF789484B5826084BD52
:1024A00084B5816084BD85B5826085BD85B5816058
:1024B00085BD80916E00816080936E0010928100D6
:1024C0008091810082608093810080918100816091
:1024D0008093810080918000816080938000809152
:1024E000B10084608093B1008091B00081608093DE
:1024F000B00080917A00846080937A0080917A00A5
:10250000826080937A0080917A00816080937A0063
:1025100080917A00806880937A001092C1001092B6
:10252000B6011092B7011092B8011092B901109241
:10253000840110928501109286011092870160ED4E
:1025400077E080E090E00E94B80F8AEB91E09093F2
:10255000B5018093B4010E941B110E94520F00919B
:102560008401109185012091860130918701DC0161
:10257000CB01801B910BA20BB30BC297A105B10538
:1025800038F463E070E080E090E00E94B80FE5CF9F
:102590000E94520F6093840170938501809386019D
:1025A0009093870160E371E08091B4019091B5014F
:1025B0000E942D126AE070E080E090E00E94B80F67
:1025C00081E0809388010E941B110E94520F6B01D1
:1025D0007C010E94520F1BA21AA21DA21CA21FA2C4
:1025E0001EA26C197D098E099F092AE08E010F5FDA
:1025F0001F4FA8010E948618F80101900020E9F7FA
:1026000031977F01E01AF10AB701CE0182960E944C
:10261000F411811105C0CE0182960E941B1207C0E1
:10262000FFA2EEA2B8018AA19BA10E947F181A8284
:1026300019821C821B821E821D826CE070E0C80120
:102640000E94F411811104C0C8010E941B120AC02B
:102650008CE090E09E838D8362E471E089819A81B1
:102660000E947F188EA19FA1CAA0DBA0ED80FE80F2
:10267000E80EF91EC114D10409F4DFC2892B91F0D0
:10268000B701C8010E94F411882309F4D6C2298138
:102690003A818D819E81B601820F931F0E947F181F
:1026A000FE82ED82ED80FE802BE0E20EF11CB70190
:1026B000C8010E94F411882309F4C3C229813A8118
:1026C0008D819E816FE471E0820F931F0E947F18BD
:1026D000FE82ED824D815E8169817A818AEB91E093
:1026E0000E94F0106FE371E08AEB91E00E942D12DE
:1026F00089819A810E940F178AA19BA10E940F17BE
:1027000080E090E00E94B311883024E59207E1F167
:1027100089389105E1F189389948C9F187E690E057
:102720000E94B31187349744A9F181EA90E00E9496
:1027300043116130714689F18FEB90E00E944311A3
:102740006439744069F18FEE90E00E94431163395F
:10275000744049F184E090E00E944311623575486D
:1027600029F183ED90E00E9443112DE6270F2230DE
:1027700000F1633D7105F9F0633D734DF9F080E0C0
:1027800090E00E94B3111CC088E094E519C089E86C
:1027900092E116C087E493E813C083E699E110C084
:1027A00081E894E90DC087E293E90AC089E897E7D8
:1027B00007C0CB0105C083ED90E002C083ED93ED2F
:1027C00090938201809381016BE571E08AEB91E047
:1027D0000E942D128091810190918201A0E0B0E0D1
:1027E00019A2FE01B196AC01BD014F7055276627B5
:1027F000772714E0B695A795979587951A95D1F701
:1028000031974A3051056105710510F4405D01C0F2
:10281000495C40830097A105B10529F7BF018AEB08
:1028200091E00E942D126FE371E08AEB91E00E942B
:102830002D128091810190918201833D910519F0C3
:10284000833D934D31F481E894E990938201809324
:1028500081018091810190918201019631F481E49E
:1028600093E99093820180938101009181011091FD
:1028700082010E948D11109285021092840201152E
:10288000110511F401E413E910936F0200936E0235
:10289000073283E9180709F4D2C008F046C00930AE
:1028A00088E6180709F4BDC008F5093882E1180761
:1028B00009F489C078F40435114009F031C182E08F
:1028C00090E1909387028093860264E870E088EA42
:1028D0009CE083C0053325E4120709F481C0083069
:1028E000144509F01DC184E091E192C0093827E741
:1028F000120709F480C078F40338174709F010C1B3
:1029000082E091E1909387028093860260EA70E012
:1029100088EC9AE062C0003283E9180709F476C0B7
:102920000532134909F47DC0FBC0063884E9180755
:1029300009F4C0C048F5053383E9180709F474C0E9
:1029400078F40932134909F0EBC083E094E09093E6
:1029500087028093860264E170E083E598E088C096
:10296000013423E9120709F486C00138144909F03B
:10297000D7C087E094E0909387028093860268E452
:1029800070E089E697E0A0C0053025EB120709F456
:10299000AAC078F40838144909F0C2C083E194E071
:1029A000909387028093860267E370E083EE96E05F
:1029B0008BC0093085EB180709F4A0C00530154C11
:1029C00009F491C0ADC080E290E1909387028093BA
:1029D000860264EA70E084E09CE00E94F20FA0C0EE
:1029E00080E090E190938702809386026CE970E02A
:1029F00088E69BE0F2CF83E194E090938702809396
:102A000086026DE570E08BE69AE032C084E090E1EA
:102A1000909387028093860268EE70E083E899E0E5
:102A2000DCCF80E091E102C080E090E190938702EA
:102A3000809386026CED70E087EA98E0CECF83E069
:102A400094E0909387028093860260E470E087E6CA
:102A500098E00E94501080E991E090935E0280938C
:102A60005D0280EF90E03AC061E770E081EB97E0B3
:102A70000E94501055C083E194E0909387028093A8
:102A8000860283ED90E00E944311672B682B692B2F
:102A900059F761E370E082E298E00E945010809163
:102AA0008602909187028460906190938702809360
:102AB000860236C083E094E1909387028093860279
:102AC0006FE470E08AE197E00E94501080EE91E0A0
:102AD00090935E0280935D0280E491E090935C02AB
:102AE00080935B021DC088E090E190938702809301
:102AF000860260EC70E083E296E06FCF80E090E1C8
:102B0000909387028093860260EC70E083E695E004
:102B10000E94F20F80E991E090935E0280935D0243
:102B200020918702822F82958F7090E08170992783
:102B3000909371028093700260E087E592E00E94BA
:102B4000FF0B60E087E592E00E942F0A92E0692E79
:102B5000712C2AE0C22ED12CAA24A3943EE1832E0C
:102B6000912C4AE0B42E60E087E592E00E94FF0BD2
:102B700060E070E087E592E00E949D090E942D0FC1
:102B800080EEE82E87E0F82E08E710E02CE830E031
:102B900040E050E060E070E087E592E00E94F80AD3
:102BA0007092640260926302D0926602C0926502E3
:102BB00010926A02109269021092680210926702E3
:102BC000A0926B0263E671E087E592E00E942D120D
:102BD0006FE371E087E592E00E942D12D0926402CB
:102BE000C0926302909266028092650210926A021D
:102BF000109269021092680210926702B0926B0202
:102C000064E771E087E592E00E942D126FE371E0C6
:102C100087E592E00E942D1260E27EE480E090E081
:102C20000E94B80F0E942D0F60ED77E080E090E0E9
:102C30000E94B80F0E94230F96CFC8010E941B125A
:102C400031CDC8010E941B1245CDEAEBF1E01382A1
:102C5000128288EE93E0A0E0B0E084839583A6839F
:102C6000B7838AE091E09183808385EC90E095873B
:102C7000848784EC90E09787868780EC90E0918B46
:102C8000808B81EC90E0938B828B82EC90E0958B33
:102C9000848B86EC90E0978B868B118E128E138E30
:102CA000148EE7E5F2E01382128220EF30E03583E4
:102CB000248380E491E097838683318720879387FC
:102CC0008287158A158614861786168681E0848B7E
:102CD0002FEF3FEF338B228B318B208B868B8AE15A
:102CE00091E0918380830895EE0FFF1F0590F4918A
:102CF000E02D0994CF93DF938230910510F482E0A8
:102D000090E0E0918B02F0918C0220E030E0C0E096
:102D1000D0E0309711F14081518148175907C0F038
:102D20004817590761F482819381209719F09B839A
:102D30008A832BC090938C0280938B0226C021152E
:102D4000310519F04217530718F49A01BE01DF014B
:102D5000EF010280F381E02DDCCF2115310509F16F
:102D6000281B390B2430310590F412968D919C91DB
:102D700013976115710521F0FB019383828304C0D1
:102D800090938C0280938B02FD01329644C0FD012A
:102D9000E20FF31F81939193225031092D933C93BD
:102DA0003AC02091890230918A02232B41F420916C
:102DB00002013091030130938A022093890220910D
:102DC0000001309101012115310541F42DB73EB7C5
:102DD0004091040150910501241B350BE0918902BB
:102DE000F0918A02E217F307A0F42E1B3F0B28177D
:102DF000390778F0AC014E5F5F4F2417350748F074
:102E00004E0F5F1F50938A024093890281939193E2
:102E100002C0E0E0F0E0CF01DF91CF9108950F9381
:102E20001F93CF93DF93009709F48CC0FC01329776
:102E30001382128200918B0210918C0201151105F0
:102E400081F420813181820F931F2091890230917A
:102E50008A022817390779F5F0938A02E0938902EC
:102E600071C0D80140E050E0AE17BF0750F4129691
:102E70002D913C911397AD012115310509F1D9012F
:102E8000F3CF9D01DA013383228360817181860F44
:102E9000971F8217930769F4EC0128813981260F67
:102EA000371F2E5F3F4F318320838A819B8193831D
:102EB0008283452B29F4F0938C02E0938B0242C06D
:102EC0001396FC93EE931297ED01499159919E014F
:102ED000240F351FE217F30771F480819181840F6D
:102EE000951F029611969C938E93828193811396DF
:102EF0009C938E931297E0E0F0E0D80112968D91AA
:102F00009C911397009719F0F8018C01F6CF8D91E1
:102F10009C9198012E5F3F4F820F931F2091890251
:102F200030918A022817390769F4309729F41092F2
:102F30008C0210928B0202C01382128210938A02BA
:102F400000938902DF91CF911F910F910895A0E026
:102F5000B0E0EDEAF7E10C94BC18EC01009721F425
:102F6000CB010E947A16B8C0FC01E60FF71F9C0146
:102F700022503109E217F30708F4ACC0D9010D91D2
:102F80001C91119706171707B0F00530110508F4CA
:102F90009FC0C80104978617970708F499C002508C
:102FA0001109061B170B019311936D937C93CF01AD
:102FB0000E940F178DC05B01A01AB10A4C01800E50
:102FC000911EA0918B02B0918C0240E050E0E12C68
:102FD000F12C109709F44AC0A815B905D1F56D90E8
:102FE0007C901197630182E0C80ED11CCA14DB04E7
:102FF00080F1A3014A195B096A0182E0C80ED11C65
:103000001296BC9012971396AC91B5E0CB16D104F2
:1030100040F0B282A38351834083D9016D937C93A6
:103020000AC00E5F1F4FC301800F911FF9019183EA
:103030008083EB2DFA2FE114F10431F0D7011396C0
:10304000FC93EE93129744C0F0938C02E0938B02B2
:103050003FC08D919C9111974817590708F4AC0116
:103060007D0112960D90BC91A02DB3CF8091890265
:1030700090918A0288159905E1F446175707C8F41C
:103080008091000190910101009741F48DB79EB7A6
:103090004091040150910501841B950BE817F90735
:1030A000C8F4F0938A02E0938902F9017183608386
:1030B0000FC0CB010E947A167C01009759F0A8013D
:1030C000BE010E947618CE010E940F17C70104C0EE
:1030D000CE0102C080E090E0CDB7DEB7EEE00C9408
:1030E000D81881E090E0F8940C94EF18FB01DC0113
:1030F00002C001900D9241505040D8F70895FB0155
:10310000DC0101900D920020E1F70895BB27FA0140
:10311000A62F6217710581059105330B30FB66F010
:10312000AA27660F771F881F991FAA1FA21710F0E2
:10313000A21B63953850A9F7A05DAA3308F0A95DDA
:10314000A19336F7B111B1931082CA010C94A8185B
:10315000DC01FC01672F71917723E1F7329704C0FE
:103160007C916D9370836291AE17BF07C8F3089589
:103170002F923F924F925F926F927F928F929F9287
:10318000AF92BF92CF92DF92EF92FF920F931F9375
:10319000CF93DF93CDB7DEB7CA1BDB0B0FB6F89426
:1031A000DEBF0FBECDBF09942A88398848885F8466
:1031B0006E847D848C849B84AA84B984C884DF80D7
:1031C000EE80FD800C811B81AA81B981CE0FD11DBB
:1031D0000FB6F894DEBF0FBECDBFED010895F89491
:0231E000FFCF1F
:1031E20000008D02800000000000BA0EF010830E75
:1031F200610E750E010F00000000FB06F010A20B1D
:10320200F308CE09BB09A408F80A9D092F0AFF0B8F
:10321200564D4450565F317C315F564D4450560DE9
:103222000A0053657269616C20746F6F6B20006DC8
:103232007320746F207374617274004944203D20BE
:1032420030780043757272656E742054656D70201B
:0832520069733A0032380000F4
:00000001FF
