:100000000C9435000C945D000C945D000C945D0024
:100010000C945D000C945D000C945D000C945D00EC
:100020000C945D000C945D000C945D000C945D00DC
:100030000C945D000C945D000C945D000C945D00CC
:100040000C9403030C945D000C94D1020C94AB024D
:100050000C945D000C945D000C945D000C945D00AC
:100060000C945D000C945D00C50411241FBECFEFFD
:10007000D8E0DEBFCDBF11E0A0E0B1E0E4ECFEE0EF
:1000800002C005900D92AC34B107D9F722E0ACE480
:10009000B1E001C01D92A233B207E1F710E0C5E361
:1000A000D0E004C02197FE010E94F204C433D107BE
:1000B000C9F70E944D030C9460070C940000CF9286
:1000C000DF92EF92FF920F931F93CF93DF936C0118
:1000D0007A018B01C0E0D0E0CE15DF0589F0D801B0
:1000E0006D918D01D601ED91FC910190F081E02D93
:1000F000C6010995892B11F47E0102C02196ECCF2F
:10010000C701DF91CF911F910F91FF90EF90DF908A
:10011000CF900895CF93DF93FC0144815581608196
:10012000718185E591E00E945F00EC0142E050E0C2
:1001300066E171E085E591E00E945F008C0F9D1FF4
:10014000DF91CF910895FC01918D828D981761F018
:10015000828DDF01A80FB11D5D968C91928D9F5FFE
:100160009F73928F90E008958FEF9FEF0895FC01A9
:10017000918D828D981731F0828DE80FF11D858D5C
:1001800090E008958FEF9FEF0895FC01918D228DEF
:10019000892F90E0805C9F4F821B91098F73992774
:1001A000089585E591E00E94C50021E0892B09F4BE
:1001B00020E0822F0895FC01848DDF01A80FB11D7E
:1001C000A35ABF4F2C91848D90E001968F7399278D
:1001D000848FA689B7892C93A089B1898C9180647A
:1001E0008C93938D848D981306C00288F389E02D3B
:1001F00080818F7D80830895EF92FF920F931F93EC
:10020000CF93DF93EC0181E0888F9B8D8C8D9813C9
:1002100005C0E889F989808185FD24C0F62E0B8D03
:1002200010E00F5F1F4F0F731127E02E8C8DE81227
:100230000CC00FB607FCFACFE889F989808185FFE9
:10024000F5CFCE010E94DB00F1CF8B8DFE01E80FD0
:10025000F11DE35AFF4FF0820B8FEA89FB89808101
:10026000806207C0EE89FF896083E889F98980810F
:100270008064808381E090E0DF91CF911F910F91A6
:10028000FF90EF900895CF93DF93EC01888D882342
:10029000C9F0EA89FB89808185FD05C0A889B989F3
:1002A0008C9186FD0FC00FB607FCF5CF808185FFCE
:1002B000F2CFA889B9898C9185FFEDCFCE010E943C
:1002C000DB00E7CFDF91CF91089580E090E0892BAC
:1002D00029F00E94D10081110C94000008953FB7CD
:1002E000F8948091510190915201A0915301B091E5
:1002F000540126B5A89B05C02F3F19F00196A11DFA
:10030000B11D3FBFBA2FA92F982F8827820F911DAB
:10031000A11DB11DBC01CD0142E0660F771F881FF2
:10032000991F4A95D1F708950F931F93CF93DF93A9
:10033000C0E1D2E08C0100511240C8018C0F9D1F1A
:100340000E941307899382E0CE32D807B1F780E18B
:1003500092E0DF91CF911F910F910895CF92DF929C
:10036000EF92FF920F931F93CF93DF931F92CDB71E
:10037000DEB76C0102EF11E07C018EE1E80EF11CAA
:10038000F80161918F01C60169830E941307698199
:10039000681719F0C6010E941B07FFEFCF1ADF0A8A
:1003A000CE14DF0469F782EF91E00F90DF91CF91D7
:1003B0001F910F91FF90EF90DF90CF9008950F93D2
:1003C0001F93CF93DF93FC01C481D581209719F44B
:1003D000FB01108210C0C930D10510F0C9E0D0E097
:1003E0008B01FC0160817181AE01C8010E9404078C
:1003F000C00FD11F1882DF91CF911F910F910895E7
:100400000E94EF06FC01808191810C948D050F9371
:100410001F93CF93DF93EC0188819981009729F096
:100420002A813B812617370788F48B016F5F7F4F46
:100430000E942506009761F0998388831B830A83B5
:100440002C813D81232B11F4FC01108281E001C03D
:1004500080E0DF91CF911F910F910895EF92FF926D
:100460000F931F93CF93DF93EC017B01611571050F
:10047000F1F0FB0101900020E9F73197E61BF70B43
:100480000C811D813097F9F00E0F1F1FB8010E94DB
:100490000702882361F0288139818C819D81B70111
:1004A000820F931F0E94FD061D830C830CC0888160
:1004B0009981009711F00E948D05198218821D8282
:1004C0001C821B821A82CE01DF91CF911F910F9166
:1004D000FF90EF900895EF92FF920F931F93CF93A9
:1004E000DF93EC017B018A01BA010E940702288197
:1004F000398181110DC02115310519F0C9010E9402
:100500008D05198218821D821C821B821A8206C0E8
:100510001D830C83B701C9010E94FD06CE01DF9146
:10052000CF911F910F91FF90EF900895FC011182E0
:10053000108213821282158214826115710551F0A6
:10054000FB0101900020E9F73197AF01461B570BE3
:100550000C946B0208951F920F920FB60F92112404
:100560002F933F934F935F936F937F938F939F93BB
:10057000AF93BF93EF93FF9385E591E00E94DB007B
:10058000FF91EF91BF91AF919F918F917F916F916B
:100590005F914F913F912F910F900FBE0F901F9041
:1005A00018951F920F920FB60F9211242F938F93CD
:1005B0009F93EF93FF93E0916501F0916601808135
:1005C000E0916B01F0916C0182FD12C090818091ED
:1005D0006E018F5F8F7320916F01821751F0E09150
:1005E0006E01F0E0EB5AFE4F958F80936E0101C0D3
:1005F0008081FF91EF919F918F912F910F900FBE6E
:100600000F901F9018951F920F920FB60F92112402
:100610002F933F938F939F93AF93BF9380914D01FF
:1006200090914E01A0914F01B091500130914C0139
:1006300023E0230F2D3720F40196A11DB11D05C025
:1006400026E8230F0296A11DB11D20934C01809333
:100650004D0190934E01A0934F01B09350018091B2
:10066000510190915201A0915301B0915401019612
:10067000A11DB11D8093510190935201A09353018C
:10068000B0935401BF91AF919F918F913F912F9162
:100690000F900FBE0F901F901895CF93DF93CDB79B
:1006A000DEB762970FB6F894DEBF0FBECDBF789469
:1006B00084B5826084BD84B5816084BD85B5826067
:1006C00085BD85B5816085BD80916E008160809318
:1006D0006E00109281008091810082608093810081
:1006E0008091810081608093810080918000816091
:1006F000809380008091B10084608093B1008091EC
:10070000B00081608093B00080917A008460809313
:100710007A0080917A00826080937A0080917A00DA
:10072000816080937A0080917A00806880937A005B
:100730001092C100E0916501F091660182E0808332
:10074000E0916101F09162011082E0916301F0910A
:1007500064018FEC808310926D01E0916901F0914A
:100760006A0186E08083E0916701F09168018081F1
:1007700080618083E0916701F091680180818860E9
:100780008083E0916701F0916801808180688083B7
:10079000E0916701F091680180818F7D808369E13C
:1007A00071E0CE010D960E9496026DE171E0CE01DE
:1007B00007960E94960267E271E0CE0101960E94C0
:1007C000960262EF71E0CE010D960E94DF018CEF80
:1007D00091E0009729F0BC01CE0107960E94DF014D
:1007E00086E092E0009729F0BC01CE0101960E94BC
:1007F000DF0180E090E00E94AE0149E050E062E35A
:1008000071E0CE0101960E946B0262EF71E0CE01B1
:100810000D960E94DF018CEF91E0009729F0BC015A
:10082000CE0107960E94DF0186E092E0009729F052
:10083000BC01CE0101960E94DF018FE190E00E9491
:10084000AE01CE0101960E940202CE0107960E94DF
:100850000202CE010D960E94020280E090E00E940A
:10086000940160E172E0CE0107960E9496021A821E
:1008700019821C821B821E821D826F817885611500
:10088000710531F04B855C85CE0101960E946B02AB
:100890006CE371E0CE0101960E942E026AE172E0E3
:1008A0000E942E0264E471E00E942E0264E272E073
:1008B0000E942E020E948A00CE0101960E9402022E
:1008C000CE0107960E9402028FE190E00E949401FF
:1008D00060E172E0CE0107960E9496021A821982A8
:1008E0001C821B821E821D826F81788561157105B5
:1008F00031F04B855C85CE0101960E946B026CE362
:1009000071E0CE0101960E942E026AE172E00E941F
:100910002E0264E471E00E942E0264E272E00E9402
:100920002E020E948A00CE0101960E940202CE0190
:1009300007960E9402020E946F014B015C0180E356
:10094000C82E85E7D82EE12CF12C0E946F01DC0126
:10095000CB0188199909AA09BB09883E9340A105D2
:10096000B10558F021E0C21AD108E108F10888EE7B
:10097000880E83E0981EA11CB11CC114D104E104AF
:10098000F10419F70E94650168CFE5E5F1E01382F3
:10099000128288EE93E0A0E0B0E084839583A68382
:1009A000B7838AE091E09183808385EC90E095871E
:1009B000848784EC90E09787868780EC90E0918B29
:1009C000808B81EC90E0938B828B82EC90E0958B16
:1009D000848B86EC90E0978B868B118E128E138E13
:1009E000148E0895EE0FFF1F0590F491E02D0994E9
:1009F000CF93DF938230910510F482E090E0E09194
:100A00003002F091310220E030E0C0E0D0E03097D9
:100A100011F14081518148175907C0F04817590713
:100A200061F482819381209719F09B838A832BC084
:100A3000909331028093300226C02115310519F0C0
:100A40004217530718F49A01BE01DF01EF0102803B
:100A5000F381E02DDCCF2115310509F1281B390B7D
:100A60002430310590F412968D919C911397611565
:100A7000710521F0FB019383828304C090933102BE
:100A800080933002FD01329644C0FD01E20FF31F56
:100A900081939193225031092D933C933AC0209138
:100AA0002E0230912F02232B41F42091020130912C
:100AB000030130932F0220932E02209100013091E8
:100AC00001012115310541F42DB73EB740910401D4
:100AD00050910501241B350BE0912E02F0912F025D
:100AE000E217F307A0F42E1B3F0B2817390778F005
:100AF000AC014E5F5F4F2417350748F04E0F5F1F64
:100B000050932F0240932E028193919302C0E0E014
:100B1000F0E0CF01DF91CF9108950F931F93CF9312
:100B2000DF93009709F48CC0FC0132971382128284
:100B300000913002109131020115110581F42081DC
:100B40003181820F931F20912E0230912F0228179E
:100B5000390779F5F0932F02E0932E0271C0D80186
:100B600040E050E0AE17BF0750F412962D913C9133
:100B70001397AD012115310509F1D901F3CF9D017D
:100B8000DA013383228360817181860F971F821778
:100B9000930769F4EC0128813981260F371F2E5FF6
:100BA0003F4F318320838A819B8193838283452BAE
:100BB00029F4F0933102E093300242C01396FC9383
:100BC000EE931297ED01499159919E01240F351F23
:100BD000E217F30771F480819181840F951F0296CB
:100BE00011969C938E938281938113969C938E93FE
:100BF0001297E0E0F0E0D80112968D919C91139746
:100C0000009719F0F8018C01F6CF8D919C91980115
:100C10002E5F3F4F820F931F20912E0230912F02A3
:100C20002817390769F4309729F41092310210928D
:100C3000300202C01382128210932F0200932E0200
:100C4000DF91CF911F910F910895A0E0B0E0EBE20A
:100C5000F6E00C942D07EC01009721F4CB010E94E3
:100C6000F804B8C0FC01E60FF71F9C0122503109BF
:100C7000E217F30708F4ACC0D9010D911C9111974C
:100C800006171707B0F00530110508F49FC0C8011A
:100C900004978617970708F499C002501109061B9C
:100CA000170B019311936D937C93CF010E948D05D7
:100CB0008DC05B01A01AB10A4C01800E911EA0915B
:100CC0003002B091310240E050E0E12CF12C10975D
:100CD00009F44AC0A815B905D1F56D907C9011971B
:100CE000630182E0C80ED11CCA14DB0480F1A301A9
:100CF0004A195B096A0182E0C80ED11C1296BC90A9
:100D000012971396AC91B5E0CB16D10440F0B282A5
:100D1000A38351834083D9016D937C930AC00E5FF6
:100D20001F4FC301800F911FF90191838083EB2D29
:100D3000FA2FE114F10431F0D7011396FC93EE93EE
:100D4000129744C0F0933102E09330023FC08D917E
:100D50009C9111974817590708F4AC017D01129630
:100D60000D90BC91A02DB3CF80912E0290912F02B7
:100D700088159905E1F446175707C8F480910001DA
:100D800090910101009741F48DB79EB74091040105
:100D900050910501841B950BE817F907C8F4F093EF
:100DA0002F02E0932E02F901718360830FC0CB0103
:100DB0000E94F8047C01009759F0A801BE010E942E
:100DC000F406CE010E948D05C70104C0CE0102C009
:100DD00080E090E0CDB7DEB7EEE00C94490781E00B
:100DE00090E0F8940C946007FB01DC0102C00190D4
:100DF0000D9241505040D8F70895FB01DC0101905D
:100E00000D920020E1F70895FB01DC0141505040B4
:100E100048F001900D920020C9F701C01D92415089
:100E20005040E0F70895F999FECF92BD81BDF89A40
:100E3000992780B50895262FF999FECF1FBA92BD44
:100E400081BD20BD0FB6F894FA9AF99A0FBE0196AB
:100E500008952F923F924F925F926F927F928F925E
:100E60009F92AF92BF92CF92DF92EF92FF920F9339
:100E70001F93CF93DF93CDB7DEB7CA1BDB0B0FB643
:100E8000F894DEBF0FBECDBF09942A883988488800
:100E90005F846E847D848C849B84AA84B984C88496
:100EA000DF80EE80FD800C811B81AA81B981CE0F8D
:100EB000D11D0FB6F894DEBF0FBECDBFED01089572
:040EC000F894FFCFD4
:100EC40000003202800000000000FC005F00C5004A
:100ED400A300B70043010D0A00616C6900796F75C6
:100EE40073656669616E00393133373236363235AF
:100EF40032003132333435363738390066616D6942
:0C0F04006C793D0070686F6E653D000068
:00000001FF
