:100000000C946A000C9492000C9492000C94920050
:100010000C9492000C9492000C9492000C942B037C
:100020000C9492000C9492000C9492000C94920008
:100030000C9492000C9492000C9492000C949200F8
:100040000C94E1020C9492000C94D4010C94AE0137
:100050000C9492000C9492000C9492000C949200D8
:100060000C9492000C949200BA07BC07BE07C0071C
:10007000C207C407C607C807000000002400270005
:100080002A0000000000250028002B0000000000CE
:1000900023002600290004040404040404040202CA
:1000A00002020202030303030303010204081020F7
:1000B0004080010204081020010204081020000002
:1000C0000008000201000003040700000000000017
:1000D0000000A10F11241FBECFEFD8E0DEBFCDBFBF
:1000E00011E0A0E0B1E0E0E5FAE202C005900D9277
:1000F000A835B107D9F722E0A8E5B1E001C01D920B
:10010000AE3EB207E1F710E0CAE6D0E004C02197A6
:10011000FE010E94E30FC936D107C9F70E94A70666
:100120000C9426150C940000FC01918D828D98177B
:1001300061F0828DDF01A80FB11D5D968C91928DCB
:100140009F5F9F73928F90E008958FEF9FEF0895C8
:10015000FC01918D828D981731F0828DE80FF11D91
:10016000858D90E008958FEF9FEF0895FC01918DAC
:10017000228D892F90E0805C9F4F821B91098F73A5
:10018000992708958AE791E00E94B60021E0892B23
:1001900009F420E0822F0895FC01848DDF01A80F6F
:1001A000B11DA35ABF4F2C91848D90E001968F739F
:1001B0009927848FA689B7892C93A089B1898C91BE
:1001C00080648C93938D848D981306C00288F38984
:1001D000E02D80818F7D80830895EF92FF920F93B1
:1001E0001F93CF93DF93EC0181E0888F9B8D8C8DE3
:1001F000981305C0E889F989808185FD24C0F62E11
:100200000B8D10E00F5F1F4F0F731127E02E8C8DA9
:10021000E8120CC00FB607FCFACFE889F989808193
:1002200085FFF5CFCE010E94CC00F1CF8B8DFE0172
:10023000E80FF11DE35AFF4FF0820B8FEA89FB892B
:100240008081806207C0EE89FF896083E889F9892F
:1002500080818064808381E090E0DF91CF911F9165
:100260000F91FF90EF900895CF93DF93EC01888D6D
:100270008823C9F0EA89FB89808185FD05C0A889AA
:10028000B9898C9186FD0FC00FB607FCF5CF808130
:1002900085FFF2CFA889B9898C9185FFEDCFCE017A
:1002A0000E94CC00E7CFDF91CF91089580E090E0ED
:1002B000892B29F00E94C20081110C94000008953E
:1002C000833081F028F4813099F08230A1F00895D4
:1002D0008730A9F08830B9F08430D1F48091800063
:1002E0008F7D03C0809180008F7780938000089578
:1002F00084B58F7702C084B58F7D84BD08958091C9
:10030000B0008F7703C08091B0008F7D8093B000E4
:1003100008953FB7F8948091660190916701A0918C
:100320006801B091690126B5A89B05C02F3F19F05F
:100330000196A11DB11D3FBFBA2FA92F982F882765
:10034000820F911DA11DB11DBC01CD0142E0660FC0
:10035000771F881F991F4A95D1F708951F920F9212
:100360000FB60F9211242F933F934F935F936F9388
:100370007F938F939F93AF93BF93EF93FF938AE7FE
:1003800091E00E94CC00FF91EF91BF91AF919F91BE
:100390008F917F916F915F914F913F912F910F902E
:1003A0000FBE0F901F9018951F920F920FB60F92CD
:1003B00011242F938F939F93EF93FF93E0918A01E2
:1003C000F0918B018081E0919001F091910182FD8B
:1003D00012C09081809193018F5F8F73209194015F
:1003E000821751F0E0919301F0E0E658FE4F958FAF
:1003F0008093930101C08081FF91EF919F918F9134
:100400002F910F900FBE0F901F901895CF93DF93F1
:10041000282F30E0F901E254FF4F8491F901E655AD
:10042000FF4FD491F901EA56FF4FC491CC2391F0CC
:1004300081110E946001EC2FF0E0EE0FFF1FE457E6
:10044000FF4FA591B491EC91ED2381E090E021F470
:1004500080E002C080E090E0DF91CF9108951F938B
:10046000CF93DF93282F30E0F901E254FF4F8491BE
:10047000F901E655FF4FD491F901EA56FF4FC491B7
:10048000CC23C9F0162F81110E946001EC2FF0E0FF
:10049000EE0FFF1FEE57FF4FA591B4918FB7F89461
:1004A000111105C09C91ED2FE095E92302C0EC915C
:1004B000ED2BEC938FBFDF91CF911F910895CF93D8
:1004C000DF9390E0FC01E655FF4F2491FC01EA56D2
:1004D000FF4F8491882361F190E0880F991FFC0100
:1004E000E858FF4FC591D491FC01EE57FF4FA591FD
:1004F000B491611109C09FB7F89488812095822337
:100500008883EC912E230BC0623061F49FB7F8947E
:100510003881822F809583238883EC912E2B2C9316
:100520009FBF06C08FB7F894E8812E2B28838FBF1A
:10053000DF91CF9108958F929F92AF92BF92CF9209
:10054000DF92EF92FF926B017C010E9489014B01C7
:100550005C01C114D104E104F104F1F00E948901AD
:10056000DC01CB0188199909AA09BB09883E93408F
:10057000A105B10570F321E0C21AD108E108F10824
:1005800088EE880E83E0981EA11CB11CC114D10412
:10059000E104F10419F7DDCFFF90EF90DF90CF90E9
:1005A000BF90AF909F908F9008952FB7F89460916F
:1005B00062017091630180916401909165012FBF88
:1005C00008951F920F920FB60F9211242F933F930D
:1005D0008F939F93AF93BF9380916201909163013A
:1005E000A0916401B09165013091610123E0230F76
:1005F0002D3720F40196A11DB11D05C026E8230F5B
:100600000296A11DB11D2093610180936201909318
:100610006301A0936401B09365018091660190919C
:100620006701A0916801B09169010196A11DB11DFA
:100630008093660190936701A0936801B09369016C
:10064000BF91AF919F918F913F912F910F900FBECE
:100650000F901F9018951F920F920FB60F921124B2
:100660002F933F934F935F936F937F938F939F93BA
:10067000AF93BF93EF93FF93809118020E940602FD
:1006800020911C0230911D022F5F3F4F30931D02BD
:1006900020931C0290911B02953618F096E09093DF
:1006A0001702909117029430C9F128F4923069F042
:1006B0009330D1F05EC0953009F451C0963009F006
:1006C00058C091E09093E80251C0811152C020912E
:1006D0001C0230911D022436310508F442C01092EC
:1006E000E80210921B021CC0813009F042C0E09168
:1006F0001B0291E09E0F90931B02F0E020911C02E0
:1007000030911D02EE0FFF1FE95EFD4F30872783FA
:1007100010921D0210921C0294E029C0811117C092
:10072000E0911B0291E09E0F90931B02F0E020915C
:100730001C0230911D02EE0FFF1FE95EFD4F308756
:10074000278310921D0210921C0293E010C020918A
:100750001C0230911D022536310558F007C0811169
:1007600008C010921D0210921C0203C095E09093E5
:10077000170290911A029923B9F081110AC0809151
:100780001902882321F08091190261E009C02D9A95
:100790000BC080911902882331F08091190260E02A
:1007A0000E942F0201C02D98FF91EF91BF91AF9150
:1007B0009F918F917F916F915F914F913F912F9179
:1007C0000F900FBE0F901F901895CF92DF92EF926F
:1007D000FF92CF93DF93EC01072E000C880B990B4F
:1007E0000E94B8136B017C0120E030E040E45FE33D
:1007F0000E94171420E030E048E452E40E948D107B
:100800000E94FF10C617D707D4F020E030E040EA7E
:100810005FE3C701B6010E94171420E030E048E40E
:1008200052E40E948D1020E030E040E85FE30E9437
:1008300021100E94FF1021E06C177D070CF420E0CE
:10084000822F90E0DF91CF91FF90EF90DF90CF90DB
:1008500008950F931F93CF93DF9300D000D000D063
:10086000CDB7DEB70E94D502009158011091590111
:1008700020915A0130915B01DC01CB01801B910B6F
:10088000A20BB30B80329E44A105B10530F09091CC
:100890005C0180910001891720F4012B022B032BAE
:1008A00051F410925C01109258011092590110926B
:1008B0005A0110925B014AE060915C01CE01019601
:1008C0000E943F06CE0101960E945305CE0101967B
:1008D0000E943A0690915C0180910001981758F1AE
:1008E0008091580190915901A0915A01B0915B01FA
:1008F000892B8A2B8B2BF9F083E591E00E9445052B
:100900004AE060915C01CE0101960E943F06CE0153
:1009100001960E945305CE0101960E943A0610925C
:100920005C01109258011092590110925A011092D4
:100930005B0181E001C080E026960FB6F894DEBF2F
:100940000FBECDBFDF91CF911F910F9108950F93EF
:100950001F93CF93DF9386E00E9406028C0187E00D
:100960000E940602EC0188E00E940602000F111F9F
:10097000C00FD11FCC0FDD1FC80FD91F88EE93E029
:100980009C01C29FC001C39F900DD29F900D112466
:10099000DF91CF911F910F910895CF92DF92EF9247
:1009A000FF920F931F93CF93DF936C017A018B011A
:1009B000C0E0D0E0CE15DF0589F0D8016D918D0142
:1009C000D601ED91FC910190F081E02DC6010995D1
:1009D000892B11F47E0102C02196ECCFC701DF9173
:1009E000CF911F910F91FF90EF90DF90CF900895DE
:1009F0000E9431130F931F93CF93DF93EC018881F3
:100A00009981009729F02A813B812617370788F4BE
:100A10008B016F5F7F4F0E946712009761F099838F
:100A200088831B830A832C813D81232B11F4FC01D5
:100A3000108281E001C080E0DF91CF911F910F9182
:100A40000895CF93DF93EC0188819981009711F08D
:100A50000E94CF11198218821D821C821B821A8269
:100A6000DF91CF910895009769F0FC01019000207B
:100A7000E9F73197AF01481B590BBC018AE791E0B8
:100A80000C94CD0480E090E00895CF93DF930E9412
:100A90003305EC018DE191E00E9433058C0F9D1F21
:100AA000DF91CF910895CF93DF93FC01448155816D
:100AB000608171818AE791E00E94CD04EC018DE1B3
:100AC00091E00E9433058C0F9D1FDF91CF91089517
:100AD0008F929F92AF92BF92CF92DF92EF92FF924E
:100AE0000F931F93CF93DF93FC01C081D18120919D
:100AF000760130917701C217D3070CF04BC09E01ED
:100B0000220F331FE0917401F0917501E20FF31F82
:100B100080809180C170DD27F1E0CF27209719F404
:100B200004E610E002C00CE91FEF7A015B016C01E2
:100B3000040F151FB801C4010E94E503892B99F425
:100B40000E0D1F1DB801C4010E94E503892B71F42D
:100B5000B8016E0D7F1DC4010E94E503892BE9F0E9
:100B600023E030E005C021E030E002C022E030E0C8
:100B7000F501808191810196821793073CF0F50180
:100B800011821082F6018081918101969183808388
:100B9000CE0105C081E090E002C08FEF9FEFDF91B2
:100BA000CF911F910F91FF90EF90DF90CF90BF906A
:100BB000AF909F908F900895EF92FF920F931F93A5
:100BC000CF93DF93EC01FB0184819581E080F1807C
:100BD0000C811D81E114F104B1F00097B9F0080F08
:100BE000191FB801CE010E94FA04882361F0288100
:100BF00039818C819D81B701820F931F0E94481318
:100C00001D830C8303C0CE010E942105CE01DF911C
:100C1000CF911F910F91FF90EF900895EF92FF9267
:100C20000F931F93CF93DF938C017B0161157105A7
:100C300069F0FB0101900020E9F73197EF01C61B35
:100C4000D70BBE010E94FA04811104C0C8010E94A2
:100C5000210508C0F801D583C483B7018081918143
:100C60000E944813C801DF91CF911F910F91FF900F
:100C7000EF900895FC01808191810C94CF110F9326
:100C80001F93CF93DF93CDB7DEB729970FB6F894B4
:100C9000DEBF0FBECDBF8C01862FF80111821082FE
:100CA000138212821582148250E0BE016F5F7F4F63
:100CB00090E00E947C13BE016F5F7F4FC8010E94CD
:100CC0000E0629960FB6F894DEBF0FBECDBFDF919A
:100CD000CF911F910F910895EF92FF920F931F9361
:100CE000CF93DF93EC01198218821B821A821D8236
:100CF0001C826115710521F18B01FB01019000201F
:100D0000E9F731977F01E61AF70AB7010E94FA0462
:100D1000811109C0CE01DF91CF911F910F91FF90FA
:100D2000EF900C942105FD82EC82B80188819981B5
:100D3000DF91CF911F910F91FF90EF900C9448138A
:100D4000DF91CF911F910F91FF90EF900895CF9376
:100D5000DF93CDB7DEB7AF970FB6F894DEBF0FBE07
:100D6000CDBF789484B5826084BD84B5816084BD34
:100D700085B5826085BD85B5816085BD80916E0039
:100D8000816080936E00109281008091810082606A
:100D900080938100809181008160809381008091A7
:100DA00080008160809380008091B1008460809396
:100DB000B1008091B00081608093B00080917A0092
:100DC000846080937A0080917A00826080937A00B8
:100DD00080917A00816080937A0080917A008068A7
:100DE00080937A001092C100E0918A01F0918B010A
:100DF00082E08083E0918601F09187011082E0918A
:100E00008801F09189019FEC908310929201E0910A
:100E10008E01F0918F0196E09083E0918C01F0912A
:100E20008D01908190619083E0918C01F0918D0112
:100E3000908198609083E0918C01F0918D01908178
:100E400090689083E0918C01F0918D0190819F7D5D
:100E50009083F8948093B0008093B10094E69093CF
:100E6000B3001092B20080937000789480931702C0
:100E700010921B028091180260E00E945F0261E004
:100E800089E00E945F0260E086E00E945F0260E00D
:100E900087E00E945F0260E088E00E945F02F0E26B
:100EA0002F2E312C44244A94542C320181E10E948B
:100EB00006028C0182E10E9406027C0183E10E940D
:100EC0000602000F111F0E0D1F1D000F111F080F2E
:100ED000191F1BA21AA21DA21CA21FA21EA24AE039
:100EE000BE016F5F7F4FC8010E944F13BE016F5F4D
:100EF0007F4FCE0182960E940E0667E171E0CE011F
:100F000001960E946C06BE016E5D7F4FCE01019678
:100F10000E94DC050E945305CE0101960E943A060C
:100F2000CE0182960E943A064AE060910001CE010D
:100F300001960E943F0667E171E0CE0182960E9411
:100F40006C06BE016F5F7F4FCE0182960E94DC056A
:100F50000E945305CE0182960E943A06CE01019668
:100F60000E943A0608301105B0F4F801EC5CFF4F1E
:100F70000C94E30F81E00DC083E00BC085E009C055
:100F800087E007C089E005C08BE003C08FE001C0A7
:100F900082E1809300012EE132E0309375012093CD
:100FA000740180911B0290E0909377018093760109
:100FB0008091E80290E0909379018093780180918C
:100FC0001702853009F0F6C380912002909121022A
:100FD000885891098D35910588F480911B028430E1
:100FE00041F480912202909123028097479708F460
:100FF000FCC180911B02843408F0DEC180911B0289
:101000008A3108F44FC080911E0290911F02843FE4
:10101000914068F4109273011092720140926E0137
:1010200050926F01609270017092710159C080916D
:1010300020029091210285974B97A0F5E4E2F2E01F
:1010400082E090E0C12CD12C7601AC014F5F5F4F64
:1010500020911B0230E0421753075CF4DF01129726
:101060002D913C91275031092730310508F403C2F6
:10107000CA010197959587959093730180937201AA
:101080000C972CF410927301109272010BC0C09255
:101090006E01D0926F01E0927001F092710184E0D4
:1010A00090E00CC380911B028A3108F44CC08091FF
:1010B0001E0290911F028032934008F4ABCF8091C2
:1010C000200290912102C697869708F4F1C13BC097
:1010D000C0926E01D0926F01E0927001F0927101A6
:1010E0008BE090E0EBC220813181255231092B3118
:1010F000310508F0EDC1CC0CDD1CEE1CFF1C689422
:10110000C0F802963496AC014F5F5F4F20911B02EE
:1011100030E04217530754F4DF0112972D913C91B0
:101120002C5031092B303105F0F2CA010197959509
:10113000879590937301809372010C974CF61092EF
:1011400073011092720180911B02823208F44DC02B
:1011500080912002909121020697079708F045C0E0
:10116000E4E2F2E082E090E0C12CD12C76019C0117
:101170002F5F3F4F40911B0250E024173507E4F4E6
:10118000DF0112974D915C9111974E5151094731F2
:10119000510508F0AAC1CC0CDD1CEE1CFF1C6894A4
:1011A000C0F8408151813496435051094530510572
:1011B00010F40296DCCFC90101979595879590931D
:1011C00073018093720140972CF410927301109276
:1011D00072010BC0C0926E01D0926F01E09270015B
:1011E000F09271018CE090E069C21BA21AA2E1E0CA
:1011F000F0E0FA83E98380911B028D3008F46BC024
:1012000049E753E0BE016E5D7F4FCE0101960E941B
:101210006805892B09F05FC049E753E0BE016E5DA8
:101220007F4FCE0101960E946805019709F053C0D7
:1012300049E753E0BE016E5D7F4FCE0101960E94EB
:101240006805892B09F047C0812C912C540100E0DE
:1012500010E080911B0290E029813A81281739071C
:101260005CF549E753E0BE016E5D7F4FCE0101960C
:101270000E9468057C0149E753E0BE016E5D7F4F27
:10128000CE0101960E946805F1E0EF16F10449F4E1
:10129000892B09F5880C991CAA1CBB1C689480F842
:1012A00008C0EF28C1F40197B1F4880C991CAA1C5E
:1012B000BB1C0F5F1F4FCDCF1093730100937201C2
:1012C00080926E0190926F01A0927001B0927101B4
:1012D00021E030E065C21BA21AA281E090E09A836F
:1012E00089838091760190917701181619060CF088
:1012F00058C0E0917401F091750182E090E09A830A
:1013000089838281938189974E9708F04AC023E0B0
:1013100030E03A832983848195810B970A9708F0FE
:1013200040C04CEB51E0BE016E5D7F4FCE01019697
:101330000E946805892BA9F54CEB51E0BE016E5D5A
:101340007F4FCE0101960E946805019751F5812CCF
:10135000912C540100E010E029813A8180917601BE
:1013600090917701281739070CF002C14CEB51E03E
:10137000BE016E5D7F4FCE0101960E9468056C0133
:101380000330110509F0BEC04CEB51E0BE016E5DAB
:101390007F4FCE0101960E946805C816D90609F450
:1013A000B1C0E0917401F091750182819381C6977B
:1013B000869708F4ECC087C18091220290912302A5
:1013C000825491098E9708F019CE80E090E040E0B9
:1013D00050E0BA01FC01EC5DFD4F208131812950C4
:1013E000310929303105C0F009CE80912402909155
:1013F00025020997099708F0FCCD1092730110920D
:10140000720140926E0150926F0160927001709271
:101410007101E3E0F0E08AC2FC01EA5DFD4F20814A
:1014200031812751310922313105C0F4440F551F54
:10143000661F771F416004968038910559F63092F7
:1014400073012092720140936E0150936F0160937B
:1014500070017093710183E090E030C1208131818F
:10146000265031092730310508F0C8CD440F551FEB
:10147000661F771FE0CF20813181235131092F3042
:10148000310548F4CC0CDD1CEE1CFF1C6894C0F840
:1014900002963496DACD208131812A5031092930E3
:1014A000310508F0FFCDCC0CDD1CEE1CFF1CF0CF8D
:1014B0008091220290912302C697869708F043CE2E
:1014C000E6E2F2E083E090E0C12CD12C76011BCE65
:1014D000208131812C5031092A30310508F033CE7A
:1014E000CC0CDD1CEE1CFF1C0CCE4D915C914C50C5
:1014F00051094B30510508F078CECC0CDD1CEE1CA8
:10150000FF1C4FCE4CEB51E0BE016E5D7F4FCE0114
:1015100001960E9468057C010330110569F44CEBCB
:1015200051E0BE016E5D7F4FCE0101960E946805BD
:10153000E816F90609F035CFC114D10459F4EA943C
:10154000EF2809F02ECF880C991CAA1CBB1C6894AC
:1015500080F80BC0CA94CD2809F023CFEF2809F0FA
:1015600020CF880C991CAA1CBB1C0F5F1F4FF4CE08
:10157000109373010093720180926E0190926F013B
:10158000A0927001B092710182E090E097C08481D6
:1015900095814B97459708F096C0DF0116967F011D
:1015A00036ECE30EF11C20E030E040E050E060E07B
:1015B00070E080E090E00D911C91119709501109A5
:1015C0000830110508F07FC012960D911C911397F9
:1015D000015111090D30110568F112960D911C9100
:1015E0001397045011090530110508F06CC001E093
:1015F0000E94E90F1496AE15BF05E9F620936E011F
:1016000030936F01409370015093710100E20E948A
:10161000041020936C0130936D0185E090E090936D
:101620006B0180936A0180E390E090937301809353
:10163000720180C101E00E94E90F2160DBCFA801A7
:1016400042505109DA014D915C914950510948309D
:10165000510508F085C2BC016F5F7F4FD8014D91E5
:101660005C911197475051094730510508F022C449
:10167000220F331F216002960C5F1F4F40911B0207
:1016800050E04450510984179507CCF20197959585
:10169000879590937301809372018A970CF460C2CE
:1016A000C901330FAA0BBB0B80936E0190936F019E
:1016B000A0937001B093710189E090E090936B0169
:1016C00080936A0137C180911B02893340F0828187
:1016D0009381895791098335910508F4E7C2809178
:1016E0001B02823209F4F9C18281938189579109E1
:1016F0008335910508F0C3C080911B02813208F444
:10170000BEC084819581CA97899708F0B8C09F01AF
:101710002A5F3F4FC12CD12C760143E050E0D90124
:101720006D917C916A5071096930710508F0A7C00C
:10173000D90112966D917C911397665171096131AF
:10174000710508F02EC3D701C601880F991FAA1F83
:10175000BB1F6C017D016894C0F84E5F5F4F2C5F2A
:101760003F4F43325105D9F69F012A5B3F4FD901C4
:101770002D913C912A5031092930310508F07FC064
:10178000E0E1F0E0F0937301E0937201C0926E012A
:10179000D0926F01E0927001F092710126E030E08A
:1017A00030936B0120936A01C5C082E080931702D9
:1017B00010921B0220E030E0A90160915D01709160
:1017C0005E0180915F01909160010E94B1138111CF
:1017D0000CC00E94D5020E94B61360935D01709305
:1017E0005E0180935F0190936001C0905D01D09095
:1017F0005E01E0905F01F090600120E030E0A9011F
:10180000C701B6010E94B113882381F00E94D5025E
:101810000E94B613A70196010E94201020E030E03C
:101820004AEF54E40E94351187FF46C10E94A70485
:1018300064E670E080E090E00E949B024AE06091E4
:101840005C01CE0101960E943F066FE271E0CE017D
:1018500082960E946C06BE016F5F7F4FCE0182961A
:101860000E94DC050E945305CE0182960E943A0632
:10187000CE0101960E943A060E94560117CB828142
:1018800093818C549109C59708F02EC180911B0259
:10189000843031F4848195818097479708F491C210
:1018A00080911B02843408F41FC18481958189547E
:1018B0009109C39708F018C19F012A5F3F4FBF01EC
:1018C0006A577F4FC12CD12C7601D9014D915C9183
:1018D000495051094930510508F006C1D901129605
:1018E0004D915C911397465151094131510508F0D2
:1018F0007DC2D701C601880F991FAA1FBB1F6C01AB
:101900007D016894C0F82C5F3F4F26173707E9F632
:101910003092730120927201C0926E01D0926F01D9
:10192000E0927001F0927101E7E0F0E0F0936B015A
:10193000E0936A0100916E0110916F012091700196
:101940003091710119A2CE018196B901A8014F70A1
:10195000552766277727E4E036952795179507954D
:10196000EA95D1F701974A3051056105710510F4E8
:10197000405D01C0495CDC014C9301151105210556
:10198000310519F70E9433058DE191E00E9433057E
:1019900060916E0170916F01809170019091710161
:1019A0001BA21AA21DA21CA21FA21EA220E1AE0110
:1019B0004F5F5F4F0E945A13BE016F5F7F4FCE0192
:1019C00082960E940E06CE0182960E945305CE0199
:1019D00082960E943A0660916E0170916F0180912B
:1019E0007001909171011BA21AA21DA21CA21FA23C
:1019F0001EA220E1AE014F5F5F4F0E945A13BE014D
:101A00006F5F7F4FCE0182960E940E0610925D019D
:101A100010925E0110925F01109260018EA19FA151
:101A2000892B89F060E271E08AA19BA10E943F139B
:101A3000892B49F40E942904811105C061E089E0E5
:101A40000E942F022FC084E291E00E944505809100
:101A50005C018F5F80935C018091580190915901E6
:101A6000A0915A01B0915B01892B8A2B8B2B51F4E9
:101A70000E94D502609358017093590180935A01D6
:101A800090935B010E942904882361F060E089E063
:101A90000E942F020E94A704BC01990F880B990B8A
:101AA0000E949B0282E08093170210921B02CE01DB
:101AB00082960E943A06BACE60E089E00E942F0228
:101AC0008FE391E00E94450510925D0110925E0146
:101AD00010925F0110926001A9CE828193810A97D2
:101AE000099708F442C100CE80911B02863460F150
:101AF000828193810C970B9708F487C125C0D90187
:101B000012966D917C9113976E5171096731710531
:101B100008F0B1C1D701C601880F991FAA1FBB1FCA
:101B20006C017D016894C0F84E5F5F4F2C5F3F4FA2
:101B30004534510509F484C1D9016D917C916C50F3
:101B400071096B307105D8F280911B02883540F025
:101B500082819381855891098B35910508F49BC149
:101B600080911B028032E1F482819381069706976F
:101B7000B8F4848195810997099790F49F012A5FB1
:101B80003F4FBF01625C7F4FC12CD12C7601D90140
:101B90004D915C91465051094630510508F496C16B
:101BA00020917601309177013BA72AA72630310595
:101BB0000CF4FBCD8F010A5F1F4F83E090E099A7E3
:101BC00088A7B5ECCB2EBDE9DB2EBCE1EB2EB1E84E
:101BD000FB2ED8016D917C91F8013497A080B180E3
:101BE00080E090E00E94B6136CA77DA78EA79FA708
:101BF000B50180E090E00E94B6134B015C012DEC32
:101C00003CEC4CE45FE30E9417149B01AC016CA513
:101C10007DA58EA59FA50E94B11387FD19C02DEC4F
:101C20003CEC4CE45FE36CA57DA58EA59FA50E94CE
:101C300017149B01AC01C501B4010E94B113E82F38
:101C4000880FFF0BEE27FF0FEE1FFF27319602C014
:101C5000E0E0F0E0A701960163E971E080E091E047
:101C60000E94D30F6F01FF0FEE08FF08C626D7268C
:101C7000E826F926E8A5F9A53196F9A7E8A70E5FA9
:101C80001F4F2AA53BA5E217F30709F0A2CFC09288
:101C90006E01D0926F01E0927001F092710130926A
:101CA0007301209272018FEF9FEF08CD848195819F
:101CB000CA97899708F013CD9F012A5F3F4FC12C27
:101CC000D12C760143E050E0D9016D917C916A50AE
:101CD00071096930710508F002CDD90112966D9134
:101CE0007C911397665171096131710570F5D701C7
:101CF000C601880F991FAA1FBB1F6C017D01689444
:101D0000C0F84E5F5F4F2C5F3F4F4B335105E1F6FC
:101D10009F012A583F4FD9012D913C912A503109FA
:101D20002930310508F0DBCC2CE130E03093730131
:101D300020937201C0926E01D0926F01E092700107
:101D4000F09271018AE090E0B9CCD90112966D91C0
:101D50007C911397665071096730710508F0BFCC0C
:101D6000CC0CDD1CEE1CFF1CCCCF20911B02CF0144
:101D7000820F911D820F911DDC0112978D919C9114
:101D80000A97099708F0B0CC109273011092720173
:101D900040926E0150926F016092700170927101D9
:101DA000FDCCD90112966D917C9113976650710903
:101DB0006730710508F063CDCC0CDD1CEE1CFF1CF8
:101DC000CCCC868197810997099708F069CD10924C
:101DD00073011092720140926E0150926F016092F5
:101DE00070017092710187E090E068CC12964D917D
:101DF0005C911397465051094730510508F074CE55
:101E0000CC0CDD1CEE1CFF1C7ECD848195810997D6
:101E1000099708F099CE868197818C974F9708F0A3
:101E200093CE8085918589974D9708F08DCE9F013F
:101E3000265F3F4FC12CD12C760145E050E07CCE8F
:101E40009F0126573F4FD9012D913C912C503109CC
:101E50002B30310508F078CE309273012092720158
:101E6000C0926E01D0926F01E0927001F092710108
:101E700088E090E023CCD90112966D917C91139764
:101E8000695071096930710508F05ECECC0CDD1C1B
:101E9000EE1CFF1C49CE84819581825491098E9756
:101EA00008F05ECE8F01045C1F4F8DE190E020E0D2
:101EB00030E0E4CB4D915C914851510942315105DC
:101EC00010F0CB01E3CB220F331FD5CBD9011296F3
:101ED0004D915C911397495151094331510508F5D2
:101EE000D701C601880F991FAA1FBB1F6C017D0176
:101EF0006894C0F82C5F3F4F2617370709F047CE8C
:101F00002EE030E03093730120937201C0926E0195
:101F1000D0926F01E0927001F09271018FE090E039
:101F2000CDCBD90112964D915C911397495051092F
:101F30004930510508F034CECC0CDD1CEE1CFF1CE2
:101F4000D9CFEAE7F1E01382128288EE93E0A0E0B5
:101F5000B0E084839583A683B7838BE091E091837F
:101F6000808385EC90E09587848784EC90E0978768
:101F7000868780EC90E0918B808B81EC90E0938B56
:101F8000828B82EC90E0958B848B86EC90E0978B33
:101F9000868B118E128E138E148EE7E1F2E08BE0A9
:101FA000818313820895DB018F939F930E94D51440
:101FB000BF91AF91A29F800D911DA39F900DB29FE5
:101FC000900D11240895EE0FFF1F0590F491E02D60
:101FD00009940F93083090F0982F872F762F652F54
:101FE000542F432F322F22270850F4CF220F331FB4
:101FF000441F551F661F771F881F991F0A95B2F748
:102000000F91089597FB10F8169400080F9308306D
:1020100098F00850232F342F452F562F672F782FF5
:10202000892F902DF4CF059497958795779567958F
:1020300057954795379527950A95AAF70F910895D3
:102040005058BB27AA270E9438100C949B140E945A
:102050008D1438F00E94941420F039F49F3F19F445
:1020600026F40C948A140EF4E095E7FB0C94841487
:10207000E92F0E94AC1458F3BA176207730784075C
:10208000950720F079F4A6F50C94CE140EF4E095A3
:102090000B2EBA2FA02D0B01B90190010C01CA0122
:1020A000A0011124FF27591B99F0593F50F4503ECD
:1020B00068F11A16F040A22F232F342F4427585FBF
:1020C000F3CF469537952795A795F0405395C9F7D7
:1020D0007EF41F16BA0B620B730B840BBAF091508F
:1020E000A1F0FF0FBB1F661F771F881FC2F70EC02E
:1020F000BA0F621F731F841F48F487957795679501
:10210000B795F7959E3F08F0B0CF9395880F08F0EC
:102110009927EE0F9795879508950E94A1100C942A
:102120009B140E94941458F00E948D1440F029F4DE
:102130005F3F29F00C94841451110C94CF140C942B
:102140008A140E94AC1468F39923B1F3552391F3D8
:10215000951B550BBB27AA2762177307840738F016
:102160009F5F5F4F220F331F441FAA1FA9F335D073
:102170000E2E3AF0E0E832D091505040E695001C27
:10218000CAF72BD0FE2F29D0660F771F881FBB1FE1
:10219000261737074807AB07B0E809F0BB0B802DBF
:1021A000BF01FF2793585F4F3AF09E3F510578F0EB
:1021B0000C9484140C94CF145F3FE4F3983ED4F352
:1021C000869577956795B795F7959F5FC9F7880FBF
:1021D000911D9695879597F90895E1E0660F771F11
:1021E000881FBB1F621773078407BA0720F0621BA2
:1021F000730B840BBA0BEE1F88F7E09508950E94CD
:1022000006116894B1110C94CF1408950E94B4146F
:1022100088F09F5798F0B92F9927B751B0F0E1F0A7
:10222000660F771F881F991F1AF0BA95C9F714C057
:10223000B13091F00E94CE14B1E008950C94CE1408
:10224000672F782F8827B85F39F0B93FCCF3869590
:1022500077956795B395D9F73EF4909580957095ED
:1022600061957F4F8F4F9F4F08950E94F31308F49D
:102270008FEF0895CF93DF938230910510F482E0C1
:1022800090E0E091EC02F091ED0220E030E0C0E05F
:10229000D0E0309711F14081518148175907C0F0C3
:1022A0004817590761F482819381209719F09B8325
:1022B0008A832BC09093ED028093EC0226C02115F7
:1022C000310519F04217530718F49A01BE01DF01D6
:1022D000EF010280F381E02DDCCF2115310509F1FA
:1022E000281B390B2430310590F412968D919C9166
:1022F00013976115710521F0FB019383828304C05C
:102300009093ED028093EC02FD01329644C0FD01F2
:10231000E20FF31F81939193225031092D933C9347
:102320003AC02091EA023091EB02232B41F4209134
:102330000301309104013093EB022093EA022091D3
:102340000101309102012115310541F42DB73EB74D
:102350004091050150910601241B350BE091EA02E2
:10236000F091EB02E217F307A0F42E1B3F0B2817A6
:10237000390778F0AC014E5F5F4F2417350748F0FE
:102380004E0F5F1F5093EB024093EA0281939193AB
:1023900002C0E0E0F0E0CF01DF91CF9108950F930C
:1023A0001F93CF93DF93009709F48CC0FC01329701
:1023B000138212820091EC021091ED0201151105B9
:1023C00081F420813181820F931F2091EA023091A4
:1023D000EB022817390779F5F093EB02E093EA0254
:1023E00071C0D80140E050E0AE17BF0750F412961C
:1023F0002D913C911397AD012115310509F1D901BA
:10240000F3CF9D01DA013383228360817181860FCE
:10241000971F8217930769F4EC0128813981260FF1
:10242000371F2E5F3F4F318320838A819B819383A7
:102430008283452B29F4F093ED02E093EC0242C035
:102440001396FC93EE931297ED01499159919E01D9
:10245000240F351FE217F30771F480819181840FF7
:10246000951F029611969C938E9382819381139669
:102470009C938E931297E0E0F0E0D80112968D9134
:102480009C911397009719F0F8018C01F6CF8D916C
:102490009C9198012E5F3F4F820F931F2091EA027B
:1024A0003091EB022817390769F4309729F410921C
:1024B000ED021092EC0202C0138212821093EB0222
:1024C0000093EA02DF91CF911F910F910895A0E050
:1024D000B0E0EDE6F2E10C94E414EC01009721F495
:1024E000CB010E943A11B8C0FC01E60FF71F9C0116
:1024F00022503109E217F30708F4ACC0D9010D915D
:102500001C91119706171707B0F00530110508F454
:102510009FC0C80104978617970708F499C0025016
:102520001109061B170B019311936D937C93CF0137
:102530000E94CF118DC05B01A01AB10A4C01800E20
:10254000911EA091EC02B091ED0240E050E0E12C30
:10255000F12C109709F44AC0A815B905D1F56D9072
:102560007C901197630182E0C80ED11CCA14DB0471
:1025700080F1A3014A195B096A0182E0C80ED11CEF
:102580001296BC9012971396AC91B5E0CB16D1047D
:1025900040F0B282A38351834083D9016D937C9331
:1025A0000AC00E5F1F4FC301800F911FF901918375
:1025B0008083EB2DFA2FE114F10431F0D70113964B
:1025C000FC93EE93129744C0F093ED02E093EC027B
:1025D0003FC08D919C9111974817590708F4AC01A1
:1025E0007D0112960D90BC91A02DB3CF8091EA028F
:1025F0009091EB0288159905E1F446175707C8F446
:102600008091010190910201009741F48DB79EB72E
:102610004091050150910601841B950BE817F907BD
:10262000C8F4F093EB02E093EA02F901718360834E
:102630000FC0CB010E943A117C01009759F0A8010C
:10264000BE010E943613CE010E94CF11C70104C003
:10265000CE0102C080E090E0CDB7DEB7EEE00C9492
:10266000001581E090E0F8940C942615FB01DC0144
:1026700002C001900D9241505040D8F70895FB01DF
:10268000DC018D91019080190110D9F3990B089507
:10269000FB01DC0101900D920020E1F70895BB27BA
:1026A0004A3031F4992322F4BDE2909581959F4FF1
:1026B0000C948813BB27FA01A62F621771058105B8
:1026C0009105330B30FB66F0AA27660F771F881F32
:1026D000991FAA1FA21710F0A21B63953850A9F7E3
:1026E000A05DAA3308F0A95DA19336F7B111B193AB
:1026F0001082CA010C94A1134532510520F44230D6
:1027000010F00C948713FB011082CB010895BB27B6
:10271000FB015527AA27880F991FAA1FA41710F09D
:10272000A41B83955051B9F7A05DAA3308F0A95DA9
:10273000A193009779F7B111B1931192CB010C9449
:10274000A113DC01FC01672F71917723E1F7329728
:1027500004C07C916D9370836291AE17BF07C8F37C
:1027600008950E94F31308F481E00895E89409C0E5
:1027700097FB3EF490958095709561957F4F8F4FB4
:102780009F4F9923A9F0F92F96E9BB279395F695CA
:10279000879577956795B795F111F8CFFAF4BB0F48
:1027A00011F460FF1BC06F5F7F4F8F4F9F4F16C0AC
:1027B000882311F096E911C0772321F09EE8872F36
:1027C000762F05C0662371F096E8862F70E060E0F2
:1027D0002AF09A95660F771F881FDAF7880F96956B
:1027E000879597F90895990F0008550FAA0BE0E80F
:1027F000FEEF16161706E807F907C0F012161306C3
:10280000E407F50798F0621B730B840B950B39F402
:102810000A2661F0232B242B252B21F408950A2668
:1028200009F4A140A6958FEF811D811D08950E9496
:102830002A140C949B140E948D1438F00E94941456
:1028400020F0952311F00C9484140C948A14112414
:102850000C94CF140E94AC1470F3959FC1F3950FA4
:1028600050E0551F629FF001729FBB27F00DB11D14
:10287000639FAA27F00DB11DAA1F649F6627B00DA4
:10288000A11D661F829F2227B00DA11D621F739F8D
:10289000B00DA11D621F839FA00D611D221F749F9B
:1028A0003327A00D611D231F849F600D211D822FE2
:1028B000762F6A2F11249F5750409AF0F1F0882309
:1028C0004AF0EE0FFF1FBB1F661F771F881F915036
:1028D0005040A9F79E3F510580F00C9484140C944D
:1028E000CF145F3FE4F3983ED4F3869577956795D0
:1028F000B795F795E7959F5FC1F7FE2B880F911D60
:102900009695879597F9089597F99F6780E870E005
:1029100060E008959FEF80EC089500240A94161655
:10292000170618060906089500240A9412161306BD
:10293000140605060895092E0394000C11F488234B
:1029400052F0BB0F40F4BF2B11F460FF04C06F5F67
:102950007F4F8F4F9F4F089557FD9058440F551F3D
:1029600059F05F3F71F04795880F97FB991F61F011
:102970009F3F79F087950895121613061406551F88
:10298000F2CF4695F1DF08C0161617061806991FF4
:10299000F1CF86957105610508940895E894BB27E9
:1029A00066277727CB0197F908950E941715A59FF1
:1029B000900DB49F900DA49F800D911D112408953A
:1029C0002F923F924F925F926F927F928F929F923F
:1029D000AF92BF92CF92DF92EF92FF920F931F932D
:1029E000CF93DF93CDB7DEB7CA1BDB0B0FB6F894DE
:1029F000DEBF0FBECDBF09942A88398848885F841E
:102A00006E847D848C849B84AA84B984C884DF808E
:102A1000EE80FD800C811B81AA81B981CE0FD11D72
:102A20000FB6F894DEBF0FBECDBFED010895A29F93
:102A3000B001B39FC001A39F700D811D1124911D92
:102A4000B29F700D811D1124911D0895F894FFCF40
:102A5000040000EE02800000000000ED00CD04B68E
:102A6000009400A8003401646464643A000D0A0014
:102A70006139300057524F4E4720434F4445006163
:102A8000736473616A646C6861736B6A643A006E44
:102A90006973737373737373737373737373737310
:082AA000737300646F7A640097
:00000001FF
